:020000040000fa
:0200000400fffb
:08fff80004c004007f000000ba
:020000040000fa
:0200000400fffb
:10800800afc421000eff2d000e0188000000000003
:108018000c000700a0ac2f00f10720000f0007009c
:10802800000020000000e000020032000000020012
:1080380000000000acfa02007f0000000040da00f7
:108048000000fe00a01520000000e0000200320041
:10805800f02f20009001880000000600a10288008f
:10806800800078000000eb001a003700e280400032
:1080780054a0b4009101ba00e280400054a0b400ba
:108088009102ba00e280400054a0b4000002eb0064
:10809800472bde00f507b200a6018800602ce1003e
:1080a80008003a000049eb000201e800020039002c
:1080b8003420ec0002f0a0008301e900f9ff3e0043
:1080c800040037006128e100010032000082eb0063
:1080d800040007001101ba000200e000e3ff3a00c3
:1080e8000000060004d0a300e20f49001c0039007c
:1080f800810278003549ba000201e800020039001f
:108108003420ec0002f0a0008301e9000f003200e7
:108118002549ba000201e800020039003420ec00c9
:1081280002f0a0008301e900080032000400e0002a
:108138000600320015c9ba000201e8000200390041
:108148003420ec0002f0a0008301e9008180e800ff
:1081580054a0b4000300e000e2ff3a00000006006b
:108168009102ba00055978008301e900f7ff32004f
:10817800c82ade00055978008301e900f3ff3200c0
:108188000400e000f1ff320011d9ba00eeff370019
:108198000040da000000fe00020ab900001bb90026
:1081a8000200b80081004200810043000000060080
:1081b800800078001106b100030035009101b1007c
:1081c80001003c000050a10000000600800078007b
:1081d8001104b100030035009101b10001003c0019
:1081e8000050a000000006006022b800060220002f
:1081f8000000d0008180d2000482d2008582d200a3
:108208000000a0000202520083825a0003003100dd
:108218000202420083824a000000a1000603e9002e
:10822800f3ff3a0000000600800278008001780021
:1082380002027800070037000402e90031407800a4
:10824800805978000004e00002003a000000eb00ca
:108258000600370002804200808f5100f6ff3a0086
:10826800faff37008059eb000000e800840f500047
:10827800fcff3a00050078000000060000027800c4
:108288008001eb0002003700015a78008301e80002
:10829800828f5100fcff3a00000006008000780041
:1082a8003004e000feff3a00010050000000e90041
:1082b80000000600000278008001eb000200370091
:1082c800315a78008301e800828f5100fcff3a00a0
:0482d800000006009c
:020000040000fa
:0200000401f009
:04000c00f8ff0000f9
:020000040000fa
:0200000401f009
:040010005dff000090
:020000040000fa
:0200000401f009
:040014007fff00006a
:020000040000fa
:0200000401f009
:04001800cfff000016
:020000040000fa
:0200000401f009
:04001c00d9ff000008
:020000040000fa
:0200000400fffb
:04fff400ccc07f00fe
:020000040000fa
:0200000400fffb
:1082dc0000c20000ccc1000092c1000078c10000b7
:1082ec0004c200001a03000031000000320000003c
:1082fc0033000000340000003500000036000000a0
:10830c003700000038000000390000003900000080
:10831c0039000000390000003a0300004d00000055
:10832c006900000063000000720000006f00000094
:10833c00630000006800000069000000700000008d
:10834c00200000004d0000006100000073000000e0
:10835c0073000000200000005300000074000000b7
:10836c006f00000072000000610000006700000058
:10837c0065000000200000004400000072000000b6
:10838c006900000076000000650000003403000066
:10839c004d00000069000000630000007200000046
:1083ac006f0000006300000068000000690000001e
:1083bc007000000020000000540000006500000068
:1083cc0063000000680000006e0000006f000000f9
:1083dc006c0000006f0000006700000079000000d6
:1083ec0020000000490000006e0000006300000047
:1083fc002e00000004030000090400000902000024
:10840c00200000000101000000c000003209000043
:10841c0004000000000200000806000050000000ec
:10842c00070500008102000040000000000700006a
:10843c0005010000024000000000000012010000d5
:10844c00100100000000000000080000d80400002b
:10845c0009000000010000000102000003010000ff
:10846c0041550000415600003320000044610000db
:10847c0074610000200800000000000000000000f3
:10848c0000110000001100000000000000000000be
:10849c0000110000000000000000000000000000bf
:1084ac00f8ff0000ffeb00003c9000004d53000073
:1084bc00444f0000533500002e3000000002000035
:1084cc00010100000001000040000000002000003d
:1084dc00f8200000003f000000ff0000000000003a
:1084ec000000000000000000000000000080000000
:1084fc00002900003267000094c400004e4f0000b9
:10850c00204e0000414d00004520000020200000be
:10851c0020460000415400003136000020200000ad
:10852c002000000000800000040200002000000079
:10853c00000000004d690000637200006f630000d2
:10854c00687000004d610000737300002053000040
:10855c00746f00007261000067650000202000004d
:10856c00202000003030000030310000720000008c
:10857c00696d000061670000652e000068650000f1
:04858c007800000073
:020000040000fa
:0200000400fffb
:10859000881f7800000478000202be00e10f51003d
:1085a000e08f59000d003e00a04890008180fb0044
:1085b000304890004800dd0001017000c84890007c
:1085c0008180fb00584890004800dd008101700068
:1085d0000200420083804a0012003700620051000e
:1085e000e0805900186190000281fb000300200028
:1085f000ebfe0700e84990008381fb00784990007a
:108600004811dd0003027100885190008381fb0056
:10861000185190004811dd008302710000004200f3
:1086200081804a004f0478000000060080804000ee
:108630001180fb0000000600810040000100e800fe
:108640001080fb004800dd009180fb0001007000fd
:1086500000000600889fbe008a9fbe00800478004c
:10866000010478008180e800f3ff0700010020008a
:10867000c005dd000a0020008800780009007800ad
:10868000edff0700010020000000750081807500eb
:108690004f05be004f04be00000006008000eb0046
:1086a00021089800500890000100200000000600fa
:1086b000889fbe00c9df800019047800390190004e
:1086c000c901900008007800b1ff07000002be0059
:1086d0001880fb00184190004811dd000001710076
:1086e0005900900000004200e0804a008041eb0009
:1086f000e91b0700910020000004e00002003200a6
:10870000f37bef008000eb00010078004f04be0017
:1087100000000600889fbe008a1f78008c9fbe0064
:1087200010047800101e9000a01e90001100780028
:1087300001002000885a90008582fb00185a9000a2
:108740004822dd0005017200a85a90008582fb00d6
:10875000385a90004822dd00850172004b1add0076
:108760004511de0002017200c519de00a0fe0700ff
:1087700080447800286090000040e900e14f5000fc
:108780000b003e00d0da8000e1da8000800f560056
:10879000818f5e00060032000980fb0018619000a6
:1087a0000281fb00110009000280d800814478009a
:1087b0001880fb0098409000c808dd00008570001c
:1087c0000c01be000800780071ff07000981fb0062
:1087d0000300200000004100818049008041eb003f
:1087e0000a017800ac1b07000080fb000000e900d4
:1087f0004f00de000004a2000080fb004f06be0018
:108800004f0578004f04be0000000600ee874700c9
:10881000889fbe008a9fbe008c9fbe008e1f78007e
:10882000000678000203be00d4b79f00e5b79f00a2
:10883000206090000040e900e14f5000e7003e005a
:10884000f17bef000104e0001c003200e8df800053
:10885000f9df80000005eb00130037008041eb00da
:10886000826821000800be008b1b07000a05e80093
:108870000004e000d9003200cc5890008180fb0059
:108880005c5890004800dd0001017000ec58900039
:108890008180fb007c5890004800dd008101700061
:1088a00008044100898449000c6090008a4f500000
:1088b000eaff3e00fa7bef00c60037002c60900014
:1088c000e14f500008003a00320020000300200071
:1088d0000600be0032fe0700614760008102d10041
:1088e0000082d30003003700020241008382490066
:1088f000014778008c5890008180fb001c58900044
:108900004800dd0001047000ac5890008180fb003d
:108910003c5890004800dd0081047000ec4090005d
:108920008180fb007c4090004800dd000105700064
:108930008c4890008180fb001c4890004800dd00be
:10894000810570000801be000400be00f4b79f005e
:1089500085bf9f0026fe07000a0540008b85480062
:10896000bab79f00cbb79f0061045400e0845c005d
:108970007fb297008fba970084006400058064007e
:1089800080017800010178000205be00e8df800068
:10899000f9df80003fb09700cfb09700800f540000
:1089a000818f5c00250032008006eb00fa5be2005c
:1089b00014003a00170037008041eb008268210064
:1089c0000800be00341b07008d06e8000004e0002c
:1089d00082003200cc5890008180fb005c589000ef
:1089e0004800dd0001017000ec5890008180fb0020
:1089f0007c5890004800dd008101700008044100af
:108a0000898449000c6090008d4f5000eaff3e00c1
:108a1000fa7bef00826821003fb09700cfb097004b
:108a2000121b07000004e0004c0032003fb1970029
:108a3000cfb19700e2df8800f3df88002c60900060
:108a4000e24f500010003a0080682100000045000d
:108a5000afe99700034878009068210000014500c5
:108a600000f02f00dfb29700050060000100200039
:108a7000c809dd004800de0000807100c808de0083
:108a80000049780051003700e14f50004f003a0094
:108a90008068210000014500124078000e04e000cb
:108aa00005003200afea9700c428dd006f40600087
:108ab00000c07000010037002fe8970000497800df
:108ac00061024500e0824d008c5990008381fb00db
:108ad0001c5990004811dd0003007100ac59900052
:108ae0008381fb003c5990004811dd008300710038
:108af00061005000e08058000401600005806000c3
:108b000080007800020078000004be00e00f5400ee
:108b1000e08f5c0016003a0011c0b3000802be00ee
:108b20000801be000c00780038ff0700e00f50007d
:108b3000e08f580029003a003fb09700cfb097006f
:108b400061054000e0854800826821000a00be00ff
:108b5000c61a07000004e00003003a00fcbbef0067
:108b6000fe3bef001d003700eadf8800fbdf8800d6
:108b70008068210000024400144378000e04e000e5
:108b8000070032005fb19700efb19700cc1add000b
:108b90004410de0000807200c418de000a003700b6
:108ba0005fb19700efb19700c81add004810de00f2
:108bb00000807200c818de006f40600002cfb30072
:108bc0000241630002407000004a780010c0b30008
:108bd000fafbb7006000b80002003700f0ff2f007a
:108be000010020004f0778004f06be004f05be0071
:108bf0004f04be00ef00b10000000600ee87470002
:108c0000889fbe008a9fbe008c9fbe008e1f78008a
:108c1000000678000200be00f17bef00ac66900019
:108c2000e1cf56000b003a00320020000300200084
:108c30005bfd0700614760008102d1000082d30024
:108c400080ff200001002000b0b79f00c1b79f0047
:108c50000700370002024100838249000047eb0011
:108c600082ff2f0003002000b2b79f00c3b79f0010
:108c70008c5890008180fb001c5890004800dd005b
:108c800001047000ac5890008180fb003c589000bb
:108c90004800dd0081047000ec4090008180fb0002
:108ca0007c4090004800dd00010570008c48900079
:108cb0008180fb001c4890004800dd0081057000a9
:108cc0000801be000400be00f4b79f0085bf9f00ee
:108cd00047fd07000a0540008b85480061045400e9
:108ce000e0845c000803be007fb297008fba970053
:108cf0008400640005806400800178000101780030
:108d00000204be00e0df8000f1df80008a0f500027
:108d10008b8f58004a003a00e2cf56005f003200c5
:108d2000e1cf560096003a0083682100030044001a
:108d3000104078000081fb0003002000d2b79f00a4
:108d4000e3b79f000e04e000060032004c18dd007f
:108d50004411de0002017000c419de00d2b79f008a
:108d6000e3b79f0061004400e0804c000001630015
:108d70000180630080007800020078000004be00db
:108d8000e00f5400e08f5c0016003a00fa5be2004e
:108d9000080032008d4078000802be000801be00c5
:108da0000c00780099fe0700e00f5000e08f58009b
:108db0007b003a0061054500e0854d008268210096
:108dc0000a00be00291a07000004e00003003a0070
:108dd000fcbbef00fe3bef0071003700eadf8800cc
:108de000fbdf88008068210000004400104078000c
:108df0000080fb00010020000e04e00005003200ae
:108e00004409dd00cc00de00810071004400dd007b
:108e1000060037006f00600001002000c808dd0078
:108e20000080fd00804078000040eb005fb19700bb
:108e3000efb19700020040008380480051003700e6
:108e4000fa5be2000800320011c0b3006022b800f3
:108e50000401be000c0078006cfe0700e00f50001b
:108e6000e08f58004e003a00826821000a00be00e0
:108e7000fe1907000004e00003003a00fcbbef000d
:108e8000fe3bef0046003700eadf8800fbdf88008a
:108e90002c609000e24f500005003a0080682100ed
:108ea0000000440010007800010020003500370069
:108eb000e14f500032003a008a6821000a00440065
:108ec000104078000083fb00070020000e04e00043
:108ed000040032004c38dd004433de00060370002d
:108ee000c43bde0061024400e0824c008c599000db
:108ef0008381fb001c5990004811dd0003007100c4
:108f0000ac5990008381fb003c5990004811dd0072
:108f10008300710061005000e0805800040160008f
:108f20000580600080027800020278000400be0024
:108f300000004500104078000080fb000100200088
:108f40000e04e000050032004409dd00cc00de0024
:108f5000810071004400dd00060037006f006000f2
:108f600001002000c808dd000080fd00804078007e
:108f70000040eb00060040008780480001003700f9
:108f80006000b8003fb19700cfb19700820f50004a
:108f9000838f5800040039000200be000200370031
:108fa000f0ff2f00010020004f0778004f06be00a1
:108fb0004f05be004f04be00ef00b10000000600e8
:108fc000e8874700889fbe008a9fbe008c9fbe0036
:108fd0008e1f780000067800f1b79f0082f79f008f
:108fe0009005780070129000801a9000101c90007c
:108ff000a01c9000110378008b5890008180fb002a
:109000001b5890004800dd0001017000ab58900033
:109010008180fb003b5890004800dd00810170001a
:109020004b18dd004511de0002017000c519de009d
:109030000281fb00e2b79f00110009000283d80003
:109040008101780000477800e00f5200e08f5a005d
:10905000060032000080fb001b6190000281fb00d3
:10906000110009000280d800014778000ff1970035
:109070000204e00002003a006f00630076003a004c
:109080000e04e00003003a00efb19700830f530095
:10909000030031000ff097000004e0001c003200d4
:1090a000e00f5200e08f5a0002003a000404be00b4
:1090b0001a0037000ff197000204e00009003200a7
:1090c0001b6190000281fb00efb197008219b8008c
:1090d000110009000283d8000001780002457800e1
:1090e000090037001ac0b3000801be000b00780069
:1090f000c2fe07000004be00e90f4000e08f5800e8
:1091000051003e000a45e9000a04e000f6ff3a007b
:10911000e90f4400e08f5c004b003e00181e9800f1
:10912000291e98000801be000b00780018fd0700fa
:109130000006be00d0da8000e1da8000800f540023
:10914000818f5c0015003a000e82fb0005002000b4
:109150000c0242008d824a00eb4890008180fb00a7
:109160007b4890004800dd00010170008b509000aa
:109170008180fb001b5090004800dd0081017000e1
:10918000820f5200838f5a00040039002b60900038
:109190008000eb00e34f500035003a00f35be20043
:1091a0000400320042fd07008000eb000004e000f4
:1091b0002f003a00f83bef00f17bef001b80fb0033
:1091c0001b4190004811dd00000171000e80fb0082
:1091d000010020000c0040008d804800231907008a
:1091e0008000eb00e14f500014003a001b4090005b
:1091f0009b80fb000ff197000204e0000d0032009d
:109200004800dd0001007000ffb197009300780076
:10921000efb19700801f7800110009008380d8000b
:10922000010178004f0078004511dd008200400008
:10923000020037004800dd0081007000f4bbef0041
:10924000f6bbef000a00370010c0b300f2fbb70016
:109250008000eb00060037001b80fb009b40900065
:10926000c808dd00808070004518dd008080400067
:10927000010078004f0778004f06be004f05be0082
:109280004f04be008f00b100000006000800fa0085
:10929000889fbe008a9fbe008c1f780080057800e2
:1092a00092bf9f00a3bf9f00100578002a60900026
:1092b00082ff200003002000f2b79f0083bf9f00c1
:1092c000e14f50000400320080ff2f000100200019
:1092d000f0b79f0081bf9f001fbc9700afbc9700f5
:1092e0000046eb003b019000cb0190000a007800a3
:1092f00042fe07000002be00e10f4000e08f580070
:1093000002003a008cc0b30016003700ca5090002b
:109310008180fb005a5090004800dd000101700080
:10932000ea5090008180fb007a5090004800dd00f8
:109330008101700062014100e0814900820f52000a
:10934000838f5a0001003900acc0b3007fb1970091
:109350008fb99700820f5200838f5a0001003900a5
:10936000ccc3b300b4059800c5059800610454004f
:10937000e0845c00020032000c04e000d9ff3200ff
:109380000c80fb004f0678004f05be004f04be0066
:109390000080fa00000006000400fa00889fbe006a
:1093a0008a9fbe008c9fbe000005be00820678002a
:1093b0002260900082ff20000300200082bf9f00f7
:1093c00093bf9f00e14f50000400320080ff2f0048
:1093d0000100200080bf9f0091bf9f00e10f55005a
:1093e000e08f5d001d0036000a01be000d00780010
:1093f00002fe07000004be00e10f4000e08f5800ad
:1094000018003200e10f5000e08f580013003600c2
:109410002c0020000fb997009fb99700820f5000d1
:10942000838f5800010031000006eb008040eb0004
:109430006022b8000a01be000d007800f3fc0700ae
:10944000e10f4000e08f5800060032000805be0022
:109450000c00e00004003a00e3ff37002c0020007d
:10946000010037001c00200011c0b3006022b800ca
:109470000401be000d007800e4fc07000c10a200ff
:109480000c00ea004f00de00610010004f06be0035
:109490004f05be004f04be000080fa000000060029
:1094a000889fbe0080047800010478008018900036
:1094b00070109000901c9800a11c980012c0b3007e
:1094c0008800780009007800bdfe07000000e00079
:1094d00011003200904078000104e0000e003200dc
:1094e000fbcf40000c00320007003700180ce800ea
:1094f0000041eb008800780009007800b0fe07000a
:109500000000e00004003200b0489000efcf5000af
:10951000f6ff3200010037000000eb004f04be00f0
:1095200000000600889fbe008a9fbe00800478006d
:109530000105780082457800801890007010900036
:10954000901c9800a11c980012c0b3008a007800fb
:10955000090078009afe070000047800b00120009e
:109560000800e0002d003200fc804400b200200022
:10957000080078002efb070000c1b300f2cf5500b1
:109580000100320000c2b300304c98000040eb00f4
:10959000404c98008005eb002b0c98005b0c980069
:1095a0006011b800620c9800730c980020cbb300d7
:1095b000504c98008427270074049800012b230046
:1095c000010c9800110c980090272700300c98008f
:1095d000410c9800920c9800a30c9800c40c9800c1
:1095e00088089000d10c9800384890000080fb005b
:1095f000e01498001a007800c01498008a007800df
:109600000900780043fc070091c0b300e14f50000f
:1096100001003a008b4078000180fb004f05be003e
:109620004f04be00000006000400fa00889fbe0040
:109630008a9fbe008c1f78001006780030059000cd
:10964000c00590002c60900072ff200003002000f5
:1096500092bf9f00a3bf9f00e14f50000400320063
:1096600070ff2f000100200090bf9f00a1bf9f004e
:10967000e10f5500e08f5d0002003e002a0020004f
:109680000b0020000a01be000c0078005bfd070003
:109690000a04be00240037000801be000c00780058
:1096a00056fd0700e10f4000e08f58002200320015
:1096b000e00f5000e08f58002000320061044400a9
:1096c000e0844c001fb99700afb99700820f50009b
:1096d000838f58000f003200cc5090008180fb0037
:1096e0005c5090004800dd0001017000ec509000db
:1096f0008180fb007c5090004800dd0081017000fb
:1097000062014100e0814900820f5400838f5c00b8
:109710000200390028002000090020008a0f5400b0
:109720008b8f5c0004003200e00f5400e08f5c007f
:10973000d9ff3a00010037006044b8000800be00bd
:109740004f0678004f05be004f04be000080fa00af
:1097500000000600881f7800800378003008900021
:109760007f436000c500de00f3c3b30003c16000a7
:10977000cb01de00470890007f4260008000780047
:10978000011eb200c50ade004904de00fc4f530092
:1097900002003e000640e80021003700a0c3b300ed
:1097a000804f510003003e000241e8000040eb0002
:1097b0001b003700f6cf510004003e008341e80053
:1097c0000040eb000041780015003700fd4f5200cb
:1097d00005003e000442e8000040eb000041780034
:1097e000804178000e003700ebcf520006003e00ab
:1097f0008542e8000040eb0000417800804178009d
:1098000014c0b300060037000844e8000040eb0035
:10981000004178008041780014c0b3008442780091
:109820008080fb000280fb004500dd00808070002e
:109830004b18dd0080807000b10b98008480fb0025
:109840000580fb004500dd00808070004940dd00a0
:1098500080807000c10b98004f0478000000060063
:109860000200fa00889fbe0080047800587bef0059
:1098700040109000d0bf9f00390890008104200064
:109880000008a30033003200f35be2000500320061
:1098900087fb07000004e0000200320090c0b30024
:1098a0001200370011c0b3006022b8000401be00ee
:1098b00019007800d5fb0700fc3bef00fe3bef00f2
:1098c00039019000c901900019007800cbfc070015
:1098d000e680570009007800f1fe070000047800d8
:1098e0000000e00004003a00b0c1b30058fbb7002c
:1098f0008080eb002300370096ff070019089000d6
:10990000a9089000600c9800710c9800c96890003c
:10991000314c9800e6805700090078007dfb070075
:109920000004e00005003200e680570009007800de
:10993000dbfe07008000eb000300370090c0b3009f
:1099400058fbb7008080eb00390890000000a100b0
:10995000b00c9800390890000010a100b00c9800dd
:1099600000b62100808f540002003a0010c0b300fe
:109970005efbb70080042000808f500001003a0099
:109980008000eb00010078004f04be000080fa0068
:109990000000060000027800810178000001eb0061
:1099a0006503200082004200028041009048780058
:1099b0000201e800850f5100faff3a00000006009e
:1099c000587bef00800890007000900000000600b7
:1099d000881f780000047800f35be2000100320089
:1099e00033fb07006000b80070049800010c980079
:1099f0000000eb00600498005004980018019000eb
:109a0000a80190003204980043049800c0df880049
:109a10004f0478000000060058dbbf000080fb0008
:109a200000000600889fbe008a9fbe008c9fbe007b
:109a300000047800d6fa07000006be00f35be200df
:109a4000040032001afb0700910020000004e0002f
:109a500027003a00f83bef00f15be2000d003a000e
:109a6000885890008180fb00185890004800dd0065
:109a7000010170009880fb00184090004800dd0054
:109a8000010070008000eb00fef9070010c0b30079
:109a9000f1fbb7000c02be008044eb000d00370064
:109aa00061054200e0854a001880fb0018419000e3
:109ab0004811dd0000017100894178000400be00fa
:109ac000f5160700e14f50000100320099c0b300c5
:109ad0000a02be008c4052001860900080cf5000f7
:109ae000020031000904e000edff32008980fb0034
:109af000010078004f06be004f05be004f04be00b7
:109b000000000600889fbe008104780010047800e1
:109b1000c5fe07000001be00808cbe005001200081
:109b2000e00f5100e08f59001700320028609000cc
:109b3000e14f500004003a008040eb0084ff200019
:109b40000500200005003700e24f50000a003a00ef
:109b50008040eb0084ff2f00050020000800780003
:109b60002afb0700e10f4000e08f580002003a0096
:109b700090002000040037001901be0008007800a2
:109b8000a8ff07000080fb004f04be000000060095
:109b90000600fa00889fbe0080047800ea80570023
:109ba000401090008018780009007800d5ff070069
:109bb000000478000000e0000c003a00ea80570042
:109bc0000900780036fe0700cfb8970051089800ca
:109bd00028089800ea80570009007800cdfa0700ad
:109be000e14f50000100320098002000080078008a
:109bf0004f04be000080fa0000000600889fbe00ef
:109c00008a9fbe008c1f780080057800014678008e
:109c10001005780084fe07000004be0050012000fb
:109c2000e00f5400e08f5c001e0032002a609000bc
:109c3000e14f500004003a008040eb0084ff200018
:109c40000500200005003700e24f500006003a00f2
:109c50008040eb0084ff2f00050020000801be00bb
:109c60000a007800e9fa07003b019000cb01900060
:109c70008040eb000802be000a007800e3fa07000b
:109c8000b8059800c90598000000eb00e14f5600a8
:109c900004003a000801be000a00780061ff0700d6
:109ca0000080fb004f0678004f05be004f04be0049
:109cb00000000600e4874700889fbe008a9fbe0020
:109cc0008c9fbe008e1f780000077800100078007f
:109cd00080bf9f00e18f500004003200e28f5000ef
:109ce000070032000206be00090037007e00900027
:109cf0008e0890000206400083864800040037006a
:109d00001e089000ae08900002065000838658009e
:109d1000f35be2000500320065fa07000004e00092
:109d20000200320090c0b3000a0037001e0090000d
:109d3000ae00900030079800410798001e08900080
:109d4000ae089000800f5600818f5e000400360040
:109d5000f0c1b30058fbb7000080eb00770037007c
:109d60003e0890000020a100300f98007c0798006a
:109d70000d0f98000fb99700825890008180fb006a
:109d8000125890004800dd0001047000a2589000b5
:109d90008180fb00325890004800dd008104700093
:109da0000801be000c00be0011f907000005be004e
:109db0000801be00faf807000000560081805e002e
:109dc000600798000fba9700146490000884fb00a5
:109dd000090020000801be000a00be0004f90700c7
:109de0000006be000001be000800be00ecf807003f
:109df0000005550081855d005a079800e00f560068
:109e0000e08f5e00350032000c01be000e007800cd
:109e10001efd0700804078000004e0002f003200a3
:109e2000c0c3b30080cf50002a003a003e08900023
:109e30000008a300110032001e009000ae00900048
:109e40003007980041079800e10f5600e08f5e0050
:109e50000400320061015600e0815e000e007800cf
:109e60000afd07008040eb000e00780063ff07004a
:109e70000004e00019003200160037001e009000b8
:109e8000ae0090003007980041079800610156002d
:109e9000e0815e000e007800fcfc07000004e0009a
:109ea0000c003a000fba9700845890008180fb00a4
:109eb000145890004800dd0001017000620798000e
:109ec000146090000080fb000000e900500798003b
:109ed00002003700f0c0b3009eff37003e01900043
:109ee000ce0190000fb89700a9f907005e0190001d
:109ef00002064000e0864800f83bef00f17bef00ef
:109f00008fb897001180fb00114190004811dd00cf
:109f1000000171000c00be00d41507000004e00031
:109f200002003a00b0c1b3008aff3700acdf8800fe
:109f3000bddf8800587bef000000eb004f07780082
:109f40004f06be004f05be004f04be004f00b100db
:109f500000000600889fbe008a9fbe000004be006d
:109f6000910578008018900070109000101c9800e7
:109f7000211c980012c0b3000800be0010fc0700ae
:109f80000045eb000000e0001d003a002300370010
:109f900010457800990ce8000000e0000500320050
:109fa000fb4f4500210032000a04e0001f00320090
:109fb0001300370018199000a8199000d0da80001b
:109fc000e1da8000800f5100818f590004003a00cf
:109fd0001800780020609000e34f500011003a0014
:109fe000320498004304980011c0b30008007800c0
:109ff00002ff0700f54f50000c003a00090037003f
:10a00000990578000041eb000800be00ecfb07005a
:10a010000000e000deff3a00deff370010c0b300b2
:10a020000300370020c0b300010037000040eb0000
:10a030008b0c78000080fb004f05be004f04be0073
:10a0400000000600889fbe008a9fbe008004780042
:10a05000010478000245780083057800587bef0002
:10a060008008eb00bbff0700410120000004e00076
:10a070000c003a000a417800880078000900780056
:10a0800028fd07008080fb000004e00005003a0086
:10a090000b00e0000300320009007800bcfe07005e
:10a0a000800078000100780058fbb70001007800bc
:10a0b0004f05be004f04be00000006000200fa007b
:10a0c000889fbe008a1f78000004780081447800d1
:10a0d000587bef000185fb000a007800800db2007c
:10a0e00010003a0048109000c0bf9f007810900008
:10a0f00088189000101c9800211c9800e8805700d8
:10a1000008007800e6fc07000000e00002003a00ca
:10a11000b0c1b30014003700304890000038a300ed
:10a1200002003200f0c1b3000f0037006810900049
:10a130000048a300040032000944a0000980fb008d
:10a1400060149800010037006a149800e8805700f6
:10a15000080078006ff907008000eb000004e000c1
:10a1600003003a0090c0b30058fbb7008080eb00ba
:10a17000010078004f0578004f04be000080fa000f
:10a1800000000600f6874700889fbe008a9fbe0039
:10a190008c9fbe008e1f7800000778008106780033
:10a1a000030578008209b8008200780003002000cf
:10a1b000f2b79f0083bf9f003a08900061016000e2
:10a1c00004003a00d0c1b30058fbb7008200780009
:10a1d000d90037000100e000d70032003b1507002e
:10a1e0000004e0000200320080c1b3001700370015
:10a1f000f1fbb7009a0578006a0690007a0090009b
:10a200008a089000d0b79f00e1b79f003a01900004
:10a21000ca0190000b007800ddf807005a01900099
:10a2200002044000e0844800c0df80008a0f500034
:10a230000a003200f35be200070032001cf907005d
:10a240000004e0000400320090c0b30058fbb700e7
:10a250008000eb00b8003700cadf88000001eb0087
:10a26000a0df8000b1df8000880f5000898f580088
:10a2700014003200f35be200030032000cf9070027
:10a280000004e000f0ff3a00f17bef001b80fb00d0
:10a290001b4190004811dd00000171000800be0064
:10a2a000f21407000001eb000004e00003003a0094
:10a2b000b0c1b30058fbb70082002000a8df8800bf
:10a2c000b9df88001a089000aa089000b0b79f0074
:10a2d000c1b79f000200e0000d0032005fb197009f
:10a2e000efb19700f2af9f0083b79f008004eb00af
:10a2f000850037000006eb0083003700b0c1b300d3
:10a3000058fbb700f4bbef00f6bbef00d0ff3700ff
:10a310005fb09700efb09700f0af9f0081b79f004c
:10a320006011b80092b79f00a3b79f009fb4970039
:10a330007fa897008fb097003fb19700cfb19700eb
:10a34000820f5000838f580003003a003a089000b3
:10a350000020a000300d98006162b8008b5890007a
:10a360008180fb001b5890004800dd000101700057
:10a37000ab5890008180fb003b5890004800dd0006
:10a3800081017000820f5200838f5a0037003a001b
:10a39000f35be20003003200c5f807000004e000b0
:10a3a000a9ff3a00da0090008100e800510598000a
:10a3b0001b6090000080fb001cc0b300808f500029
:10a3c00015003a000004eb00580598003a08900088
:10a3d0000028a30006003200884078000a007800b8
:10a3e00006fe07000080fb000846780006003700e4
:10a3f00012002000030020000a007800a3fb0700e1
:10a400000080fb001cc0b300f50f50008fff32002e
:10a410000000e000b7ff3a003a019000ca01900046
:10a420000b0078005af807005a019000020440001f
:10a43000e0844800cadf88000c04e0000800320015
:10a440001b80fb001b4190004811dd0000017100e2
:10a450000800be00851407000004e000a7ff3200da
:10a46000a8df8800b9df88000006eb009b80fb00b6
:10a470001b4090004800dd00010070000000460015
:10a480009fb1970083004700114878000c06e80050
:10a490007fa897008fb0970061004000e0804800df
:10a4a000f0af9f0081b79f00dfb09700810450009c
:10a4b0003a0890000028a300060032003fb1970040
:10a4c000cfb1970061014100e0814900b2b79f0020
:10a4d000c3b79f0010c0b300f3fbb7001fb09700d5
:10a4e000afb0970061004000e080480090b79f0047
:10a4f000a1b79f007fb197008fb99700820f5000de
:10a50000838f580089ff3a006c0598007fa8970058
:10a510008fb0970070059800010d98003fb197002b
:10a52000cfb19700120d9800230d9800110009007b
:10a530008d84d8008000fd00010078004f0778006e
:10a540004f06be004f05be004f04be006f01b100b4
:10a5500000000600587bef000002eb007001900045
:10a5600080099000a008900010089000800f510012
:10a57000818f590001003a00140020000400780087
:10a5800000000600f0874700889fbe008a9fbe003b
:10a590008c9fbe008e1f780080bf9f0081067800d0
:10a5a000830478008209b8006110b800e0b79f000a
:10a5b000f1b79f00587bef0013047800630690000a
:10a5c0007301900083099000c2b79f00d3b79f002a
:10a5d00039089000e200600003003a00e0c1b300d7
:10a5e00058fbb7009a003700f35be2000500320029
:10a5f0002ff807000004e0000200320090c0b30012
:10a6000023003700c0df8000890f50003000320087
:10a610006162b800885890008180fb001858900053
:10a620004800dd0001017000a85890008180fb0007
:10a63000385890004800dd0081017000820f520000
:10a64000838f5a0022003200c9df88003901900050
:10a65000c901900008007800cdf70700590190006b
:10a6600002054000e0854800f17bef001880fb0008
:10a67000184190004811dd00000171000a00be0081
:10a68000fa1307000004e0000f003a0080c0b30096
:10a6900058fbb7008000eb006d003700d0c3b3005b
:10a6a00058fbb70062003700f0c0b30058fbb7009a
:10a6b0000a0678005e00370080c0b30058fbb70080
:10a6c0000006eb005a003700aadf8800bbdf8800d5
:10a6d0006000b8004c00370019089000a9089000ed
:10a6e0004fb19700dfb19700800f5100818f590063
:10a6f000eaff32006162b800885890008180fb0058
:10a70000185890004800dd0001017000a858900022
:10a710008180fb00385890004800dd008101700006
:10a72000820f5200838f5a0023003a00d900900014
:10a730008100e800d1049800186090000080fb00c0
:10a74000808f500008003a000005eb00da04980002
:10a75000120020000300200009007800cbfa070057
:10a760000004e000d0ff3a0039019000c9019000d8
:10a770000800780086f707005901900002054000a4
:10a78000e0854800c9df8800f17bef001880fb00fe
:10a79000184190004811dd00000171000a00be0060
:10a7a000b21307000004e000c3ff3200aadf8800f4
:10a7b000bbdf88000006eb008fb997002fb0970031
:10a7c000008141009880fb00184090004800dd00a7
:10a7d0000100700000004600104978000c06e800f7
:10a7e0004fb19700dfb1970061014100e08149005e
:10a7f000c2b79f00d3b79f002fb09700bfb097009c
:10a8000061004000e0804800a0b79f00b1b79f0002
:10a810002fb797002fb19700bfb197006fb0970087
:10a82000ffb09700800f5100818f5900aaff3a00b6
:10a83000ec0498004fb19700dfb19700f204980044
:10a84000830c9800110009000d87d8008000fd00de
:10a85000010078004f0778004f06be004f05be008c
:10a860004f04be000f01b100000006000043780055
:10a8700044d4800062002000ec0f520001003e0032
:10a880000001eb0055d480008043eb008001eb0019
:10a890004a0037000380420090407800ffcf50000c
:10a8a00002003e00e5cf500047003a0020c2b3004e
:10a8b00080cf5000440032006d40400080cf5000f7
:10a8c000410032006b40400080cf50003e0032001b
:10a8d00000c0e80080cf50003b00320000c0e8001c
:10a8e00080cf5000380032007e40400080cf5000c2
:10a8f00035003200c0c7b30080cf500032003200b4
:10a900000604e00006003a00a0c2b30080cf500069
:10a910002d0032007540400080cf50002a003200e8
:10a92000e60f51002400320000c2b30080cf500077
:10a93000200032006b40400080cf50001d003200ec
:10a940000040e80080cf50001a0032006f40400005
:10a9500080cf50001700320000c0e80080cf5000c8
:10a96000140032007e40400080cf500011003200c1
:10a9700000c0e80080cf50000e003200e0c2b300fb
:10a9800080cf500003003a00e1cf530009003200ad
:10a9900017c0b300e10f510007003200f0c9b30047
:10a9a00000c04000f94f500003003e00120020009c
:10a9b00001003700620020008301e800848f51000d
:10a9c000b4ff390001003700720020000200780057
:10a9d000000006001a00fa00889fbe008a1f780057
:10a9e0000004780001057800824478002df6070005
:10a9f00040d48800ec0f500063003e00984078007f
:10aa0000e0c2b30080cf50005f0032000104e000dc
:10aa10005d00320000fe2f000f00400050d488007f
:10aa20000001eb000500370050d480000000410019
:10aa300082004400114878000201e80040d4800000
:10aa4000800f5100f8ff39000940780087ff0700a8
:10aa5000e70f50004c00320047d48000e60f500052
:10aa60004900320053d480000002eb000d00370093
:10aa70000480410090407800e2c2b30082cf5000d1
:10aa800003003a0004805300e40f50003e003c00f5
:10aa9000e90f52003c00320082cf50000300320028
:10aaa0000402e800870f5200f1ff3500fc0045006a
:10aab0000001eb0003c2b3000280400003487800ad
:10aac0000201e800eb0f5100fbff3a0058d4800070
:10aad0008002eb0005037800fac9b30009ceb30089
:10aae0000e00370005004400104178000204e00029
:10aaf0000700320086814000824978000a40410008
:10ab0000f94f500001003e00894941000603e8006a
:10ab10008502e800e70f530002003c00848f5200da
:10ab2000f0ff3500870f520019003d000402e800d5
:10ab30008402440086002000f9c9b30008ceb300a7
:10ab40000e003700154178000204e00007003200d3
:10ab5000868140008249780009404100f94f500049
:10ab600001003e00884941000603e8000402e800b5
:10ab70008502e800ea0f530005003c00870f5200f1
:10ab8000f0ff3500020037000000eb000100370045
:10ab9000100020004f0578004f04be000080fa002e
:10aba00000000600881f7800000478001080fb0079
:10abb000184190004811dd00000171006000b800ec
:10abc000aa120700e14f50000200320080c0b3001b
:10abd000740037009880fb00184090004800dd00aa
:10abe00001017000e2f8930050c5b30080cf50001f
:10abf0003b003a00f2f89300a0cab30080cf5000a7
:10ac000037003a00e270900060c4b30080cf50007b
:10ac100016003a00f27090006540500080cf50005e
:10ac200012003a00827890007340400080cf5000bc
:10ac30000e003a009278900010c3b30080cf50000d
:10ac40000a003a00e26090006840500080cf500057
:10ac500006003a000040eb00204498003044980081
:10ac6000404498005044980048003700a2d090001b
:10ac700060c4b30080cf500019003a00b2d09000f9
:10ac80006540500080cf500015003a00c2d09000bf
:10ac90007340400080cf500011003a00d2d09000a5
:10aca00030c3b30080cf50000d003a00a2c0900026
:10acb0006a40500080cf500009003a000040eb008d
:10acc0002044980030449800404498005044980034
:10acd00030c0b300206498000000eb003300370060
:10ace000e2f8930050c5b30080cf500004003a0052
:10acf000f2f89300a0cab30080cf500002003200e7
:10ad000040c0b3002700370045c0b300241c20001a
:10ad100002024200c44090008180fb005440900039
:10ad20004800dd0001017000e44090008180fb00dc
:10ad3000744090004800dd008101700022449800ba
:10ad40004810de0030449800434498004818de0064
:10ad50005044980014407800e44f50000b0032003b
:10ad600003003e00e14f50000a003a0005003700a2
:10ad7000e64f500005003200ee4f500005003a004b
:10ad800002003700206498000200370020c0b300a2
:10ad9000d0ff3700700242008542e900ddff3a0033
:10ada00050c0b30058fbb7000080fb004f04780090
:10adb00000000600ee874700889fbe008a9fbe0005
:10adc0008c9fbe008e1f7800000578001080fb006d
:10add0001a4190004811dd00000171002a429000e4
:10ade0000482fb00ba419000c819dd0004807100a4
:10adf0004a4290000482fb00da419000c819dd004d
:10ae00008480710019120700a0ef9f0086c0b30074
:10ae1000e14f5000d2003a009a80fb001a409000a7
:10ae20004800dd0001047000e8f8930050c5b3004d
:10ae300080cf5000c7003a00f8f89300a0cab300d2
:10ae400080cf5000c3003a00e100200008007800e5
:10ae5000f9f50700d8489000116598006101b80025
:10ae6000b2b79f00c3b79f00aa4190008381fb0047
:10ae70003a4190004811dd0003007100ca41900082
:10ae80008381fb005a4190004811dd00830071006e
:10ae90003fb19700cfb19700000041008180490089
:10aea000604598004801de0072459800014d980009
:10aeb0004808de00104d9800885190000365980006
:10aec0006101200008007800dbf507006101b8008f
:10aed000425d98004811de00525d98008000eb0052
:10aee000615d9800715d98000000e00009003a0083
:10aef0004102200008007800d6f50700405d980068
:10af00004801de00525d9800615d98004808de004f
:10af1000705d9800ea4090008180fb007a409000cc
:10af20004800dd00010470008a4890008180fb0029
:10af30001a4890004800dd00810470000a6090000b
:10af40000081fb0003002000e2b79f00f3b79f00e1
:10af5000ca5890008180fb005a5890004800dd00dc
:10af60000100700080bf9f0000017800ea58900047
:10af70008180fb007a5890004800dd0001077000d6
:10af80008e0178006fb09700ffb0970084f407003f
:10af90000804400089844800284d98004840de009d
:10afa000304d9800494d98004848de00504d9800bb
:10afb0009a80fb001a4090004800dd0001047000f8
:10afc00011012000080078009bf50700800478003c
:10afd000205598004800de003055980031012000cf
:10afe0000800780094f507006106b8000000e00052
:10aff00004003a00010220000800780095f50700df
:10b000000006be00b1002000080078008af50700a5
:10b01000800578000000e00050003200610460000c
:10b020004e003a000fb997008e0178006fb097007c
:10b03000ffb097005af407000001be003fb0970030
:10b04000cfb0970000014100818149004548dd00f3
:10b050000b0040000000e900110009000b80d8003f
:10b0600000004100e08049000000560081805e0041
:10b070001a6190000281fb00030020005cf40700cd
:10b080000001be00405598004800de005055980071
:10b09000635598004818de007055980041ff200065
:10b0a000810f5100e08f590003003e002fe9970007
:10b0b0002265980006003700c6c1b300ec0f4100be
:10b0c000e08f590003003e0020c0b30020659800c7
:10b0d000084378005a3bef005c3bef00aa48900021
:10b0e0008180fb003a4890004800dd0001027000ba
:10b0f000ca4890008180fb005a4890004800dd005b
:10b10000810270002a5190000281fb003a509000a9
:10b110004800dd00020070004400de000000420034
:10b12000e0804a00604d98004801de00724d9800b2
:10b13000015598004808de001055980000202000b6
:10b14000808f550005003e000604e00004003a0030
:10b150000500370036c0b3000100370016c2b30047
:10b160000600780058fbb7000680fb004f07780008
:10b170004f06be004f05be004f04be00ef00b100f9
:10b1800000000600889fbe00000478008044eb00a9
:10b190003960980080882100004c78004800de006b
:10b1a000104498002b110700000178001004e00003
:10b1b0000400320060c0b30058fbb7008040780044
:10b1c0001e00370000102000120060000f00320047
:10b1d0001200900001002000005c98004800de0092
:10b1e000105c9800295c9800395c980092009000ef
:10b1f00000202000808f50000400360010c2b300f1
:10b2000058fbb700100220000d003700080078003e
:10b2100064fe0700804078000004e00007003a0068
:10b2200008007800e3fe0700804078000004e0009a
:10b2300002003a0010c0b300306498000180fb00a7
:10b240004f04be000000060010c0b3005efbb70054
:10b25000f17bef00fa7bef00fcbbef00febbef00e1
:10b26000f4bbef00f6bbef00f9100700c0a8210007
:10b27000c4ff07008000eb000004e00002003a0079
:10b2800058fbb70011002000010078000000060004
:10b29000889fbe008a9fbe008c9fbe00000578007c
:10b2a00081067800910078006f80600008003a0005
:10b2b0000100e000060032007a1090008a18900029
:10b2c000101d9800211d980012c0b3000100370026
:10b2d0000041eb008d0078000a00780038f7070085
:10b2e000800478000000e0003a003200104078004e
:10b2f00012c0b300fb4f4000370032000004e000f2
:10b300003400320009067800fc0545000044eb00db
:10b310003c80fb00a8f30700805d78000844e8004b
:10b32000e84f5400faff3a00688644008005eb00bd
:10b3300068c445000884fb007c0444000a044400ff
:10b340003c80fb009cf30700004c78008b05e80074
:10b35000e38f5500f6ff3a009d0678004d159800e2
:10b3600050ceb300194068000080fb000000e900e7
:10b370004f01de0069089000f9089000100d980058
:10b38000210d98000000eb00a00c980059089000d7
:10b390000100200010059800210598003948900010
:10b3a0000080fb00601598000048a30004003200f4
:10b3b000f9009000410d9800890c900003003700bf
:10b3c00039089000400d9800c90c9000590d980064
:10b3d0000100370022c0b3000280fb004f06be0010
:10b3e0004f05be004f04be0000000600889fbe004f
:10b3f0008a9fbe008c9fbe00000478000105780083
:10b400008246780090047800396090007c0020002b
:10b410000004e0004f00320078109000881890007f
:10b42000101c9800211c98001a0078000000e00011
:10b43000020032006f0060000700320012c0b3004b
:10b440008a00780008007800ddf60700bc012000c3
:10b450000000e000010032000006eb008a007800e6
:10b46000080078008aff07000004e00002003200b4
:10b47000bc002000370037006000b800700498005e
:10b48000010c980018009000a8009000300498006b
:10b49000410498000000eb005004980060049800fc
:10b4a00018019000a80190000900780038f4070006
:10b4b0000005be00f35be200050032007cf40700eb
:10b4c0000004e000020032009c0020002100370050
:10b4d000c8df8800a0df8000b1df80008a0f500045
:10b4e0008b8f58000c003200f17bef001980fb00bd
:10b4f000194190004811dd00000171000a00be00f2
:10b500005a1007000004e00001003a008c002000ff
:10b51000aadf8800bbdf8800b80890000120a100e6
:10b52000310c980070c7b30080cf56000300320082
:10b530007640500080cf560003003a000100a00082
:10b540000110a100020037000100a1000110a000bd
:10b55000310c98000c0078004f06be004f05be006d
:10b560004f04be0000000600e8874700889fbe0029
:10b570008a9fbe008c9fbe008e1f78000006780058
:10b580000107780082f79f0093f79f00401090001a
:10b59000e0b79f007c1090008c189000101e98005f
:10b5a000211e98006e1090000080ea00f0b79f0006
:10b5b0006fb097000000e000020032006f006000f2
:10b5c0007a00320012c0b300f48057000c007800fb
:10b5d0007bf607000000e00074003a0071003700bd
:10b5e000f48057000c00780029ff0700e24f50005c
:10b5f000700032000004e0005d003a00ec109000a2
:10b60000f103b2001ff197000204e00003003200d2
:10b61000e14f51005d003a0014003700e88f500000
:10b620005a0032007c054600fc044700bbc0b30052
:10b630001a80fb00e7f20700000478001980fb0085
:10b64000e4f20700800f54004d003a008b45e900fa
:10b650000a05e8008904e8000b04e0004a00320013
:10b66000f3ff3700b8002000210037007fb19700ba
:10b670000280600045003a00ef8f50004300320026
:10b68000ce589000a0c2b30080cf50001700320007
:10b69000fc0546007c0547008dc0b3009b40780048
:10b6a0009a447800a0c2b30080cf54000f0032004b
:10b6b0007540400080cf5400070032000180fb003d
:10b6c000c4f20700000478000980fb00c1f2070003
:10b6d000800f5400e3ff3a008d46e9008b05e80037
:10b6e0000a05e8000d04e000ecff3a000004eb005e
:10b6f000ce609000a0c2b30080cf50002300320083
:10b700000800e00021003a004b0220008c85450033
:10b710004a0220000e0545003dc0b3009b40780062
:10b720009a447800a0c2b30080cf540016003200c3
:10b730007540400080cf5400070032000180fb00bc
:10b74000a4f20700000478000980fb00a1f20700c2
:10b75000800f54000a003a008d46e9008b05e8008e
:10b760000a05e8000d04e00007003200ebff370097
:10b770000ff097000004e0000300320003003700e0
:10b78000b8002000010037000004eb00efb0970084
:10b790008100e800e1b79f000800e00005003200ea
:10b7a0008fff3700b801200002003700b8002000ea
:10b7b0008bff3700080078004f0778004f06be0067
:10b7c0004f05be004f04be008f00b1000000060010
:10b7d0006e00fa00889fbe008a9fbe008004780039
:10b7e00001057800587bef00b80f0700004478008f
:10b7f00080c1b3000804e0003c003a002bfc2f009d
:10b800008b8547008a0078000b00780061f80700fc
:10b81000084178008b007800090078006dfc070073
:10b820000004e00002003a0020c1b3002f003700fe
:10b830008004eb00d9b79f0070df8000701190008a
:10b840008019900082bf9f0093bf9f001019900045
:10b85000a0199000a2bf9f00b3bf9f00c3f82f00a4
:10b86000038447008b0078000800780049f807003f
:10b870008941780012c0b3008b007800080078007e
:10b8800039ff0700eb0f500017003a004a109000f4
:10b89000d0879f00a1f82f008f8040000a00780019
:10b8a000fff60700fc014500000178007c804500a0
:10b8b000eb0040009059780030597800810f50001b
:10b8c000fcff3a00a1f82f008f8040000a007800aa
:10b8d00090f307008000eb000004e00005003a0050
:10b8e00090c0b3000100370010c1b30058fbb7008f
:10b8f0008080eb00010078004f05be004f04be00c1
:10b900000080fa0000000600e6874700889fbe001e
:10b910008a9fbe008c9fbe008e1f78008004780036
:10b920000105780082f79f0010007800f0b79f00b3
:10b9300010c0b30058fbb7006066b8001b002000c1
:10b940000b4778001f00370079109000891890008d
:10b95000901c9800a11c980012c0b3008a007800c7
:10b960000900780096f50700000478000000e00068
:10b9700031003200104078000004e0002400320062
:10b98000fb4f40002200320050ceb300004c780044
:10b990008a007800090078005ef307000004e000e8
:10b9a000230032000b00e000050032008000eb00b5
:10b9b000210c9800580890006106b80081057800b5
:10b9c0001a0de9000e47e900e14f4700deff3a009b
:10b9d000110037008ff097000104e00008003200ea
:10b9e0007fb197000c00be006bf607008000eb00f3
:10b9f0000004e00003003a001100200001003700bd
:10ba00008000eb000100780058fbb7000b00370006
:10ba1000b100200009003700d0da8000e1da8000b0
:10ba2000800f5600818f5e00eaff3a00f4ff370076
:10ba30001100200001003700b10120000100780052
:10ba40004f0778004f06be004f05be004f04be00f2
:10ba50006f00b10000000600889fbe0080047800df
:10ba6000587bef00190f07000044780080c1b30035
:10ba70000804e0002d003a0008417800c1b121001f
:10ba800009007800d3fb07000004e00002003a0040
:10ba900020c1b30025003700c0a82100e0d88800ed
:10baa0001e3bef00203bef00223bef00243bef006a
:10bab000443bef000002200040da8800d0da80002a
:10bac000e1da800050da880061da880070da8800f4
:10bad00081da8800c1b1210060ae2100adf7070016
:10bae0008841780012c0b30061ae2100c0b12100ce
:10baf0009dfe07000000e00002003200b0c0b3006d
:10bb00000a00370030c1b300489bab0007003a0081
:10bb100012c0b30041b42100c0b121007aff070078
:10bb20000000e0000300320010c0b30058fbb70073
:10bb30000080eb004f04be00000006000200fa0087
:10bb4000889fbe008a9fbe000005780081047800af
:10bb500011447800dd0e07000004e0000800320008
:10bb600020c7b300804f54000500320020c5b30049
:10bb7000804f54000200320080c1b3000b00370038
:10bb800000c2b3005e5be200080032005e7bef00a3
:10bb90000041eb0001b621000a0078008dfb070090
:10bba0000004e00008003a000300370058fbb7002b
:10bbb0000000eb00e600370010c0b3005efbb700ea
:10bbc00020c1b300f9ff3700c0a8210000db8800c6
:10bbd000623bef00643bef00663bef00683bef0029
:10bbe000883bef000002200060dc8800d0da800093
:10bbf000e1da800070dc880081dc880090dc88005d
:10bc0000a1dc880001b6210060ae210061f70700c9
:10bc10008041eb0012c0b30061ae210000b62100ec
:10bc200051fe07000000e00083003a0070c5b30039
:10bc3000804f54001200320007003e007640500052
:10bc4000804f54002e00320071404000804f54005d
:10bc500099003a006300370020c7b300804f5400ba
:10bc60006000320065404000804f54000400320004
:10bc700076405000804f54008f003a00200037007b
:10bc800040dc8000b0bf9f0012c0b300ea805700c4
:10bc900000b621001cff0700000478000000e0004f
:10bca0009f003a001300200000417800ea8057000e
:10bcb00000b62100e3f80700000478000000e0006f
:10bcc00097003a0072c7b300ea80570000b621001f
:10bcd000c6fd0700000478008c9bab0076003a009c
:10bce0000000e0008e003a00210020006011b80042
:10bcf00000b62100eff70700000478007d00370050
:10bd00009adb8000abdb8000e00f5500e08f5d0028
:10bd10001700320040dc8000b0bf9f0072c7b30044
:10bd2000ea80570000b62100b0fd0700000478004b
:10bd30008c9bab0060003a000000e00078003a0005
:10bd4000210020006011b80000b62100d9f70700db
:10bd5000000478000000e00064003a0032db80005c
:10bd600043db8000c0a82100a4f307006100370076
:10bd700040dc8000b0bf9f0012c0b300ea805700d3
:10bd800000b62100e0fe0700000478000000e0009b
:10bd900063003a001300200000417800ea80570059
:10bda00000b62100a7f80700000478000000e000ba
:10bdb0005b003a0072c7b300ea80570000b621006a
:10bdc0008afd0700000478008c9bab003a003a0023
:10bdd0000000e00052003a00210020000a01be00ed
:10bde0003d00370040dc8000b0bf9f0022c7b30099
:10bdf000ea80570000b621007cfd070000047800af
:10be00000000e00046003a0099409000b0c2b30044
:10be100080cf500041003a0032db800043db8000dd
:10be2000c0a8210075f307008c9bab003b003a00d3
:10be3000761ba8003a00370061ae210000b6210051
:10be4000d4f6070070c7b300804f540009003200d9
:10be500070c5b300804f5400060032006a404000b5
:10be6000804f54000300320010c4b300804f5400d0
:10be700026003a000000eb00b0bf9f001300200036
:10be80000041eb00ea80570000b621006df8070082
:10be9000000478000000e00021003a0072c7b300ff
:10bea000ea80570000b6210050fd0700000478002a
:10beb0008c9bab0004003200f0c1b30058fbb7000c
:10bec000f80f2000160037000000e00014003a00d0
:10bed000210020006011b80000b6210075f70700ae
:10bee000000478000000e00002003200a0c1b300ae
:10bef00058fbb70099409000b0c2b30080cf50000b
:10bf000007003a00763ba80005003700b0c0b30038
:10bf100058fbb700b8002000010037000004eb0018
:10bf2000ea0d07000004e00001003200761ba900c2
:10bf30000800e0000300320010c0b3005efbb70051
:10bf40001bff37000800780058fbb70000b621003f
:10bf50004f05be004f04be000080fa00000006003e
:10bf60002ac8a900f00f200020268800002688009b
:10bf7000e024ef00e224ef00dc24ef00f0092000d1
:10bf800030268800102688009004a80001c02100f7
:10bf90004808de00702688000000eb006022b80030
:10bfa0006033b8008498be008698be000000e800a8
:10bfb000e80f5000fbff3a00ca24a800cc24ef0091
:10bfc000caa4a900ca24a900c16721009140780031
:10bfd0000001780005003700022688006876ef002f
:10bfe0006976ef006a76ef008040eb00c0c4bf00c6
:10bff0000038a300f8ff3a00010078007cf6b70093
:10c000001000200070a0880060a088008036ef003b
:10c010008436ef007636ef0020662100e4662100ca
:10c020003241210011412100636621000018eb001c
:10c03000001aeb000059eb008058eb00830f500012
:10c04000faff3a0000c1210010b38800d0002000a0
:10c0500000278800b042210020e0880010e0800026
:10c0600001c02f00010060000030a00010e0880037
:10c070004008200000e088007276ef007436ef0080
:10c08000000006000e14e20040003a0017002000f5
:10c0900077a0880066a080000600e0003b003a0020
:10c0a00067a088001cd4bf00e24f50000e003a0089
:10c0b00010b38000a040900026409800b04090004f
:10c0c000c2cfb30082c06000314098009040780039
:10c0d00060c8600081ccb30010c870009040900030
:10c0e0001640980000000600e14f500027003a007b
:10c0f000b6a0880001a180002140900085c0b30057
:10c10000a540980031409000c4cfb30004406000c7
:10c11000b0409800b242210082017800f30fb200d3
:10c1200041409000c34098004811de00514090000b
:10c13000d240980011407800e048600040c8b30049
:10c14000914870001140900096409800b7a0880078
:10c15000f1a0800021409000a5409800314090005f
:10c1600004406000b040980041409000c3409800f7
:10c1700051409000d240980011407800e0486000a3
:10c180001174a00011409000964098000000060035
:10c190000080fb00800140000180fb000080410026
:10c1a0004400dd0002c02100020140001274a10021
:10c1b000e06621000104e000010032002066210059
:10c1c00000804100020878001264a100680041006c
:10c1d0001064a00000000600889fbe008a1f78003f
:10c1e00000447800014578008184fb000938a300f1
:10c1f000020032008040eb00e5ff07000928a300a1
:10c200000300320011c0b30008407800e0ff0700cf
:10c210000880fb0000004000014e200001004000ab
:10c220000a4878004f0578004f04be000000060061
:10c23000004378008082fb00814378000104e00025
:10c240000300320005804200216621000200370011
:10c2500005804200e16621000100400010027800e4
:10c260000400e00002003a0004007800000006002c
:10c270008682fb0044409000424298004810de0055
:10c28000d4409000504298000380fb00a4409000ee
:10c290002042980034409000c1cfb30001406000bc
:10c2a000304298001480fb00944090000004b200db
:10c2b0009440780060ca6000144a70004800de00b4
:10c2c00094409000104298009480fb00144090002d
:10c2d0004800dd00010070008008b3009440780041
:10c2e00060ca6000144a70004800de00944090006c
:10c2f000104298000704e00003003200058042006d
:10c30000216621000200370005804200e16621001d
:10c31000010040001034a200040078000000060074
:10c3200080417800014078000304e0001c003a00de
:10c33000f1a080002140900080c0b300a040980090
:10c3400031409000c2cfb30002406000b04098007e
:10c35000b042210041419000c04098004800de00fa
:10c3600051419000d040980011407800e0486000b2
:10c37000c0c8b300914870001140900093409800ed
:10c3800010b380009040780060c8600041c8b300de
:10c3900010c8700090409000134098000000060004
:10c3a0008380fb00818040000080fb008080400093
:10c3b000c408dd0002c02100028140009281fb0020
:10c3c000124090004800dd00030070004008b300f8
:10c3d000004978004800de001041980080c021002c
:10c3e000808040001181fb00114090004800dd007a
:10c3f000020070004008b300804878004800de006a
:10c400009040980000000600889fbe008a9fbe00f2
:10c4100080407800cac4bf000058a30078003200f2
:10c420008183fb00878343002066210080834300d3
:10c43000970278001583fb00154290004822dd002a
:10c4400006007200254390000683fb0035429000f1
:10c450004822dd0086007200454390000683fb0001
:10c46000554290004822dd000601720065439000ad
:10c470000683fb00754290004822dd0086017200b1
:10c4800008042000090020006055b8000000640086
:10c490008180640002016500838165001542780097
:10c4a000e04a6200954a70004802de0015439000a1
:10c4b0009442980025429000a1429800480ade006c
:10c4c00035439000b442980045429000c242980023
:10c4d0004812de0055439000d44298006542900017
:10c4e000e34298004818de00f5409000f0429800c2
:10c4f000970278001583fb00154290004822dd006a
:10c5000006007200254390000683fb003542900030
:10c510004822dd0086007200454390000683fb0040
:10c52000554290004822dd000601720065439000ec
:10c530000683fb00754290004822dd0086017200f0
:10c5400000006c0081806c0002016d0083816d0031
:10c5500015427800e04a6200954a70004802de0009
:10c56000154390009442980025429000a142980003
:10c57000480ade0035439000b442980045429000de
:10c58000c24298004812de0055439000d442980001
:10c5900065429000e34298004818de00f5409000a4
:10c5a000f04298001734a200170078009080fb003a
:10c5b000104190000104b200104178006048610011
:10c5c00010c87000c808de001041900011409800ab
:10c5d000970078001181fb00114090004800dd00b9
:10c5e000020070000060a20011427800e048620082
:10c5f000914870004800de00114190009040980082
:10c600004f05be004f04be0000000600f2b38000dc
:10c6100083c0b300e70f510009003e00824178005b
:10c620001dd4bf0002003a0010c0b3000300370061
:10c63000e14f500002003a0020c0b3001df4b700e3
:10c640008380fb0001005100f0b3880012b380002a
:10c65000224090002141980032409000c1cfb300a9
:10c66000014060003041980030422100d0a0880095
:10c67000e0b38000610060000041eb0012003a006e
:10c68000004178008301ea0006003700d0a0800056
:10c69000d1b3800031587800d0a08800d1b3880091
:10c6a0000241e900834f5100f8ff3a000000060004
:10c6b000d0a08000d1b3800031587800d0a088008d
:10c6c000d1b388000241e9000300ea00804f510025
:10c6d000f7ff3a0000000600881f78000004eb0016
:10c6e00008b4880028b48800c041210021c0b300ec
:10c6f00090cf100015003a00f1a08000214090007a
:10c7000080c0b300a040980031409000c2cfb30079
:10c7100002406000b040980030422100414190004a
:10c72000c04098004800de0051419000d040980081
:10c7300011407800e048600080ccb3009148700060
:10c7400011409000984098001e00370031d4bf007f
:10c750000080fb002143210091407800c808dd00e3
:10c7600080807000f0b38000808f5000070031009f
:10c7700011432100914078008180fb0032d4bf003a
:10c780004800dd0001007000f0b388009fff070043
:10c7900010b3800031422100404190004140980098
:10c7a000c808de0050419000514098009040780049
:10c7b00060c8600081ccb30010c870009040900049
:10c7c000184098004f047800000006000200fa00ac
:10c7d000889fbe008a1f78007416e2000d003a00a0
:10c7e000ca24ef00c224ef00dc24ef00f00920008f
:10c7f000302688001026880001003700ca04a800ef
:10c80000cac4bf000008a300fcff320010002000d3
:10c81000a0b38800a0b38000e10f500007003a00e9
:10c82000f00f200000268800c224ef00c204a800f8
:10c83000c284a80020002000a0b3880088c4bf00e4
:10c840000048a3000c0032008ac4bf000048a300c7
:10c850000900320008012000482488007636ef00e5
:10c860000001eb008000eb0040072000000b0700f8
:10c870008a84a9004824880090c4bf000018a3003f
:10c880008e033a00c0c4bf000008a30008003200b5
:10c89000c2c4bf000008a30005003200b0fd0700bd
:10c8a00040002000a0b3880010002000002688006f
:10c8b000c0c4bf000048a3000d003200c2c4bf00c6
:10c8c0000048a3000a0032008a84a8000801200062
:10c8d0000826880010002000b0b388000001eb009b
:10c8e0008000eb0050072000e10a070008268800be
:10c8f000c0c4bf000028a3000f003200c2c4bf00a4
:10c900000028a30004003200120020008000eb0089
:10c9100030072000d60a07004000200000268800cb
:10c9200010d4bf00030032000040e90010f4b7004b
:10c9300001003a00d3fd0700c044e2001f003d00a3
:10c94000c244e2001d003d00e0c4bf000018a30087
:10c950001800320002a180001280fb00924090007b
:10c96000c808dd008080700000082000808f500023
:10c970000f003a0010b380009080fb001040900040
:10c980004800dd000100700041082000810f5000c8
:10c9900007003a001240780060496000c0c8b30048
:10c9a00012497000124090000040eb0010419800c6
:10c9b000e024a9000008200000268800c0c4bf00b1
:10c9c0000018a3000b003200c2c4bf000018a3006f
:10c9d00008003200120020008000eb00f0ff27006a
:10c9e000a30a0700f00f2000202688002000200066
:10c9f00000268800a0b38000e30f50002f0336000c
:10ca0000c2c4bf000038a3002c0332000045eb0075
:10ca1000c0c4bf000038a3002803320040268000b5
:10ca200019f4b7008080fb004409de000001fd001e
:10ca300018f4b7000001fd008100200001268800e5
:10ca40000038a30005003a00104121000000410019
:10ca500010417800e14061000400370030412100be
:10ca60000000410090417800e1c061000104a20093
:10ca70001004a10010c870001854e20008033a0026
:10ca8000d0c2b30010f4b70019d4bf000080fb007f
:10ca9000800178000320a1000300e000b6023a0004
:10caa0004200de004300dd0001c021000101400022
:10cab00002a18800f2a088001e74aa00c0c3b300bf
:10cac000924060006840500080cf500017023a004a
:10cad000b442210002a18000c24090008180fb008e
:10cae000524090004800dd00010070008480410049
:10caf00090487800c24090008180fb005240900036
:10cb00004800dd00010070000000e800c240900015
:10cb1000404198004800de00d2409000504198000b
:10cb20008301e800e88f5100eaff3a0000a180008d
:10cb3000c040900044409800c820de005041900062
:10cb4000514098001d74ef008236ef008036ef00f0
:10cb50008436ef001634ef001c74ef0011b3800030
:10cb60001181fb00114090004800dd0002007000c0
:10cb700000017800f207b20091417800e0c861003e
:10cb8000914871004800de001141900090409800eb
:10cb90006276aa0011b380001181fb001140900061
:10cba0004800dd000200700000017800f207b200ca
:10cbb00091417800e0c86100914871004800de00b2
:10cbc00011419000904098006276aa00f1a0800088
:10cbd0001181fb00114090004800dd000200700050
:10cbe00000017800f207b20091417800e0c86100ce
:10cbf000914871004800de0011419000904098007b
:10cc00007c76ef007e36ef006876ef006976ef0005
:10cc10006a76ef002bd4bf000046b2006b013a00e9
:10cc20002cd4bf000080fb0001002000eb0f50005f
:10cc3000e08f580065013e00000601005e003700ed
:10cc40008c003700610137008a0037005f01370030
:10cc5000060037000800370058013700540037003d
:10cc600032003700430137004c0137007cf6a80042
:10cc70008000200046003700b1422100914078003a
:10cc800000c8b30080cf500050013a0000ccb30080
:10cc90007cf6b7002ed4bf00e24f500008003200ef
:10cca000e34f500012003200e14f50001d003a00e7
:10ccb00040222c00d0b3880020012000170037004c
:10ccc0002dd4bf000080fb000000400061172c0045
:10ccd0000100400090007800d1b38800214090000e
:10cce0007ef6b700314090007ff6b700370137007d
:10ccf0002dd4bf00e34f50000a003e002dd4bf00ea
:10cd00000080fb0000004000e1162c000100400004
:10cd100010007800d0b388001080fb00f0b38800ca
:10cd20002a0137007c76ef00280137007cf6a80046
:10cd3000e224ef00020420008000eb0000c021008c
:10cd400050ed0700ca24a800304121001141210004
:10cd5000524121000058eb008058eb00820f500038
:10cd6000fcff3a002274ef00ca24a90000c1210090
:10cd700010b3880000c0210000a18800f0a0880046
:10cd80002dd4bf0072f6b70003003a000001200066
:10cd9000a0b388000d013700120020002167210098
:10cda00010002000b209070000022000f8ff370041
:10cdb00020672100f30037002374ef002474ef0094
:10cdc0002bd4bf007f006000e10f50000b00320049
:10cdd000e20f50000b0032000000e0001d003a009e
:10cde0007cf6a8002314a800c0b38000e10f500017
:10cdf00018003a002334a800160037007cf6a8007b
:10ce0000140037007cf6a8002f54e200050035001e
:10ce10002fd4bf006f00600000004000e1662100d9
:10ce2000040037002fd4bf006f00600000004000f6
:10ce300021662100010040001000780041c8b300c5
:10ce400010c06000814f500002003a0010c0b300d3
:10ce500023f4b7007cf6ab00dc0032003042210046
:10ce6000d0b388007c16a80020c0b3007ef6b700bf
:10ce7000d60037002dd4bf00e14f50000b003a0020
:10ce80002bd4bf007f40600008003a007cf6a80069
:10ce90002cd4bf00e34f500003003a0010002000e4
:10cea000c0b38800010037007836ef002d54e2004f
:10ceb000c6003a002bd4bf007f406000e24f500014
:10cec000c2003a002fd4bf006f406000bf003200a4
:10ced0002fd4bf006f006000e10f5000bb003c008a
:10cee000a1b3800000022000808f5000b7003a00fc
:10cef0007cf6a8002f54e2000b0035002fd4bf00b1
:10cf00006f00600000004000e16621000100400069
:10cf100010007800c0bf9f002fd4bf006f006000da
:10cf2000114121000a0037002fd4bf006f006000bc
:10cf30000000400021662100010040001000780040
:10cf4000c0bf9f002fd4bf006f006000314121009f
:10cf500001004000104478000808a30004003a00d3
:10cf60008ff897000134a10081ff9f000300370074
:10cf70000ff997000234a00082ff9f002f54e200b7
:10cf8000080035002fd4bf006f0060000000400093
:10cf9000e166210001004000cfb997000308780046
:10cfa000070037002fd4bf006f0060000000400072
:10cfb0002166210001004000cfb8970001087800e9
:10cfc0002cd4bf00e34f500018003a004fb8970030
:10cfd0001004e0000b003d002f54e2000400350077
:10cfe0002fd4bf006f006000114121000300370003
:10cff0002fd4bf006f0060003141210001004000cc
:10d000001014a0004fb897001081fb0090409000d2
:10d01000c808dd00828070004108b3000148780034
:10d02000c808de001140980068003700e884570007
:10d030000ff997000234a20082ff9f00cfb897003b
:10d04000114090001181fb001104e00015003d002b
:10d050004800dd0002007000804178000374a100e8
:10d06000834878004800de0090409800cfb89700d1
:10d070001181fb00114090004800dd0002007000ab
:10d080000060a000804878004800de0090409800d2
:10d0900022002000cfb8970050002000f4080700bd
:10d0a000060037004800dd00020070000060a000ac
:10d0b000804878004800de00904098001934a200b3
:10d0c0000818a30003003a004fb997001204e000cb
:10d0d00019003d002f54e200040035002fd4bf009a
:10d0e0006f00600011412100030037002fd4bf0002
:10d0f0006f00600031412100010040001014a100c8
:10d100004fb897001081fb0090409000c808dd00e8
:10d1100082807000b2c3b30002c86000c808de009d
:10d120001140980022002000cfb897005000200046
:10d13000cf080700080037009280fb0012409000e3
:10d140004800dd0001007000b3c3b3000349600074
:10d150004800de00104198002fd4bf006f0060002f
:10d1600000004000014e2000010040001014a1000a
:10d17000160037002fd4bf000080fb0021422100a1
:10d1800001004000d0b388007c16a80010c0b30096
:10d190007ef6b7007cf6a8000c0037007cf6a800ed
:10d1a0002fd4bf000080fb0021422100010040007d
:10d1b000d142210011487800040037000001eb0043
:10d1c0008000eb0020002000a90807000001eb0010
:10d1d0008000eb0030002000a5080700caa4a900c9
:10d1e000e8b380000808b20028003a006856e20060
:10d1f00008003d0020c0b3001cf4b7008416e20014
:10d2000001003a0034fd070068a0880078a088007b
:10d2100027013700f2a080002240900080c0b300b8
:10d220002041980032409000c1cfb300014060001f
:10d2300030419800f1a08000b042210041419000af
:10d24000c04098004800de0051419000d040980056
:10d25000f0a080009040780060c86000c1c8b300b2
:10d2600010c87000904090001840980010b38000e3
:10d27000104178006048610041c8b30010c87000d8
:10d28000904090001840980009013700b1422100f9
:10d290009140780000c8b30080c1600006003200f1
:10d2a00010c0b3001cf4b7008016e2001a003a0068
:10d2b00009fd07001800370020c0b3001cf4b700b8
:10d2c000f2a080002240900080c0b300204198006e
:10d2d00032409000c1cfb30001406000304198005f
:10d2e000f1a08000b042210041419000c040980070
:10d2f0004800de0051419000d0409800f0a080002e
:10d300009040780060c8600041c8b30010c8700049
:10d3100090409000134098000c34ef000e34ef0062
:10d320008216e200e2003a0073003700c04121009b
:10d3300021c0b30090cf100071003a00224090004d
:10d34000b240900000427800916621009140780040
:10d350008180fb006ad6bf004800dd0081007000bc
:10d360000480fb00810f500001003600014278006c
:10d370000480fb000080500069f6b7004800de0022
:10d380006af6b700354221000f00370066d6bf00ad
:10d390000080fb007166210091407800c808dd0024
:10d3a000808070000280fb000500400090587800eb
:10d3b0000100780066f6b700c808de0001007800ba
:10d3c00067f6b7008301e8000341780084cf51007d
:10d3d000eeff3900f2a080009166210091407800b4
:10d3e0008180fb006ad6bf004800dd00810170002b
:10d3f000220032002240900080c0b30020419800fb
:10d4000032409000c1cfb30001406000304198002d
:10d41000f1a080003042210041419000c0409800be
:10d420004800de0051419000d0409800f2a08000fa
:10d4300000a1800003c4b30090c0610007003a005f
:10d44000124078006049600080ccb300124970003f
:10d4500012409000114198009500370092407800ea
:10d4600060c9600080c8b30012497000124090008b
:10d470000040eb00104198008d00370022409000e2
:10d4800080c0b3002041980032409000c1cfb3006b
:10d490000140600030419800f1a08000b0422100be
:10d4a00041419000c04098004800de00514190008a
:10d4b000d0409800f0a080001041780060486100e2
:10d4c00041c8b30010c8700090409000134098000d
:10d4d000b1662100914078008180fb006cd6bf00ce
:10d4e0004800dd0001007000010032000000010072
:10d4f00068f6a9008aff3700e2fa07006c003700df
:10d500008001fd001cf4b7008001fd001614e2004c
:10d5100017003a00f2a080002240900080c0b300c3
:10d520002041980032409000c1cfb300014060001c
:10d5300030419800f1a08000b042210041419000ac
:10d54000c04098004800de0051419000d040980053
:10d55000f0a080009040780060c86000c1c8b300af
:10d5600010c87000904090001340980050003700a1
:10d57000b3a088004e003700e88f51004c003a00fd
:10d5800010b380001080fb004600de0061446000a4
:10d590006276aa00a0b38000e80f500008003a00ad
:10d5a0002dd4bf000080fb00602688000001200011
:10d5b000cc04e20001003a0040002000a0b3880043
:10d5c000c041210012c0b300904f110027003a0063
:10d5d00011b380003042210041419000c0409800ca
:10d5e0004800de0051419000d040980007fc070041
:10d5f000d041210023c0b30090cf110009003a00b0
:10d6000010b380009040780060c8600041c8b3004b
:10d6100010c87000904090008040eb0011409800ce
:10d620002300370011b380000804e00007003a002f
:10d6300011417800e048610080ccb300914870004f
:10d6400011409000984098001900370091417800ef
:10d65000e0c8610080c8b30091487000114090009c
:10d660000040eb0090409800110037006856e2003f
:10d6700009003d00b1662100914078008180fb00e7
:10d680006cd6bf004800dd000100700001003200d0
:10d690000000010068f6a9001c74ef0004003700c8
:10d6a0000001eb00914121002007200070070700d6
:10d6b0000a45e800e44f5500d5fc3a000ac8a90025
:10d6c0004f0578004f04be000080fa0000000600fd
:10d6d000a6dbbf0001c8b300014060000047b300f3
:10d6e000a6fbb700a6fba9000040eb00a7fbb70014
:10d6f000a81ba900a83ba900a85ba900a87ba900ba
:10d70000a8bba900a8dba900a8fba900a9fbb7003a
:10d71000aafbb700abfbb700acfbb700a1c0b300de
:10d720008000fd00adfbb7008000fd00aefbb70040
:10d73000affbb700b0fbb700b1fbb700b2fbb7005f
:10d74000b3fbb700b4fbb700b5fbb700b6fbb7003f
:10d75000b7fbb7000000060003c4b3002264210039
:10d760008040eb0010c0b300b1fa070030df880042
:10d7700020b3800020df8800de7bef00ddfbef00c0
:10d78000dc7bef00db7bef009e3bef009a3bef0082
:10d790009c3bef00963bef00983bef001000200011
:10d7a00000df8800a03bef00c77bef000f003700d1
:10d7b000e23bef00a10707000004e000090032008f
:10d7c000a40707000000e0000600320071bc210041
:10d7d000914078008180fb00100020000100dd00f6
:10d7e000a03bb700baff0700c77bec00c75be200b5
:10d7f000efff3200000006002bd4bf007f40600026
:10d80000e14f500044003a00f442210014427800f5
:10d810000404e00040003a00c242210012417800b6
:10d82000e24f410026003200e14f41003a003a0049
:10d83000d1422100914078008180fb002ed4bf00ae
:10d840004800dd000100700033003a001143210060
:10d85000914078008180fb0032d4bf004800dd0099
:10d86000010070002c003a00defbb70002007800d7
:10d87000ddfbb7000002fd00dcfbb700dbfbb700ff
:10d880000002fd001000200000df880081b380004e
:10d890000100e000020032001104e0000500350044
:10d8a00003c4b300226421008440780060fa0700ba
:10d8b00030df880000c8b3007cf6b7000000060027
:10d8c000d1422100914078008180fb002ed4bf001e
:10d8d0004800dd00010170000f003a0011432100f3
:10d8e000914078008180fb0032d4bf004800dd0009
:10d8f00081007000e18f500007003a0002007800bc
:10d9000023f4b70030422100d0b38800f1b388007f
:10d9100010ccb3007cf6b70000000600881f78002a
:10d920008040780020df80000000e000020032002c
:10d930001004e0004300350030df80000000e0000c
:10d94000020032001004e0003e003500e8bd210076
:10d9500018447800ddfbef00dc7bef00db7bef00a1
:10d9600012de800023de8000e2b18800f3b188007f
:10d9700012c0b3000200780040f6b70030c0b30018
:10d98000defbb70080cf50001000320005003e00e3
:10d9900082cf50000a003200e2cf500029003a0046
:10d9a00025003700e5cf50000c0032000d00390093
:10d9b000f0c7b30080cf500022003a000c003700bf
:10d9c00020c0b30040f6b7001e00370020c0b300ef
:10d9d00040f6b700824078001800370020c0b3003e
:10d9e00040f6b7008040eb0002407800140037009a
:10d9f00037ff0700a81ba800a83ba900a85ba80048
:10da0000a87ba90000c2b300b2fbb700b37bef0054
:10da1000e24f540008003a0010de800021de800052
:10da2000e00f5000e08f5800030032008040eb0010
:10da300010c0b3000200370011c0b30001407800ed
