:020000040000fa
:080000000002040000000000f2
:020000040000fa
:100008004c03000096bf0000c2bf0000e8bf00001c
:100018000ec0000034c000004c0300004c03000078
:100028004c030000e0ac00004c0300002aba0000ba
:100038001eb000004c0300004c0300004c030000fd
:100048004c0300004c0300004c030000e6a1000034
:10005800aca100004c0300004c0300004c0300005e
:100068004c0300004c0300004c0300004c0300004c
:100078004c0300004c0300004c0300009eac000041
:100088004c0300004c0300004c03000068bb000058
:1000980054ba00004c03000022a30000e8a20000ac
:1000a8004c0300006ab500004c030000e6ae0000f7
:1000b8004c0300004c0300004c0300004c030000fc
:1000c8004c0300004c0300004c0300004c030000ec
:1000d8004c0300004c0300004c03000072ba0000ff
:1000e800b0ba00004c030000587b00004c0300002d
:1000f8004c03000040be00004c0300004c0300000d
:100108007cae00004c0300004c0300004c030000d0
:100118004c0300004c0300004c0300004c0300009b
:100128004c0300004c0300004c0300004c0300008b
:100138004c0300004c0300004c0300004c0300007b
:100148004c0300004c0300004c0300004c0300006b
:100158004c0300004c0300004c0300004c0300005b
:100168004c0300004c0300004c0300004c0300004b
:100178004c0300004c0300004c0300004c0300003b
:100188004c0300004c0300004c0300004c0300002b
:100198004c0300004c0300004c0300004c0300001b
:1001a8004c0300004c0300004c0300004c0300000b
:1001b8004c0300004c0300004c0300004c030000fb
:1001c8004c0300004c0300004c0300004c030000eb
:1001d8004c0300004c0300004c0300004c030000db
:1001e8004c0300004c0300004c0300004c030000cb
:0801f8004c0300004c03000061
:020000040000fa
:100208004c03000096bf0000c2bf0000e8bf00001a
:100218000ec0000034c000004c0300004c03000076
:100228004c030000e0ac00004c0300002aba0000b8
:100238001eb000004c0300004c0300004c030000fb
:100248004c0300004c0300004c030000e6a1000032
:10025800aca100004c0300004c0300004c0300005c
:100268004c0300004c0300004c0300004c0300004a
:100278004c0300004c0300004c0300009eac00003f
:100288004c0300004c0300004c03000068bb000056
:1002980054ba00004c03000022a30000e8a20000aa
:1002a8004c0300006ab500004c030000e6ae0000f5
:1002b8004c0300004c0300004c0300004c030000fa
:1002c8004c0300004c0300004c0300004c030000ea
:1002d8004c0300004c0300004c03000072ba0000fd
:1002e800b0ba00004c030000587b00004c0300002b
:1002f8004c03000040be00004c0300004c0300000b
:100308007cae00004c0300004c0300004c030000ce
:100318004c0300004c0300004c0300004c03000099
:100328004c0300004c0300004c0300004c03000089
:100338004c0300004c0300004c0300004c03000079
:100348004c0300004c0300004c0300004c03000069
:100358004c0300004c0300004c0300004c03000059
:100368004c0300004c0300004c0300004c03000049
:100378004c0300004c0300004c0300004c03000039
:100388004c0300004c0300004c0300004c03000029
:100398004c0300004c0300004c0300004c03000019
:1003a8004c0300004c0300004c0300004c03000009
:1003b8004c0300004c0300004c0300004c030000f9
:1003c8004c0300004c0300004c0300004c030000e9
:1003d8004c0300004c0300004c0300004c030000d9
:1003e8004c0300004c0300004c0300004c030000c9
:0803f8004c0300004c0300005f
:020000040000fa
:10040000cf0c21000efb27000e0188000000000029
:100410000c000700e09728000100200011000700f1
:10042000000020000000e000020032000000020096
:100430000000000006c70200000000000040da00d3
:100440000000fe004440a900a0f420000000e000ed
:100450000300320000002000a00188004440a800f2
:100460000000060091018800800078000000eb0089
:1004700015003700e280400032a0b4009101ba00bc
:10048000e280400032a0b4009102ba00e280400055
:1004900032a0b4000002eb00472bde00f507b200eb
:1004a000602ce10004003a000059eb008301e900f0
:1004b000fdff3e00040037006128e100010032002a
:1004c0000082eb00040007001101ba000200e00006
:1004d000e8ff3a00000006003159ba008301e90044
:1004e0000c0032002159ba008301e90008003200f3
:1004f0000400e00003003a00e280400032a0b400b3
:10050000f5ff370011d9ba008301e900faff3a007c
:100510008100e800e180400032a0b4000000060045
:1005200080850400000000008cb104000000000081
:10053000aab104000000000078b10400000000002f
:10054000bab1040000000000d0b1040000000000b7
:100550000ab204000000000052b2040000000000d3
:100560007ab2040000000000b4950400000000000e
:1005700002be040000000000f08004000000000043
:10058000f88304000000000038840400000000002c
:1005900048a4040000000000aa7f0400000000003e
:1005a000507e040000000000607e04000000000097
:1005b000747e040000000000267f0400000000009c
:1005c000c27e040000000000027f04000000000062
:1005d0000e7f040000000000367f040000000000d1
:1005e000487f040000000000707f0400000000004d
:1005f0009e7f040000000000647f040000000000f3
:10060000b07f0400000000002cb5040000000000d2
:100610004cc2040000000000b49904000000000077
:10062000bc99040000000000fa99040000000000da
:100630006a9a040000000000ae9a04000000000066
:10064000ee9a040000000000349b0400000000004b
:100650004874040000000000ac74040000000000b6
:100660005c7404000000000014740400000000002a
:10067000027504000000000086170400000000005e
:100680009a04040000000000e826040000000000b6
:1006900000000400000000000040da000000fe003e
:1006a0001200fa006007980071079800020f980086
:1006b0000022200010079800202220002007980028
:1006c0006022200030079800802220004007980018
:1006d0006e00900060004000e20f500042003e00bb
:1006e000f0fe8300e20f500008003a0000232000d3
:1006f0001007980020232000200798006023200086
:100700003007980080232000400798001e009000ca
:10071000900078000000280000806000e00f50008a
:1007200008003a004e0090008000eb0001087800bd
:100730001e00900010017800010028008100710067
:10074000010878000e089000000f78001c003700a8
:10075000000a200050079800030037005e00900058
:100760000000e900500798002e009000100078006b
:1007700061006000e00f500003003a005e0090004e
:10078000e00f5000f5ff3a002e00900010007800b6
:1007900061006000e00f50000d003200fe0090008c
:1007a0003e009000100078000040780080487800fb
:1007b0007e0090000000e800700798001e0fe9001e
:1007c0001e007800e00f5000e1ff3a000100370002
:1007d000000000001e0078008e089000008050008d
:1007e000000f980001003700000000000e08900084
:1007f0000080fa00000006001000fa005007980080
:1008000061079800720798000022200010079800e6
:100810002022200020079800402220003007980066
:1008200080222000400798005e0090006000400099
:10083000e20f50003b003e00f0fe8300e20f50004c
:1008400008003a0000232000100798002023200011
:1008500020079800402320003007980080232000c4
:10086000400798001e0090009000780000002800cb
:1008700000806000e00f500008003a004e00900039
:100880008000eb00010878001e0090001001780045
:100890000100280081007100010878002e009000fe
:1008a000900078000040200000806000e00f5000c1
:1008b00005003a002e009000100178000140200051
:1008c00081007100010878007e009000000f780020
:1008d00010003700000000002e009000900078000b
:1008e0000010200000806000e00f5000faff32008e
:1008f0006e009000104078008000fb003e009000e9
:10090000010878006e0090000000e8006007980081
:100910001e0fe9001e007800e00f5000edff3a00c6
:1009200001003700000000007e0090000080fa0007
:1009300000000600889fbe000004780001007800d7
:1009400082047800880178000901780011002000f5
:10095000c70b0700890f5000010032000004eb00b4
:10096000080078004f04be00000006000000fa00f6
:10097000e88157004fb9970001eb2000a049200003
:10098000020007000080fa00000006004f06b000d9
:10099000889fbe008a9fbe008c9fbe008e1f78007d
:1009a00080057800010578008204780083007800d3
:1009b00000f92f000f004000ab0b070028f92f00b3
:1009c0000f0444004b0498005a0498000000eb0008
:1009d000600c98000efc20004dfb2000fcff27005f
:1009e000194078008085fb000b05fb008b05ea00b1
:1009f000cf5dde0050022000800f55000d00320058
:100a0000e18f55000b003a00c80190000b017800ff
:100a100089007800580090000300010050049800fd
:100a2000e00f50008b003200680890000000e800e2
:100a3000600c98008b84440050022000800f550009
:100a400004003200e00f5500e5ff3a007f90970068
:100a5000810037000000eb00400c9800300c98003b
:100a6000200c9800100c9800000c9800700498005e
:100a700000149800070037000e00500000004000ee
:100a80006d0078008810900001007000001498003c
:100a90008904e800194578008a00fb0000fc20006a
:100aa000680b0700e00f5000f3ff3a00a1c2b3004b
:100ab000814f55000e003a008f8897000180e900b1
:100ac000808f9f0010007800700c9800e00f50009d
:100ad00005003d000000ea00700c9800081090002e
:100ae0000020a000001498008904e8000f003700df
:100af000700c980008003700780890008c0f5000a8
:100b0000040032006a00b9000003b1000200400096
:100b1000700c98008904e8001901fb0000fd2f000b
:100b200002004000e90f5000f3ff3600e0c2b300be
:100b3000994f1000030032000080eb00500c980029
:100b40001a003700a0c2b300d94f100007003a00c6
:100b50008f8897000180e900808f9f001000780047
:100b6000500c98008904e800100037000000eb00ea
:100b7000500c980008003700580890008c0f500067
:100b8000040032006a00b9000003b1000200400016
:100b9000500c98008904e8001901fb0000fd2f00ab
:100ba00002004000e90f5000f3ff360019457800bd
:100bb0008a00fb00c0fa2000220b0700e00f500063
:100bc000020032008904e800010037000045780087
:100bd0002a64980080c6b300804f550004003a0094
:100be000994f15000a003a00664050000600370091
:100bf000c0c6b300804f550005003a00994f15005c
:100c000003003a0065404000206498008904e80031
:100c10001901fb0063fb2f008f81410001f92f00b8
:100c20008f8040000800780011000700e00f50009e
:100c300008003a0061fb2f008f8040000800780018
:100c4000560f0700e00f5000020035008904e8004d
:100c500063ff37000080eb004f0778004f06be00af
:100c60004f05be004f04be004f06b1000000060055
:100c7000881f78000102780082407800e2c6b30045
:100c800082cf5000c200320010003c006b41510086
:100c900082cf50001800320005003c0052c2b30061
:100ca00082cf5000ff00320082c5b3000f00370032
:100cb00042c6b30082cf50001700320065414100a8
:100cc00082cf5000fa003a001300370002c7b30089
:100cd00082cf5000e50032005c00350065414100e4
:100ce00082cf5000590032006341410082cf500052
:100cf000ef003a00550037001481e900020a78003d
:100d0000f00090001241780082f178008100e80044
:100d100071009800ee00370020619000c5c6b30056
:100d2000854f510009003a00940278006481520016
:100d3000020a78001202be00120190004f91de00fc
:100d400002037800820378001200370015c7b30051
:100d5000854f510003003200a5c6b300854f5100f6
:100d600006003a009402780068815200020a780076
:100d70003202be002203be00060037001481e900e3
:100d8000020a780012027800cfa2de000503780084
:100d9000860378000498be000690be002061900093
:100da00088c6b300884f51000e00320028c6b30039
:100db000884f510005003a000402fb00cfa2de007c
:100dc00005037800860378000900370048c7b300a0
:100dd000884f51000300320066444400884f5100a0
:100de00005003a00cfa2de000503780086037800f4
:100df0000498be000690be003002be002003be0074
:100e000070019000e00f5200e08f5a00e00f5b008d
:100e1000e08f5b0002003d00d4c2b3000800370041
:100e200000129000e202620002003200b4c2b3007d
:100e300003003700610262005100320004c2b300b7
:100e4000847179000201e8004c00370020619000b5
:100e5000c5c6b300854f510007003a0094027800e0
:100e600064815200020a78001202be000003eb0007
:100e7000860378001200370015c7b300854f510074
:100e800003003200a5c6b300854f510006003a00aa
:100e90009402780068815200020a78003202be0093
:100ea0002203be00060037001481e900020a780020
:100eb0001202780005002000060020000700200034
:100ec0000498be000690be002061900088c6b30062
:100ed000884f51000e00320028c6b300884f5100e1
:100ee00005003a000482fb000500200006002000f7
:100ef000070020000900370048c7b300884f5100a1
:100f00000300320066444400884f510005003a0057
:100f10000500200006002000070020000498be0005
:100f20000690be00001190006801610014003200bc
:100f30003002be002003be00e00f5200e08f5a00d6
:100f4000e00f5b00e08f5b000d00320082c7b30052
:100f500082cf50000300320082c5b30082cf500020
:100f600007003a007002900002c3b30082717a0059
:100f70000401e800817179000481e80072009800a2
:100f800070019000828141006300980043003700a7
:100f9000a0609000c3c6b3001481e90083cf500065
:100fa000260032000a003c00e4c1510083cf50000b
:100fb0001f00320083c1e80083cf500013003200cd
:100fc000e8c1510083cf500022003a000a003700e8
:100fd00043c7b30083cf500015003200e6c1410083
:100fe00083cf500012003200e9c1510083cf50007e
:100ff00018003a0005003700020a780092007800d5
:10100000405890008048780031003700020a78008c
:101010001202780060089000cf80de0001017800a5
:1010200082017800009abe000292be0028003700bc
:10103000020a78009200780009003700020a78005e
:101040001201780060089000cf80de000089be00a9
:101050001f0037009480e900010a780091007800b1
:101060006008900080087800190037009480e9003b
:10107000010a780011027800cfa2de000503780093
:10108000860378000498be000690be00f000900031
:10109000818141006300980081c7b300f90c07000b
:1010a0000b00370070019000817179000600370055
:1010b0007001900082814100e0cf500001003a00b1
:1010c00051c2b300814978000201e8007200980023
:1010d0000000eb004f047800000006000000df0075
:1010e000000006000080cf00000006002200f8008b
:1010f0002400f8002600f8000100b8000000e90014
:101100004400f800010f20002102880082007800ce
:101110003800f8003a00f8003c00f8003e00f80003
:101120004000f8000080080004000000b3027800ce
:101130000500ca00b40278000500c9003200cc00e6
:101140004000f9003e00f9003c00f9003a00f900c7
:101150003800f900010078004400f9002600f90089
:101160002400f9002200f900000006002200f80027
:101170002400f8002600f800889fbe008a9fbe0069
:101180008c9fbe004400f8000d0f20002d02880047
:10119000830678000106e9008205e90081804000ad
:1011a000020141000000e900240035000505780037
:1011b0003800f8003a00f8003c00f8003e00f80063
:1011c0004000f8000b8008001400000004047800c0
:1011d0008a0478001201c3003800f8003a00f800d1
:1011e0003c00f8003e00f8004000f8000c800800c9
:1011f0000300000038037800990378001201c6004c
:10120000828444004000f9003e00f9003c00f900ef
:101210003a00f9003800f9003300cd000a85e800f3
:101220004000f9003e00f9003c00f9003a00f900e6
:101230003800f90001024200daff37000d007800a3
:101240004400f9004f06be004f05be004f04be002b
:101250002600f9002400f9002200f9000000060031
:101260002200f8002400f8002600f8004400f800ee
:10127000050f2000250288000100b8000000e900e9
:10128000820078003800f8003a00f8003c00f800ce
:101290003e00f8004000f800008008000200000056
:1012a000b30278001301c0003200cd004000f90005
:1012b0003e00f9003c00f9003a00f9003800f9005e
:1012c000010078004400f9002600f9002400f9002c
:1012d0002200f900000006002200f8002400f800b7
:1012e0002600f8002800f8002a00f8002c00f8007a
:1012f0000100b8000000e9004400f800010f2000e0
:1013000021028800820078003800f8003a00f800d6
:101310003c00f8003e00f8004000f80000800800a3
:1013200005000000b30278000500ca00b40278008e
:101330000580ca000030cb003200cc004000f9002c
:101340003e00f9003c00f9003a00f9003800f900cd
:10135000010078004400f9002c00f9002a00f9008f
:101360002800f9002600f9002400f9002200f90005
:1013700000000600820278000000e9000102e90096
:10138000818040003800f8003a00f8003c00f80086
:101390003e00f8004000f800048008001100000042
:1013a000030278003800f8003a00f8003c00f8002a
:1013b0003e00f8004000f800008008000100000036
:1013c00014197800010242004000f9003e00f900c3
:1013d0003c00f9003a00f9003800f9000000000074
:1013e0008381e800000000004000f9003e00f900a1
:1013f0003c00f9003a00f9003800f90005007800d7
:10140000000006002200f8002400f8002600f80082
:101410004400f800040f2000240288000102780034
:101420000000e9003800f8003a00f8003c00f8003d
:101430003e00f8004000f8000080080004000000b2
:10144000b20278000500ca00b30278000500c900a6
:101450003100cc004000f9003e00f9003c00f900ea
:101460003a00f9003800f900040078004400f9005f
:101470002600f9002400f9002200f900000006000f
:101480002200f8002400f8002600f800889fbe0023
:101490008a1f78004400f800070f20002702880008
:1014a000821f78008103e9000005eb003800f80096
:1014b0003a00f8003c00f8003e00f8004000f80058
:1014c00007800800140000000304780084047800fa
:1014d0001201c3003800f8003a00f8003c00f800a0
:1014e0003e00f8004000f8000a80080002000000fa
:1014f000b8027800290378001201c4004000f90006
:101500003e00f9003c00f9003a00f9003800f9000b
:101510003200cd000482e8000a05e8004000f9002e
:101520003e00f9003c00f9003a00f9003800f900eb
:101530000482e9008381e8000105500021003400a5
:101540000a05e9003800f8003a00f8003c00f8000d
:101550003e00f8004000f8000a8008001300000078
:1015600003047800840478001201c3003800f800f6
:101570003a00f8003c00f8003e00f8004000f80097
:101580000780080002000000b802780029037800f4
:101590001201c4004000f9003e00f9003c00f900cf
:1015a0003a00f9003800f9003200cd008381e800ec
:1015b0004000f9003e00f9003c00f9003a00f90053
:1015c0003800f9008703e900210035003800f800f1
:1015d0003a00f8003c00f8003e00f8004000f80037
:1015e00007800800140000000304780084047800d9
:1015f0001201c3003800f8003a00f8003c00f8007f
:101600003e00f8004000f8000780080002000000db
:10161000b8027800290378001201c4004000f900e4
:101620003e00f9003c00f9003a00f9003800f900ea
:101630003200cd008381e8008703e9004000f90013
:101640003e00f9003c00f9003a00f9003800f900ca
:101650004f0078004400f9004f0578004f04be00a9
:101660002600f9002400f9002200f900000006001d
:101670003600f800810178000000e90000800900d0
:10168000b2187800030078003600f9000000060068
:10169000840378008102e9008502d000050342003e
:1016a0008102d1008502e9003800f8003a00f80014
:1016b0003c00f8003e00f8004000f80005800800fb
:1016c000020000009602780017137800851b78004e
:1016d0004000f9003e00f9003c00f9003a00f90032
:1016e0003800f900400a0200000000000000060077
:1016f0002200f8002400f8002600f8004400f8005a
:10170000040f2000240288000000e9001201c30039
:101710003800f8003a00f8003c00f8003e00f800fd
:101720004000f8000080080002000000310278004c
:10173000b20278001201c0004000f9003e00f9003a
:101740003c00f9003a00f9003800f9000000cd0033
:101750004400f9002600f9002400f9002200f900f5
:1017600000000600b10278000009eb000002e90069
:1017700007003400b10178000328e10002003c00ba
:1017800083027800040950000402e900f9ff3c00dc
:101790000500780000000600b10278000009eb00a7
:1017a0000002e90007003400b10178000328e100dd
:1017b0000200350083027800040950000402e900a9
:1017c000f9ff3c0005007800000006002200f80048
:1017d0002400f8002600f8004400f800040f200060
:1017e00024028800811f78000000e9003800f8001a
:1017f0003a00f8003c00f8003e00f8004000f80015
:10180000008008000300000032027800b302780074
:101810001301c0003100cd004000f9003e00f90086
:101820003c00f9003a00f9003800f9004f00780058
:101830004400f9002600f9002400f9002200f90014
:10184000000006002200f8002400f8002600f8003e
:101850004400f800030f2000230288008101780073
:101860000000e900040028001201c3003800f8005d
:101870003a00f8003c00f8003e00f8004000f80094
:101880000080080003000000b20278001201c000ce
:101890003100cc001201c3004000f9003e00f90005
:1018a0003c00f9003a00f9003800f9000300780024
:1018b0004400f9002600f9002400f9002200f90094
:1018c000000006002200f8002400f8002600f800be
:1018d0004400f800020f2000220288000000e90006
:1018e0001201c3003800f8003a00f8003c00f8008c
:1018f0003e00f8004000f8000080080001000000f1
:10190000310278001001f0004000f9003e00f900bb
:101910003c00f9003a00f9003800f9000000cd0061
:101920004400f9002600f9002400f9002200f90023
:10193000000006002200f8002400f8002600f8004d
:101940004400f800040f200024028800811f780062
:101950000000e900030278003800f8003a00f800bf
:101960003c00f8003e00f8004000f800008008004d
:1019700002000000b20278001301c0003100cd0067
:101980004000f9003e00f9003c00f9003a00f9007f
:101990003800f9004f0078004400f9002600f900f3
:1019a0002400f9002200f900000006002200f800df
:1019b0002400f8002600f8002800f8002a00f800ab
:1019c0002c00f8004400f800040f200024028800d6
:1019d000010278000000e9003800f8003a00f80041
:1019e0003c00f8003e00f8004000f80000800800cd
:1019f00005000000b20278000500ca00b3027800ba
:101a00000580ca000030cb003100cc004000f90056
:101a10003e00f9003c00f9003a00f9003800f900f6
:101a2000040078004400f9002c00f9002a00f900b5
:101a30002800f9002600f9002400f9002200f9002e
:101a4000000006003600f800020378000002d00013
:101a50008102e9008200780003017800380b02005f
:101a60000000000004004000010020000580090083
:101a700001187800060078003600f9000000060022
:101a80009820a90061e2a9008820a90000000600b2
:101a90008820a900670160004411dd00a3058000d3
:101aa000f1f82f008180610082807000a10588001c
:101ab000680060004300de006100600080004000bc
:101ac000c00480000010a10001007000c004880064
:101ad00000000600101388002113880002138800fc
:101ae0000000060003f0a200889fbe008a9fbe008f
:101af0008c1f7800b5010700bc0133006450e10081
:101b00004f0032006420e1005200320003826c007a
:101b100007003b000905d0000306d000820f5400e7
:101b20000c065d00020039000200320089017800d5
:101b3000030678008582550004003d000003fd0087
:101b40008103fd008502ea008b854200840f72004c
:101b500002003b0060001000e08018006011b80037
:101b60000005eb007a28e1000a0039000600780041
:101b7000c75ddd00f707b200878075002d003700d4
:101b8000828171000a017800610560008180d100c6
:101b90000080d3008502e900f9ff3b000604400005
:101ba0008784480002003b0060041400e0841c00ad
:101bb0000988a300070032008a81710082817100c8
:101bc000610164008904d1000884d3008b05e8001a
:101bd000170037000978a30013003a000b00e0005b
:101be000130034008b05e9000804440089844c008c
:101bf0000a4474000978a3000d003a000b00e000cd
:101c0000070034008b05e9000804440089844c0077
:101c100001003a000b0020000978a300f7ff320012
:101c20000001eb0002003700828171000a01780098
:101c30002b0107000cf0a70001f0a0007401370091
:101c40006420e10002003a00838f6c0074013300cd
:101c50000801be000200be006d013700889fbe0073
:101c60008a9fbe008c1f7800580107005f01330077
:101c700003866c006450e1002e0032006420e10015
:101c8000330032006150e1002f0032006120e1009a
:101c90003100320085855500eb07b00009002000b7
:101ca00008042000050037000804440089844c0023
:101cb0000a0031000603430087834b0000015300f4
:101cc00081815b00f8ff33000203be000800a00022
:101cd0000804440089844c00f6ff3900c639dd0051
:101ce0008301730001003200130020008904d10039
:101cf0000884d3000998a300050032000800a7005b
:101d00000300a0008904d1000884d3008b05e800fb
:101d10008904d1000884d3000001eb000281d200c5
:101d2000ef00070001f0a1000cf0a70001f0a000f7
:101d3000370137006420e100390132000801be009c
:101d40000200be00f7ff37006120e10034013200dd
:101d50006000b800f3ff37000000200001f8270002
:101d6000f0ff3700839f68000100e00002003d00a3
:101d700060001000e08018000300e00002003d0059
:101d800060011100e0811900fc0207004f00e00033
:101d900002003b0060001000e08018000000060018
:101da000889fbe008a9fbe008c9fbe000004be00bc
:101db000f10007000800be006420e10048003e007a
:101dc0005500320072212700132b24005800070011
:101dd00047003c000800be00c2ec2800e32c2c00a9
:101de00051000700470035000800be0001f0a100c7
:101df00002002000033823004b0007004300350099
:101e00000800be00b2a32a0083fb23008f01070055
:101e10000200200003f0230001f0a70003f0a0005f
:101e200031ff0700440007000005be007e000700e8
:101e300001f0a2000006be000200280013f32300f8
:101e4000820107000801be0027ff0700809fbe0037
:101e50000c00be0032082800e3952b007b01070030
:101e60004f01be0020ff07000006be000001be00bb
:101e700076010700809fbe004241250083b8230001
:101e8000720107000200200003e8230016ff07008c
:101e90000c01be006d0107000006be004f00be0031
:101ea000f2f92b00c3d423006801070002002000d0
:101eb00003f023000cff07000c01be0009ff070020
:101ec0000001be000c00be0064ff070002002000fd
:101ed00003f0230004ff070061014500d300070061
:101ee0004f06be004f05be004f04be0000000600b6
:101ef00001f8270000002000220220003274880030
:101f0000f7ff37006000b800fbff370001f823003f
:101f100000002000f2ff370009f8a300f0ff3200b4
:101f20006000b800eeff370014002000d403370033
:101f3000f4ff2f00d20337000001be008e0007001f
:101f40000470a70003f0a1006509b100160032007b
:101f50000d0035006828e10006003500f0ff2f0075
:101f6000f1ff27000300e00013003b000100280000
:101f70000000050000004000818048008502e90063
:101f8000fcff3a0008003700f88f420002003c00d6
:101f90008000eb00000005008100d1000080d3002c
:101fa0008502e800fcff3a000300e00002003b006d
:101fb00060001000e0801800000006000001be0074
:101fc0006d0007000470a70003f0a10003f8a30050
:101fd00013003a006509b100100032000900350015
:101fe0006928e1000200350001002800000005001a
:101ff00000004000818048008502e900fcff3a00b3
:1020000000000600f88f4200050035008100d10075
:102010000080d3008502e800fcff3a0000000600c3
:102020008000eb0000000500881f780001047800a4
:102030000100e00005003d0060001000e080180095
:1020400002003b0001f02c000300370004000700f1
:1020500008f0a70001f0a0004f047800000006007f
:10206000889fbe008a9fbe00010578000000e00046
:10207000180032000004be006011b8006b09200097
:102080000982cf00020039000882cf000441b0006d
:10209000694252000e00320008003b00828171004c
:1020a000610164008904d1000884d3008b05e80035
:1020b0000442e800f9ff3a00050037000804440034
:1020c00089844c008b05e9000442e900fbff3a00db
:1020d000030007004f05be004f04be0000000600cd
:1020e00081002000618055000b003d000b002000a6
:1020f00061fe2f000100e1001d00340082817100ab
:10210000610164008904d1000884d3000000e80064
:10211000faff3a00710020006100640003007000c3
:10212000020060000900320061044400e0844c00b9
:102130000988a500050032008b05e8006808e10069
:1021400002003a008904d1000884d300f20f200075
:102150000258e10005003d00c75ddd00f907b2004f
:102160008980750008007800000006000bf8270041
:102170008b00780000000500c70ade00f107b200fe
:10218000f50fb20008003200e1cf42000200320039
:102190000170a00024000500810f700001003200d2
:1021a0000408050044000500810f700002003a0099
:1021b000140005008502e9000000400081c04800cd
:1021c000fcff3b000170a000240005000004be00dd
:1021d000e9ff07000003be000405be000200be00c8
:1021e000e5ff0700844f7500000006000200be00f6
:1021f0006450e100050036006420e1000200360072
:102200000968a30001003a000800be000160a000b8
:102210004f0678004f05be004f04be0000000600c8
:10222000f0ff2f00f1ff2700f9ff37000003be0089
:10223000d1ff07006220e100020032000600be006c
:102240000000060085024100e30f20000328e100a2
:1022500005003c00a3fe2f000328e10007003d001d
:102260000500200001003700f50f200020022000ab
:10227000307488006000b8000800370013002000a8
:102280008381520005003d008100d1000080d30011
:102290008301e800fcff3a0005002000c72add00aa
:1022a000f107b2008580700007f0a70001f0a000e0
:1022b00000000600889fbe008a9fbe008c9fbe0063
:1022c000bb020700850478000005be006420e10021
:1022d00049003e006220e1000300320009003500a1
:1022e0000bf8a300440032000bf8a30008003200f2
:1022f0001002200030748800f0ff2f00f1ff27004b
:102300003d00370001f82f00000020003a003700a0
:102310003d000700f3fd07000006be000a00be00f6
:10232000324f200053f3230001ff07000600340062
:102330000c00be0034000700eafd07000006be00e6
:102340000a00be00020037008904e9000c00be004c
:102350002d0007003d0007002b000700e2fd0700ed
:102360000001be000c00be003cfe07000005be00e0
:102370000001be00350007000006be00a2f32300e6
:10238000430d2c00d8fd0700809fbe000c00be004e
:10239000d2e32700d3f02b002c0007004f01be0032
:1023a0002efe07000006be000a01be00270007003f
:1023b0000a01be00ccfd07000006be006148b9005e
:1023c00019ff07000005be0032082800e3952b0026
:1023d0001e0007000c01be00c3fd07000006be0082
:1023e0000a00be000200280013f3230017000700b4
:1023f0000c01be00bcfd07004f06be004f05be002d
:102400004f04be000000060003f023000200050098
:10241000811f78000100e00002003d006000100014
:10242000e08018000300e00002003d0060011100a0
:10243000e0811900610107004f00e00002003b004d
:1024400060001000e080180000000600889fbe00b9
:102450008a9fbe008c1f78005cff070063ff33007b
:1024600003866c006450e100240032006420e10027
:10247000270032006150e100220032006120e100bb
:10248000210032008b854200eb07b1000134b80017
:10249000003ab8000804420089844a00013ab800b2
:1024a0000030b8008880400009014a000400330071
:1024b0000000400081804800020149008b05e900ce
:1024c000c909dd0083017000010032001300200003
:1024d000c814de004814dd004709de001200b20017
:1024e000c808de0008847000fdfe070001f0a100ae
:1024f0000cf0a70001f0a00045ff37006120e100cb
:1025000047ff32000801be000200be00f7ff37009f
:102510006150e100fcff3a0041ff37000c00fa0077
:10252000889fbe008a9fbe008c9fbe0027ff0700c9
:102530000206be00840578000200be0002002000f2
:102540002802070005003a008b02b30012002000a9
:102550002402070001003a00f8856d000c01be005e
:10256000c60007000800be009b0032000b08a30055
:102570009e003a000df0a7000be0a00009f0a700b4
:102580000bf0a00009f0a1000801be00bb0007008d
:102590000bf0a6009500320001003c000bd0a0001b
:1025a0008acf7500b20033006000b8006250e100cd
:1025b00099003900a1003e000b28a300a2003a00b8
:1025c0000bf8a300060032000b58a300a70032004e
:1025d0000801be00a90007000800be0094003200f8
:1025e0000800be00f20107000004be0005057800e7
:1025f0000bf0a7000b30a6000bf0a1005b079800c2
:10260000324f200053f3230047fe070005003d0032
:102610000800be001200200004ff07000004be00f6
:102620000a05e9004a0798006150b9007efe0700dc
:10263000008fbe000c01be0084ff07003efe0700b5
:10264000300798000100e00002003d00600010002b
:10265000e0801800f2ff2700820f5000e08f580042
:1026600064003e000c00be0033fe07002007980007
:10267000f2072000820f5000e08f580005003c0058
:1026800012f82f00f3ff2f00820f5000838f5800a5
:1026900009003d000a00e0000300320001003c0098
:1026a0000201ea00020578006000b80020079800e7
:1026b0003a079800190037003e0090006100b90009
:1026c00059fe0700809fbe000c00be004109dd00de
:1026d0004811de007208b100c20107000005be000b
:1026e0001e01be0059ff07004f01be00fdfc0700a0
:1026f000809fbe000c00be000a01be00f9fc07006e
:102700001e01be0051ff07004f01be00f6fc07008e
:102710008221270013f323004cff07000005be00b1
:102720002e0090006100b9003ffe070001f0a200fa
:102730000c01be00ecfc07000006be000800be0055
:10274000dcfe07000c01be0040ff07000a01be00ce
:10275000e5fc0700809fbe004a0007002e059000a0
:102760000af0a7000a05ea00050037000800be00cd
:102770000801be0035ff07000004be000c00be00cb
:102780000801be000a00a70030ff07000006be00d7
:102790000a05d100f5ff3a005e01900002e0a600b4
:1027a000030037000001be00360007002bfd0700c4
:1027b0000004be004f00be0079fd07000801be0006
:1027c00022ff07003e01900098fe0700de05900002
:1027d0000bf0a70001f0a2004f06be004f05be009f
:1027e0004f04be000080fa0000000600250007002c
:1027f000f9ff3700270007006000b8000bd0a700e2
:102800000bc0a0000be0a7000bc0a2000bc0a700ec
:1028100001f82700f0ff37000df8a3000200320096
:102820001e000700190007000bf8a300eaff3200a2
:102830000b30a70001f0a200e7ff37000df8a3005e
:10284000f9ff3a00f7ff37000801be000b00070050
:10285000e6ff320001003c000df0a2006000b8006d
:102860000df0a70009000700dbff37000b00070091
:10287000f1ff2700f0ff2f00d7ff3700010007000e
:10288000a9fd370001f823000000050001f827002a
:102890000000050020022000010037001002200087
:1028a0003074880000000600889fbe008a9fbe002a
:1028b0008c1f78000004be002ffe07000478a300e0
:1028c00026003a006120e1002500320009f8a3004b
:1028d00025003a006420e10021003200f507b10034
:1028e0000508a3000200320000004000818048007b
:1028f0006044b800031020000200200000004000e7
:10290000818048000805440089854c000a05410083
:102910008b8549000a0550008b8558000300330061
:102920000a00be0002047400838474008301d10095
:102930000281d300830f7100f0ff3a008904d100b7
:102940000884d3006001490082017800c1adde0037
:10295000fb07b000e2fd07002dfe37000960a00074
:102960000800be002afe37001202200032748800e0
:10297000f0ff2f00f1ff270025fe37006022b8008e
:10298000060220000000d0008180d2000482d20024
:102990008582d2000000a0000202520083825a0009
:1029a000030031000202420083824a000000a100bd
:1029b0000603e900f3ff3a0000000600efff0700fe
:1029c0000400be0000000600889fbe008a9fbe0073
:1029d0003004be002005be000404440085844c0081
:1029e00006054d0087854d000898be000a90be0080
:1029f0000440e10005c8e10006d0e10007d8e1008d
:102a000002003100680040001008e8004f05be00d9
:102a10004f04be0000000600889fbe008a9fbe00d3
:102a20008c1f7800000678003c04be002c05be0018
:102a30000400540085805c0006015d0087815d0014
:102a4000009ebe00029ebe00100020000440e10077
:102a500005c8e10006d0e10007d8e1000100390017
:102a60000000eb001c0e10004f0678004f05be0062
:102a70004f04be00000006001200fa00889fbe004e
:102a80008a9fbe008c9fbe000205be000004be00ef
:102a9000e4b79f00f5b79f0086bf9f0097bf9f00d8
:102aa0000000eb00d0b79f00c0b79f00b0b79f00f9
:102ab000a0b79f0090b79f0000067800fd0320009c
:102ac000dfb197004fb0970003814100bfb097007e
:102ad000e08f510004003d00290007007e80570070
:102ae000b9ff070003003700250007007e8057006c
:102af000c9ff0700dfb09700e08f500007003500e6
:102b000014002000050020006033b80008047200a3
:102b1000898472000a0573008b8573000c06e80037
:102b20008d0f5600e6ff3400e08f500006003d0098
:102b30006fb29700ffb297000fbb97009fbb970043
:102b40007e805700a0ff07005fa89700e00f5000ad
:102b500004003a001fb49700afb497003fb5970048
:102b6000cfb597000800be000a01be004f06be00a8
:102b70004f05be004f04be000080fa0000000600b2
:102b8000cf01de0002817100b2b79f004f09de0065
:102b90000000400000007100a0b79f000fb0970038
:102ba0004f01de00818040008100710091b79f00dd
:102bb0007faa9700cf20de00000040000080700058
:102bc00080b79f000800be000a01be004f18de005b
:102bd0000402420000027200f4af9f0008044400a7
:102be00089844c000a054d008b854d004fb297003b
:102bf000dfb297006fb39700ffb3970000000600a5
:102c0000881f780018002000881f78009aff0700ae
:102c10008f87e9004f04780000000600801feb005a
:102c200095ff07008f87e90000000600889fbe001f
:102c30008a9fbe008c1f7800e00f5000e08f580084
:102c4000e00f5900e08f59000f003d006044b800cc
:102c50006055b8000000540081805c0002015d00f6
:102c600083815d001c0020000820e10009a8e1002c
:102c70000ab0e1000bb8e1000d003d0019000700ab
:102c80000006eb000a0037000006eb00e00f5200e0
:102c9000e08f5a00e00f5b00e08f5b0004003d0016
:102ca0006044b8006055b8000e0007001c0020000a
:102cb000d3ff0700e00f5600060032006022b80084
:102cc0006033b8000000520081805a0002015b00ae
:102cd00083815b004f0678004f05be004f04be00a5
:102ce000000006000402540085825c0006035d00bb
:102cf00087835d0000000600889fbe008a9fbe009b
:102d00008c1f7800e00f5000e08f5800e00f590052
:102d1000e08f59000d003d006044b8006055b800d8
:102d20000000540081805c0002015d0083815d0031
:102d30001c0020000820e10009a8e1000ab0e10021
:102d40000bb8e1000d003d00080037000006eb0065
:102d5000e00f5200e08f5a00e00f5b00e08f5b0055
:102d600006003d006044b8006055b80004025400fd
:102d700085825c0006035d0087835d00a7ff070076
:102d8000e00f5600060032006022b8006033b80041
:102d90000000520081805a0002015b0083815b00c9
:102da0004f0678004f05be004f04be00000006002d
:102db0000003be00f0fc07006220e10002003200c8
:102dc0000600be0005000500e507b100f107b200ee
:102dd00004f023008480700007f0a70001f0a00039
:102de00024000500889fbe008a9fbe000003be002d
:102df000e1fc070085057800828152000200200076
:102e00006220e10004003a00f307b100040035003d
:102e10007718e100040035000600be0014003700fa
:102e20006000b8000f003700f50f2000faff2f00f8
:102e30008502d1000a85d3008301e900fcff3b0035
:102e40008184620000046500890f7400f2ff320083
:102e50008582ea000a85ea00818462000004650038
:102e60009ffc070007f0a70001f0a0000081eb0025
:102e70000200e0004f05be004f04be000000060047
:102e8000889fbe008a9fbe00841f7800cffc070089
:102e90004f00780011003300f0ff2f00838f6c008b
:102ea00006003b00040565000a00a7000800370083
:102eb00009f0a6001000200008003700820f54001f
:102ec000838f5c00030039001000200001003e00e9
:102ed0000000200009f0a7000000ea004f05be0036
:102ee0004f04be000000e0000000060080007800f3
:102ef000010037008100e8000041eb00914f110014
:102f0000fcff3a000080500000000600889fbe00d1
:102f1000000478001800900082047800808f54002c
:102f2000010036008004780018007800090178005c
:102f3000ac020700188c440018009000890450006f
:102f400019049800080078004f04be000000060035
:102f50000400fa00e08f500003003a000f80e900ff
:102f6000e0bf9f0002003700e0bf9f008100e90042
:102f7000f1bf9f00e4805700607821000400070043
:102f8000efb897008048eb000080fa0000000600d0
:102f90004f06b000889fbe008a9fbe008c9fbe0077
:102fa0008e1f780080057800010578008204780083
:102fb0008300780000f92f000f0040002a0207006c
:102fc00028f92f000f0444004b0498005a0498007d
:102fd0000000eb00600c98008efd2700cdfc270060
:102fe000fcff2700194078008085fb000b05fb00e3
:102ff0008b05ea00cf5dde0050022000800f5500f7
:103000000d003200e18f55000b003a00c80190001e
:103010000b0178008900780058009000030001003f
:1030200050049800e00f50008b00320068089000b8
:103030000000e800600c98008b84440050022000df
:10304000800f550004003200e00f5500e5ff3a0004
:103050007f909700810037000000eb00400c980043
:10306000300c9800200c9800100c9800000c980070
:103070007004980000149800070037000e005000fc
:10308000000040006d007800881090000100700082
:10309000001498008904e800194578008a00fb00b4
:1030a00080fd2700e7010700e00f5000f3ff3a0022
:1030b000a1c2b300814f55000e003a008f889700df
:1030c0000180e900808f9f0010007800700c98004c
:1030d000e00f500005003d000000ea00700c980071
:1030e000081090000020a000001498008904e80057
:1030f0000f003700700c9800080037007808900027
:103100008c0f5000040032006a00b9000003b100c7
:1031100002004000700c98008904e8001901fb00cf
:1031200000fd2f0002004000e90f5000f3ff3600c1
:10313000e0c2b300994f1000030032000080eb00a2
:10314000500c98001a003700a0c2b300d94f1000ed
:1031500007003a008f8897000180e900808f9f0068
:1031600010007800500c98008904e8001000370027
:103170000000eb00500c9800080037005808900041
:103180008c0f5000040032006a00b9000003b10047
:1031900002004000500c98008904e8001901fb006f
:1031a00000fd2f0002004000e90f5000f3ff360041
:1031b000194578008a00fb00c0fe2700a101070026
:1031c000e00f5000020032008904e80001003700df
:1031d000004578002a64980080c6b300804f5500ef
:1031e00004003a00994f15000a003a00664050006a
:1031f00006003700c0c6b300804f550005003a00f6
:10320000994f150003003a00654040002064980083
:103210008904e80063fb2f008f8141001941780089
:1032200001f92f008f80400008007800110007008e
:10323000e00f500008003a0061fb2f008f80400033
:1032400008007800d5050700e00f500002003500a7
:103250008904e80063ff37000080eb004f07780027
:103260004f06be004f05be004f04be004f06b10022
:1032700000000600889fbe008a1f780000047800c6
:10328000824478000305780070c6b30080cf5400f4
:1032900021003c0000c0e90080cf5400d7003d0071
:1032a0007240500080cf5400430132000d003c00ba
:1032b0006c40500080cf540056013c0000c0e90033
:1032c00080cf5400cd003d0050c2b30080cf5400e9
:1032d0004d0132007c40400080cf54004d013a0047
:1032e000c600370010c6b30080cf5400c3003200c0
:1032f00004003c006940500080cf540045013a0072
:103300006c00370030c6b30080cf54001800320084
:103310000040e8000900370000c7b30080cf540028
:103320001601320008003c0000c0e90080cf5400c4
:10333000db0032005f003c006540500080cf54004d
:1033400034013a000f00370050c7b30080cf54005b
:10335000580032006340400080cf540055003200d6
:103360006540500080cf54002a013a001201370016
:103370001181e900820878007800900012757800c9
:103380002a01370028609000c2c6b300824f500067
:1033900009003a00110078006402500084087800a7
:1033a0001400be00140290004fa2de000401780059
:1033b000840178001200370012c7b300824f50001a
:1033c00003003200a2c6b300824f500006003a004c
:1033d0001101780068005100800878005001be009b
:1033e0004000be00060037001180e9008008780028
:1033f00010007800cf80de000101780082017800a3
:10340000009cbe000294be002862900085c6b300f6
:10341000854f52000e00320025c6b300854f520082
:1034200005003a000000fb00cf80de0001017800bb
:10343000820178000900370045c7b300854f52006c
:1034400003003200e6c24200854f520005003a00f8
:10345000cf80de000101780082017800009cbe0070
:103460000294be003802be002803be00780090001f
:10347000d1c2b300e00f5200e08f5a00e00f5b00b2
:10348000e08f5b00080035008810900062816000ca
:1034900002003200b1c2b30003003700e1806000d7
:1034a0005100320001c2b300017578000000e8004d
:1034b0004c00370028609000c2c6b300824f500015
:1034c00007003a0011007800640250008408780078
:1034d0001400be000001eb008201780012003700ea
:1034e00012c7b300824f500003003200a2c6b300df
:1034f000824f500006003a00110178006800510028
:10350000800878005001be004000be000600370071
:103510001180e90080087800100078000100200088
:103520000200200003002000009cbe000294be00a8
:103530002862900085c6b300854f52000e0032000d
:1035400025c6b300854f520005003a000080fb00fd
:1035500001002000020020000300200009003700c5
:1035600045c7b300854f520003003200e6c2420057
:10357000854f520005003a000100200002002000a3
:1035800003002000009cbe000294be0008109000c2
:1035900068006000140032003800be002801be0040
:1035a000e00f5000e08f5800e00f5900e08f590005
:1035b0000d00320080c7b30080cf540003003200fa
:1035c00080c5b30080cf540007003a00f800900097
:1035d00000c3b30000f578000100e8000975780029
:1035e0000180e80070049800780090000005450014
:1035f0006a049800894078006c00370028619000c8
:10360000c0c4b300804f510006003a001101780099
:1036100068005100800878005001be004000be00e4
:10362000050037001101780064005100800878001f
:103630001000be00d2090700009cbe000294be002c
:10364000b800900078009000e08f500002003d002c
:10365000d1c2b3000800370088109000628160007a
:1036600002003200b1c2b30003003700e180600005
:103670000400320001c2b300017578000000e800c8
:103680007004980078009000000545006a049800d6
:1036900089407800080078002001070065003700a5
:1036a00028609000c3c6b3001181e900834f500029
:1036b000260032000a003c00e4c15100834f500054
:1036c0001f00320083c1e800834f50001300320016
:1036d000e8c15100834f500022003a000a00370031
:1036e00043c7b300834f500015003200e6c14100cc
:1036f000834f500012003200e9c15100834f500047
:1037000018003a000500370082087800120078009f
:10371000485c90000848780046003700820878002e
:103720001202780068089000cf80de000101780066
:1037300082017800009abe000292be003d00370070
:1037400082087800120078000900370082087800ab
:103750001201780068089000cf80de000089be006a
:10376000340037001180e9008008780010007800ec
:10377000680c9000080878002e0037001180e900de
:103780008008780010007800cf80de00010178000a
:1037900082017800009cbe000294be007800900078
:1037a000000545006a04980081c7b300080078004e
:1037b000340307001f0037001180e90080087800fb
:1037c000100578006a049800d80c9000e08f54002f
:1037d00004003d000a007800c4fd07008004780062
:1037e00007003700090178008000eb000a0078002c
:1037f00073000700e00f5000010032008a045000ff
:10380000190c98000b0037007800900009757800bb
:10381000060037007800900000054500e0cf540016
:1038200001003a0059c2b300094d78000000e800d9
:10383000700498000000eb004f0578004f04be00b4
:103840000000060003003700e04f51000500320081
:103850000000e80010417800814f5100faff3a0063
:1038600000000600000005000108780000000600c6
:10387000889fbe008a9fbe008c9fbe008e1f78006e
:1038800081067800030478000d95b9000a077800d6
:10389000e00f550043003200e08f56004200320036
:1038a00000067800c800900068009000808f5000eb
:1038b000040039000800780051000700e00f5000b4
:1038c0002600350000402000980560000a00320004
:1038d0000a017800a10020000c00780038000700e1
:1038e00080057800e08f550003003200e1041600e7
:1038f00089844500010037008a0478004800900060
:10390000e800900080805000898f50000200310054
:10391000810478008005eb00090178008c007800b4
:1039200030000700090555004800900009004000dc
:1039300040049800e08f5500040032000800780031
:103940002f050700e00f500004003a00e00f55007b
:103950000200320009064600d2ff37000080200036
:1039600018006000020032000800780024050700fb
:1039700000c02000180060000200320048009000e3
:10398000600498000a05570000017800811f780044
:10399000110009000d85d8000001fd00cf0078005e
:1039a000010037000a017800020078004f07780014
:1039b0004f06be004f05be004f04be0000000600cb
:1039c0000400370090cf1000050032000000e8002e
:1039d0000201e900e00f5100faff3a00020078000e
:1039e000000006008001780002003700b15978001d
:1039f0000201e900e00f5100fcff3a000000060060
:103a0000889fbe008a1f780000047800c8009000dc
:103a1000680190000000eb00828f50003c003900ec
:103a2000180078002200290002016000e20f510016
:103a30000700320001202400e00f500001003d008b
:103a400001202000008c70000080eb003000370067
:103a50000200260002006000820f500009003a00b8
:103a600038009000808f5000060039000800780070
:103a7000e3040700800078000080eb00e08f500036
:103a800023003a001805780000c0200000006500ff
:103a900018003a00a80490006002200008004000ce
:103aa000808f540013003a000020200061060700b8
:103ab00020049800e00f500005003a002904980007
:103ac000490498008904e800390498000800370088
:103ad0000a60a0000a0c7800400498000120200031
:103ae0008080400031049800400c9800500c9800f1
:103af00069040700280090005004980038009000e6
:103b00006004980000002600180c70000000eb0014
:103b10004f0578004f04be0000000600cf04b0003f
:103b2000889fbe008a9fbe008c9fbe008e1f7800bb
:103b3000c0b79f0001477800800078005101be00a7
:103b40004100be00d0979f00e1979f00f2979f0031
:103b5000839f9f0010c6b300804f570015003200ae
:103b600010c4b300804f5700120032004fb19700cd
:103b700052089000e00f500003003d00600020005c
:103b8000500998000b003700e00f500009003a0080
:103b900070c6b300804f57000300320070c4b300fa
:103ba000804f570003003a0010002000cfb197006b
:103bb000d0099800cfb0970080fa2f000f00400086
:103bc0000602070080017800e28f510012003a00df
:103bd000300020004fb29700100a980080f52000b6
:103be00011c6b300814f570008003200e4c0400006
:103bf000814f570005003200c0f520008140e800e9
:103c0000814f570001003a0080f520004fb1970026
:103c1000e200900013003700e08f510016003400de
:103c200030002000cfb197009009980000f62000e6
:103c300011c6b300814f570008003200e4c04000b5
:103c4000814f57000500320040f620008140e80017
:103c5000814f570001003a0000f620004fb2970054
:103c6000e4009000b0487800b06878001040780018
:103c700090409800d301370010c6b300804f570022
:103c80000300320010c4b300804f570011003a0007
:103c90004fb097006001900000c3b3000059780056
:103ca000cfb09700e200980080c7b30011c6b30000
:103cb000814f57000100320080c5b30000597800e1
:103cc0004fb2970062029800740090000080e800f4
:103cd00070029800e08f510005003a00c3979f00e2
:103ce000d3b79f0022fb2f000f014100b001370026
:103cf00010c6b300804f57000600320010c4b30056
:103d0000804f5700ac003a0090f72000a0b79f000a
:103d10000200370081f62000a1b79f004fb1970045
:103d20005208900013022000d3b79f00e00f50000c
:103d3000020035000000e800d0b79f005fb2970096
:103d40000404e8006022b8006033b8005f90970078
:103d5000ef9097007f9197008f9997005f0707007a
:103d6000cfb097003102be002103be00e00f50002b
:103d700001003d0007f0a200d4979f00e5979f0047
:103d8000f6979f00879f9f004f9197006401510015
:103d9000c2979f008041eb00a3779f0034fb2f0068
:103da00004824700b4b79f000e407800a0e79f0050
:103db0000807780032003700c2012000030020000d
:103dc000a0fa2f000f004000bc0407005f9497008a
:103dd000ef9497007f9597008f9d97000800be0095
:103de0000a01be00050807000006be00670757006d
:103df0004240a9000c0034002c0807000002be005d
:103e00000203be000800be000a01be009f080700b2
:103e10000002be000203be00d4979f00e5979f00fa
:103e2000f6979f00879f9f003fb19700e7004100f2
:103e30007000200005003700ef606600cc69dd00ef
:103e40004466de000c867100c4eede00e00f560012
:103e5000e08f5e00040034000000e900f6ff3b0044
:103e6000010037008060eb000000e900fdff3b002f
:103e7000e7804000b1b79f00e00f57000900340011
:103e80006022b8006033b8005f909700ef90970011
:103e90007f9197008f99970015070700e00f50005a
:103ea000c5ff3c002fe7970032fb2f000f014100b8
:103eb0003fb29700820152005fb09700808f51009f
:103ec00004003d00e08f51000d003d00d3b79f007e
:103ed00031003700dfb09700838f500009003d00ac
:103ee00022fb2f000f014100028040001040900093
:103ef000f2c0b300e74f500003003c000100370060
:103f0000d3b79f000041eb00dfb1970003027800b8
:103f1000010037000402e9008301e90030fb2f00b3
:103f20000f0040008300400011407800824f500095
:103f3000f8ff3200d4b79f00ef4f510001003a0064
:103f40008048e800e08f510009003d00dfb0970095
:103f50008100e800d1b79f004f91970064014100b4
:103f6000c2979f0022fb2f000f0141000200370083
:103f700032fb2f000f014100dfb197000400370032
:103f8000030041009000fb002fb2970064c8780046
:103f90008301e900faff3b00cfb097005108900081
:103fa000e00f500002013d00dfb197000300e9007f
:103fb000d0089800fe0037005f949700ef949700b8
:103fc0007f9597008f9d97006022b8006033b800fe
:103fd0000800be000a01be00c0060700e00f500046
:103fe00005003d000bf0a200d8979f00e9979f00c5
:103ff000fa979f008b9f9f004f909700cf80de0025
:10400000725927000300200022080700026a2800d6
:104010001300200053f7070064005000c0979f0072
:104020001c003b0063001000c1ff2f000104600072
:104030000802ea00c4979f000006eb000df1200083
:1040400011003700610064000d0032004360dd00a4
:10405000008046003002be002003be005f90970043
:10406000ef9097007f9197008f9997009207070034
:10407000d0979f00e1979f00f2979f00839f9f003a
:104080000884d1000c06e800e00f5400edff3c006e
:1040900021003700e00f50001f003200c8ff2f0042
:1040a00008046000c8979f006000b800020020006c
:1040b00003ff23000006eb000df12000090037008c
:1040c00061026400050032004362dd0004824600a4
:1040d0005403be004402be00770707000884d100e5
:1040e0000c06e800e00f5400f5ff3c000002be00a3
:1040f0000203be005f909700ef9097007f919700ba
:104100008f9997007f060700d0979f00e1979f0047
:10411000f2979f00839f9f004fb097005009900037
:1041200060c6b300804f57000400320061002000d9
:1041300060c4b300804f570002003a00cf9197004f
:10414000ea80410082804000f38f5000010034007b
:104150003101200000c3b300a0779f003dfb2f007a
:104160008f864600004578008e457800010778006c
:10417000330037005fb09700efb097007fb1970032
:104180008fb997001d0707000004be00680757009d
:104190004240a90010003400440707000002be009e
:1041a0000203be005fb09700efb097007fb19700a9
:1041b0008fb99700b50707006022b80046782d0038
:1041c000771924003c070700d0979f00e1979f00d4
:1041d000f2979f00839f9f00e88646008c00200096
:1041e0000801be000c003700a400200005002000dc
:1041f000a0fd2f000f004000400307005fa89700bc
:10420000efa897007fa997008fb1970004c3b30070
:10421000846641000001be00e00f5100e08f5900ac
:10422000040034000c06e900efff3b0001003700fa
:104230008a6678000c06e900fdff3b00e886460030
:10424000e00f57000e0034005f909700ef9097004a
:104250007f9197008f999700d0b79f00e1b79f009b
:10426000f2b79f0083bf9f006022b8006033b800a0
:104270001f06070080007800e08f5000bdff3c0063
:104280000b47780032fb2f000f014100828256005d
:10429000cf909700e7804000c1979f0000c3b30014
:1042a000050037008502e900cf9197008301e900fe
:1042b000c3979f000201e800924f1000f9ff3200ff
:1042c0004fb29700d408900060c6b300804f5700eb
:1042d0000300320060c4b300804f570003003a006f
:1042e0004f9097008001e80009003700130020007c
:1042f00050c6b300804f5700050032000e407800d2
:1043000050c4b2008081fb008301e900cf19de00b8
:1043100081804100d1b79f00858f5000010034009b
:10432000d5b79f00dfb19700e08f51002000350026
:1043300004c3b300858f510006003d00e2c0790040
:104340006942420040c3b30080cf500001003c00ee
:1043500069425200dfb19700830078000100370006
:104360008100e9008301e9008302410015407800e3
:10437000844f5000faff3200d1b79f0091c3b300c1
:10438000814f520001003a00804ae800e08f51005e
:1043900007003d000201e9005fb297000402e80057
:1043a000d4b79f004f9097000000e800c0979f008f
:1043b0004f929700dfb197008e4078004fb0970082
:1043c000460407004f0778004f06be004f05be00a9
:1043d0004f04be00cf04b10000000600889fbe005d
:1043e00080047800668440001800d0004500de009c
:1043f000f27f2000820f500010003a00800ceb008a
:10440000180478006f016400200020001b003a00af
:1044100021019000e00f510018003a0011019000b6
:10442000e00f510015003a0010002000910f11001c
:10443000120032002000200010003700e00f500072
:1044400004003a0001007800cf020700e00f50009e
:1044500008003c00f20028001801610001fe230062
:10446000010c710021c02f00810c40000080eb0086
:1044700002003700800ceb000000eb004f04be0090
:10448000000006004f02b000889fbe008a9fbe0059
:104490008c9fbe008e1f78000006780080c5b30098
:1044a00080cf50000a0032007740400080cf50009b
:1044b0000a0032006940400080cf50000b003200fb
:1044c000b0f9200080bf9f00ae0020000a00370036
:1044d000a2f8200082bf9f0006003700b3f9200039
:1044e00083bf9f008e00200003003700b4f9200036
:1044f00084bf9f000e0120003c02be002c03be00c2
:104500000605be000404be0040c6b30080cf5000c4
:10451000030032006540400080cf50000b003a009d
:10452000e00f5200e08f5a00e00f5b00e08f5b006d
:1045300006003d006044b8006055b8000404540013
:1045400085845c0006055d0087855d00e80f5700e7
:1045500003003200f00f57003a003a000200370023
:10456000300020000100370040002000e00f540020
:10457000e08f5c00e00f5d00e08f5d0004003a001a
:10458000dc0890008d012000e08f50000600320012
:104590008e00e900888060008fba9700e5c078003f
:1045a000f1e79f007d012000800078008100e90094
:1045b000050033008b05d1000a85d3008984d30020
:1045c0000884d300f9ff3700089ebe000a96be009b
:1045d0008e00e900110037008d06e90004816000bb
:1045e0008fb997006344790003fd2f008f8141004c
:1045f00088f17e00000178000201e9000500330027
:104600008783d1000683d3008582d3000482d30040
:10461000f9ff3700049ebe000696be003c02be00b5
:104620002c03be00e00f5200e08f5a00e00f5b0049
:10463000e08f5b00a1003400e08f5600e6ff3c00f5
:104640009e003700ac60900080c6b30080cf500061
:104650000b00320006003c00e0cf500008003200a2
:104660006640500080cf500058003a0004003700e8
:10467000c0c6b30080cf500054003a002a00370073
:10468000e00f540004003a005c0890008d01200007
:10469000e00f500007003200110009000e84d8001e
:1046a0008000fd008fb9970063407800f0e79f001d
:1046b0007d01200000027800811f780011000900b0
:1046c0000e84d8000002fd00cf0078000c003700f7
:1046d000110009000e02d800000178008d06e900e3
:1046e0000e90b900000052000fba9700e442780023
:1046f00004fd2f000f02420005f27e000202780046
:10470000e00f520002003200e08f5600f0ff3c0044
:10471000cfa2de000503780086037800049ebe0069
:104720000696be0065003700e00f5400e08f5c0085
:1047300004003a005c0890008d012000e00f50005a
:10474000070032006171b9000800be009bf8070045
:104750000fb9970062417800f2e79f007d012000c9
:104760006175b9000a01be000800be0083f80700a9
:104770000b0037000a01be000800be0079f50700f3
:104780008d06e90000f1b900020154008fb99700cd
:104790006342790003fd2f008f81410084f17e0088
:1047a0000004be00e00f5000e08f5800020032000d
:1047b000e08f5600efff3c00088ebe004fc8de00c1
:1047c00020069800300698003c003700e00f5400a7
:1047d000e08f5c00e00f5d00e08f5d0004003a00b8
:1047e0005c0890008d012000e00f50000b003200ab
:1047f0000e027800cfa2de00050378008603780061
:104800000800be000a01be0004f907008fba970035
:10481000e5427800f5e79f007d0120000e0078005a
:10482000cf80de000101780082017800c0b79f00d0
:10483000d1b79f00e2b79f00f3b79f000203be000d
:104840000002be000800be000a01be00ecf807002e
:104850000f0037004fb29700dfb297006fb3970099
:10486000ffb397000800be000a01be00eff8070082
:104870008d06e90000f2b900040454000fba970055
:10488000e4427c0004fd2f000f02420005f27e008e
:10489000009ebe000296be003c04be002c05be0079
:1048a000e00f5400e08f5c00e00f5d00e08f5d00e2
:1048b00002003400e08f5600e6ff3c00e80f57008e
:1048c00010003a000c109000680060000d003200eb
:1048d000f78f560006003e0008fd2f000f0444002d
:1048e000e8c07e0000c3b30080cf50000500320056
:1048f0008d06e90002c3b30001fd2f008f80400048
:1049000082f07e0078811600120e98006c009000f4
:1049100003fd2f008f8141008d80410031fc070095
:104920001c089000dc089000810f500006003d003c
:1049300000805000000e98000c1090000040a10074
:10494000001698000f003700e08f50000d003d006a
:104950008c109000f4806000f08f500009003a0045
:104960007c099000fc009000810051000c0990002f
:1049700082805000008050004240a90001003400b5
:10498000000e98004f0778004f06be004f05be008e
:104990004f04be004f02b100000006000400fa0000
:1049a000889fbe008a9fbe008c1f7800000478009c
:1049b00001067800f80d9000780090008085550081
:1049c00008089000808555001808900080855500e3
:1049d000a80c900089855500b80c90008985550079
:1049e000c80c9000898555000002220090bf9f00ee
:1049f00000032300a0bf9f00081090006400600027
:104a000015003a00e08f5500130034000b057800c4
:104a10008a047800e20f55000100360029002000ca
:104a2000c801900009017800ee80570058009000fe
:104a30000300010050049800e00f50008c00320089
:104a40006808900009004000600c980009055500b6
:104a50004240a900eeff3c0078019000e00f5100b9
:104a60000c003400c80190008c00780058009000c1
:104a700003000100500498008080eb00e00f50001c
:104a80007c003200e8089000780090000080400030
:104a9000600c9800880c9000e08f540011003400e6
:104aa00009057800e28f5400010036002a0020003a
:104ab000c80190000a017800ec805700580090006f
:104ac0000300010050049800e00f5000680032001d
:104ad000680890000a004000600c98008a84540026
:104ae000edff370018099000e00f51000c00340072
:104af000c8019000e80090005800900003000100f9
:104b0000500498008080eb00e00f50005900320004
:104b1000e80890001808900000804000600c9800a1
:104b2000a80c9000e08f54001100340009057800b3
:104b3000e28f5400010036002a002000c8019000d6
:104b40000a017800ec805700580090000300010033
:104b500050049800e00f50004500320068089000b3
:104b60000a004000600c98008a845400edff370072
:104b700038099000e00f51000e003400e80090006a
:104b80001808900080804000c801900058009000f4
:104b900003000100500498008080eb00e00f5000fb
:104ba00034003200e808900038089000008040008f
:104bb000600c9800c80c9000e08f54001100340085
:104bc00009057800e28f5400010036002a00200019
:104bd000c80190000a017800ec805700580090004e
:104be0000300010050049800e00f50002000320044
:104bf000680890000a004000600c98008a84540005
:104c0000edff370088109000e4806000190032004a
:104c10008000eb00818f5500160034008b04780073
:104c200009057800e28f5400010036002a002000b8
:104c3000c80190000a017800ee80570058009000eb
:104c40000300010050049800e00f500008003200fb
:104c5000680890000a004000600c98008a845400a4
:104c60004240a900eeff3c008000eb00010037004d
:104c70008080eb00010078004f0678004f05be00f1
:104c80004f04be000080fa0000000600806e220083
:104c9000af00070000000600881f780068fc2000b5
:104ca0000040eb00984f100003003a00f7ff0700a8
:104cb00020c0b300004c78004f04780000000600cc
:104cc000889fbe0000047800080078004c000700b0
:104cd0008004780000042000180060000200320008
:104ce000280090006f0107000000eb0020049800ee
:104cf00038409000e04f5000050035000000fb00f8
:104d000040030700e00f5000010032008084eb00f8
:104d100018109000e00f5000080032004403070014
:104d2000e00f5000010032008084eb00181090006a
:104d30005c0107000000eb00101498000008200040
:104d400018006000110032006011b80004f020006b
:104d5000020041008380490000004200900f1400cf
:104d600002003a000008eb00050037006101410035
:104d7000e0814900e70f5100e08f5900f4ff360051
:104d800008007800470107000e003700000c78008b
:104d900000c0eb0030449800610220008880400091
:104da000210498004104980051049800410c980097
:104db00061049800510c980071049800760044003a
:104dc000000c9800090078004f04be0000000600a7
:104dd000889fbe007800200009f020000800d00065
:104de00069007800e00f500001003200b4ff0700b6
:104df0000804e900f9ff3b004f04be000000060074
:104e0000889fbe008a1f780000047800e00f5400dd
:104e10000e003a00880478000af020000900d00053
:104e20006a007800e00f500004003200f4ff070031
:104e3000e00f500001003d000084eb008904e80011
:104e4000e78f5400f5ff34002800370000002200ef
:104e50001800600024003200a80490000f00370002
:104e600009015100384090000000fb0089007800e3
:104e700061ee0700e00f500007003c0028009000a2
:104e80004004980060049800500c98001890a0000e
:104e90000084eb0015003700808444004801900036
:104ea000828f5400eeff39002800900040049800e3
:104eb0009800780002c020000281600001003a00e2
:104ec000380090000200240082806000030032005d
:104ed000600498000004eb0004003700500c9800b8
:104ee0000104780001003700000478000800780011
:104ef0004f0578004f04be0000000600889fbe00ea
:104f00008a9fbe008c1f7800000678000205be0054
:104f10000404be000401be000a00be0091f30700b5
:104f2000008ebe000801be005a04070000025500b2
:104f300081825d0024069800350698000c007800f8
:104f40004f0678004f05be004f04be00000006006b
:104f500001002000e08f50000a00320002008000b3
:104f6000e00f5100070032000201e9000200880052
:104f700003002000020141008381490001008000fc
:104f80008030790000000600e600400091017800c2
:104f90000600280006836100ef8161008308780025
:104fa000120020000f003a00a0019000e08f510095
:104fb0000c003a0090019000e08f510009003a0087
:104fc000908f110007003a003900370094087800ec
:104fd000130a7800900978000508780070015100e4
:104fe00002003700640240008081e80091027800ee
:104ff000e08f5200f5ff3200120037009403780072
:10500000cf3bde00858242008588730093037800e1
:10501000cf3bde009402780085824200058a73004f
:10502000930378008783430090027800cf2ade0044
:105030008589730090027800058842000201e9002a
:1050400002003700640240008081e800910278008d
:10505000ef8f5200e9ff36000f003700940378000d
:10506000cf3bdd009002d1000588730093037800e8
:10507000cf3bdd009402d100058a730091037800d4
:10508000cf3bdd009302d100858973009108d100e8
:105090000201e800020037000082e800e40140005d
:1050a00091027800ff8f5200ecff3e00ef88620013
:1050b0009108730002007800000006000400fa0066
:1050c000889fbe0000047800e604440019007800c0
:1050d0008000d000c508de00f47f2000848f5000df
:1050e0000e003a00ef006000200020006a003a0045
:1050f000a8009000e08f500067003a0098009000f0
:10510000e08f500064003a0010002000988f1000db
:1051100061003200200020005f003700e08f500067
:105120000a003a0008007800c2bf9f00d3bf9f006a
:1051300095ff0700800078000000eb004fb9970052
:10514000dfb99700808f500053003c006108b90020
:105150000001410081814900e07f2000800f510063
:10516000e08f59000e0034008000eb00998f100092
:1051700004003d006000b8000200200003ff2f0083
:10518000030037006000b8000200200003ff270082
:10519000009cbe000294be00100020003e003700bc
:1051a000e00f5100e08f5900050034004411dd008c
:1051b000f000280019006000800c710035003700f5
:1051c0001900780004002800040260006f006000ed
:1051d0000040a000800c780061015100e08159007e
:1051e000c0fc2f00f1ff2f00800f5100818f59006c
:1051f00006003d00840c78000000eb0020049800bd
:1052000010049800000c7800230037008880e80024
:105210006400440005003700110c78009008780005
:1052200019087800800ceb0070014100ef0f41007d
:10523000f9ff35000200ea0015003200880078000e
:1052400070011000d1027800822add0098017800f8
:105250008019de00038c7200640444009802780018
:10526000822add00910178008019de0083887200b7
:10527000990078000209dd00980078008008de00bf
:10528000010c7100990078000008de00800c7800a5
:10529000990c72000080eb004f04be000080fa0001
:1052a00000000600e00f50002f003200c00178001f
:1052b000e38f51002c003600e18061002a003a00a3
:1052c000e1ff8300e08f500002003200810f5000a8
:1052d0000400310011009800e0ff8b001600370039
:1052e0008200780011019000e00f510002003200ae
:1052f000800f5100faff39001102780084824000cb
:10530000850f500018003900808f520003003a00ca
:10531000830842000100780007003700e00f5100c9
:105320000300320083014000830f51000e0039005a
:10533000120098009000980090009000e08f5000bc
:105340000900320010014000828f500006003a0030
:10535000a2ff27000009eb001001780011084100ae
:10536000910090001100980000000600889fbe0088
:1053700000047800d1ff8300e08f5000020032006b
:10538000010078000d003700e1ff8300c0ff270017
:1053900004003700910f5400240036000180e8001b
:1053a00091009000e08f5000faff3a0010003700a3
:1053b000920f54001d0036000280e80010017800b2
:1053c000e00f5100faff3a0011017800e1ff83007d
:1053d000c0ff270004003700910f5400130036006f
:1053e0000180e80091009000828f5000faff3a009f
:1053f000f9ff8300888f5400010031008804780091
:105400000900780068010700e00f500004003a002e
:10541000888f5400050032008904d100f5ff370061
:10542000091878009fff0700d2ff37004f04be0025
:1054300000000600881f7800800078006384400028
:105440000800a1000000eb00810f5400210036008d
:10545000e30f540001003e004800200008007800df
:10546000c2ff0700e00f50001a00320090007800e1
:105470009101780064815100880f510003003100d0
:1054800011019000020878000700370008814000f1
:105490000208780091019000130198001001780033
:1054a000110914008808780010007800e00f5000ff
:1054b0000600320010019000e00f5100020032009f
:1054c0000080e8000100370002007800d0ff8b0068
:1054d0000180e8004f04780000000600f0874700d4
:1054e000889fbe008a9fbe008c9fbe008e1f7800e2
:1054f00000047800814478000206780003057800f3
:1055000084057800e00f550002003c001a002000de
:105510008cfc200060c6b30080cf54000e00320027
:1055200060c4b30080cf54000b00320070c6b300db
:1055300080cf54000300320070c4b30080cf540009
:1055400099003a00e48f45007f003500580890002c
:10555000808f55007c003d008b05e80060c6b300dd
:1055600080cf54001000320060c4b30080cf5400dc
:105570000d003200081090006800600004003a003e
:1055800058089000800f550001003d005a0c98000b
:10559000580890000b005000500c980002003b008f
:1055a0000000eb00500c980018089000e8009000f4
:1055b000e08f550026003c0002c3b30082707800e3
:1055c0000000e800100c9800d8089000e08f500010
:1055d00003003c0088109000e88060000500320065
:1055e00068019000e1c2b300017178000000e8009a
:1055f000100c9800580890008b00ea00810f5000b2
:1056000001003d008005ea008b00ea00210c9800b3
:10561000808545005b0c98008a8f5500010034009e
:105620008a0578003b0c9800e8009000180890006c
:10563000008040000b0178008c007800e9f807003a
:10564000580890008b0550004b0c9800be003700a6
:105650008b0f550018003d00008040000a017800c3
:105660008c007800dff80700980890008100450062
:10567000110c98000a8555002a0c980058089000d3
:10568000e00f500003003c0008109000680060002c
:105690000600320068019000e0c2b30000f178001b
:1056a000380890000000e800300c9800580890007e
:1056b000400c9800a4003700008040000b017800e7
:1056c0008c007800c7f8070018089000008045009b
:1056d000100c98000b055500d8089000e08f500082
:1056e00003003c0088109000e88060000500320054
:1056f00068019000e1c2b300017178000000e80089
:10570000100c980058089000800f550001003400dc
:1057100000057800e8009000180890000080400024
:105720008b0046000a017800aef8070018089000c8
:105730000a004000100c9800580890000a0550001c
:105740002a0c98008000370070c6b30080cf540048
:105750000300320070c4b30080cf540012003a003e
:1057600058089000800f550004003d00081090007c
:105770006800600001003a005a0c98005808900038
:105780000000e900500c980002003b000000eb0014
:10579000500c980070c6b30080cf54000a0032004d
:1057a00059c4b3000b00370010c6b30080cf5400bb
:1057b0000700320010c4b30080cf540005003a0047
:1057c00009c5b3000300370059c6b3000100370014
:1057d00009c7b30018089000e80090009c7078009a
:1057e0000000e800100c9800d8089000e08f5000ee
:1057f00003003c0088109000e88060000500320043
:1058000068019000e1c2b300017178000000e80077
:10581000100c980058089000e00f50001000340061
:105820000a05e900800f55000100340000057800ea
:10583000e800900018089000008040008c00e8000c
:105840000a01780067f80700180890000a00400075
:10585000100c9800580890000a0550002a0c980077
:10586000e800900018089000008040000958780077
:105870000007e800e08f550004003500b1c2b30016
:10588000014878000e06780004003700d1c2b3004a
:10589000014878000e0678008b05ea008006eb00d0
:1058a0000b003700a20020008b00780072805700a8
:1058b000470007007fb597008fbd97008b407800a9
:1058c0007c80570001f07e008d06e8008a05780094
:1058d000e08f5500f3ff3c00e18f560013003c00c1
:1058e00050c6b30080cf54000300320050c4b30050
:1058f00080cf540003003a000e06780000c3b300c6
:10590000005e7800e08f560008003a0000c3b30044
:10591000005e7800050037008d06e9007c815700a5
:105920000d00410001c3b30010de4000e08f5600bf
:10593000f9ff3a00e800900018089000008040004d
:10594000000656003c0c980008109000740060009f
:10595000f00f50000e003a00980890007800900078
:1059600000804000a808900001004000b8089000a6
:1059700001004000c808900001004000f8089000b5
:10598000810f500002003d0000805000000c980084
:105990004f0778004f06be004f05be004f04be0003
:1059a0000f01b10000000600800078000000eb004d
:1059b000808f5000050034000100780025000700aa
:1059c000e10f400001003a000000eb00000006007b
:1059d00080017800811f7800110009008200d80042
:1059e0008001fd00cf007800030878000299b9001b
:1059f00002815000120098000000060000c0da008a
:105a0000000006000a00fa0011002000b1bf9f004c
:105a1000c0bf9f006a805700f8ff07004fb897008b
:105a20000080fa000000060000c0da000000060056
:105a30000a00fa0051002000b1bf9f00c0bf9f00c4
:105a40006a805700f8ff07005fb897000080fa00ef
:105a500000000600889fbe0080047800507e800011
:105a6000e00f500004003a000e0007000084eb0035
:105a7000e00f500008003500587e8000e08f540091
:105a8000050032000900440006000700e00f500046
:105a900001003d000084eb00080078004f04be00c8
:105aa00000000600e00f500004003a00c1fc200096
:105ab000517e880080007800060037008080eb006f
:105ac000c20c2100820f500002003e00507e880070
