:020000040000fa
:080000000002040000000000f2
:020000040000fa
:10000800948100008a8100008681000082810000be
:100018007e8100009081000094810000948100009e
:1000280094810000187a000094810000e4670000c1
:100038009481000094810000948100009481000064
:10004800c07200009481000094810000f0620000fa
:100058009c6200009481000094810000948100005b
:100068009481000094810000948100009481000034
:10007800b27d00009070000094810000948100001f
:100088009481000094810000948100009481000014
:10009800fe6800009481000050640000fc630000ca
:1000a800948100009481000094810000506b00004e
:1000b80094810000948100009481000094810000e4
:1000c80094810000948100009481000094810000d4
:1000d8009481000094810000948100003869000038
:1000e800a8680000948100009481000094810000b9
:1000f80094810000948100009481000094810000a4
:10010800cc6a000094810000948100009481000072
:100118009481000094810000948100009481000083
:100128009481000094810000948100009481000073
:100138009481000094810000948100009481000063
:100148009481000094810000948100009481000053
:100158009481000094810000948100009481000043
:100168009481000094810000948100009481000033
:100178009481000094810000948100009481000023
:100188009481000094810000948100009481000013
:100198009481000094810000948100009481000003
:1001a80094810000948100009481000094810000f3
:1001b80094810000948100009481000094810000e3
:1001c80094810000948100009481000094810000d3
:1001d80094810000948100009481000094810000c3
:1001e80094810000948100009481000094810000b3
:0801f8009481000094810000d5
:020000040000fa
:10020800948100008a8100008681000082810000bc
:100218007e8100009081000094810000948100009c
:1002280094810000187a000094810000e4670000bf
:100238009481000094810000948100009481000062
:10024800c07200009481000094810000f0620000f8
:100258009c62000094810000948100009481000059
:100268009481000094810000948100009481000032
:10027800b27d00009070000094810000948100001d
:100288009481000094810000948100009481000012
:10029800fe6800009481000050640000fc630000c8
:1002a800948100009481000094810000506b00004c
:1002b80094810000948100009481000094810000e2
:1002c80094810000948100009481000094810000d2
:1002d8009481000094810000948100003869000036
:1002e800a8680000948100009481000094810000b7
:1002f80094810000948100009481000094810000a2
:10030800cc6a000094810000948100009481000070
:100318009481000094810000948100009481000081
:100328009481000094810000948100009481000071
:100338009481000094810000948100009481000061
:100348009481000094810000948100009481000051
:100358009481000094810000948100009481000041
:100368009481000094810000948100009481000031
:100378009481000094810000948100009481000021
:100388009481000094810000948100009481000011
:100398009481000094810000948100009481000001
:1003a80094810000948100009481000094810000f1
:1003b80094810000948100009481000094810000e1
:1003c80094810000948100009481000094810000d1
:1003d80094810000948100009481000094810000c1
:1003e80094810000948100009481000094810000b1
:0803f8009481000094810000d3
:020000040000fa
:100400008f7222000eff27000e01880000000000fe
:100410000c000700c0482500010020001100070063
:10042000000020000000e000020032000000020096
:10043000000000009c6c0200000000000040da0098
:100440000000fe004440a900203b20000000e00026
:100450000300320000002000a00188004440a800f2
:100460000000060091018800800078000000eb0089
:1004700015003700e280400032a0b4009101ba00bc
:10048000e280400032a0b4009102ba00e280400055
:1004900032a0b4000002eb00472bde00f507b200eb
:1004a000602ce10004003a000059eb008301e900f0
:1004b000fdff3e00040037006128e100010032002a
:1004c0000082eb00040007001101ba000200e00006
:1004d000e8ff3a00000006003159ba008301e90044
:1004e0000c0032002159ba008301e90008003200f3
:1004f0000400e00003003a00e280400032a0b400b3
:10050000f5ff370011d9ba008301e900faff3a007c
:100510008100e800e180400032a0b4000000060045
:100520008625040000000000a6250400000000004d
:100530006625040000000000c6250400000000003d
:10054000dc25040000000000f2250400000000008b
:1005500058260400000000003027040000000000be
:10056000ba27040000000000d228040000000000a8
:100570002829040000000000422a040000000000b6
:10058000882a040000000000522b04000000000034
:10059000342c0400000000007e270400000000004e
:1005a000ca2a040000000000082b0400000000001c
:1005b000822b040000000000cc2b0400000000008f
:1005c000405d040000000000485d040000000000e1
:1005d000865d040000000000ec5d040000000000e7
:1005e000305e040000000000705e040000000000a7
:1005f000b65e0400000000000c03040000000000d0
:100600003803040000000000ee16040000000000a3
:100610000000040000000000889fbe000004780075
:1006200001007800820478008801780009017800d0
:1006300011002000a9060700890f500001003200b8
:100640000004eb00080078004f04be000000060024
:100650000000fa00e88157004fb99700616222005c
:10066000c0302000250007000080fa0000000600ce
:10067000889fbe0000047800180090008204780073
:10068000808f540001003600800478001800780044
:100690000901780077060700188c440018009000c4
:1006a0008904500019049800080078004f04be0027
:1006b000000006000400fa00e08f500003003a003a
:1006c0000f80e900e0bf9f0002003700e0bf9f00fd
:1006d0008100e900f1bf9f00ec8157002fb997001e
:1006e000e48057008033200004000700efb8970033
:1006f0008048eb000080fa00000006006200fa006b
:10070000889fbe008a9fbe008c9fbe0000057800b7
:1007100081047800020478008300780020f92f001b
:100720000f0040005b090700ea8f9f00f98f9f00d0
:100730000000eb00809f9f004d7122008c70220012
:10074000fbff2700184078000085fb008a04fb00af
:100750000a05ea004f55de0050022000808f540049
:100760000d003200e10f55000b003a000a0178003d
:10077000880078007f889700ef89970003000100c8
:10078000f08f9f00e00f50008d0032000f9897000f
:100790000000e800809f9f000a04440050022000ef
:1007a000808f540004003200e08f5400e5ff3a00cf
:1007b0000f989700830037000000eb00e0979f0040
:1007c000d0979f00c0979f00b0979f00a0979f0071
:1007d00090979f00a09f9f00070037000d005000da
:1007e000000040006c007800af9897000080700017
:1007f000a09f9f000804e800984478008900fb004f
:1008000040712200a7060700e00f5000f3ff3a00f6
:10081000a1c2b30081cf54000e003a009f88970018
:100820000180e900908f9f0010007800909f9f004a
:10083000e00f500005003d000000ea00909f9f007f
:100840002f9897000020a000a09f9f000804e800b8
:100850000f003700909f9f00080037001f989700f7
:100860008b0f5000040032006a00b9000003b10091
:1008700002004000909f9f000804e8001801fb0060
:1008800000fd2f0002004000e90f5000f3ff36008a
:10089000e0c2b300984f1000030032000080eb006c
:1008a000f0979f001a003700a0c2b300d84f100085
:1008b00007003a009f8897000180e900908f9f0011
:1008c00010007800f0979f000804e800100037003f
:1008d0000000eb00f0979f00080037007f90970022
:1008e0008b0f5000040032006a00b9000003b10011
:1008f00002004000f0979f000804e8001801fb0088
:1009000000fd2f0002004000e90f5000f3ff360009
:10091000984478008900fb000070220061060700ff
:10092000e00f5000020032000804e8000100370028
:1009300080447800e9779f0080c6b30080cf5400e0
:1009400004003a0098cf14000a003a0066405000b4
:1009500006003700c0c6b30080cf540005003a003f
:1009600098cf140003003a0065404000e0779f00f4
:100970000804e8001801fb0083fb2f008f81410071
:1009800021f92f008f80400040f92f000f00400018
:1009900011000700e00f500009003a0081fb2f0012
:1009a0008f80400040f92f000f004000fd07070036
:1009b000e00f5000020035000804e80061ff370036
:1009c0000080eb004f06be004f05be004f04be0086
:1009d0000080fa0000000600889fbe008a1f780091
:1009e00000047800824478000305780070c6b300e4
:1009f00080cf54001a003c0000c0e90080cf5400b2
:100a0000cf003d006d40500080cf54007a0032008e
:100a10000b003c007140500080cf54003f013c006f
:100a200000c0e90080cf5400c5003d0050c2b300b3
:100a300080cf5400360132007c4040000500370072
:100a400030c6b30080cf54001a0032001e003c00b4
:100a500000c0e90080cf540030013a00b8003700f0
:100a6000f0c6b30080cf54006300320007003c00a2
:100a70006640500080cf54001300320065404000b3
:100a800080cf540025013a00d600370050c7b3008c
:100a900080cf54005800320084c7b30084cf540084
:100aa000550032006540500080cf54001b013a00d1
:100ab000080137001181e900820878007800900071
:100ac000127578001b01370028609000c2c6b30081
:100ad000824f500009003a00110078006402500073
:100ae000840878001400be00140290004fa2de00bb
:100af00004017800840178001200370012c7b300a7
:100b0000824f500003003200a2c6b300824f500053
:100b100006003a0011017800680051008008780052
:100b20005001be004000be00060037001180e90001
:100b30008008780010007800cf80de000101780086
:100b400082017800009cbe000294be0028629000e2
:100b500085c6b300854f52000e00320025c6b30093
:100b6000854f520005003a000000fb00cf80de00f8
:100b700001017800820178000900370045c7b30001
:100b8000854f520003003200e6c24200854f5200fa
:100b900005003a00cf80de00010178008201780074
:100ba000009cbe000294be003802be002803be00b6
:100bb00078009000d1c2b300e00f5200e08f5a00dd
:100bc000e00f5b00e08f5b000800350088109000ac
:100bd0006281600002003200b1c2b300030037003e
:100be000e18060005100320001c2b300017578005d
:100bf0000000e8004c00370028609000c2c6b30037
:100c0000824f500007003a00110078006402500043
:100c1000840878001400be000001eb008201780017
:100c20001200370012c7b300824f50000300320099
:100c3000a2c6b300824f500006003a0011017800ae
:100c400068005100800878005001be004000be00de
:100c5000060037001180e900800878001000780055
:100c6000010020000200200003002000009cbe00c4
:100c70000294be002862900085c6b300854f5200e2
:100c80000e00320025c6b300854f520005003a0021
:100c90000080fb0001002000020020000300200073
:100ca0000900370045c7b300854f520003003200ea
:100cb000e6c24200854f520005003a0001002000c4
:100cc0000200200003002000009cbe000294be0031
:100cd0000810900068006000140032003800be0068
:100ce0002801be00e00f5000e08f5800e00f5900cf
:100cf000e08f59000d00320080c7b30080cf540050
:100d00000300320080c5b30080cf540007003a00d2
:100d1000f800900000c3b30000f578000100e8007f
:100d2000097578000180e800700498007800900050
:100d3000000545006a04980089407800710037007a
:100d400028619000c0c4b300804f510006003a00f3
:100d50001101780068005100800878005001be0041
:100d60004000be000500370011017800640051000a
:100d7000800878001000be00680a0700009cbe00d2
:100d80000294be00b800900078009000e08f500000
:100d900002003d00d1c2b300080037008810900067
:100da0006281600002003200b1c2b300030037006c
:100db000e18060000400320001c2b30001757800d8
:100dc0000000e800700498007800900000054500dd
:100dd0006a0498008900fb00080078005b000700a7
:100de0005600370028609000c3c6b3001181e900a7
:100df000834f50002b0032000a003c00e4c1510038
:100e0000834f50002400320083c1e800834f50001c
:100e10001800320022c6b300824f500027003a006b
:100e20000a00370043c7b300834f50001a00320056
:100e3000e6c14100834f50001700320012c7b300d3
:100e4000824f50001d003a00060037001180e90073
:100e50008008780010007800485c9000084878000e
:100e6000360037001180e900800878001002780011
:100e700002003700820878001202780068089000ab
:100e8000cf80de000101780082017800009abe0068
:100e90000292be0029003700820878001200780014
:100ea0000900370082087800120178006808900075
:100eb000cf80de000089be00200037001180e900ed
:100ec0008008780010007800680c9000080878000e
:100ed0001a0037001180e9008008780010007800bf
:100ee000cf80de000101780082017800009cbe0006
:100ef0000294be0078009000000545006a04980046
:100f00008440780008007800600507000b00370077
:100f1000780090000975780006003700780090008e
:100f200000054500e0cf540001003a0059c2b3006b
:100f3000094d78000000e800700498000000eb0004
:100f40004f0578004f04be0000000600ef03b0001c
:100f5000889fbe008a9fbe008c9fbe008e1f7800b7
:100f600000057800014778003a00be002a01be0063
:100f7000d0b79f00e1b79f00f2b79f0083bf9f00eb
:100f80005a089000e00f500002003d006000200071
:100f9000500d98008a00780060fb2f000f00400081
:100fa0001005070080017800e28f510009003a0027
:100fb00030002000100d9800b0c9b3000047470072
:100fc000a0682200e14f57000c003e00606822003c
:100fd0000a003700e08f51000e003400300020007e
:100fe000100d9800b0c9b3000047470020692200e7
:100ff000e14f570001003e00e0682200ea00900047
:10100000b0487800b06878001040780090409800b0
:1010100002013700e08f510004003a0062fb2f000c
:101020000f01410003197800f80037006022b80072
:101030006033b8005fb09700efb097007fb19700c2
:101040008fb997000c090700e00f500009003d0020
:101050005fb29700efb297007fb397008fbb970006
:1010600007f0a200d4b79f00e5b79f00f6b79f0036
:1010700087bf9f003f9a9700cfa2de0072592700da
:10108000030020000400be00690a0700026a28006d
:1010900013002000bd02070064015000b29f9f00b2
:1010a00018003b0063011100c0ff2f000004610025
:1010b0008802ea00b59f9f000006eb006d692200e0
:1010c0005fb09700efb097007fb197008fb997009e
:1010d0000900370061026400050032004362dd0050
:1010e000048246005403be004402be00d909070032
:1010f0000884d1000c06e800e00f5400f5ff3c0026
:101100001f003700e00f510023003200c8ff2f00fe
:1011100008046100b89f9f006022b800060020000c
:1011200007ff23000006eb006d6922000400be00eb
:101130000601be00090037006102640005003200ac
:101140004362dd00048246005403be004402be0038
:10115000c00907000884d1000c06e800e00f540025
:10116000f5ff3c000002be000203be005fb0970026
:10117000efb097007fb197008fb99700c8080700bc
:101180000002be000203be00d4b79f00e5b79f0077
:10119000f6b79f0087bf9f005a09900060c6b30052
:1011a000804f5700040032006100200060c4b3008b
:1011b000804f570002003a00bf9a9700ea80420031
:1011c00082814000f38f5100010034003301200080
:1011d00002c3b300827f9f009dfb2f008f864600d5
:1011e000824578000e43780086ef9f000307780061
:1011f000350037005fb09700efb097007fb19700e0
:101200008fb99700640907000004be006807570003
:101210004240a900120034008b0907000002be0002
:101220000203be005fb09700efb097007fb1970058
:101230008fb99700fc0907006022b80046782d009e
:1012400077192400830907000002be000203be00d4
:10125000d4b79f00e5b79f00f6b79f0087bf9f00f8
:10126000e88646008c0020000801be000c00370014
:10127000a40020000500200000fe2f000f00400009
:10128000ea0307000fb097009fb097002fb19700b7
:10129000bfb1970005c3b300856641000001be00e1
:1012a000e00f5100e08f5900040034000c06e90003
:1012b000efff3b00010037008b6678000c06e90069
:1012c000fdff3b00e8864600e00f57000a003400af
:1012d0006022b8006033b8005fb09700efb09700ad
:1012e0007fb197008fb997006808070080007800e9
:1012f000e08f5000bfff3c000fef970092fb2f00e4
:101300000f014100828256003f9b97006703430014
:10131000b69f9f0000c3b300050037008502e900b7
:10132000bf9b97008703e900b79f9f000201e80079
:10133000924f1000f9ff3200da08900060c6b30047
:10134000804f57000300320060c4b300804f570045
:1013500003003a003f9897008001e8000900370039
:101360001300200050c6b300804f57000500320024
:101370000e40780050c4b2008081fb008301e90078
:10138000cf19de0081814100858f510001003400ba
:1013900085017800e08f51001c00350004c3b300c4
:1013a000858f510006003d00e2c07900694242008d
:1013b00040c3b30080cf500001003c00694252009e
:1013c00083027800010037008301e9008502e9000b
:1013d0008500410011437800844f5300faff32002a
:1013e00090c3b300804f520001003a008648e800e5
:1013f000e08f520005003d000201e9008301e80092
:10140000bf9897008100e800b19f9f008e00fb000d
:101410003f9a97000a007800060007004f077800ff
:101420004f06be004f05be004f04be00ef03b100e3
:10143000000006000e00fa00889fbe008a9fbe00d2
:101440008c9fbe000004780081447800020678007a
:101450000305780084057800e00f550002003c0089
:101460001a0020000c72220060c6b30080cf540026
:101470000e00320060c4b30080cf54000b00320075
:1014800070c6b30080cf54000300320070c4b300b4
:1014900080cf540081003a00e48f45007f00350082
:1014a00058089000808f55007c003d008b05e800b7
:1014b00060c6b30080cf54001000320060c4b30097
:1014c00080cf54000d0032000810900068006000ca
:1014d00004003a0058089000800f550001003d00bc
:1014e0005a0c9800580890000b005000500c9800bf
:1014f00002003b000000eb00500c98001808900020
:10150000e8009000e08f550026003c0002c3b300c5
:10151000827078000000e800100c9800d808900055
:10152000e08f500003003c0088109000e8806000cd
:101530000500320068019000e1c2b300017178003b
:101540000000e800100c9800580890008b00ea009a
:10155000810f500001003d008005ea008b00ea0089
:10156000210c9800808545005b0c98008a8f5500ff
:10157000010034008a0578003b0c9800e8009000d8
:1015800018089000008040000b0178008c00780063
:10159000b8020700580890008b0550004b0c9800cb
:1015a000910037008b0f550018003d00008040006f
:1015b0000a0178008c007800ae02070098089000bd
:1015c00081004500110c98000a8555002a0c9800ee
:1015d00058089000e00f500003003c0008109000f5
:1015e000680060000600320068019000e0c2b300ad
:1015f00000f17800380890000000e800300c9800f6
:1016000058089000400c9800770037000080400098
:101610000b0178008c0078009602070018089000f3
:1016200000804500100c98000b055500d80890006c
:10163000e08f500003003c0088109000e8806000bc
:101640000500320068019000e1c2b300017178002a
:101650000000e800100c980058089000800f55001a
:101660000100340000057800e800900018089000a0
:10167000008040008b0046000a0178007d020700d0
:10168000180890000a004000100c980058089000bc
:101690000a0550002a0c98005300370018089000e3
:1016a000e80090009c7078000000e800100c9800a2
:1016b000d8089000e08f500003003c008810900094
:1016c000e88060000500320068019000e1c2b300cc
:1016d000017178000000e800100c98005808900094
:1016e000e00f5000100034000a05e900800f55009b
:1016f0000100340000057800e80090001808900010
:10170000008040008c00e8000a01780059020700c0
:10171000180890000a004000100c9800580890002b
:101720000a0550002a0c9800e80090001808900064
:1017300000804000095878008006e800e08f5500de
:1017400004003500b1c2b300014878000d067800ee
:1017500004003700d1c2b300014878000d067800bc
:101760008b05ea008004eb000b003700a20020008c
:101770008b007800708057004d0207000fbd970066
:101780009fbd97008b4078007a80570001f07c0065
:101790008904e8008a057800e08f5500f3ff3c00db
:1017a000e08f540009003a000d06780000c3b30032
:1017b000005e7800050037008904e9007a8157004f
:1017c00062c07c0001c3b300015e4000e08f5400a2
:1017d000f9ff3a00e80090001808900000804000ef
:1017e000000656003c0c9800081090007400600041
:1017f000f00f50000e003a0098089000780090001a
:1018000000804000a808900001004000b808900047
:1018100001004000c808900001004000f808900056
:10182000810f500002003d0000805000000c980025
:101830004f06be004f05be004f04be000080fa00f8
:10184000000006004400f800040f20002402880075
:10185000811f78000000e900030278000080080082
:1018600002000000b20278001301c0003100cd0078
:101870004f0078004400f900000006004400f80022
:10188000040f200024028800010278000000e90013
:101890000080080004000000b20278000500ca00c1
:1018a000b30278000500c9003100cc0004007800c4
:1018b0004400f900000006004400f800040f200076
:1018c00024028800811f78000000e90000800800e1
:1018d0000300000032027800b30278001301c00058
:1018e0003100cd004f0078004400f90000000600f0
:1018f0004400f800040f2000240288000000e900e2
:101900001201c300008008000200000031027800cc
:10191000b20278001201c0000000cd004400f900be
:10192000000006004400f800020f20002202880098
:101930000000e9001201c30000800800010000005f
:10194000310278001001f0000000cd004400f900e1
:10195000000006000100b8000000e9004400f800a3
:10196000010f20002102880082007800008008001a
:1019700004000000b30278000500ca00b402780039
:101980000500c9003200cc00010078004400f900d5
:1019900000000600889fbe008a9fbe008c9fbe008c
:1019a0004400f8000d0f20002d0288008306780007
:1019b0000106e9008205e900818040000201410042
:1019c0000000e90010003500050578000b800800d4
:1019d0000a000000040478008a0478001201c300a1
:1019e0000c80080003000000380378009903780099
:1019f0001201c600828444003300cd000a85e8004d
:101a000001024200eeff37000d0078004400f900ab
:101a10004f06be004f05be004f04be00000006008a
:101a20009540a90041e2a9008540a90000000600f8
:101a30008540a900670160004811dd004305800072
:101a4000f18f2f0081806100828070004105880045
:101a500068006000c300de00e1806000ca08dd00ad
:101a6000a004800000a0a10001007000a004880074
:101a7000000006001012880021128800021288005f
:101a800000000600889fbe008a9fbe008c1f780061
:101a9000b0000700b700330003866c006450e1001b
:101aa0002e0032006420e100330032006150e1007a
:101ab0002f0032006120e1003100320085855500a1
:101ac000eb07b000090020000804200005003700e3
:101ad0000804440089844c000a00310006034300d6
:101ae00087834b000001530081815b00f8ff3300c6
:101af0000203be000800a0000804440089844c00d2
:101b0000f6ff3900c639dd008301730001003200a1
:101b1000130020008904d1000884d3000998a30091
:101b2000050032000800a7000300a0008904d100ce
:101b30000884d3008b05e8008904d1000884d30011
:101b40000001eb000281d2004700070001f0a10074
:101b50000cf0a70001f0a0008f0037006420e10026
:101b6000910032000801be000200be00f7ff3700fe
:101b70006120e1008c0032006000b800f3ff370004
:101b80000000200001f82700f0ff3700839f680065
:101b90000100e00002003d0060001000e08018003d
:101ba0000300e00002003d0060011100e081190027
:101bb000c30007004f00e00002003b00600010007f
:101bc000e080180000000600f4ff2f00cf0037006f
:101bd0000001be004a0007000470a70003f0a10046
:101be0006509b100160032000d0035006828e100db
:101bf00006003500f0ff2f00f1ff27000300e00092
:101c000013003b0001002800000005000000400018
:101c1000818048008502e900fcff3a000800370097
:101c2000f88f420002003c008000eb00000005003d
:101c30008100d1000080d3008502e800fcff3a005b
:101c40000300e00002003b0060001000e08018008c
:101c5000000006004f89de0082017800c6003700d0
:101c60006011b800d4003700810020006180550069
:101c70000b003d000b00200061fe2f000100e10081
:101c80001d00340082817100610164008904d1006b
:101c90000884d3000000e800faff3a007100200039
:101ca000610064000300700002006000090032005f
:101cb00061044400e0844c000988a500050032005e
:101cc0008b05e8006808e10002003a008904d100b1
:101cd0000884d300f20f20000258e10005003d0007
:101ce000c75ddd00f907b200898075000800780043
:101cf000000006000bf827008b00780000000500ac
:101d0000c70ade00f107b200f50fb200080032008a
:101d1000e1cf4200020032000170a0002400050063
:101d2000810f700001003200040805004400050026
:101d3000810f700002003a00140005008502e900de
:101d40000000400081c04800fcff3b000170a00083
:101d5000240005000004be00e9ff07000003be00e8
:101d60000405be000200be00e5ff0700844f7500b9
:101d7000000006000200be006450e10005003600cd
:101d80006420e100020036000968a30001003a0067
:101d90000800be000160a0004f0678004f05be009d
:101da0004f04be0000000600f0ff2f00f1ff2700e7
:101db000f9ff3700811f78000100e00002003d00bc
:101dc00060001000e08018000300e00002003d0009
:101dd00060011100e0811900490007004f00e00098
:101de00002003b0060001000e080180000000600c8
:101df000889fbe008a9fbe008c1f7800d5ff070019
:101e0000dcff330003866c006450e10024003200e4
:101e10006420e100270032006150e100220032001e
:101e20006120e100210032008b854200eb07b10008
:101e30000134b800003ab8000804420089844a001e
:101e4000013ab8000030b8008880400009014a001b
:101e50000400330000004000818048000201490076
:101e60008b05e900c909dd00830170000100320023
:101e700013002000c814de004814dd004709de000e
:101e80001200b200c808de000884700076ff070068
:101e900001f0a1000cf0a70001f0a000beff370088
:101ea0006120e100c0ff32000801be000200be0058
:101eb000f7ff37006150e100fcff3a00baff37003e
:101ec0006022b800060220000000d0008180d2000d
:101ed0000482d2008582d2000000a00002025200db
:101ee00083825a00030031000202420083824a00ca
:101ef0000000a1000603e900f3ff3a00000006001d
:101f0000efff07000400be0000000600889fbe002f
:101f10008a9fbe00841f78008eff07004f00780064
:101f200011003300f0ff2f00838f6c0006003b0090
:101f3000040565000a00a7000800370009f0a600a4
:101f40001000200008003700820f5400838f5c00cf
:101f5000030039001000200001003e0000002000b6
:101f600009f0a7000000ea004f05be004f04be00c4
:101f70000000e00000000600881f780003047800dd
:101f80000300e00007003d0060001000e080180042
:101f900060011900e081190002003b0001f02d00f2
:101fa000030037000400070008f0a70001f0a000bc
:101fb0004f04780000000600889fbe008a9fbe0084
:101fc0000082700004027100048271002600320059
:101fd0000004be000200be006011b8006b092000c2
:101fe000950220000182cf000a0039000541b100ae
:101ff0000082cf00070039000541b1000982cf00ff
:10200000040039000541b1000882cf000100390009
:102010000541b10005425200120032000a003b00a7
:1020200082817100610164008100d1000080d300d1
:102030008984d3000884d3008b05e8000442e800bb
:10204000f7ff3a00070037000804440089844c0079
:1020500000004800818048008b05e9000442e90047
:10206000f9ff3a0000ff07004f05be004f04be0015
:10207000000006008001780002003700b1597800a6
:102080000201e900e00f5100fcff3a0000000600e9
:1020900080007800010037008100e8000041eb007b
:1020a000914f1100fcff3a00008050000000060034
:1020b00080017800811f7800110009008200d8009b
:1020c0008001fd00cf007800030878000299b90074
:1020d000028150001200980000000600889fbe0098
:1020e0008a9fbe008c9fbe008e1f780081067800fc
:1020f000030478000d95b9000a077800e00f550039
:1021000043003200e08f56004200320000067800a3
:10211000c800900068009000808f500004003900d3
:102120000800780068000700e00f50002600350026
:1021300000402000980560000a0032000a01780083
:10214000a10020000c0078004d00070080057800f9
:10215000e08f550003003200e10416008984450039
:10216000010037008a04780048009000e8009000e1
:1021700080805000898f5000020031008104780077
:102180008005eb00090178008c007800b9ff07009a
:1021900009055500480090000900400040049800df
:1021a000e08f550004003200080078001703070094
:1021b000e00f500004003a00e00f5500020032002a
:1021c00009064600d2ff370000802000180060009a
:1021d00002003200080078000c03070000c0200055
:1021e000180060000200320048009000600498006f
:1021f0000a05570000017800811f780011000900ce
:102200000d85d8000001fd00cf00780001003700e7
:102210000a017800020078004f0778004f06be00e0
:102220004f05be004f04be0000000600889fbe00a0
:102230008a9fbe008c1f7800000678000205be0051
:102240000404be000401be000a00be004ffe0700e9
:10225000008ebe000801be00f50507000002550013
:1022600081825d0024069800350698000c007800f5
:102270004f0678004f05be004f04be000000060068
:102280000400370090cf1000050032000000e80085
:102290000201e900e00f5100faff3a000200780065
:1022a0000000060003003700e04f51000500320037
:1022b0000000e80010417800814f5100faff3a0019
:1022c0000000060000000500889fbe008a1f7800fd
:1022d00000047800c8009000680190000000eb0046
:1022e000828f50003c00390018007800220029003d
:1022f00002016000e20f51000700320001202400bb
:10230000e00f500001003d0001202000008c700013
:102310000080eb0030003700020026000200600061
:10232000820f500009003a0038009000808f500062
:102330000600390008007800b40207008000780029
:102340000080eb00e08f500023003a001805780071
:1023500000c020000000650018003a00a8049000aa
:102360006002200008004000808f540013003a00f3
:1023700000202000a303070020049800e00f500075
:1023800005003a0029049800490498008904e800ef
:1023900039049800080037000a60a0000a0c780091
:1023a0004004980001202000808040003104980003
:1023b000400c9800500c98003a020700280090004a
:1023c0005004980038009000600498000000260037
:1023d000180c70000000eb004f0578004f04be00a1
:1023e00000000600889fbe008004780066844000dc
:1023f0001800d0004500de00f27f2000820f500060
:1024000010003a00800ceb00180478006f016400a3
:10241000200020001b003a0021019000e00f510035
:1024200018003a0011019000e00f510015003a0029
:1024300010002000910f1100120032002000200037
:1024400010003700e00f500004003a00010078004f
:10245000bb020700e00f500008003c00f20028001b
:102460001801610001fe2300010c710021c02f0042
:10247000810c40000080eb0002003700800ceb0074
:102480000000eb004f04be00000006004f02b00049
:10249000889fbe008a9fbe008c9fbe008e1f780062
:1024a0000006780080c5b30080cf50000a003200db
:1024b0007740400080cf50000a0032006940400061
:1024c00080cf50000b003200f06e220080bf9f00d2
:1024d000ae0020000a003700e26d220082bf9f009c
:1024e00006003700f36e220083bf9f008e0020009d
:1024f00003003700f46e220084bf9f000e0120000d
:102500003c02be002c03be000605be000404be0053
:1025100040c6b30080cf5000030032006540400049
:1025200080cf50000b003a00e00f5200e08f5a00bd
:10253000e00f5b00e08f5b0006003d006044b800e8
:102540006055b8000404540085845c0006055d00f5
:1025500087855d00e80f570003003200f00f570039
:102560003a003a0002003700300020000100370036
:1025700040002000e00f5400e08f5c00e00f5d00a1
:10258000e08f5d0004003a00dc0890008d0120001f
:10259000e08f5000060032008e00e9008880600065
:1025a0008fba9700e5c07800f1e79f007d01200019
:1025b000800078008100e900050033008b05d10020
:1025c0000a85d3008984d3000884d300f9ff37003b
:1025d000089ebe000a96be008e00e900110037007a
:1025e0008d06e900048160008fb99700634479008b
:1025f00003fd2f008f81410088f17e0000017800eb
:102600000201e900050033008783d1000683d3006f
:102610008582d3000482d300f9ff3700049ebe00f8
:102620000696be003c02be002c03be00e00f520026
:10263000e08f5a00e00f5b00e08f5b00a1003400e8
:10264000e08f5600e6ff3c009e003700ac60900033
:1026500080c6b30080cf50000b00320006003c0063
:10266000e0cf5000080032006640500080cf50009c
:1026700058003a0004003700c0c6b30080cf5000b5
:1026800054003a002a003700e00f540004003a00da
:102690005c0890008d012000e00f50000700320020
:1026a000110009000e84d8008000fd008fb997004a
:1026b00063407800f0e79f007d0120000002780071
:1026c000811f7800110009000e84d8000002fd006f
:1026d000cf0078000c003700110009000e02d8006e
:1026e000000178008d06e9000e90b900000052004c
:1026f0000fba9700e442780004fd2f000f02420059
:1027000005f27e0002027800e00f52000200320063
:10271000e08f5600f0ff3c00cfa2de0005037800fa
:1027200086037800049ebe000696be006500370052
:10273000e00f5400e08f5c0004003a005c08900059
:102740008d012000e00f5000070032006171b900d8
:102750000800be00eafd07000fb99700624178004b
:10276000f2e79f007d0120006175b9000a01be00fb
:102770000800be00d2fd07000b0037000a01be00b2
:102780000800be0001fd07008d06e90000f1b90058
:10279000020154008fb997006342790003fd2f00b6
:1027a0008f81410084f17e000004be00e00f5000e4
:1027b000e08f580002003200e08f5600efff3c002f
:1027c000088ebe004fc8de00200698003006980034
:1027d0003c003700e00f5400e08f5c00e00f5d002c
:1027e000e08f5d0004003a005c0890008d0120003d
:1027f000e00f50000b0032000e027800cfa2de0086
:1028000005037800860378000800be000a01be00b8
:10281000220507008fba9700e5427800f5e79f0090
:102820007d0120000e007800cf80de0001017800dd
:1028300082017800c0b79f00d1b79f00e2b79f0028
:10284000f3b79f000203be000002be000800be00f6
:102850000a01be000a0507000f0037004fb29700bb
:10286000dfb297006fb39700ffb397000800be0078
:102870000a01be000d0507008d06e90000f2b9004f
:10288000040454000fba9700e4427c0004fd2f00ba
:102890000f02420005f27e00009ebe000296be00be
:1028a0003c04be002c05be00e00f5400e08f5c002d
:1028b000e00f5d00e08f5d0002003400e08f560005
:1028c000e6ff3c00e80f570010003a000c109000a3
:1028d000680060000d003200f78f560006003e00d1
:1028e00008fd2f000f044400e8c07e0000c3b300c1
:1028f00080cf5000050032008d06e90002c3b3000e
:1029000001fd2f008f80400082f07e00788116004c
:10291000120e98006c00900003fd2f008f81410083
:102920008d804100d3fd07001c089000dc0890005a
:10293000810f500006003d0000805000000e9800fe
:102940000c1090000040a100001698000f00370006
:10295000e08f50000d003d008c109000f48060006e
:10296000f08f500009003a007c099000fc009000b4
:10297000810051000c0990008280500000805000be
:102980004240a90001003400000e98004f07780073
:102990004f06be004f05be004f04be004f02b100ff
:1029a000000006000400fa00889fbe008a9fbe0057
:1029b0008c1f78000004780001067800f80d900064
:1029c00078009000808555000808900080855500ab
:1029d0001808900080855500a80c90008985550046
:1029e000b80c900089855500c80c90008985550069
:1029f0000002220090bf9f0000032300a0bf9f00a1
:102a0000081090006400600015003a00e08f550047
:102a1000130034000b0578008a047800e20f55009b
:102a20000100360029002000c8019000090178004b
:102a3000ee805700580090000300010050049800f9
:102a4000e00f50008c003200680890000900400040
:102a5000600c9800090555004240a900eeff3c00bb
:102a600078019000e00f51000c003400c801900084
:102a70008c0078005800900003000100500498007a
:102a80008080eb00e00f50007c003200e8089000ee
:102a90007800900000804000600c9800880c900046
:102aa000e08f54001100340009057800e28f5400d3
:102ab000010036002a002000c80190000a017800b9
:102ac000ec8057005800900003000100500498006b
:102ad000e00f500068003200680890000a004000d3
:102ae000600c98008a845400edff370018099000ac
:102af000e00f51000c003400c8019000e800900085
:102b00005800900003000100500498008080eb0002
:102b1000e00f500059003200e808900018089000bb
:102b200000804000600c9800a80c9000e08f5400da
:102b30001100340009057800e28f540001003600ce
:102b40002a002000c80190000a017800ec8057009c
:102b5000580090000300010050049800e00f50005e
:102b600045003200680890000a004000600c9800a0
:102b70008a845400edff370038099000e00f5100bf
:102b80000e003400e800900018089000808040009b
:102b9000c801900058009000030001005004980004
:102ba0008080eb00e00f500034003200e808900015
:102bb0003808900000804000600c9800c80c90001d
:102bc000e08f54001100340009057800e28f5400b2
:102bd000010036002a002000c80190000a01780098
:102be000ec8057005800900003000100500498004a
:102bf000e00f500020003200680890000a004000fa
:102c0000600c98008a845400edff37008810900013
:102c1000e4806000190032008000eb00818f5500d5
:102c2000160034008b04780009057800e28f540008
:102c3000010036002a002000c80190000a01780037
:102c4000ee805700580090000300010050049800e7
:102c5000e00f500008003200680890000a004000b1
:102c6000600c98008a8454004240a900eeff3c00aa
:102c70008000eb00010037008080eb00010078004d
:102c80004f0678004f05be004f04be000080fa00da
:102c9000000006000108780000000600e06e210038
:102ca00099003700881f7800287222000040eb004e
:102cb000984f100003003a00f8ff070020c0b3004f
:102cc000004c78004f04780000000600889fbe008a
:102cd00000047800080078004c00070080047800a9
:102ce000000420001800600002003200280090005c
:102cf000e00007000000eb0020049800384090003e
:102d0000e04f5000050035000000fb009501070072
:102d1000e00f5000010032008084eb00181090009a
:102d2000e00f500008003200ca010700e00f500019
:102d3000010032008084eb0018109000cd000700e5
:102d40000000eb001014980000082000180060003c
:102d5000110032006011b8006467220002004100d7
:102d60008380490000004200900f140002003a00e6
:102d70000008eb000500370061014100e0814900d7
:102d8000e70f5100e08f5900f4ff3600080078008b
:102d9000b80007000e003700000c780000c0eb0000
:102da000304498006102200088804000210498008f
:102db0004104980051049800410c98006104980067
:102dc000510c98007104980076004400000c9800a3
:102dd000090078004f04be0000000600889fbe0076
:102de00078002000696722000800d00069007800a0
:102df000e00f500001003200b4ff07000804e900b2
:102e0000f9ff3b004f04be0000000600889fbe0093
:102e10008a1f780000047800e00f54000e003a008a
:102e2000880478006a6722000900d0006a007800f0
:102e3000e00f500004003200f4ff0700e00f5000e4
:102e400001003d000084eb008904e800e78f540096
:102e5000f5ff340028003700000022001800600051
:102e600024003200a80490000f003700090151002f
:102e7000384090000000fb00890078004401070002
:102e8000e00f500007003c0028009000400498002c
:102e900060049800500c98001890a0000084eb008b
:102ea000150037008084440048019000828f540050
:102eb000eeff390028009000400498009800780048
:102ec00002c020000281600001003a00380090003a
:102ed0000200240082806000030032006004980039
:102ee0000004eb0004003700500c98000104780047
:102ef0000100370000047800080078004f057800d2
:102f00004f04be000000060001002000e08f5000ca
:102f10000a00320002008000e00f5100070032007a
:102f20000201e900020088000300200002014100c4
:102f30008381490001008000803079000000060094
:102f4000e600400091017800060028000683610039
:102f5000ef81610083087800120020000f003a0022
:102f6000a0019000e08f51000c003a009001900009
:102f7000e08f510009003a00908f110007003a00dd
:102f80003900370094087800130a78009009780017
:102f9000050878007001510002003700640240000b
:102fa0008081e80091027800e08f5200f5ff320046
:102fb0001200370094037800cf3bde008582420088
:102fc0008588730093037800cf3bde00940278007d
:102fd00085824200058a730093037800878343004b
:102fe00090027800cf2ade00858973009002780075
:102ff000058842000201e900020037006402400037
:103000008081e80091027800ef8f5200e9ff3600de
:103010000f00370094037800cf3bdd009002d10011
:103020000588730093037800cf3bdd009402d10044
:10303000058a730091037800cf3bdd009302d10035
:10304000858973009108d1000201e8000200370071
:103050000082e800e401400091027800ff8f5200f6
:10306000ecff3e00ef8862009108730002007800d8
:1030700000000600e00f50002f003200c001780071
:10308000e38f51002c003600e18061002a003a00f5
:10309000e1388100e08f500002003200810f5000c3
:1030a0000400310011009800e03889001600370054
:1030b0008200780011019000e00f51000200320000
:1030c000800f5100faff390011027800848240001d
:1030d000850f500018003900808f520003003a001d
:1030e000830842000100780007003700e00f51001c
:1030f0000300320083014000830f51000e003900ad
:10310000120098009000980090009000e08f50000e
:103110000900320010014000828f500006003a0082
:10312000a27122000009eb00100178001108410093
:10313000910090001100980000000600889fbe00da
:1031400000047800d1388100e08f50000200320086
:10315000010078000d003700e1388100c0712200c5
:1031600004003700910f5400240036000180e8006d
:1031700091009000e08f5000faff3a0010003700f5
:10318000920f54001d0036000280e8001001780004
:10319000e00f5100faff3a0011017800e138810098
:1031a000c071220004003700910f54001300360054
:1031b0000180e80091009000828f5000faff3a00f1
:1031c000f9388100888f54000100310088047800ac
:1031d0000900780035000700e00f500004003a00b5
:1031e000888f5400050032008904d100f5ff3700b4
:1031f000091878009fff0700d2ff37004f04be0078
:1032000000000600881f780080007800638440007a
:103210000800a1000000eb00810f540021003600df
:10322000e30f540001003e00480020000800780031
:10323000c2ff0700e00f50001a0032009000780033
:103240009101780064815100880f51000300310022
:103250001101900002087800070037000881400043
:103260000208780091019000130198001001780085
:10327000110914008808780010007800e00f500051
:103280000600320010019000e00f510002003200f1
:103290000080e8000100370002007800d038890083
:1032a0000180e8004f0478000000060080007800ec
:1032b0000000eb00808f5000050034000100780012
:1032c00004000700e10f400001003a000000eb009d
:1032d00000000600889fbe0080047800203981002d
:1032e000e00f500004003a000e0007000084eb00dd
:1032f000e00f50000800350028398100e08f5400ad
:10330000050032000900440006000700e00f5000ed
:1033100001003d000084eb00080078004f04be006f
:1033200000000600e00f500004003a0001002000f9
:103330002139890080007800060037008080eb008a
:1033400002002000820f500002003e002039890058
:103350008000eb00010078000000060000c0da00e9
:10336000000006000a00fa0011002000b1bf9f0013
:10337000c0bf9f006a805700f8ff07004fb8970052
:103380000080fa000000060000c0da00000006001d
:103390000a00fa00e20f500021003e00303981009f
:1033a000e10f500006003200852320004423200056
:1033b0002323200000232000e08f520004003a0065
:1033c0008522200044222000232220000022200009
:1033d000060028009003630002003a00870a780084
:1033e00010087300004020001300600001003a0044
:1033f00013a0a000020078000600370093027800b6
:103400000510b200fdff3200b102fb00050a780092
:103410000000e900e00f5000f8ff3a000800370014
:1034200033002000b3bf9f00c0bf9f00d1bf9f00eb
:10343000e2bf9f006a805700d3ff07006fb9970073
:10344000020078000080fa000000060000c0da00e8
:10345000000006000a00fa0051002000b1bf9f00e2
:10346000c0bf9f006a805700f8ff07005fb8970051
:103470000080fa00000006008f1fd100e90207005b
:103480008f87e9000000e00000000600809feb004d
:10349000e40207008f87e9000000e000000006005a
:1034a0002800fa00889fbe008a9fbe008c9fbe0045
:1034b00003866b00800007006400e10044003200d6
:1034c0006408e1004a0032006100e1004600320079
:1034d0006108e10049003200ec0647006000b800d6
:1034e0003d02be003d03be00f48657006011b800e7
:1034f0003d04be003d05be007d0320000b003700eb
:103500000000a0008d06e900130032000402420012
:1035100085824a0006034b0087834b000000400071
:10352000818048000201490083814900080252005d
:1035300089825a000a035b008b835b00f0ff3b002b
:103540000802420089824a000a034b008b834b0029
:103550008d06e900edff3a008482720086827200d7
:10356000f707b200878272000100320015002000c8
:103570001e0490003e0b900006035400e63fb0008e
:103580000368a300070032000000a7000500a000a8
:103590008301d1000281d3008180d3000080d30059
:1035a0000603e8008301d1000281d3008180d300ab
:1035b0000080d3000002eb000482d200120007005a
:1035c00003f0a1000cf0a70003f0a0004e003700ac
:1035d000640247006408e100480032003400be0085
:1035e0003401be00f6ff37006108e10043003200fd
:1035f0006011b8006000b800f1ff370003ff27003a
:1036000002002000fbff37001800200057002000b8
:10361000080453000d003d000600200097fc2f0019
:103620000740e1001e0034008482720061026000e5
:103630008301d1000281d3008180d3000080d300b8
:103640000804e800f8ff3a00470020006104600029
:1036500005047400040464000d00320061004000a1
:10366000e080480060014900e081490003b8a500fe
:10367000070032000603e8006538e10004003a0064
:103680008301d1000281d3008180d3000080d30068
:10369000f87f20000830e1000300350008037800bf
:1036a0006000b8006011b8004433dd00f300b200e0
:1036b0008301730000000600680447000294be0006
:1036c0000094be00fc0447008694be008494be00b3
:1036d000090078009c020700080078009a020700a1
:1036e00099007800814f70000b003b000800be007d
:1036f000750207004f00b10003003700f3ff2700f9
:10370000f2ff2f006110b9004f06be004f05be004a
:103710004f04be000080fa0000000600810378001c
:1037200077f907000001be006000b8000478a3002c
:1037300013003a006220e10015003e000d00390040
:103740008301d1000281d3008180d3008301d100a5
:103750000281d3008180d3008301d1000281d30094
:103760008180d3000538b000c42add00f300b20028
:103770008381720007f0a70003f0a000000006009c
:10378000f3ff2700f2ff2f006110b900fbff3700a5
:1037900003ff2700f7ff37001400fa00889fbe00e0
:1037a0008a9fbe008c9fbe000004be000205be00c2
:1037b000680047000a90be000890be006202070041
:1037c0000070a7000bf0a100304320009e02900083
:1037d00080825200b0fe2f000028e10011003d0061
:1037e000b0fc2f000028e100150034001e099000f5
:1037f0008e0890007e0090000501b0000201d1000b
:103800008180d3000080d3008502e800fbff3a00ee
:103810000b00e000bcff3b0060001000e0801800df
:10382000b9ff3700f0ff2f00f1ff27000b00e00089
:10383000b5ff3b000100280000002000b2ff370068
:103840006000b800b0ff37004f89de0082017800c9
:10385000640237002800fa00889fbe008a9fbe00dd
:103860008c9fbe0003866b0093ff07000028a30017
:1038700064003a000128a30067003a000008a30092
:1038800062003a000108a30065003a001e009000a3
:10389000be08900081064000ed3fb100f480570063
:1038a000ee019000111ab8008e099000311bb8008b
:1038b0009e099000311cb800511db800f4855700d6
:1038c00046000700fe0190003a0007008b85e800e3
:1038d0003e0007008e09900040000700ee019000b6
:1038e000340007008b85e800380007008e0990003f
:1038f000400007009e0990001b18b8008904400092
:103900000a854800fe019000340007008b85e8001e
:1039100038000700ee019000300007008e0990008b
:103920001b18b800890440000a8548000a98a300c3
:1039300008003a000402420085824a0006034b0058
:1039400087834b0008044c0089844c000a054d0015
:103950008d06e90084827200850273004c3add0016
:10396000850272000100320015002000443ade009a
:103970001400b2004538de00cb45dd000b007000be
:10398000c540de00cb4ddd008b8070004549de0078
:10399000cb55dd000b017100c551de000d03780031
:1039a00019ff070003f0a1000cf0a70003f0a0002e
:1039b00055ff37001b18b8008502400006834800f9
:1039c000e0834b0060044c00070037001b18b80070
:1039d0000603400087834800faff37001b18b80031
:1039e0008703400008844800e0844c0060054d00d7
:1039f000000006001b18b800080440008984480035
:103a0000faff37000108a3003cff3a005800be004f
:103a10005801be00e3ff37000008a30037ff3a005b
:103a200009047800f9ff370007f0a2000001370011
:103a3000020ab900001bb9000200b8008100420070
:103a40008100430000000600889fbe008a9fbe00e0
:103a50003004be002005be000404440085844c00f0
:103a600006054d0087854d000898be000a90be00ef
:103a70000440e10005c8e10006d0e10007d8e100fc
:103a800002003100680040001008e8004f05be0049
:103a90004f04be0000000600889fbe008a9fbe0043
:103aa0008c1f7800000678003c04be002c05be0088
:103ab0000400540085805c0006015d0087815d0084
:103ac000009ebe00029ebe00100020000440e100e7
:103ad00005c8e10006d0e10007d8e1000100390087
:103ae0000000eb001c0e10004f0678004f05be00d2
:103af0004f04be00000006001200fa00889fbe00be
:103b00008a9fbe008c9fbe000205be000004be005e
:103b1000e4b79f00f5b79f0086bf9f0097bf9f0047
:103b20000000eb00d0b79f00c0b79f00b0b79f0068
:103b3000a0b79f0090b79f0000067800fd0320000b
:103b4000dfb197004fb0970003814100bfb09700ed
:103b5000e08f510004003d00290007007e805700df
:103b6000b9ff070003003700250007007e805700db
:103b7000c9ff0700dfb09700e08f50000700350055
:103b800014002000050020006033b8000804720013
:103b9000898472000a0573008b8573000c06e800a7
:103ba0008d0f5600e6ff3400e08f500006003d0008
:103bb0006fb29700ffb297000fbb97009fbb9700b3
:103bc0007e805700a0ff07005fa89700e00f50001d
:103bd00004003a001fb49700afb497003fb59700b8
:103be000cfb597000800be000a01be004f06be0018
:103bf0004f05be004f04be000080fa000000060022
:103c0000cf01de0002817100b2b79f004f09de00d4
:103c10000000400000007100a0b79f000fb09700a7
:103c20004f01de00818040008100710091b79f004c
:103c30007faa9700cf20de000000400000807000c7
:103c400080b79f000800be000a01be004f18de00ca
:103c50000402420000027200f4af9f000804440016
:103c600089844c000a054d008b854d004fb29700aa
:103c7000dfb297006fb39700ffb397000000060014
:103c8000881f780018002000881f78009aff07001e
:103c90008f87e9004f04780000000600801feb00ca
:103ca00095ff07008f87e90000000600889fbe008f
:103cb0008a9fbe008c1f7800e00f5000e08f5800f4
:103cc000e00f5900e08f59000f003d006044b8003c
:103cd0006055b8000000540081805c0002015d0066
:103ce00083815d001c0020000820e10009a8e1009c
:103cf0000ab0e1000bb8e1000d003d00190007001b
:103d00000006eb000a0037000006eb00e00f52004f
:103d1000e08f5a00e00f5b00e08f5b0004003d0085
:103d20006044b8006055b8000e0007001c00200079
:103d3000d3ff0700e00f5600060032006022b800f3
:103d40006033b8000000520081805a0002015b001d
:103d500083815b004f0678004f05be004f04be0014
:103d6000000006000402540085825c0006035d002a
:103d700087835d0000000600889fbe008a9fbe000a
:103d80008c1f7800e00f5000e08f5800e00f5900c2
:103d9000e08f59000d003d006044b8006055b80048
:103da0000000540081805c0002015d0083815d00a1
:103db0001c0020000820e10009a8e1000ab0e10091
:103dc0000bb8e1000d003d00080037000006eb00d5
:103dd000e00f5200e08f5a00e00f5b00e08f5b00c5
:103de00006003d006044b8006055b800040254006d
:103df00085825c0006035d0087835d00a7ff0700e6
:103e0000e00f5600060032006022b8006033b800b0
:103e10000000520081805a0002015b0083815b0038
:103e20004f0678004f05be004f04be00000006009c
:103e30002800fa00889fbe008a9fbe008c9fbe00ab
:103e400007067800878669000c003b0003047800b1
:103e50008704780008f0a10009f0a100840f500049
:103e6000858f5800860f5900890f5c0003003300ce
:103e70000cf0a20001003a000cf0a1000efe0700b9
:103e80006400e1005f003200780147006408e1004f
:103e9000610032006c014700748557003200be009b
:103ea0001201be003a04be001a05be001e039000b7
:103eb000be0a90008503530006003d000004fd008b
:103ec0008104fd000205fd008305fd008703ea0073
:103ed000050378000df8a30004003200600414000c
:103ee000e0841c0060051d00e0851d006022b80014
:103ef0007d0320000d38e1008006eb000b00390047
:103f00004433dd00f300b200830173003900370051
:103f1000848272000d027800e10664008b85d10076
:103f20000a85d3008984d3000884d3008703e9007d
:103f3000f7ff3b0008004000898048000a01490063
:103f40008b81490004003b0060001000e0801800f5
:103f500060011900e08119000358a3000900320034
:103f60008d82720084827200610260008301d10040
:103f70000281d3008180d3000080d3000603e800d3
:103f80001b0037000348a30017003a000600e000ba
:103f9000170034000603e9000d00a30000004800ec
:103fa0008180480002014900838149000348a30041
:103fb0000f003a000600e000090034000603e900a3
:103fc00000004000818048000201490083814900cf
:103fd00001003a000003eb000348a300f5ff3200a4
:103fe0006022b8000200370084827200618266009d
:103ff00085fd070003f0a1000cf0a70003f0a0006e
:10400000c1fd3700640147006408e10002003a0086
:104010000df8a300b9fd3a003200be001201be0047
:10402000b9fd3700889fbe008a9fbe008c9fbe00ee
:104030000404be000605be00809fbe00829fbe0035
:104040002f000700040678000800be000a01be0029
:104050002b000700840678004f03be004f02be000d
:104060008d4f76007fb0970013003300f0ff2f00d4
:104070008b8f6b0006003b000d0666000c00a7004e
:104080000a00370007f0a600100020000a003700e1
:10409000880f5200898f5a008a0f5b008b8f5b005c
:1040a000030039001000200001003e000000200045
:1040b00007f0a7000000ea004f06be004f05be0053
:1040c0004f04be0000000600e48240001078a30008
:1040d00007003200640240001178a3003400be00e3
:1040e0001401be00040032000330a70000000600e7
:1040f0003500be001501be000330a0000000060020
:1041000005ff270005826100070032000428e10056
:1041100001003200240005000600070001003a00fb
:10412000440005000408050002000700f9ff3a00fa
:10413000140005006f826100810270008502710029
:104140008502720000000600800078005002be0068
:104150005003be004439de00f700b200f37f2000b8
:1041600003016100090032000218e10016003a0064
:1041700085017200830173008381730000082000b1
:1041800015003a004000200013003700850172003e
:10419000830173008381730005003a0004a8be0008
:1041a00006a8be00100020000b0037000201e90045
:1041b0000402420085824a0006034b0087834b00bd
:1041c0000748a300f9ff32000740a00004a8be0082
:1041d00006a8be00200020008000980092009800f1
:1041e00000000600881f7800030478000300e00048
:1041f00007003d0060001000e08018006001190019
:10420000e081190002003b0001f02d00030037009f
:104210000400070008f0a70003f0a0004f04780096
:1042200000000600889fbe0000827000040271003a
:10423000048271002400320036432000c5002000b3
:104240008383cf000a0039000541b1008283cf008b
:10425000070039000541b1008183cf000400390017
:104260000541b1008083cf00010039000541b10054
:1042700085c353006022b800120032000a003b00e0
:1042800084827200610260008301d1000281d30048
:104290008180d3000080d3000603e8008743e80054
:1042a000f7ff3a0007003700000040008180480017
:1042b00002014900838149000603e9008743e900c0
:1042c000f9ff3a00d0fc07004f04be0000000600d2
:020000040000fa
:1042d00048450000415200005442000045410000a2
:1042e000545f0000485a00002c20000020500000bd
:1042f000494400005f4800005a2c00002052000092
:104300004f4c00004c5f00004b5000002c50000050
:1043100049540000434800005f4b0000502c00004f
:1043200020540000494c0000545f00004b4900003d
:104330002c20000041430000524f00005f4b000062
:10434000502c00005252000041540000455f000014
:104350004b5000002c50000052410000544500001a
:104360005f4b0000502c0000205200004154000020
:10437000455f00004b4900002c52000052410000f4
:10438000544500005f4b0000442c000050520000d8
:1043900041540000455f00004b4400002c20000009
:1043a00020590000415700005f4b0000502c0000d6
:1043b0002020000059410000575f00004b490000d9
:1043c0002c20000041430000434500004c5f0000ea
:1043d0004b0d00000a00000025310000326900008a
:1043e0002c20000025370000692c0000202500004b
:1043f000372e0000336600002c2000002537000017
:104400002e330000662c000020250000372e00000f
:10441000336600002c200000253700002e330000fa
:10442000662c000020250000372e000033660000b7
:104430002c200000253700002e330000662c0000e1
:1044400020250000372e0000336600002c200000dd
:10445000253700002e330000662c000020250000c8
:10446000372e0000336600002c20000025370000a6
:104470002e330000662c000020250000372e00009f
:10448000336600002c200000253700002e3300008a
:10449000660d00000a00000020740000696300003f
:1044a0006b200000207c0000202000002020000065
:1044b00020720000362c0000202000002020000088
:1044c000723700002c2000002020000079610000dd
:1044d000772000007c200000202000007265000092
:1044e000727200002c200000207000006572000035
:1044f000722c00002020000079650000727200001c
:10450000207c00002020000020720000636d00006d
:10451000642c000020200000706300006d64000027
:104520002c20000020790000636d00006420000052
:104530007c2000006f6d00006567000061200000b6
:10454000722c0000207000002c200000792c00004c
:104550002020000063700000750d00000a000000bc
:104560000d0a000000740000656c0000656d00001d
:1045700065740000727900002074000079700000fa
:10458000653a000020250000692c00002062000030
:1045900061750000643a0000202500006c6900008d
:1045a0002c20000066720000657100003a200000b7
:1045b00025690000204800007a0d00000a00000074
:1045c000253600006c6900002025000036690000d7
:1045d0002c250000366900002c25000036690000fb
:1045e0002c20000020250000366900002c2500004a
:1045f000366900002c250000366900002c200000e0
:1046000020250000366900002c25000036690000d6
:104610002c250000366900002c2000002025000019
:10462000366900002c250000366900002c250000aa
:10463000366900002c250000366900002c2000009f
:1046400020250000366900002c20000025350000e0
:104650002e320000660d00000a00000074680000a1
:10466000726f0000747400006c6500005f6c0000e5
:10467000696d0000697400003a20000025660000a2
:104680000d0a000000670000707300003a2000006f
:10469000256c0000692c0000256c0000692c0000ce
:1046a000256c0000692c0000256c0000692c0000be
:1046b000256c0000692c0000257500002c250000e9
:1046c000692c0000256900002c250000692c0000e1
:1046d000256900002c250000692c000025690000d8
:1046e0002c250000692c0000256900002c25000005
:1046f000692c0000256900002c250000690d0000d0
:104700000a000000000000009201000024030000e5
:10471000b504000046060000d6070000640900004a
:10472000f10a00007c0c0000060e00008d0f000056
:1047300012110000941200001314000090150000e4
:10474000091700007e180000ef1900005d1b000033
:10475000c61c00002b1e00008c1f0000e72000007c
:104760003d2200008e230000da24000020260000f5
:10477000602700009a280000ce290000fb2a0000d4
:10478000212c0000412d00005a2e00006c2f00004b
:104790007630000079310000743200006833000088
:1047a000533400003735000012360000e5360000b3
:1047b000b0370000713800002b390000db390000f1
:1047c000823a0000213b0000b63b0000423c000062
:1047d000c53c00003f3d0000af3d0000153e00001d
:1047e000723e0000c53e00000f3f00004f3f00003a
:1047f000853f0000b13f0000d43f0000ec3f0000c7
:10480000fb3f0000004000001f1c00001f1e0000b6
:104810001f1e00001f1f00001e1f00001e1f0000a3
:10482000245000004d5400004b3200003230000094
:104830002c31000030300000302a000031460000ea
:104840000d0a000000240000504d0000544b0000f1
:1048500033310000342c0000312c0000312c0000da
:10486000312c0000312c0000312c0000312c0000d4
:10487000302c0000302c0000302c0000302c0000c8
:10488000302c0000302c0000302c0000302c0000b8
:10489000302c0000302c0000302c0000302c0000a8
:1048a000302a0000323800000d0a0000000000002d
:1048b00000000000000000000000000000000000f8
:1048c0004b0000000000000000000000000000009d
:1048d00000000000000000000000000000000000d8
:1048e0000000000000000000000000003200000096
:1048f000c0000000000000000000000000000000f8
:1049000000000000000000000302000001000000a1
:104910000706000005040000090800000b0a00005b
:104920000f0e00000d0c000013120000111000000b
:1049300015140000253000003675000020610000cd
:10494000787900007a2000002530000036690000e8
:1049500020250000303600006920000025300000ce
:104960003669000020670000787900007a20000096
:104970002530000036690000202500003036000098
:104980006920000025300000366900002074000016
:1049900020250000750d00000a0000009a1d00008f
:1049a0000908000099050000200300003e000000f7
:1049b000dd03000011fb0000a8020000dbfc00008a
:1049c00066060000ac0c0000cc0c0000334f000069
:1049d000cc0c000033030000d96e00000000000082
:1049e000279100000040000000800000004000000f
:1049f000d70f0000cc0c0000d70f0000d70f00002d
:104a0000d70f0000d70f0000d7030000d70f00001a
:104a1000cc0c0000334f0000080000000400000030
:104a200008000000030000000a0000006606000005
:044a3000330300004c
:020000040000fa
:104a34000000fa0041de20009140780010c4b30069
:104a440000c068000080fb000000e9004f00de00a9
:104a5400004078000080fa00000006000200fa001e
:104a6400000f7800c00320009e007800808f500063
:104a740005003a0000102e000100200048620200e8
:104a8400000000000e003700200320009e00780084
:104a9400808f500004003a0000412a00125f020097
:104aa40000000000060037001e007800f40f5000dc
:104ab40003003a0030422a00125f020000000000a6
:104ac4000080fa00000006000200fa00004f78009f
:104ad40040c2b3009e40780080cf500008003a00e6
:104ae40060582200507888000000eb00506d880068
:104af4000000eb00606d88000040eb00b0edb700f3
:104b04000080fa00000006000200fa00004f78005e
:104b140070c4b3009e40780080cf500006003a0075
:104b2400b0cdbf001e406800b0edb700605a22004f
:104b340050788800020037006056220050788800c0
:104b44000080fa00000006000200fa00004f78001e
:104b540000c5b3009e40780080cf500006003a00a4
:104b6400b0cdbf001e406800b0edb700605c22000d
:104b74005078880002003700605622005078880080
:104b84000080fa00000006000200fa00004f7800de
:104b9400b0cdbf001e406800b0edb7001e407800e5
:104ba400aeedb700c05d2200507888000080fa00a6
:104bb400000006000200fa00004f7800b0cdbf00ec
:104bc4001e406800b0edb7001e407800afedb7009e
:104bd400205f2200507888000080fa000000060060
:104be4000200fa00004f7800b0cdbf001e406800fc
:104bf400b0edb700e1da20009140780020c5b300a1
:104c040080cf500010003a00f1da20009140780083
:104c1400d0c4b30080cf50000b003a0030c4b300be
:104c24009e40780080cf500007003a00100020001a
:104c3400506d880080652200507888006000200054
:104c44003078880017003700e1da200091407800be
:104c540070c4b30080cf500010003a00f1da200095
:104c64009140780070c4b30080cf50000b003a002c
:104c740010c4b3009e40780080cf500007003a0073
:104c840010002000606d8800806522005078880044
:104c9400600020004078880002003700605622003f
:104ca400507888000080fa00000006000200fa0034
:104cb400004f7800a0c2b3009e40780080cf50001f
:104cc40003003200b0cdbf001e406800b0edb70055
:104cd400c0c2b3009e40780080cf500049003a0023
:104ce400506d8000010020007200200003002000ad
:104cf400820f5000838f58003e003e000060010088
:104d04002e003700060037003a0037000a0037004b
:104d14001400370016003700200037002200370047
:104d24006000b800a06e8800b16e88000073220095
:104d340050788800470037000000eb00906d880031
:104d44006000b800c06d8800d16d88006000b800b4
:104d5400a06d8800b16d8800a07b22005078880087
:104d64003c003700208d220050788800390037003d
:104d74000000eb00906d88006000b800c06d8800f2
:104d8400d16d88006000b800a06d8800b16d880006
:104d940080922200507888002e00370020a4220040
:104da400507888002b0037000000eb00e06e88008c
:104db40080a822005078880026003700616d8000aa
:104dc40010c0b300e78f5000010032000040eb0038
:104dd4008100e800616d8800e04f50001c00320043
:104de4000040eb00e7edb70020b5220050788800c2
:104df40018003700506d80000000e800506d8800f6
:104e040014003700606d8000ee0f500006003a0079
:104e1400a0c2b3009e40780080cf500002003a0048
:104e240040c3220050788800506d8000eb0f500082
:104e340008003a00a0c2b3009e40780080cf500022
:104e440004003a0040c32200507888000100370073
:104e5400000000000080fa00000006000200fa00d2
:104e6400004f7800b0cdbf001e406800b0edb70021
:104e7400c0c2b3009e40780080cf500005003a00c5
:104e840020002000506d8800e077220050788800d0
:104e940017003700e0c2b3009e40780080cf500076
:104ea40013003200a06e8000b16e80006a09b90060
:104eb400020178006002b900840178000301410016
:104ec400a30020000300b800010141008200780023
:104ed4009e4178000381fb000203b100cf91de0004
:104ee4000000410081804900a06e8800b16e8800f6
:104ef4000080fa00000006000200fa00004f78006b
:104f0400b0cdbf001e406800b0edb700c0c2b30012
:104f14009e40780080cf50000d003a003000200001
:104f2400506d88000000eb00906d88006000b800b0
:104f3400c06d8800d16d88006000b800a06d880045
:104f4400b16d8800a07b22005078880006003700ed
:104f54001e407800e4edb70030002000506d88005a
:104f640080652200507888000080fa000000060066
:104f74000200fa00889fbe00004f7800b0cdbf0049
:104f84001e406800b0edb700c0c2b3009e40780078
:104f940080cf500003003a00605622005078880009
:104fa4007c003700906d80000000e800906d880060
:104fb400906d80006101b9000080eb008080eb00ff
:104fc400020040008380480082002000030020008b
:104fd400820f5000838f58006b003e000060010078
:104fe40008003700070037001a003700190037009f
:104ff4006700370017003700160037001500370028
:1050040028003700a06d8000b16d80006a09b900e6
:10501400020178006002b9008401780003014100b4
:10502400a30020000300b8000101410082007800c1
:105034009e4178000381fb000203b100cf91de00a2
:105044000000410081804900a06d8800b16d880096
:1050540050003700c06d8000d16d80006a09b9002e
:10506400020178006002b900840178000301410064
:10507400a30020000300b800010141008200780071
:105084009e4178000381fb000203b100cf91de0052
:105094000000410081804900c06d8800d16d880006
:1050a4003c003700c06d8000d16d80006a09b900f2
:1050b400020178006002b900840178000301410014
:1050c400a30020000300b800010141008200780021
:1050d4009e4178000381fb000203b100cf91de0002
:1050e4000000410081804900c06d8800d16d8800b6
:1050f40040002000506d8800a06d8000b16d8000dc
:10510400026829000289b90002017800830920009d
:105114000382b90084017800030141000368290077
:105124000304b8000901410082047800c06d8000c6
:10513400d16d8000220320000289b90002017800a9
:105144006002b900840178000301410023032000b8
:105154000300b80001014100820078003200200001
:1051640003002000c60d02000000000008004000fb
:1051740089804800e06d8800f16d88008065220018
:105184005078880003003700000000000100370059
:10519400000000004f04be000080fa00000006007a
:1051a4000200fa00004f7800b0cdbf001e40680036
:1051b400b0edb700c0c2b3009e40780080cf50006d
:1051c4000f003a0000c2b300e5edb7005000200024
:1051d400506d88000000eb00906d88006000b800fe
:1051e400c06d8800d16d88006000b800a06d880093
:1051f400b16d880080922200507888001100370039
:105204001e407800e5edb70051de200091407800a3
:1052140030c5b30080cf500006003a00e06d800036
:10522400f16d800060001000e0801800e06d8800df
:10523400f16d880050002000506d880080652200c8
:10524400507888000080fa00000006000200fa008e
:10525400889fbe00004f7800b0cdbf001e4068009c
:10526400b0edb700c0c2b3009e40780080cf5000bc
:1052740003003a0060562200507888007d00370011
:10528400906d80000000e800906d8800906d8000b3
:105294006101b9000080eb008080eb000200400057
:1052a400838048009200200003002000820f5000f9
:1052b400838f58006c003e00006001000900370035
:1052c40008003700070037001a00370019003700bc
:1052d4006700370017003700160037001500370045
:1052e40028003700a06d8000b16d80006a09b90004
:1052f400020178006002b9008401780003014100d2
:10530400a30020000300b8000101410082007800de
:105314009e4178000381fb000203b100cf91de00bf
:105324000000410081804900a06d8800b16d8800b3
:1053340050003700c06d8000d16d80006a09b9004b
:10534400020178006002b900840178000301410081
:10535400a30020000300b80001014100820078008e
:105364009e4178000381fb000203b100cf91de006f
:105374000000410081804900c06d8800d16d880023
:105384003c003700c06d8000d16d80006a09b9000f
:10539400020178006002b900840178000301410031
:1053a400a30020000300b80001014100820078003e
:1053b4009e4178000381fb000203b100cf91de001f
:1053c4000000410081804900c06d8800d16d8800d3
:1053d40060002000506d8800a06d8000b16d8000d9
:1053e400026829000289b9000201780083092000bb
:1053f4000382b90084017800030141000368290095
:105404000304b8000901410082047800c06d8000e3
:10541400d16d8000220320000289b90002017800c6
:105424006002b900840178000301410023032000d5
:105434000300b8000101410082007800320020001e
:1054440003002000c60d0200000000000800400018
:1054540089804800006e8800116e880080652200f3
:105464005078880003003700000000000100370076
:10547400000000004f04be000080fa000000060097
:105484000200fa00004f7800b0cdbf001e40680053
:10549400b0edb700c0c2b3009e40780080cf50008a
:1054a40007003a0000c2b300e6edb7007000200028
:1054b400506d880080a822005078880011003700c1
:1054c4001e407800e6edb70061de200091407800d0
:1054d40070c5b30080cf500006003a00006e800013
:1054e400116e800060001000e0801800006e8800db
:1054f400116e880070002000506d880080652200c5
:10550400507888000080fa00000006000200fa00cb
:10551400004f7800b0cdbf001e406800b0edb7006a
:10552400c0c2b3009e40780080cf50000a003a0009
:10553400e06e80000080d100e06e880080002000d2
:10554400506d88000000eb00f06e8800a0ac2200d3
:10555400507888000c003700e0c2b3009e40780009
:1055640080cf500008003200e06e80006a00b9006d
:10557400800078001e4178000280fb000003b10027
:1055840000804000e06e88000080fa000000060001
:105594000200fa00004f7800b0cdbf001e40680042
:1055a400b0edb700c0c2b3009e40780080cf500079
:1055b40008003a0090002000506d88006000b80098
:1055c400806e8800916e880080b022005078880038
:1055d4000c003700e0c2b3009e40780080cf50003a
:1055e40008003200f06e80006a00b9008000780084
:1055f4001e4178000280fb000003b10000804000df
:10560400f06e88000080fa00000006000200fa0034
:10561400004f7800b0cdbf001e406800b0edb70069
:10562400c0c2b3009e40780080cf500003003a000f
:10563400806522005078880017003700e0c2b3006c
:105644009e40780080cf500013003200806e8000ae
:10565400916e80006a09b900020178006002b90005
:105664008401780003014100a30020000300b80076
:1056740001014100820078009e4178000381fb0013
:105684000203b100cf91de00000041008180490097
:10569400806e8800916e88000080fa000000060089
:1056a4000200fa00004f7800b0cdbf001e40680031
:1056b400b0edb700c0c2b3009e40780080cf500068
:1056c40005003a0080002000606d880020b82200a8
:1056d4005078880008003700e7cdbf006a00b900a1
:1056e40000007800004078009e40400000cdb300e8
:1056f40000c04000e7edb7000080fa00000006009b
:105704000200fa00004f7800b0cdbf001e406800d0
:10571400b0edb700c0c2b3009e40780080cf500007
:105724000e003a00606f80000000d1000040780055
:10573400e9edb7000000eb00606f88006000b8007e
:10574400206e8800316e880090002000606d880013
:10575400c0bc2200507888000c003700e0c2b300bf
:105764009e40780080cf500008003200606f8000b7
:105774006a00b900800078001e4178000280fb00b6
:10578400008040000003b100606f88000080fa00d0
:10579400000006000200fa00004f7800b0cdbf0000
:1057a4001e406800b0edb700c0c2b3009e40780050
:1057b40080cf500012003a00206e8000316e8000cd
:1057c4006a09b900020178006002b9008401780016
:1057d40003014100a30020000300b80001014100bf
:1057e40082007800206e8800316e8800a0002000be
:1057f400606d8800806522005078880017003700ab
:10580400e0c2b3009e40780080cf50001300320005
:10581400206e8000316e80006a09b90002017800b0
:105824006002b9008401780003014100a300200054
:105834000300b80001014100820078009e41780015
:105844000381fb000203b100cf91de0000004100a0
:1058540081804900206e8800316e88000080fa0043
:10586400000006000200fa00004f78001e40780095
:10587400ed4f50001d003a00605622005078880019
:1058840001db200091407800eacdbf0080cf5000ba
:105894000e003a00606d8000e00f500002003200fc
:1058a40010c0b300ebedb700506d8000e00f500066
:1058b4000b003200ebcdbf00e14f500008003a006e
:1058c400a06802000000000005003700606d800041
:1058d400e00f5000020032000040eb00ebedb70097
:1058e4000040eb00eaedb7001300370090c3b300ab
:1058f4009e40780080cf500008003e00eacdbf00f3
:10590400410020000100dd009e40400000cdb300b6
:1059140000c04000eaedb70007003700eacdbf0041
:10592400410020000100dd009e40400090ccb30007
:1059340000c04000eaedb7000080fa000000060055
:105944000c00fa00806e8000916e80003007980091
:10595400410798003e009000ce00900042062000cf
:1059640003002000da0e020000000000204f98001f
:105974003e009000ce00900042062000030020006c
:10598400c60d02000000000030079800410798008f
:105994003e009000ce00900042062000030020004c
:1059a400da0e020000000000304f98003e00900024
:1059b400ce0090004206200003002000c60d020025
:1059c4000000000030079800410798003e00900056
:1059d400ce0090004206200003002000da0e0200f0
:1059e40000000000000f78001e007800e00f500057
:1059f400530032003e489000e04f50005200320005
:105a040050c0b30020479800b0c0b300304798009e
:105a14000000eb00200798002b0037002e40900078
:105a24000080fb000000e90041402a00614078004a
:105a34000080fb001e0f40002e409000e24f5000fb
:105a44000f003a003e40900063406000e04f500079
:105a54000b003a003e4090008080fb00400620008e
:105a640000017800110009008280d8008000fd0048
:105a740000407800e04f5000010032001e0fe800a3
:105a84002e4090000040e800204798002e409000ef
:105a9400ed4f500005003a0010c0b30020479800b5
:105aa4003e4090000040e800304798002e009000ef
:105ab4000000e80020079800ae009000004b200092
