:020000040000fa
:080000000002040000000000f2
:020000040000fa
:100008005aae000050ae00004cae000048ae0000f2
:1000180044ae000056ae00005aae00005aae0000d2
:100028005aae00002aa700005aae0000f89400005b
:100038005aae00005aae00005aae00005aae000098
:10004800d29f00005aae00005aae00000490000093
:10005800b08f00005aae00005aae00005aae000041
:100068005aae00005aae00005aae00005aae000068
:10007800c4aa0000a29d00005aae00005aae0000bb
:100088005aae00005aae00005aae00005aae000048
:10009800129600005aae0000649100001091000012
:1000a8005aae00005aae00005aae00006498000034
:1000b8005aae00005aae00005aae00005aae000018
:1000c8005aae00005aae00005aae00005aae000008
:1000d8005aae00005aae00005aae00004c9600001e
:1000e800bc9500005aae00005aae00005aae00009f
:1000f8005aae00005aae00005aae00005aae0000d8
:10010800e09700005aae00005aae00005aae000058
:100118005aae00005aae00005aae00005aae0000b7
:100128005aae00005aae00005aae00005aae0000a7
:100138005aae00005aae00005aae00005aae000097
:100148005aae00005aae00005aae00005aae000087
:100158005aae00005aae00005aae00005aae000077
:100168005aae00005aae00005aae00005aae000067
:100178005aae00005aae00005aae00005aae000057
:100188005aae00005aae00005aae00005aae000047
:100198005aae00005aae00005aae00005aae000037
:1001a8005aae00005aae00005aae00005aae000027
:1001b8005aae00005aae00005aae00005aae000017
:1001c8005aae00005aae00005aae00005aae000007
:1001d8005aae00005aae00005aae00005aae0000f7
:1001e8005aae00005aae00005aae00005aae0000e7
:0801f8005aae00005aae0000ef
:020000040000fa
:100208005aae000050ae00004cae000048ae0000f0
:1002180044ae000056ae00005aae00005aae0000d0
:100228005aae00002aa700005aae0000f894000059
:100238005aae00005aae00005aae00005aae000096
:10024800d29f00005aae00005aae00000490000091
:10025800b08f00005aae00005aae00005aae00003f
:100268005aae00005aae00005aae00005aae000066
:10027800c4aa0000a29d00005aae00005aae0000b9
:100288005aae00005aae00005aae00005aae000046
:10029800129600005aae0000649100001091000010
:1002a8005aae00005aae00005aae00006498000032
:1002b8005aae00005aae00005aae00005aae000016
:1002c8005aae00005aae00005aae00005aae000006
:1002d8005aae00005aae00005aae00004c9600001c
:1002e800bc9500005aae00005aae00005aae00009d
:1002f8005aae00005aae00005aae00005aae0000d6
:10030800e09700005aae00005aae00005aae000056
:100318005aae00005aae00005aae00005aae0000b5
:100328005aae00005aae00005aae00005aae0000a5
:100338005aae00005aae00005aae00005aae000095
:100348005aae00005aae00005aae00005aae000085
:100358005aae00005aae00005aae00005aae000075
:100368005aae00005aae00005aae00005aae000065
:100378005aae00005aae00005aae00005aae000055
:100388005aae00005aae00005aae00005aae000045
:100398005aae00005aae00005aae00005aae000035
:1003a8005aae00005aae00005aae00005aae000025
:1003b8005aae00005aae00005aae00005aae000015
:1003c8005aae00005aae00005aae00005aae000005
:1003d8005aae00005aae00005aae00005aae0000f5
:1003e8005aae00005aae00005aae00005aae0000e5
:0803f8005aae00005aae0000ed
:020000040000fa
:100400002fdc22000eff27000e01880000000000f4
:100410000c000700a09c270001002000110007002d
:10042000000020000000e000020032000000020096
:1004300000000000b0990200000000000040da0057
:100440000000fe004440a900c0d220000000e000ef
:100450000300320000002000a00188004440a800f2
:100460000000060091018800800078000000eb0089
:1004700015003700e280400032a0b4009101ba00bc
:10048000e280400032a0b4009102ba00e280400055
:1004900032a0b4000002eb00472bde00f507b200eb
:1004a000602ce10004003a000059eb008301e900f0
:1004b000fdff3e00040037006128e100010032002a
:1004c0000082eb00040007001101ba000200e00006
:1004d000e8ff3a00000006003159ba008301e90044
:1004e0000c0032002159ba008301e90008003200f3
:1004f0000400e00003003a00e280400032a0b400b3
:10050000f5ff370011d9ba008301e900faff3a007c
:100510008100e800e180400032a0b4000000060045
:10052000f25204000000000012530400000000001a
:10053000d25204000000000032530400000000000a
:1005400048530400000000005e5304000000000057
:10055000c4530400000000009c540400000000008c
:1005600026550400000000003e5604000000000074
:100570009456040000000000ae5704000000000084
:10058000f457040000000000be5804000000000002
:10059000a059040000000000ea540400000000001c
:1005a00036580400000000007458040000000000e9
:1005b000ee5804000000000038590400000000005c
:1005c000124504000000000060400400000000002c
:1005d0009840040000000000103f040000000000ec
:1005e000703f040000000000ae3f04000000000067
:1005f0000c400400000000008e3e040000000000db
:10060000d23e040000000000d840040000000000ba
:1006100044410400000000009c4104000000000070
:10062000e841040000000000ca420400000000008d
:1006300012430400000000002a42040000000000f1
:1006400072420400000000002e440400000000007c
:100650009a440400000000006a4304000000000007
:10066000d643040000000000548a0400000000008b
:100670005c8a0400000000009a8a04000000000068
:10068000008b040000000000448b04000000000008
:10069000848b040000000000ca8b040000000000ee
:1006a00060030400000000008c0304000000000050
:1006b000c01804000000000000000400000000005a
:1006c000889fbe0000047800010078008204780052
:1006d00088017800090178001100200068070700f0
:1006e000890f5000010032000004eb000800780080
:1006f0004f04be00000006000000fa00e881570029
:100700004fb9970001cc22000036200025000700d9
:100710000080fa0000000600889fbe0000047800f8
:100720001800900082047800808f54000100360089
:10073000800478001800780009017800210707007c
:10074000188c440018009000890450001904980087
:10075000080078004f04be00000006000400fa0004
:10076000e08f500003003a000f80e900e0bf9f00d7
:1007700002003700e0bf9f008100e900f1bf9f0049
:10078000ec8157002fb99700e4805700c038200053
:1007900004000700efb897008048eb000080fa00e3
:1007a000000006006200fa00889fbe008a9fbe001b
:1007b0008c9fbe0000057800810478000204780058
:1007c0008300780020f92f000f0040001a0a07006c
:1007d000ea8f9f00f98f9f000000eb00809f9f0031
:1007e000edda22002cda2200fbff27001840780007
:1007f0000085fb008a04fb000a05ea004f55de0075
:1008000050022000808f54000d003200e10f55008f
:100810000b003a000a017800880078007f88970072
:10082000ef89970003000100f08f9f00e00f500058
:100830008d0032000f9897000000e800809f9f0015
:100840000a04440050022000808f5400040032004b
:10085000e08f5400e5ff3a000f98970083003700bf
:100860000000eb00e0979f00d0979f00c0979f008b
:10087000b0979f00a0979f0090979f00a09f9f0018
:10088000070037000d005000000040006c007800a9
:10089000af98970000807000a09f9f000804e800b8
:1008a000984478008900fb00e0da22006607070020
:1008b000e00f5000f3ff3a00a1c2b30081cf540013
:1008c0000e003a009f8897000180e900908f9f00fa
:1008d00010007800909f9f00e00f500005003d0041
:1008e0000000ea00909f9f002f9897000020a00032
:1008f000a09f9f000804e8000f003700909f9f0012
:10090000080037001f9897008b0f5000040032003a
:100910006a00b9000003b10002004000909f9f00f0
:100920000804e8001801fb0000fd2f000200400051
:10093000e90f5000f3ff3600e0c2b300984f1000fb
:10094000030032000080eb00f0979f001a00370090
:10095000a0c2b300d84f100007003a009f8897004c
:100960000180e900908f9f0010007800f0979f00b1
:100970000804e800100037000000eb00f0979f002b
:10098000080037007f9097008b0f50000400320062
:100990006a00b9000003b10002004000f0979f0018
:1009a0000804e8001801fb0000fd2f0002004000d1
:1009b000e90f5000f3ff3600984478008900fb00ef
:1009c000a0d9220020070700e00f500002003200eb
:1009d0000804e8000100370080447800e9779f00b0
:1009e00080c6b30080cf540004003a0098cf1400b2
:1009f0000a003a006640500006003700c0c6b30047
:100a000080cf540005003a0098cf140003003a004c
:100a100065404000e0779f000804e8001801fb00f3
:100a200083fb2f008f81410021f92f008f80400030
:100a300040f92f000f00400011000700e00f5000a8
:100a400009003a0081fb2f008f80400040f92f0001
:100a50000f004000bc080700e00f50000200350006
:100a60000804e80061ff37000080eb004f06be007d
:100a70004f05be004f04be000080fa0000000600d3
:100a8000889fbe008a1f78000004780082447800a6
:100a90000305780070c6b30080cf54001a003c00f4
:100aa00000c0e90080cf5400cf003d006d405000f1
:100ab00080cf54007a0032000b003c00714050009f
:100ac00080cf54003f013c0000c0e90080cf5400bb
:100ad000c5003d0050c2b30080cf54003601320043
:100ae0007c4040000500370030c6b30080cf540082
:100af0001a0032001e003c0000c0e90080cf540004
:100b000030013a00b8003700f0c6b30080cf54007f
:100b10006300320007003c006640500080cf540064
:100b2000130032006540400080cf540025013a0098
:100b3000d600370050c7b30080cf540058003200b1
:100b400084c7b30084cf5400550032006540500084
:100b500080cf54001b013a00080137001181e900e1
:100b60008208780078009000127578001b01370029
:100b700028609000c2c6b300824f500009003a00be
:100b80001100780064025000840878001400be0050
:100b9000140290004fa2de00040178008401780066
:100ba0001200370012c7b300824f5000030032001a
:100bb000a2c6b300824f500006003a00110178002f
:100bc00068005100800878005001be004000be005f
:100bd000060037001180e9008008780010007800d6
:100be000cf80de000101780082017800009cbe0009
:100bf0000294be002862900085c6b300854f520063
:100c00000e00320025c6b300854f520005003a00a1
:100c10000000fb00cf80de00010178008201780037
:100c20000900370045c7b300854f5200030032006a
:100c3000e6c24200854f520005003a00cf80de0038
:100c40000101780082017800009cbe000294be0081
:100c50003802be002803be0078009000d1c2b30065
:100c6000e00f5200e08f5a00e00f5b00e08f5b0066
:100c70000800350088109000628160000200320098
:100c8000b1c2b30003003700e180600051003200c0
:100c900001c2b300017578000000e8004c00370085
:100ca00028609000c2c6b300824f500007003a008f
:100cb0001100780064025000840878001400be001f
:100cc0000001eb00820178001200370012c7b30068
:100cd000824f500003003200a2c6b300824f500082
:100ce00006003a0011017800680051008008780081
:100cf0005001be004000be00060037001180e90030
:100d00008008780010007800010020000200200018
:100d100003002000009cbe000294be0028629000e8
:100d200085c6b300854f52000e00320025c6b300c1
:100d3000854f520005003a000080fb0001002000b2
:100d400002002000030020000900370045c7b3005f
:100d5000854f520003003200e6c24200854f520028
:100d600005003a00010020000200200003002000de
:100d7000009cbe000294be00081090006800600055
:100d8000140032003800be002801be00e00f500001
:100d9000e08f5800e00f5900e08f59000d0032003d
:100da00080c7b30080cf54000300320080c5b30079
:100db00080cf540007003a00f800900000c3b30051
:100dc00000f578000100e800097578000180e8006e
:100dd0007004980078009000000545006a049800af
:100de000894078007100370028619000c0c4b300ca
:100df000804f510006003a00110178006800510050
:100e0000800878005001be004000be000500370099
:100e10001101780064005100800878001000be00c5
:100e2000270b0700009cbe000294be00b800900093
:100e300078009000e08f500002003d00d1c2b30066
:100e400008003700881090006281600002003200c4
:100e5000b1c2b30003003700e1806000040032003b
:100e600001c2b300017578000000e800700498002a
:100e700078009000000545006a0498008900fb0096
:100e8000080078005b0007005600370028609000db
:100e9000c3c6b3001181e900834f50002b0032001c
:100ea0000a003c00e4c15100834f5000240032008e
:100eb00083c1e800834f50001800320022c6b300ff
:100ec000824f500027003a000a00370043c7b300a2
:100ed000834f50001a003200e6c14100834f50009a
:100ee0001700320012c7b300824f50001d003a00b5
:100ef000060037001180e9008008780010007800b3
:100f0000485c900008487800360037001180e900fe
:100f1000800878001002780002003700820878000c
:100f20001202780068089000cf80de00010178008e
:100f300082017800009abe000292be0029003700ac
:100f400082087800120078000900370082087800d3
:100f50001201780068089000cf80de000089be0092
:100f6000200037001180e900800878001000780028
:100f7000680c9000080878001a0037001180e9001a
:100f80008008780010007800cf80de000101780032
:100f900082017800009cbe000294be0078009000a0
:100fa000000545006a049800844078000800780035
:100fb0001f0607000b0037007800900009757800c5
:100fc000060037007800900000054500e0cf54008f
:100fd00001003a0059c2b300094d78000000e80052
:100fe000700498000000eb004f0578004f04be002d
:100ff00000000600ef03b000889fbe008a9fbe007d
:101000008c9fbe008e1f7800000578000147780095
:101010003a00be002a01be00d0b79f00e1b79f0092
:10102000f2b79f0083bf9f005a089000e00f500066
:1010300002003d0060002000500d98008a007800fa
:1010400060fb2f000f004000cf05070080017800f3
:10105000e28f510009003a0030002000100d980086
:10106000b0c9b3000047470040d22200e14f57000b
:101070000c003e0000d222000a003700e08f510031
:101080000e00340030002000100d9800b0c9b300ed
:1010900000474700c0d22200e14f570001003e0048
:1010a00080d22200ea009000b0487800b068780052
:1010b000104078009040980002013700e08f510006
:1010c00004003a0062fb2f000f0141000319780071
:1010d000f80037006022b8006033b8005fb09700b6
:1010e000efb097007fb197008fb99700cb09070049
:1010f000e00f500009003d005fb29700efb297008b
:101100007fb397008fbb970007f0a200d4b79f0072
:10111000e5b79f00f6b79f0087bf9f003f9a9700f3
:10112000cfa2de0072592700030020000400be0099
:10113000280b0700026a2800130020001b03070089
:1011400064015000b29f9f0018003b006301110032
:10115000c0ff2f00000461008802ea00b59f9f00d5
:101160000006eb000dd322005fb09700efb09700b0
:101170007fb197008fb997000900370061026400c2
:10118000050032004362dd00048246005403be00c5
:101190004402be00980a07000884d1000c06e8004b
:1011a000e00f5400f5ff3c001f003700e00f510036
:1011b00023003200c8ff2f0008046100b89f9f0081
:1011c0006022b8000600200007ff23000006eb00a5
:1011d0000dd322000400be000601be000900370046
:1011e00061026400050032004362dd0004824600b3
:1011f0005403be004402be007f0a07000884d100e9
:101200000c06e800e00f5400f5ff3c000002be00b1
:101210000203be005fb09700efb097007fb1970068
:101220008fb99700870907000002be000203be00c5
:10123000d4b79f00e5b79f00f6b79f0087bf9f0018
:101240005a09900060c6b300804f57000400320076
:101250006100200060c4b300804f570002003a00d4
:10126000bf9a9700ea80420082814000f38f5100cc
:10127000010034003301200002c3b300827f9f00cd
:101280009dfb2f008f864600824578000e43780034
:1012900086ef9f0003077800350037005fb09700a6
:1012a000efb097007fb197008fb99700230a07002e
:1012b0000004be00680757004240a9001200340035
:1012c0004a0a07000002be000203be005fb097009a
:1012d000efb097007fb197008fb99700bb0a070066
:1012e0006022b80046782d0077192400420a0700d2
:1012f0000002be000203be00d4b79f00e5b79f0006
:10130000f6b79f0087bf9f00e88646008c0020004c
:101310000801be000c003700a400200005002000da
:1013200000fe2f000f004000a90407000fb0970037
:101330009fb097002fb19700bfb1970005c3b300ce
:10134000856641000001be00e00f5100e08f5900aa
:10135000040034000c06e900efff3b0001003700f9
:101360008b6678000c06e900fdff3b00e88646002e
:10137000e00f57000a0034006022b8006033b80064
:101380005fb09700efb097007fb197008fb99700db
:101390002709070080007800e08f5000bfff3c0065
:1013a0000fef970092fb2f000f0141008282560041
:1013b0003f9b970067034300b69f9f0000c3b300a5
:1013c000050037008502e900bf9b97008703e9000d
:1013d000b79f9f000201e800924f1000f9ff320012
:1013e000da08900060c6b300804f57000300320057
:1013f00060c4b300804f570003003a003f98970045
:101400008001e800090037001300200050c6b30037
:10141000804f5700050032000e40780050c4b200e3
:101420008081fb008301e900cf19de00818141004a
:10143000858f51000100340085017800e08f510054
:101440001c00350004c3b300858f510006003d0029
:10145000e2c079006942420040c3b30080cf50002f
:1014600001003c006942520083027800010037000d
:101470008301e9008502e9008500410011437800fd
:10148000844f5300faff320090c3b300804f5200e4
:1014900001003a008648e800e08f520005003d0058
:1014a0000201e9008301e800bf9897008100e8008d
:1014b000b19f9f008e00fb003f9a97000a007800c2
:1014c000060007004f0778004f06be004f05be001c
:1014d0004f04be00ef03b100000006000e00fa004a
:1014e000889fbe008a9fbe008c9fbe0000047800cb
:1014f00081447800020678000305780084057800ae
:10150000e00f550002003c001a002000acdb220076
:1015100060c6b30080cf54000e00320060c4b30038
:1015200080cf54000b00320070c6b30080cf54004f
:101530000300320070c4b30080cf540081003a0031
:10154000e48f45007f00350058089000808f5500db
:101550007c003d008b05e80060c6b30080cf5400de
:101560001000320060c4b30080cf54000d00320080
:10157000081090006800600004003a0058089000cd
:10158000800f550001003d005a0c9800580890004b
:101590000b005000500c980002003b000000eb00d4
:1015a000500c980018089000e8009000e08f55005b
:1015b00026003c0002c3b300827078000000e800ff
:1015c000100c9800d8089000e08f500003003c00f9
:1015d00088109000e88060000500320068019000eb
:1015e000e1c2b300017178000000e800100c98001f
:1015f000580890008b00ea00810f500001003d0068
:101600008005ea008b00ea00210c980080854500e7
:101610005b0c98008a8f5500010034008a05780021
:101620003b0c9800e80090001808900000804000f3
:101630000b0178008c0078006203070058089000c6
:101640008b0550004b0c9800910037008b0f550014
:1016500018003d00008040000a0178008c007800ee
:10166000580307009808900081004500110c98006d
:101670000a8555002a0c980058089000e00f500089
:1016800003003c0008109000680060000600320073
:1016900068019000e0c2b30000f1780038089000c3
:1016a0000000e800300c980058089000400c9800aa
:1016b00077003700008040000b0178008c00780034
:1016c000400307001808900000804500100c9800a7
:1016d0000b055500d8089000e08f500003003c0037
:1016e00088109000e88060000500320068019000da
:1016f000e1c2b300017178000000e800100c98000e
:1017000058089000800f5500010034000005780053
:10171000e800900018089000008040008b00460010
:101720000a01780027030700180890000a0040000b
:10173000100c9800580890000a0550002a0c9800d8
:101740005300370018089000e80090009c70780063
:101750000000e800100c9800d8089000e08f5000be
:1017600003003c0088109000e88060000500320013
:1017700068019000e1c2b300017178000000e80048
:10178000100c980058089000e00f50001000340032
:101790000a05e900800f55000100340000057800bb
:1017a000e800900018089000008040008c00e800dd
:1017b0000a01780003030700180890000a0040009f
:1017c000100c9800580890000a0550002a0c980048
:1017d000e800900018089000008040000958780048
:1017e0008006e800e08f550004003500b1c2b30068
:1017f000014878000d06780004003700d1c2b3001c
:10180000014878000d0678008b05ea008004eb00a3
:101810000b003700a20020008b007800708057007a
:101820000c0307000fbd97009fbd97008b40780009
:101830007a80570001f07c008904e8008a0578006e
:10184000e08f5500f3ff3c00e08f540009003a00a0
:101850000d06780000c3b300005e78000500370075
:101860008904e9007a81570062c07c0001c3b3009b
:10187000015e4000e08f5400f9ff3a00e80090005c
:101880001808900000804000000656003c0c9800ac
:101890000810900074006000f00f50000e003a0035
:1018a000980890007800900000804000a808900000
:1018b00001004000b808900001004000c8089000f6
:1018c00001004000f8089000810f500002003d0028
:1018d00000805000000c98004f06be004f05be006f
:1018e0004f04be000080fa00000006004400f8002b
:1018f000040f200024028800811f78000000e90006
:10190000030278000080080002000000b2027800a4
:101910001301c0003100cd004f0078004400f900f1
:10192000000006004400f800040f20002402880094
:10193000010278000000e9000080080004000000b7
:10194000b20278000500ca00b30278000500c900a1
:101950003100cc00040078004400f90000000600cb
:101960004400f800040f200024028800811f780042
:101970000000e90000800800030000003202780047
:10198000b30278001301c0003100cd004f00780091
:101990004400f900000006004400f800040f200095
:1019a000240288000000e9001201c3000080080042
:1019b0000200000031027800b20278001201c0007b
:1019c0000000cd004400f900000006004400f800cb
:1019d000020f2000220288000000e9001201c3006b
:1019e0000080080001000000310278001001f000c2
:1019f0000000cd004400f900000006000100b8001e
:101a00000000e9004400f800010f200021028800d6
:101a1000820078000080080004000000b302780013
:101a20000500ca00b40278000500c9003200cc00ed
:101a3000010078004400f90000000600889fbe0005
:101a40008a9fbe008c9fbe004400f8000d0f20004e
:101a50002d028800830678000106e9008205e9006e
:101a600081804000020141000000e90010003500c3
:101a7000050578000b8008000a00000004047800c7
:101a80008a0478001201c3000c80080003000000e3
:101a900038037800990378001201c600828444005c
:101aa0003300cd000a85e80001024200eeff370056
:101ab0000d0078004400f9004f06be004f05be003f
:101ac0004f04be00000006009540a90041e2a900b5
:101ad0008540a900000006008540a900670160005c
:101ae0004811dd0043058000f18f2f0081806100e7
:101af000828070004105880068006000c300de003d
:101b0000e1806000ca08dd00a004800000a0a10000
:101b100001007000a0048800000006001012880078
:101b200021128800021288000000060003f0a200c3
:101b3000889fbe008a9fbe008c1f7800320107007c
:101b4000390133006450e1004f0032006420e100ad
:101b50005200320003826c0007003b000905d000f0
:101b60000306d000820f54000c065d00020039000d
:101b70000200320089017800030678008582550052
:101b800004003d000003fd008103fd008502ea0022
:101b90008b854200840f720002003b006000100041
:101ba000e08018006011b8000005eb007a28e10021
:101bb0000a00390006007800c75ddd00f707b200b3
:101bc000878075002d003700828171000a0178003e
:101bd000610560008180d1000080d3008502e900aa
:101be000f9ff3b00060440008784480002003b00e8
:101bf00060041400e0841c000988a3000700320080
:101c00008a81710082817100610164008904d100c0
:101c10000884d3008b05e800170037000978a3007b
:101c200013003a000b00e000130034008b05e900bc
:101c30000804440089844c000a4474000978a30015
:101c40000d003a000b00e000070034008b05e900ae
:101c50000804440089844c0001003a000b00200075
:101c60000978a300f7ff32000001eb000200370003
:101c7000828171000a017800a80007000cf0a7001b
:101c800001f0a000f10037006420e10002003a00fa
:101c9000838f6c00f10033000801be000200be001b
:101ca000ea003700889fbe008a9fbe008c1f780024
:101cb000d5000700dc00330003866c006450e100af
:101cc0002e0032006420e100330032006150e10058
:101cd0002f0032006120e10031003200858555007f
:101ce000eb07b000090020000804200005003700c1
:101cf0000804440089844c000a00310006034300b4
:101d000087834b000001530081815b00f8ff3300a3
:101d10000203be000800a0000804440089844c00af
:101d2000f6ff3900c639dd0083017300010032007f
:101d3000130020008904d1000884d3000998a3006f
:101d4000050032000800a7000300a0008904d100ac
:101d50000884d3008b05e8008904d1000884d300ef
:101d60000001eb000281d2006c00070001f0a1002d
:101d70000cf0a70001f0a000b40037006420e100df
:101d8000b60032000801be000200be00f7ff3700b7
:101d90006120e100b10032006000b800f3ff3700bd
:101da0000000200001f82700f0ff3700839f680043
:101db0000100e00002003d0060001000e08018001b
:101dc0000300e00002003d0060011100e081190005
:101dd000e80007004f00e00002003b006000100038
:101de000e080180000000600140020001b013700ee
:101df000f4ff2f00190137000001be006d0007003d
:101e00000470a70003f0a1006509b10016003200bc
:101e10000d0035006828e10006003500f0ff2f00b6
:101e2000f1ff27000300e00013003b000100280041
:101e30000000050000004000818048008502e900a4
:101e4000fcff3a0008003700f88f420002003c0017
:101e50008000eb00000005008100d1000080d3006d
:101e60008502e800fcff3a000300e00002003b00ae
:101e700060001000e0801800000006000001be00b5
:101e80004c0007000470a70003f0a10003f8a300b2
:101e900013003a006509b100100032000900350056
:101ea0006928e1000200350001002800000005005b
:101eb00000004000818048008502e900fcff3a00f4
:101ec00000000600f88f4200050035008100d100b7
:101ed0000080d3008502e800fcff3a000000060005
:101ee0008000eb00000005004f89de0082017800d1
:101ef000f50037006011b800030137000001eb0066
:101f0000af000700040032000200200003f82300a5
:101f100001f0a70005ff0700000006008100200077
:101f2000618055000b003d000b00200061fe2f007a
:101f30000100e1001d003400828171006101640034
:101f40008904d1000884d3000000e800faff3a00b9
:101f50007100200061006400030070000200600056
:101f60000900320061044400e0844c000988a500a7
:101f7000050032008b05e8006808e10002003a0025
:101f80008904d1000884d300f20f20000258e10038
:101f900005003d00c75ddd00f907b20089807500ce
:101fa00008007800000006000bf827008b0078007e
:101fb00000000500c70ade00f107b200f50fb2000d
:101fc00008003200e1cf4200020032000170a000a0
:101fd00024000500810f7000010032000408050094
:101fe00044000500810f700002003a001400050053
:101ff0008502e9000000400081c04800fcff3b0072
:102000000170a000240005000004be00e9ff0700e5
:102010000003be000405be000200be00e5ff07008d
:10202000844f7500000006000200be006450e1000d
:10203000050036006420e100020036000968a300b4
:1020400001003a000800be000160a0004f067800c1
:102050004f05be004f04be0000000600f0ff2f0039
:10206000f1ff2700f9ff3700811f78000100e00031
:1020700002003d0060001000e08018000300e00056
:1020800002003d0060011100e081190049000700d5
:102090004f00e00002003b0060001000e0801800ec
:1020a00000000600889fbe008a9fbe008c1f78003b
:1020b000d5ff0700dcff330003866c006450e100ad
:1020c000240032006420e100270032006150e1006a
:1020d000220032006120e100210032008b854200a5
:1020e000eb07b1000134b800003ab8000804420020
:1020f00089844a00013ab8000030b8008880400066
:1021000009014a00040033000000400081804800bb
:10211000020149008b05e900c909dd008301700057
:102120000100320013002000c814de004814dd0056
:102130004709de001200b200c808de000884700003
:1021400076ff070001f0a1000cf0a70001f0a0004d
:10215000beff37006120e100c0ff32000801be0071
:102160000200be00f7ff37006150e100fcff3a00bb
:10217000baff37006022b800060220000000d0003d
:102180008180d2000482d2008582d2000000a000ab
:102190000202520083825a00030031000202420010
:1021a00083824a000000a1000603e900f3ff3a0021
:1021b00000000600efff07000400be00000006005c
:1021c000889fbe008a9fbe000003be0079ff070003
:1021d0008505780082815200020020006220e10023
:1021e00004003a00f307b100040035007718e1005d
:1021f000040035000600be00140037006000b8007f
:102200000f003700f50f2000faff2f008502d100e4
:102210000a85d3008301e900fcff3b008184620052
:1022200000046500890f7400f2ff32008582ea0025
:102230000a85ea00818462000004650037ff070018
:1022400007f0a70001f0a0000081eb000200e00011
:102250004f05be004f04be0000000600889fbe0070
:102260008a9fbe00841f780067ff07004f00780038
:1022700011003300f0ff2f00838f6c0006003b003d
:10228000040565000a00a7000800370009f0a60051
:102290001000200008003700820f5400838f5c007c
:1022a000030039001000200001003e000000200063
:1022b00009f0a7000000ea004f05be004f04be0071
:1022c0000000e00000000600881f7800030478008a
:1022d0000300e00007003d0060001000e0801800ef
:1022e00060011900e081190002003b0001f02d009f
:1022f000030037000400070008f0a70001f0a00069
:102300004f04780000000600889fbe008a9fbe0030
:102310000082700004027100048271002600320005
:102320000004be000200be006011b8006b0920006e
:10233000950220000182cf000a0039000541b1005a
:102340000082cf00070039000541b1000982cf00ab
:10235000040039000541b1000882cf0001003900b6
:102360000541b10005425200120032000a003b0054
:1023700082817100610164008100d1000080d3007e
:102380008984d3000884d3008b05e8000442e80068
:10239000f7ff3a00070037000804440089844c0026
:1023a00000004800818048008b05e9000442e900f4
:1023b000f9ff3a00d9fe07004f05be004f04be00ea
:1023c000000006008001780002003700b159780053
:1023d0000201e900e00f5100fcff3a000000060096
:1023e0008001780002003700815978000201e9007d
:1023f000e00f5100fcff3a00000006000400370027
:10240000e04f5100090032000000e8008100e800c0
:1024100010417800914f5100f9ff32001000200068
:10242000030031000080eb00000006000000eb001c
:102430000000060080007800010037008100e800fd
:102440000041eb00914f1100fcff3a00008050006a
:102450000000060080017800811f7800110009004b
:102460008200d8008001fd00cf00780003087800ca
:102470000299b90002815000120098000000060085
:10248000889fbe008a9fbe008c9fbe008e1f780072
:1024900081067800030478000d95b9000a077800da
:1024a000e00f550043003200e08f5600420032003a
:1024b00000067800c800900068009000808f5000ef
:1024c000040039000800780068000700e00f5000a1
:1024d0002600350000402000980560000a00320008
:1024e0000a017800a10020000c0078004d000700d0
:1024f00080057800e08f550003003200e1041600eb
:1025000089844500010037008a0478004800900063
:10251000e800900080805000898f50000200310058
:10252000810478008005eb00090178008c007800b8
:10253000a4ff07000905550048009000090040006d
:1025400040049800e08f5500040032000800780035
:1025500017030700e00f500004003a00e00f550099
:102560000200320009064600d2ff3700008020003a
:102570001800600002003200080078000c03070019
:1025800000c02000180060000200320048009000e7
:10259000600498000a05570000017800811f780048
:1025a000110009000d85d8000001fd00cf00780062
:1025b000010037000a017800020078004f07780018
:1025c0004f06be004f05be004f04be0000000600cf
:1025d000889fbe008a9fbe008c1f7800000678008e
:1025e0000205be000404be000401be000a00be00d5
:1025f000eefd0700008ebe000801be00f5050700d5
:102600000002550081825d0024069800350698007e
:102610000c0078004f0678004f05be004f04be0046
:10262000000006000400370090cf100005003200c3
:102630000000e8000201e900e00f5100faff3a0053
:10264000020078000000060003003700e04f510050
:10265000050032000000e80010417800814f510071
:10266000faff3a000000060000000500889fbe0047
:102670008a1f780000047800c8009000680190006c
:102680000000eb00828f50003c00390018007800f9
:102690002200290002016000e20f51000700320011
:1026a00001202400e00f500001003d000120200027
:1026b000008c70000080eb00300037000200260024
:1026c00002006000820f500009003a0038009000bc
:1026d000808f50000600390008007800b40207001f
:1026e000800078000080eb00e08f500023003a006b
:1026f0001805780000c020000000650018003a00ae
:10270000a80490006002200008004000808f540060
:1027100013003a0000202000a303070020049800c3
:10272000e00f500005003a00290498004904980081
:102730008904e80039049800080037000a60a00006
:102740000a0c78004004980001202000808040009e
:1027500031049800400c9800500c98003a02070091
:102760002800900050049800380090006004980001
:1027700000002600180c70000000eb004f057800e8
:102780004f04be0000000600889fbe008004780051
:10279000668440001800d0004500de00f27f200073
:1027a000820f500010003a00800ceb0018047800f3
:1027b0006f016400200020001b003a0021019000fe
:1027c000e00f510018003a0011019000e00f510095
:1027d00015003a0010002000910f11001200320085
:1027e0002000200010003700e00f500004003a00e5
:1027f00001007800bb020700e00f500008003c0019
:10280000f20028001801610001fe2300010c710094
:1028100021c02f00810c40000080eb000200370037
:10282000800ceb000000eb004f04be00000006002f
:102830004f02b000889fbe008a9fbe008c9fbe00e2
:102840008e1f78000006780080c5b30080cf50004e
:102850000a0032007740400080cf50000a0032006a
:102860006940400080cf50000b00320090d8220019
:1028700080bf9f00ae0020000a00370082d72200f0
:1028800082bf9f000600370093d8220083bf9f00bd
:102890008e0020000300370094d8220084bf9f00e0
:1028a0000e0120003c02be002c03be000605be0047
:1028b0000404be0040c6b30080cf500003003200c5
:1028c0006540400080cf50000b003a00e00f5200fe
:1028d000e08f5a00e00f5b00e08f5b0006003d00d8
:1028e0006044b8006055b8000404540085845c005e
:1028f00006055d0087855d00e80f57000300320084
:10290000f00f57003a003a00020037003000200074
:102910000100370040002000e00f5400e08f5c0011
:10292000e00f5d00e08f5d0004003a00dc089000dd
:102930008d012000e08f5000060032008e00e9007b
:10294000888060008fba9700e5c07800f1e79f00ab
:102950007d012000800078008100e900050033003f
:102960008b05d1000a85d3008984d3000884d30065
:10297000f9ff3700089ebe000a96be008e00e900ef
:10298000110037008d06e900048160008fb99700bf
:102990006344790003fd2f008f81410088f17e00a0
:1029a000000178000201e900050033008783d100af
:1029b0000683d3008582d3000482d300f9ff370059
:1029c000049ebe000696be003c02be002c03be0064
:1029d000e00f5200e08f5a00e00f5b00e08f5b00d9
:1029e000a1003400e08f5600e6ff3c009e00370057
:1029f000ac60900080c6b30080cf50000b00320066
:102a000006003c00e0cf5000080032006640500055
:102a100080cf500058003a0004003700c0c6b30011
:102a200080cf500054003a002a003700e00f5400d5
:102a300004003a005c0890008d012000e00f500077
:102a400007003200110009000e84d8008000fd004c
:102a50008fb9970063407800f0e79f007d01200068
:102a600000027800811f7800110009000e84d80050
:102a70000002fd00cf0078000c00370011000900b3
:102a80000e02d800000178008d06e9000e90b90012
:102a9000000052000fba9700e442780004fd2f00b6
:102aa0000f02420005f27e0002027800e00f5200a1
:102ab00002003200e08f5600f0ff3c00cfa2de00a3
:102ac0000503780086037800049ebe000696be00cb
:102ad00065003700e00f5400e08f5c0004003a000e
:102ae0005c0890008d012000e00f500007003200cc
:102af0006171b9000800be00aefd07000fb9970074
:102b000062417800f2e79f007d0120006175b90005
:102b10000a01be000800be0096fd07000b0037004a
:102b20000a01be000800be00a0fc07008d06e900f7
:102b300000f1b900020154008fb997006342790097
:102b400003fd2f008f81410084f17e000004be0050
:102b5000e00f5000e08f580002003200e08f560076
:102b6000efff3c00088ebe004fc8de002006980034
:102b7000300698003c003700e00f5400e08f5c0006
:102b8000e00f5d00e08f5d0004003a005c089000fb
:102b90008d012000e00f50000b0032000e02780083
:102ba000cfa2de0005037800860378000800be008f
:102bb0000a01be00220507008fba9700e54278009f
:102bc000f5e79f007d0120000e007800cf80de0039
:102bd0000101780082017800c0b79f00d1b79f0043
:102be000e2b79f00f3b79f000203be000002be00e1
:102bf0000800be000a01be000a0507000f003700ea
:102c00004fb29700dfb297006fb39700ffb3970002
:102c10000800be000a01be000d0507008d06e90090
:102c200000f2b900040454000fba9700e4427c009b
:102c300004fd2f000f02420005f27e00009ebe0040
:102c40000296be003c04be002c05be00e00f5400fe
:102c5000e08f5c00e00f5d00e08f5d00020034005b
:102c6000e08f5600e6ff3c00e80f570010003a00e6
:102c70000c109000680060000d003200f78f5600c5
:102c800006003e0008fd2f000f044400e8c07e004f
:102c900000c3b30080cf5000050032008d06e9006c
:102ca00002c3b30001fd2f008f80400082f07e0040
:102cb00078811600120e98006c00900003fd2f0022
:102cc0008f8141008d804100befd07001c089000ef
:102cd000dc089000810f500006003d00008050008d
:102ce000000e98000c1090000040a1000016980003
:102cf0000f003700e08f50000d003d008c10900059
:102d0000f4806000f08f500009003a007c099000c8
:102d1000fc009000810051000c099000828050005e
:102d2000008050004240a90001003400000e9800cd
:102d30004f0778004f06be004f05be004f04be008f
:102d40004f02b100000006000400fa00889fbe0098
:102d50008a9fbe008c1f780000047800010678006e
:102d6000f80d9000780090008085550008089000cc
:102d7000808555001808900080855500a80c9000ab
:102d800089855500b80c900089855500c80c9000c5
:102d9000898555000002220090bf9f000003230098
:102da000a0bf9f00081090006400600015003a006a
:102db000e08f5500130034000b0578008a0478007a
:102dc000e20f55000100360029002000c8019000e4
:102dd00009017800ee8057005800900003000100c0
:102de00050049800e00f50008c00320068089000fa
:102df00009004000600c9800090555004240a900f8
:102e0000eeff3c0078019000e00f51000c00340010
:102e1000c80190008c007800580090000300010069
:102e2000500498008080eb00e00f50007c003200de
:102e3000e80890007800900000804000600c980046
:102e4000880c9000e08f54001100340009057800d0
:102e5000e28f5400010036002a002000c8019000d3
:102e60000a017800ec805700580090000300010030
:102e700050049800e00f500068003200680890008d
:102e80000a004000600c98008a845400edff37006f
:102e900018099000e00f51000c003400c8019000a8
:102ea000e8009000580090000300010050049800d2
:102eb0008080eb00e00f500059003200e8089000dd
:102ec0001808900000804000600c9800a80c90004a
:102ed000e08f54001100340009057800e28f54009f
:102ee000010036002a002000c80190000a01780085
:102ef000ec80570058009000030001005004980037
:102f0000e00f500045003200680890000a004000c1
:102f1000600c98008a845400edff37003809900057
:102f2000e00f51000e003400e800900018089000f7
:102f300080804000c801900058009000030001000c
:102f4000500498008080eb00e00f50003400320005
:102f5000e80890003808900000804000600c98005d
:102f6000c80c9000e08f540011003400090578006f
:102f7000e28f5400010036002a002000c8019000b2
:102f80000a017800ec80570058009000030001000f
:102f900050049800e00f50002000320068089000b4
:102fa0000a004000600c98008a845400edff37004e
:102fb00088109000e4806000190032008000eb006f
:102fc000818f5500160034008b04780009057800c5
:102fd000e28f5400010036002a002000c801900052
:102fe0000a017800ee8057005800900003000100ad
:102ff00050049800e00f500008003200680890006c
:103000000a004000600c98008a8454004240a900e5
:10301000eeff3c008000eb00010037008080eb00f9
:10302000010078004f0678004f05be004f04be0037
:103030000080fa0000000600010878000000060089
:10304000008c210099003700881f7800c8db22001f
:103050000040eb00984f100003003a00f8ff070013
:1030600020c0b300004c78004f0478000000060038
:10307000889fbe0000047800080078004c0007001c
:103080008004780000042000180060000200320074
:1030900028009000e00007000000eb0020049800ea
:1030a00038409000e04f5000050035000000fb0064
:1030b00095010700e00f5000010032008084eb0012
:1030c00018109000e00f500008003200ca010700fd
:1030d000e00f5000010032008084eb0018109000d7
:1030e000cd0007000000eb0010149800000820003d
:1030f00018006000110032006011b80004d12200f5
:10310000020041008380490000004200900f14003b
:1031100002003a000008eb000500370061014100a1
:10312000e0814900e70f5100e08f5900f4ff3600bd
:1031300008007800b80007000e003700000c780087
:1031400000c0eb00304498006102200088804000fd
:10315000210498004104980051049800410c980003
:1031600061049800510c98007104980076004400a6
:10317000000c9800090078004f04be000000060013
:10318000889fbe007800200009d122000800d000ee
:1031900069007800e00f500001003200b4ff070022
:1031a0000804e900f9ff3b004f04be0000000600e0
:1031b000889fbe008a1f780000047800e00f54004a
:1031c0000e003a00880478000ad122000900d000dd
:1031d0006a007800e00f500004003200f4ff07009e
:1031e000e00f500001003d000084eb008904e8007e
:1031f000e78f5400f5ff340028003700000022005c
:103200001800600024003200a80490000f0037006e
:1032100009015100384090000000fb00890078004f
:1032200044010700e00f500007003c002800900018
:103230004004980060049800500c98001890a0007a
:103240000084eb00150037008084440048019000a2
:10325000828f5400eeff390028009000400498004f
:103260009800780002c020000281600001003a004e
:1032700038009000020024008280600003003200c9
:10328000600498000004eb0004003700500c980024
:10329000010478000100370000047800080078007d
:1032a0004f0578004f04be0000000600010020001a
:1032b000e08f50000a00320002008000e00f510051
:1032c000070032000201e90002008800030020002c
:1032d00002014100838149000100800080307900b3
:1032e00000000600e600400091017800060028007a
:1032f00006836100ef8161008308780012002000de
:103300000f003a00a0019000e08f51000c003a003d
:1033100090019000e08f510009003a00908f110059
:1033200007003a003900370094087800130a780043
:1033300090097800050878007001510002003700fc
:10334000640240008081e80091027800e08f520022
:10335000f5ff32001200370094037800cf3bde0007
:10336000858242008588730093037800cf3bde009e
:103370009402780085824200058a730093037800e6
:103380008783430090027800cf2ade00858973008e
:1033900090027800058842000201e900020037002f
:1033a000640240008081e80091027800ef8f5200b3
:1033b000e9ff36000f00370094037800cf3bdd00b3
:1033c0009002d1000588730093037800cf3bdd00a5
:1033d0009402d100058a730091037800cf3bdd0091
:1033e0009302d100858973009108d1000201e800a1
:1033f000020037000082e800e401400091027800fa
:10340000ff8f5200ecff3e00ef88620091087300ce
:103410000200780000000600e00f50002f0032008c
:10342000c0017800e38f51002c003600e18061007c
:103430002a003a00b16d8100e08f50000200320096
:10344000810f50000400310011009800b06d890018
:10345000160037008200780011019000e00f510043
:1034600002003200800f5100faff3900110278008b
:1034700084824000850f500018003900808f520070
:1034800003003a008308420001007800070037007b
:10349000e00f51000300320083014000830f510010
:1034a0000e003900120098009000980090009000e3
:1034b000e08f50000900320010014000828f500060
:1034c00006003a0042db22000009eb001001780000
:1034d00011084100910090001100980000000600c2
:1034e000889fbe0000047800a16d8100e08f50002d
:1034f00002003200010078000d003700b16d81003c
:1035000060db220004003700910f540024003600d5
:103510000180e80091009000e08f5000faff3a002f
:1035200010003700920f54001d0036000280e800a2
:1035300010017800e00f5100faff3a001101780005
:10354000b16d810060db220004003700910f540050
:10355000130036000180e80091009000828f500037
:10356000faff3a00c96d8100888f540001003100d4
:10357000880478000900780035000700e00f50004b
:1035800004003a00888f5400050032008904d100fd
:10359000f5ff3700091878009fff0700d2ff3700ba
:1035a0004f04be0000000600881f780080007800ed
:1035b000638440000800a1000000eb00810f54006c
:1035c00021003600e30f540001003e0048002000b7
:1035d00008007800c2ff0700e00f50001a00320018
:1035e000900078009101780064815100880f5100ab
:1035f0000300310011019000020878000700370035
:1036000008814000020878009101900013019800a1
:103610001001780011091400880878001000780063
:10362000e00f50000600320010019000e00f510042
:10363000020032000080e80001003700020078003c
:10364000a06d89000180e8004f04780000000600aa
:10365000800078000000eb00808f500005003400ef
:103660000100780004000700e10f400001003a006b
:103670000000eb0000000600889fbe008004780078
:10368000f06d8100e00f500004003a000e000700ca
:103690000084eb00e00f500008003500f86d810059
:1036a000e08f5400050032000900440006000700c6
:1036b000e00f500001003d000084eb00080078009e
:1036c0004f04be0000000600e00f500004003a0066
:1036d00001002000f16d89008000780006003700ad
:1036e0008080eb0002002000820f500002003e00ac
:1036f000f06d89008000eb000100780000000600fa
:1037000000c0da00000006000a00fa0011002000e4
:10371000b1bf9f00c0bf9f006a805700f8ff07003d
:103720004fb897000080fa000000060000c0da00e1
:10373000000006000a00fa00e20f500021003e00df
:10374000006e8100e10f500006003200852320004a
:10375000442320002323200000232000e08f520078
:1037600004003a0085222000442220002322200069
:1037700000222000060028009003630002003a00a7
:10378000870a7800100873000040200013006000d2
:1037900001003a0013a0a0000200780006003700e4
:1037a000930278000510b200fdff3200b102fb0069
:1037b000050a78000000e900e00f5000f8ff3a0029
:1037c0000800370033002000b3bf9f00c0bf9f0038
:1037d000d1bf9f00e2bf9f006a805700d3ff070060
:1037e0006fb99700020078000080fa000000060020
:1037f00000c0da00000006000a00fa0051002000b4
:10380000b1bf9f00c0bf9f006a805700f8ff07004c
:103810005fb897000080fa00000006008f1fd100fb
:10382000e90207008f87e9000000e00000000600c1
:10383000809feb00e40207008f87e9000000e000b2
:10384000000006002800fa00889fbe008a9fbe0084
:103850008c9fbe0003866b00800007006400e100bf
:10386000440032006408e1004a0032006100e100d7
:10387000460032006108e10049003200ec064700d2
:103880006000b8003d02be003d03be00f486570054
:103890006011b8003d04be003d05be007d03200060
:1038a0000b0037000000a0008d06e9001300320075
:1038b0000402420085824a0006034b0087834b00c6
:1038c00000004000818048000201490083814900d6
:1038d0000802520089825a000a035b008b835b0056
:1038e000f0ff3b000802420089824a000a034b00b5
:1038f0008b834b008d06e900edff3a008482720055
:1039000086827200f707b2008782720001003200df
:10391000150020001e0490003e0b9000060354008a
:10392000e63fb0000368a300070032000000a700d4
:103930000500a0008301d1000281d3008180d30063
:103940000080d3000603e8008301d1000281d30088
:103950008180d3000080d3000002eb000482d200fb
:103960001200070003f0a1000cf0a70003f0a00074
:103970004e003700640247006408e100480032004e
:103980003400be003401be00f6ff37006108e100dc
:10399000430032006011b8006000b800f1ff37004a
:1039a00003ff270002002000fbff37001800200063
:1039b00057002000080453000d003d0006002000c1
:1039c00097fc2f000740e1001e0034008482720043
:1039d000610260008301d1000281d3008180d300a5
:1039e0000080d3000804e800f8ff3a0047002000f8
:1039f0006104600005047400040464000d003200da
:103a000061004000e080480060014900e081490019
:103a100003b8a500070032000603e8006538e1009e
:103a200004003a008301d1000281d3008180d300d9
:103a30000080d300f87f20000830e100030035004b
:103a4000080378006000b8006011b8004433dd005e
:103a5000f300b20083017300000006006804470011
:103a60000294be000094be00fc0447008694be0091
:103a70008494be00090078009c02070008007800ca
:103a80009a02070099007800814f70000b003b00fc
:103a90000800be00750207004f00b10003003700a8
:103aa000f3ff2700f2ff2f006110b9004f06be00a0
:103ab0004f05be004f04be000080fa000000060063
:103ac000810378003bf907000001be006000b800e8
:103ad0000478a30013003a006220e10015003e00c4
:103ae0000d0039008301d1000281d3008180d30011
:103af0008301d1000281d3008180d3008301d100f2
:103b00000281d3008180d3000538b000c42add00d3
:103b1000f300b2008381720007f0a70003f0a00059
:103b200000000600f3ff2700f2ff2f006110b9002c
:103b3000fbff370003ff2700f7ff37001400fa00f0
:103b4000889fbe008a9fbe008c9fbe000004be00fe
:103b50000205be00680047000a90be000890be0043
:103b6000620207000070a7000bf0a10030432000a4
:103b70009e02900080825200b0fe2f000028e100db
:103b800011003d00b0fc2f000028e10015003400ba
:103b90001e0990008e0890007e0090000501b00084
:103ba0000201d1008180d3000080d3008502e800ab
:103bb000fbff3a000b00e000bcff3b006000100080
:103bc000e0801800b9ff3700f0ff2f00f1ff270059
:103bd0000b00e000b5ff3b000100280000002000c2
:103be000b2ff37006000b800b0ff37004f89de0039
:103bf00082017800640237002800fa00889fbe0026
:103c00008a9fbe008c9fbe0003866b0093ff070057
:103c10000028a30064003a000128a30067003a00ce
:103c20000008a30062003a000108a30065003a0002
:103c30001e009000be08900081064000ed3fb100dc
:103c4000f4805700ee019000111ab8008e09900020
:103c5000311bb8009e099000311cb800511db800fe
:103c6000f485570046000700fe0190003a00070067
:103c70008b85e8003e0007008e0990004000070099
:103c8000ee019000340007008b85e8003800070043
:103c90008e099000400007009e0990001b18b80094
:103ca000890440000a854800fe01900034000700a6
:103cb0008b85e80038000700ee0190003000070017
:103cc0008e0990001b18b800890440000a8548003e
:103cd0000a98a30008003a000402420085824a00c4
:103ce00006034b0087834b0008044c0089844c007a
:103cf0000a054d008d06e90084827200850273007a
:103d00004c3add00850272000100320015002000ef
:103d1000443ade001400b2004538de00cb45dd0039
:103d20000b007000c540de00cb4ddd008b807000c5
:103d30004549de00cb55dd000b017100c551de00a9
:103d40000d03780019ff070003f0a1000cf0a70095
:103d500003f0a00055ff37001b18b8008502400093
:103d600006834800e0834b0060044c0007003700e6
:103d70001b18b8000603400087834800faff37008d
:103d80001b18b8008703400008844800e0844c00fa
:103d900060054d00000006001b18b8000804400034
:103da00089844800faff37000108a3003cff3a006d
:103db0005800be005801be00e3ff37000008a30012
:103dc00037ff3a0009047800f9ff370007f0a20036
:103dd00000013700020ab900001bb9000200b80058
:103de000810042008100430000000600889fbe0061
:103df0008a9fbe003004be002005be0004044400bb
:103e000085844c0006054d0087854d000898be004e
:103e10000a90be000440e10005c8e10006d0e100c0
:103e200007d8e10002003100680040001008e800f7
:103e30004f05be004f04be0000000600889fbe0074
:103e40008a9fbe008c1f7800000678003c04be00ec
:103e50002c05be000400540085805c0006015d0056
:103e600087815d00009ebe00029ebe001000200003
:103e70000440e10005c8e10006d0e10007d8e100f8
:103e8000010039000000eb001c0e10004f06780006
:103e90004f05be004f04be00000006001200fa00ed
:103ea000889fbe008a9fbe008c9fbe000205be0098
:103eb0000004be00e4b79f00f5b79f0086bf9f00d7
:103ec00097bf9f000000eb00d0b79f00c0b79f00d6
:103ed000b0b79f00a0b79f0090b79f000006780082
:103ee000fd032000dfb197004fb097000381410030
:103ef000bfb09700e08f510004003d00290007008b
:103f00007e805700b9ff0700030037002500070037
:103f10007e805700c9ff0700dfb09700e08f500098
:103f20000700350014002000050020006033b800b1
:103f300008047200898472000a0573008b8573007f
:103f40000c06e8008d0f5600e6ff3400e08f5000ad
:103f500006003d006fb29700ffb297000fbb9700bd
:103f60009fbb97007e805700a0ff07005fa89700c7
:103f7000e00f500004003a001fb49700afb4970060
:103f80003fb59700cfb597000800be000a01be00fc
:103f90004f06be004f05be004f04be000080fa0071
:103fa00000000600cf01de0002817100b2b79f0061
:103fb0004f09de000000400000007100a0b79f0024
:103fc0000fb097004f01de0081804000810071003a
:103fd00091b79f007faa9700cf20de00000040002d
:103fe0000080700080b79f000800be000a01be007c
:103ff0004f18de000402420000027200f4af9f007e
:104000000804440089844c000a054d008b854d004e
:104010004fb29700dfb297006fb39700ffb39700de
:1040200000000600881f780018002000881f780014
:104030009aff07008f87e9004f0478000000060010
:10404000801feb0095ff07008f87e9000000060046
:10405000889fbe008a9fbe008c1f7800e00f500032
:10406000e08f5800e00f5900e08f59000f003d002d
:104070006044b8006055b8000000540081805c00c6
:1040800002015d0083815d001c0020000820e1002a
:1040900009a8e1000ab0e1000bb8e1000d003d0005
:1040a000190007000006eb000a0037000006eb00cd
:1040b000e00f5200e08f5a00e00f5b00e08f5b00e2
:1040c00004003d006044b8006055b8000e000700d1
:1040d0001c002000d3ff0700e00f5600060032004e
:1040e0006022b8006033b8000000520081805a009e
:1040f00002015b0083815b004f0678004f05be0024
:104100004f04be00000006000402540085825c00db
:1041100006035d0087835d0000000600889fbe00e7
:104120008a9fbe008c1f7800e00f5000e08f58007f
:10413000e00f5900e08f59000d003d006044b800c9
:104140006055b8000000540081805c0002015d00f1
:1041500083815d001c0020000820e10009a8e10027
:104160000ab0e1000bb8e1000d003d000800370087
:104170000006eb00e00f5200e08f5a00e00f5b00fa
:10418000e08f5b0006003d006044b8006055b80059
:104190000402540085825c0006035d0087835d0095
:1041a000a7ff0700e00f5600060032006022b800ab
:1041b0006033b8000000520081805a0002015b00a9
:1041c00083815b004f0678004f05be004f04be00a0
:1041d000000006002800fa00889fbe008a9fbe00eb
:1041e0008c9fbe0007067800878669000c003b00a4
:1041f000030478008704780008f0a10009f0a1000a
:10420000840f5000858f5800860f5900890f5c007d
:10421000030033000cf0a20001003a000cf0a100f2
:104220000efe07006400e1005f00320078014700e5
:104230006408e100610032006c014700748557009a
:104240003200be001201be003a04be001a05be00d4
:104250001e039000be0a90008503530006003d0037
:104260000004fd008104fd000205fd008305fd0042
:104270008703ea00050378000df8a300040032006c
:1042800060041400e0841c0060051d00e0851d0032
:104290006022b8007d0320000d38e1008006eb00ad
:1042a0000b0039004433dd00f300b20083017300da
:1042b00039003700848272000d027800e106640044
:1042c0008b85d1000a85d3008984d3000884d3006c
:1042d0008703e900f7ff3b000800400089804800a1
:1042e0000a0149008b81490004003b006000100076
:1042f000e080180060011900e08119000358a30054
:10430000090032008d8272008482720061026000b6
:104310008301d1000281d3008180d3000080d300cb
:104320000603e8001b0037000348a30017003a000b
:104330000600e000170034000603e9000d00a300aa
:104340000000480081804800020149008381490043
:104350000348a3000f003a000600e0000900340003
:104360000603e90000004000818048000201490086
:104370008381490001003a000003eb000348a300d9
:10438000f5ff32006022b80002003700848272001c
:104390006182660085fd070003f0a1000cf0a70014
:1043a00003f0a000c1fd3700640147006408e1008c
:1043b00002003a000df8a300b9fd3a003200be0039
:1043c0001201be00b9fd3700889fbe008a9fbe0063
:1043d0008c9fbe000404be000605be00809fbe0088
:1043e000829fbe002f000700040678000800be0070
:1043f0000a01be002b000700840678004f03be00b0
:104400004f02be008d4f76007fb09700130033003f
:10441000f0ff2f008b8f6b0006003b000d0666003f
:104420000c00a7000a00370007f0a60010002000cb
:104430000a003700880f5200898f5a008a0f5b00ec
:104440008b8f5b00030039001000200001003e004c
:104450000000200007f0a7000000ea004f06be00a1
:104460004f05be004f04be0000000600e48240007d
:104470001078a30007003200640240001178a30006
:104480003400be001401be00040032000330a70057
:10449000000006003500be001501be000330a0007c
:1044a0000000060005ff27000582610007003200ba
:1044b0000428e10001003200240005000600070086
:1044c00001003a004400050004080500020007004e
:1044d000f9ff3a00140005006f826100810270004c
:1044e00085027100850272000000060080007800dd
:1044f0005002be005003be004439de00f700b20097
:10450000f37f200003016100090032000218e1007e
:1045100016003a00850172008301730083817300e5
:104520000008200015003a0040002000130037006a
:1045300085017200830173008381730005003a00d6
:1045400004a8be0006a8be00100020000b00370023
:104550000201e9000402420085824a0006034b0082
:1045600087834b000748a300f9ff32000740a000f3
:1045700004a8be0006a8be0020002000800098000d
:104580009200980000000600881f7800030478005d
:104590000300e00007003d0060001000e08018000c
:1045a00060011900e081190002003b0001f02d00bc
:1045b000030037000400070008f0a70003f0a00084
:1045c0004f04780000000600889fbe000082700043
:1045d000040271000482710024003200364320007e
:1045e000c50020008383cf000a0039000541b100d7
:1045f0008283cf00070039000541b1008183cf00dd
:10460000040039000541b1008083cf00010039006a
:104610000541b10085c353006022b800120032008a
:104620000a003b0084827200610260008301d100b5
:104630000281d3008180d3000080d3000603e8000c
:104640008743e800f7ff3a0007003700000040000a
:104650008180480002014900838149000603e90086
:104660008743e900f9ff3a00d0fc07004f04be0081
:044670000000060040
:020000040000fa
:10467400604000009840000006000000103f000069
:10468400703f000009000000ae3f00000c40000035
:10469400090000008e3e0000d23e00000900000028
:1046a400d840000044410000060000009c41000086
:1046b400e841000006000000ca4200001243000066
:1046c400090000002a4200007242000009000000b4
:1046d4002e4400009a440000060000006a430000d3
:1046e400d64300000600000050490000444d00007d
:1046f4005f52000052410000544500004b5000003e
:1047040000000000000000000000000000000000a5
:1047140000000000003f0000010000000000000055
:10472400f01100000200000050490000445f000046
:10473400524f00004c4c00004b50000000000000a1
:104744000000000000000000000000000000000065
:1047540000000000003f0000010000000000000015
:10476400801500000200000050490000445f000072
:10477400524f00004c4c00004b440000000000006d
:104784000000000000000000000000000000000025
:1047940000000000003f00000300000000000000d3
:1047a400821500000200000050490000445f000030
:1047b40059410000574b000050410000494c000093
:1047c40000000000000000000000000000000000e5
:1047d40000000000003f0000010000000000000095
:1047e4004e1500000200000050490000445f000024
:1047f40059410000574b000044410000494c00005f
:1048040000000000000000000000000000000000a4
:1048140000000000003f0000030000000000000052
:104824007e1500000200000050490000445f0000b3
:10483400504900005443000048470000414900002b
:104844004e00000000000000000000000000000016
:1048540000000000003f0000010000000000000014
:104864005c1500000200000050490000445f000095
:104874005049000054430000484b0000440000002d
:104884000000000000000000000000000000000024
:1048940000000000003f00000100000000000000d4
:1048a4005e1500000200000050490000445f000053
:1048b40052550000444500004c4500005647000096
:1048c400414900004e00000000000000000000000c
:1048d40000000000003f0000010000000000000094
:1048e400641500000200000050490000445f00000d
:1048f400524f00004c4c00004b5000005255000039
:10490400440000000000000000000000000000005f
:1049140000000000003f0000010000000000000053
:104924008a1500000200000050490000445f0000a6
:1049340059410000574b00005052000055440000fc
:104944000000000000000000000000000000000063
:1049540000000000003f0000010000000000000013
:10496400501500000200000050490000445f0000a0
:1049740059410000574b00004452000055440000c8
:104984000000000000000000000000000000000023
:1049940000000000003f00000100000000000000d3
:1049a400501500000200000050490000445f000060
:1049b400524f00004c4c00004b5000005255000078
:1049c400440000000000000000000000000000009f
:1049d40000000000003f0000010000000000000093
:1049e4008a1500000200000050490000445f0000e6
:1049f400524f00004c4c00004b4400005255000044
:104a0400440000000000000000000000000000005e
:104a140000000000003f0000010000000000000052
:104a24008c150000020000004d410000475f0000ab
:104a3400434100004c5f0000524100005730000029
:104a4400000000000000000001800000ffff0000e3
:104a5400ff7f0000000000000000000000000000d4
:104a6400fc140000020000004d410000475f0000fc
:104a7400434100004c5f00005241000057310000e8
:104a8400000000000000000001800000ffff0000a3
:104a9400ff7f000000000000000000000000000094
:104aa400fe140000020000004d410000475f0000ba
:104ab400434100004c5f00005241000057320000a7
:104ac400000000000000000001800000ffff000063
:104ad400ff7f000000000000000000000000000054
:104ae40000150000020000004d410000475f000077
:104af40047410000494e0000300000000000000063
:104b0400000000000000000001800000ffff000022
:104b1400ff7f000000000000000000000000000013
:104b240002150000020000004d410000475f000034
:104b340047410000494e0000310000000000000021
:104b4400000000000000000001800000ffff0000e2
:104b5400ff7f0000000000000000000000000000d3
:104b640004150000020000004d410000475f0000f2
:104b740047410000494e00003200000000000000e0
:104b8400000000000000000001800000ffff0000a2
:104b9400ff7f000000000000000000000000000093
:104ba40006150000020000004d410000475f0000b0
:104bb4004f460000465300004554000030000000fa
:104bc400000000000000000001800000ffff000062
:104bd400ff7f000000000000000000000000000053
:104be40008150000020000004d410000475f00006e
:104bf4004f460000465300004554000031000000b9
:104c0400000000000000000001800000ffff000021
:104c1400ff7f000000000000000000000000000012
:104c24000a150000020000004d410000475f00002b
:104c34004f46000046530000455400003200000077
:104c4400000000000000000001800000ffff0000e1
:104c5400ff7f0000000000000000000000000000d2
:104c64000c150000020000004d410000475f0000e9
:104c740044450000434c0000494e000041540000ec
:104c8400494f00004e0000004cff0000ffff0000f1
:104c9400b400000000000000040000000000000058
:104ca400de130000020000005057000054520000c0
:104cb400494d00005f410000494c0000455200008e
:104cc4004f4e0000000000000000000048440000b7
:104cd4000080000009450000020000000000000000
:104ce4009e140000020000005057000054520000bf
:104cf400494d00005f4500004c450000564100004e
:104d0400544f00005200000000000000484400001e
:104d140000800000094500000200000000000000bf
:104d2400a01400000200000050570000545200007c
:104d3400494d00005f520000554400004445000006
:104d44005200000000000000000000004844000081
:104d5400008000000945000002000000000000007f
:104d6400a414000002000000505700005452000038
:104d7400494d00005f410000494c000045520000cd
:104d84004f4e0000320000000000000048440000c4
:104d9400008000000945000002000000000000003f
:104da4009c14000002000000505700005452000000
:104db400494d00005f5200004f4c00004c000000c1
:104dc4000000000000000000000000004844000053
:104dd40000800000094500000200000000000000ff
:104de4009e140000020000005057000054520000be
:104df400494d00005f500000495400004348000042
:104e04000000000000000000000000004844000012
:104e140000800000094500000200000000000000be
:104e2400a01400000200000050570000545200007b
:104e3400494d00005f540000485200004f540000e8
:104e4400544c0000450000000000000048440000ed
:104e5400008000000945000002000000000000007e
:104e6400a214000002000000505700005452000039
:104e7400494d00005f590000415700000000000048
:104e84000000000000000000000000004844000092
:104e9400008000000945000002000000000000003e
:104ea400a4140000020000005057000054520000f7
:104eb400494d00005f4600004c41000050000000d6
:104ec4000000000000000000000000004844000052
:104ed40000800000094500000200000000000000fe
:104ee4009c140000020000005057000054520000bf
:104ef400494d00005f410000495200004252000049
:104f0400414b000045000000000000004844000040
:104f140000800000094500000200000000000000bd
:104f24009c1400000200000050570000545200007e
:104f3400494d00005f530000504f0000494c0000f1
:104f4400455200000000000000000000484400003a
:104f5400008000000945000002000000000000007d
:104f64009c1400000200000050570000545200003e
:104f7400494d00005f430000414d000042450000e0
:104f8400520000000000000000000000484400003f
:104f9400008000000945000002000000000000003d
:104fa4009c140000020000005057000054520000fe
:104fb400494d00005f430000524f000057000000bd
:104fc4000000000000000000000000004844000051
:104fd40000800000094500000200000000000000fd
:104fe4009c140000020000005057000054520000be
:104ff400494d00005f430000414d0000504900004e
:105004005443000048000000000000004844000031
:1050140000800000094500000200000000000000bc
:105024009c1400000200000050570000545200007d
:10503400494d00005f430000414d00005f590000ee
:105044004157000000000000000000004844000038
:10505400008000000945000002000000000000007c
:105064009c14000002000000494d0000555f000040
:105074005841000043430000454c00005f4f0000ce
:10508400464600000000000001800000ffff000011
:10509400ff7f00000000000000000000000000008e
:1050a4006412000002000000494d0000555f00003a
:1050b4005941000043430000454c00005f4f00008d
:1050c400464600000000000001800000ffff0000d1
:1050d400ff7f00000000000000000000000000004e
:1050e4006e12000002000000494d0000555f0000f0
:1050f4005a41000043430000454c00005f4f00004c
:10510400464600000000000001800000ffff000090
:10511400ff7f00000000000000000000000000000d
:105124007812000002000000494d0000555f0000a5
:1051340058470000595200004f5f00004f460000de
:10514400460000000000000001800000ffff000096
:10515400ff7f0000000000000000000000000000cd
:105164008212000002000000494d0000555f00005b
:1051740059470000595200004f5f00004f4600009d
:10518400460000000000000001800000ffff000056
:10519400ff7f00000000000000000000000000008d
:1051a4008c12000002000000494d0000555f000011
:1051b4005a470000595200004f5f00004f4600005c
:1051c400460000000000000001800000ffff000016
:1051d400ff7f00000000000000000000000000004d
:1051e4009612000002000000494d0000555f0000c7
:1051f40056520000454600005f4f0000464600003e
:10520400000000000000000001800000ffff00001b
:10521400ff7f00000000000000000000000000000c
:10522400a012000002000000544800005f48000083
:105234005f5400004152000047450000545f0000e5
:105244004d4900004e000000000000000000000076
:105254000100000000000000000000000000000049
:105264007614000002000000544800005f4800006b
:105274005f5400004152000047450000545f0000a5
:105284004d41000058000000000000000000000034
:105294000100000000000000000000000000000009
:1052a4007814000002000000544800005f48000029
:1052b4005f4d000041520000474900004e000000cd
:1052c40000000000000000000100000000000000d9
:1052d400f4010000000000000000000000000000d5
:1052e4007a14000002000000544800005f540000db
:1052f4005f4800004f4c0000445f00004d4900002f
:105304004e0000000000000000000000000000004b
:1053140000000000803f00000100000000000000c9
:105324007c14000002000000544800005f54000098
:105334005f4800004f4c0000445f00004d410000f6
:105344005800000000000000000000000000000001
:1053540000000000803f0000010000000000000089
:105364007e14000002000000544800005f5000005a
:105374005f4800004f4c0000445f00004d490000ae
:105384004e00000000000000a7ff0000ffff000027
:105394000000000000000000000000000000000009
:1053a4008014000002000000544800005f50000018
:1053b4005f4800004f4c0000445f00004d41000076
:1053c4005800000000000000000000000000000081
:1053d4005900000000000000000000000000000070
:1053e4008214000002000000544800005f500000d6
:1053f4005f4800004947000048000000000000002a
:105404000000000000000000000000000000000098
:10541400590000000000000000000000000000002f
:105424008414000002000000544800005f50000093
:105434005f520000544c00005f4400004f570000ce
:105444004e0000000000000000000000000000000a
:1054540059000000000000000000000000000000ef
:105464008614000002000000415300005044000074
:105474005f440000455300004952000045440000c9
:105484000000000000000000000000000000000018
:105494000000000096430000060000000000000029
:1054a4008814000002000000415300005044000032
:1054b4005f4d0000494e00005f470000535000005c
:1054c4004400000000000000000000000000000094
:1054d400004000009c46000007000000000000009f
:1054e4000e1500000200000041530000504400006b
:1054f4005f4d0000494e0000000000000000000065
:105504000000000000000000000000000000000097
:1055140000000000964300000700000000000000a7
:105524001015000002000000415300005044000028
:105534005f4d000041580000000000000000000022
:105544000000000000000000000000000000000057
:105554000000000096430000070000000000000067
:1055640012150000020000004153000050440000e6
:105574005f430000525500004953000045000000fd
:105584000000000000000000000000000000000017
:105594000000000096430000070000000000000027
:1055a40014150000020000004153000050440000a4
:1055b4005f5000005f4d0000494e00005f41000055
:1055c4005350000044000000a6ff0000ffff00004d
:1055d4005a00000000000000090000000000000064
:1055e4001c1500000200000041530000504400005c
:1055f4005f5000005f4d0000415800005f41000013
:105604005350000044000000a6ff0000ffff00000c
:105614005a00000000000000090000000000000023
:105624001e15000002000000415300005044000019
:105634005f5000005f52000041540000455f0000cd
:105644004c4900004d000000010000000000000073
:10565400d00200000000000008000000000000006c
:1056640016150000020000004153000050440000e1
:105674005f5000005f4b0000490000000000000084
:105684000000000000000000000000000000000016
:1056940000000000803f0000010000000000000046
:1056a4001a1500000200000041530000504400009d
:1056b4005f5000005f4b0000495f00004c49000050
:1056c4004d490000540000000000000000000000ec
:1056d4002d00000000000000090000000000000090
:1056e40018150000020000004000000048450000ba
:1056f400415200005442000045410000545f000044
:10570400485a00002c2000002050000049440000aa
:105714005f4800005a2c0000205200004f4c00004b
:105724004c5f00004b5000002c5000004954000016
:10573400434800005f4b0000502c00002054000040
:10574400494c0000545f00004b4900002c2000002d
:1057540041430000524f00005f4b0000502c0000fa
:105764005252000041540000455f00004b500000bd
:105774002c50000052410000544500005f4b0000d3
:10578400502c00002052000041540000455f0000ee
:105794004b4900002c5200005241000054450000c7
:1057a4005f4b0000442c00005052000041540000a4
:1057b400455f00004b4400002c20000020590000ed
:1057c400415700005f4b0000502c000020200000d7
:1057d40059410000575f00004b4900002c20000095
:1057e40041430000434500004c5f00004b0d0000a6
:1057f4000a00000025310000326900002c2000005e
:1058040025370000692c000020250000372e0000f9
:10581400336600002c200000253700002e330000e2
:10582400662c000020250000372e0000336600009f
:105834002c200000253700002e330000662c0000c9
:1058440020250000372e0000336600002c200000c5
:10585400253700002e330000662c000020250000b0
:10586400372e0000336600002c200000253700008e
:105874002e330000662c000020250000372e000087
:10588400336600002c200000253700002e33000072
:10589400662c000020250000372e0000336600002f
:1058a4002c200000253700002e330000660d000078
:1058b4000a00000020740000696300006b200000ef
:1058c400207c000020200000202000002072000026
:1058d400362c000020200000202000007237000039
:1058e4002c200000202000007961000077200000b7
:1058f4007c2000002020000072650000727200000d
:105904002c2000002070000065720000722c000042
:10591400202000007965000072720000207c0000e5
:105924002020000020720000636d0000642c000041
:1059340020200000706300006d6400002c20000033
:1059440020790000636d0000642000007c200000ca
:105954006f6d00006567000061200000722c00007c
:10596400207000002c200000792c00002020000072
:1059740063700000750d00000a0000000d0a0000ad
:1059840000740000656c0000656d00006574000023
:10599400727900002074000079700000653a0000fc
:1059a40020250000692c00002062000061750000c1
:1059b400643a0000202500006c6900002c200000df
:1059c40066720000657100003a200000256900003d
:1059d400204800007a0d00000a000000253600006f
:1059e4006c69000020250000366900002c250000a9
:1059f400366900002c250000366900002c200000c8
:105a040020250000366900002c25000036690000be
:105a14002c250000366900002c2000002025000001
:105a2400366900002c250000366900002c25000092
:105a3400366900002c200000202500003669000093
:105a44002c250000366900002c2500003669000072
:105a54002c250000366900002c20000020250000c1
:105a6400366900002c200000253500002e3200008d
:105a7400660d00000a00000074680000726f0000e8
:105a8400747400006c6500005f6c0000696d0000b8
:105a9400697400003a200000256600000d0a000029
:105aa40000670000707300003a200000256c0000bd
:105ab400692c0000256c0000692c0000256c000096
