:020000040000fa
:080000000002040000000000f2
:020000040000fa
:100400008fc020000e7b24000e0188000000000039
:100410000c0007002022230001002000110007002b
:10042000000020000000e000020032000000020096
:1004300000000000123e0200000000000040da0050
:100440000000fe004440a900201820000000e00049
:100450000300320000002000a00188004440a800f2
:100460000000060091018800800078000000eb0089
:1004700015003700e280400032a0b4009101ba00bc
:10048000e280400032a0b4009102ba00e280400055
:1004900032a0b4000002eb00472bde00f507b200eb
:1004a000602ce10004003a000059eb008301e900f0
:1004b000fdff3e00040037006128e100010032002a
:1004c0000082eb00040007001101ba000200e00006
:1004d000e8ff3a00000006003159ba008301e90044
:1004e0000c0032002159ba008301e90008003200f3
:1004f0000400e00003003a00e280400032a0b400b3
:10050000f5ff370011d9ba008301e900faff3a007c
:100510008100e800e180400032a0b4000000060045
:100520001a38040000000000363804000000000003
:1005300008380400000000004638040000000000f5
:100540005c38040000000000863804000000000051
:10055000be38040000000000e43804000000000081
:10056000bc250400000000006a2404000000000014
:100570007a240400000000008e2404000000000023
:100580003a25040000000000da2404000000000006
:1005900018250400000000002425040000000000cd
:1005a0004a250400000000005c2504000000000053
:1005b0008225040000000000b025040000000000b7
:1005c0007625040000000000c225040000000000a1
:1005d000ba30040000000000d63f04000000000014
:1005e0008e3c040000000000fc020400000000003b
:1005f0000040da000000fe00881f78000204780046
:100600001b000700080040004f04780000000600af
:100610000000fa00881f7800000478003fb99700b6
:10062000ea81570080007800c02f200017000700e3
:10063000800078000000e000020035000040eb0080
:1006400000f47800010078004f0478000080fa0080
:100650000000060080007800010037000000e8007c
:100660001004e000fdff3a00010050000000060009
:100670008001eb000200370061f079008301e8009f
:10068000828f5100fcff3a00000006006200fa0071
:10069000889fbe008a9fbe000004be00020578004d
:1006a0008300780060f92f000f004000b0000700c1
:1006b00088979f0099979f000000eb00a09f9f00e4
:1006c0009a4578000b80fb000000ea00cf04de00b2
:1006d00050c2b30080cf55000200320009047800f8
:1006e000010037000904e9000800e0000b003400b5
:1006f0001f909700080178008a0078008f9197007a
:100700000300010090979f000000e000930032007a
:100710002f98970000004400a09f9f000905450006
:1007200050c2b30080cf5500040032000b04e0003b
:10073000e3ff3a002f989700890037000000eb0094
:10074000809f9f00f0979f00e0979f00d0979f00a9
:10075000c0979f00b0979f00c09f9f00090037007f
:10076000407d24000080500000004000817c240077
:10077000e10078004f98970001007000c09f9f0033
:100780000a05e8001a4478008800fb00407d240038
:100790007c000700800078000000e000f0ff3a00d5
:1007a000a0c2b300804f54000e003a00bf889700eb
:1007b0000180e900b08f9f0010007800b09f9f007b
:1007c0000000e00005003d000000ea00b09f9f002f
:1007d0004f9897000020a000c09f9f000a05e800e6
:1007e00010003700b19f9f0003fd2f00f4ff27008a
:1007f000080037003f989700840f50000400320033
:100800006a00b9000000410003004000b09f9f0053
:100810000a05e8001a01fb0003004100e90f50003f
:10082000f4ff3600e0c2b3009a4f1000040032001b
:100830000080eb00909f9f008a0478001c00370026
:100840008a04e800a0c2b300994f100007003a00e4
:10085000bf8897000180e900b08f9f0010007800ea
:10086000909f9f008a84e800110037000000eb0091
:10087000909f9f0003fd2f00f4ff27000800370022
:100880001f989700840f5000040032006a00b900de
:100890000000410003004000909f9f008904e80091
:1008a0001901fb0003004100e90f5000f4ff36007e
:1008b000194478008800fb00807e24003100070086
:1008c0000000e00002003a00004478000100370018
:1008d0008904e800a87f9f0080c6b300804f5400c1
:1008e00004003a00994f14000a003a006640500094
:1008f00006003700c0c6b300804f540005003a0020
:10090000994f140003003a0065404000a07f9f000b
:100910008904e8000905e800cbfb2f008b85470020
:100920001901fb0060f92f000f0040000084e8006f
:100930008b01780080007800080078001a0007001a
:100940000000e00005003a008b0078000800780005
:10095000380107000000e00059ff3d000080eb0077
:100960004f05be004f04be000080fa0000000600e4
:100970000200fa00f1bf9f00010878000080fa0031
:1009800000000600040037000204e00001003a0005
:10099000000005000000e80010417800814f510080
:1009a000f9ff3a0000000600889fbe008a1f780009
:1009b0000004780001027800824478000305780082
:1009c000e0c6b300804f5100c600320010003c006a
:1009d0006b405000804f51001800320005003c0071
:1009e00050c2b300804f51000301320080c5b300f4
:1009f0000f00370040c6b300804f51001400320092
:100a000065404000804f5100fe003a001000370062
:100a100000c7b300804f5100e80032005e0035008f
:100a200065404000804f51005b0032006340400051
:100a300080cf5400f3003a00570037009180e9005e
:100a4000010a78007800900091717800f300370077
:100a5000a8609000c0c6b30080cf50000a003a00e2
:100a60009400780064805000000a78001000be00f6
:100a70004f89de00cf91de000002be000203780045
:100a8000820378001300370010c7b30080cf5000f6
:100a900003003200a0c6b30080cf500006003a0029
:100aa0009400780068805000000a78003002be0090
:100ab0002003be00070037001480e900000a780018
:100ac0001000780000027800cfa2de000503780055
:100ad00086037800049cbe000694be00a8609000c7
:100ae00080c6b30080cf50000e00320020c6b30095
:100af00080cf500005003a000400fb00cf80de00ec
:100b000001017800820178000a00370040c7b30075
:100b100080cf5000030032006640400080cf50007c
:100b200006003a0004007800cf80de000101780062
:100b300082017800009cbe000294be003800be0016
:100b40002801be00e00f5000e08f5800e00f590070
:100b5000e08f590003003d0078009000d1c2b3003f
:100b60000a003700081090000018a30003003200ac
:100b700078009000b1c2b300040037000008a30061
:100b8000530032007800900001c2b3000175780074
:100b90000000e8004d003700a8609000c0c6b30018
:100ba00080cf500006003a00940078006480500026
:100bb000000a78001002be006033b800130037004e
:100bc00010c7b30080cf500003003200a0c6b300ae
:100bd00080cf500006003a009400780068805000f2
:100be000000a78003002be002003be000700370074
:100bf0001480e900000a78001000780000027800f4
:100c0000050020000600200007002000049cbe0014
:100c10000694be00a860900080c6b30080cf50004c
:100c20000e00320020c6b30080cf500005003a000d
:100c30000480fb00010020000200200003002000cf
:100c40000a00370040c7b30080cf500003003200d5
:100c50006640400080cf500006003a000400780053
:100c6000010020000200200003002000009cbe00c4
:100c70000294be00081090000038a3001400320057
:100c80003800be002801be00e00f5000e08f580081
:100c9000e00f5900e08f59000d00320080c7b3000b
:100ca00080cf54000300320080c5b30080cf5400d1
:100cb00007003a007800900001c3b3000175780086
:100cc0008000e80009f578000080e80070049800d2
:100cd000780090000000450060049800894078008a
:100ce00042003700a8609000c0c6b30080cf50001b
:100cf000250032000a003c006440500080cf5000c4
:100d00002800320000c0e80080cf500014003200fc
:100d10006840500080cf500022003a000a0037009f
:100d200040c7b30080cf50001e0032006640400034
:100d300080cf50001b0032006940500080cf50002f
:100d400018003a00060037001480e900000a780015
:100d500010007800485c90000848780031003700a7
:100d60001480e900000a78001002780068089000fa
:100d7000cf80de000101780082017800009abe0079
:100d80000292be00270037001480e900000a7800b4
:100d90001001780068089000cf80de000089be0056
:100da000200037001480e900000a78001000780065
:100db000680c9000080878001a0037001180e900dc
:100dc0008008780010007800cf80de0001017800f4
:100dd00082017800009cbe000294be007800900062
:100de000000045006004980081c7b3000800780047
:100df000da0007000b0037007800900002757800d9
:100e00000600370078009000800045000904e000eb
:100e100001003a0059c2b300894878000000e80098
:100e2000700498000000eb004f0578004f04be00ee
:100e3000000006000400fa00889fbe008a9fbe00e2
:100e40008c1f78000004780001067800700890007c
:100e5000f800900001005000880890000100500048
:100e60009808900001005000a80890000100500070
:100e7000b808900001005000c8089000810550009b
:100e80000002220090bf9f0000032300a0bf9f002c
:100e9000081090000028a30018003a000b00e000a2
:100ea000160034008b04780009057800e28f5400a6
:100eb000020036002a002000020037000900e0008e
:100ec0000b00340058009000c80190000a0178001f
:100ed000ee80570003000100500498000000e0007d
:100ee000960032006808900000004500600c9800f1
:100ef0008a8454004240a900ebff3c007801900036
:100f00000200e0000b00340058009000c80190007f
:100f10008c00780003000100500498000000e000fd
:100f20008600320068089000f80090000100400040
:100f3000600c9800880c90000900e0001500340057
:100f400009057800e28f5400020036002a002000d4
:100f5000020037000900e0000b0034005800900048
:100f6000c80190000a017800ec80570003000100de
:100f7000500498000000e000700032006808900003
:100f800000004500600c98008a8454004240a9008b
:100f9000ebff3c00180990000200e0000b00340059
:100fa000e800900058009000c80190000300010084
:100fb000500498000000e0006000320068089000d3
:100fc0009808900001004000600c9800a80c900068
:100fd0000900e0001500340009057800e28f540094
:100fe000020036002a002000020037000900e0005d
:100ff0000b00340058009000c80190000a017800ee
:10100000ec80570003000100500498000000e0004d
:101010004a0032006808900000004500600c98000b
:101020008a8454004240a900ebff3c00380990003c
:101030000200e0000d003400e80090001808900065
:101040008080400058009000c8019000030001001b
:10105000500498000000e00038003200680890005a
:10106000b808900001004000600c9800c80c900087
:101070000900e0001500340009057800e28f5400f3
:10108000020036002a002000020037000900e000bc
:101090000b00340058009000c80190000a0178004d
:1010a000ec80570003000100500498000000e000ad
:1010b000220032006808900000004500600c980093
:1010c0008a8454004240a900ebff3c0008109000c5
:1010d0000028a3001b0032000b00e00019003400c0
:1010e0008b04780009057800e28f54000200360076
:1010f0002a002000020037000900e0000b00340045
:1011000058009000c80190000a017800ee80570056
:1011100003000100500498000000e00007003200c6
:101120006808900000004500600c98008a84540014
:101130004240a90003003400eaff37000080eb00c2
:10114000010037000000eb004f0678004f05be009d
:101150004f04be000080fa00000006002f03b0001c
:10116000889fbe008a9fbe008c9fbe008e1f7800a5
:101170000007780070bf2000c0b79f0080c5b30093
:1011800080cf50000800320062be2000c2b79f002e
:101190007740400080cf500003003a0083002000d9
:1011a000b3b79f000a00370080c7b30080cf50005c
:1011b00005003200a4002000b4b79f0080c5b30032
:1011c00080cf500002003a0005012000b5b79f0013
:1011d0003e04be002e05be0040c6b30080cf5000c6
:1011e000030032006540400080cf50000b003a0001
:1011f000e00f5400e08f5c00e00f5d00e08f5d00c9
:1012000006003d006000b8006011b80008045000fe
:10121000898458000a0559008b855900bfb397008f
:10122000e88f530003003200f08f530045003a006e
:101230000200370036002000010037004600200081
:10124000e00f5400e08f5c00e00f5d00e08f5d0078
:1012500005003a005e08900081012000a1b79f00c0
:101260000000e000080032003fb197000200e900f2
:1012700008006000cfb197006340780090df9f00c6
:1012800074012000a4b79f00860278008502e9005f
:10129000050033008b05d1000a85d3008984d30073
:1012a0000884d300f9ff3700089fbe000a97be00ec
:1012b000afb397000700e90021fc2f008f804000aa
:1012c000008240003fb197008202e900120037001f
:1012d000afb397008703e900a7b79f0000806200c3
:1012e000cfb09700615278003e00be002e01be00d4
:1012f000860378008703e900050033008381d1006d
:101300000281d3008180d3000080d300f9ff370031
:10131000009fbe000297be003e00be002e01be0030
:10132000e00f5000e08f5800e00f5900e08f5900a7
:10133000d6003400afb397000700e000e4ff3c00a4
:10134000d2003700ae60900080c6b30080cf50005e
:101350000b00320006003c000104e00008003200ef
:101360006640500080cf500073003a000400370000
:10137000c0c6b30080cf50006f003a003100370084
:10138000080178000800e00005003a005e089000bf
:1013900081012000a1b79f000000e0000900320099
:1013a000bfb19700110009000381d8008000fd0043
:1013b0004fb297006440780090df9f0075012000d5
:1013c000a5b79f00bfb39700110009000781d8009f
:1013d00080017800afb097000100e90022fc2f00e7
:1013e0000f014100000241000c003700bfb297001e
:1013f000110009008501d80000017800afb3970003
:101400008703e900a7b79f000590b900008051004d
:10141000cfb0970061527800820178000300e000ad
:10142000030034002fb197000200e000efff3c0002
:1014300003007800cf80de0001017800820178008f
:101440003a0037000806be00e00f5400e08f5c0051
:1014500005003a005e08900083012000a3b79f00ba
:101460000000e000090032003fb297006121b9009e
:101470000c00be00e7000700cfb29700654078007f
:1014800090df9f0077012000a7b79f003fb2970031
:101490006121b9000c00be00ce0007000006be00ae
:1014a000afb297000500e90027fc2f008f834300af
:1014b0008083430097b79f00110037003fb197002a
:1014c0006114b9000801be000c00be00b2000700a4
:1014d0000005be00afb197008301e900a3b79f00ec
:1014e0000801be00a6000700000056001fb29700ca
:1014f000cfb297006552780094b79f000a06be00ed
:10150000e00f5600e08f5e0003003400afb3970099
:101510000700e000e9ff3c004feade00cfa2de005a
:101520000c00be000401780084017800009fbe001a
:101530000297be0055003700e00f5400e08f5c00ba
:10154000e00f5d00e08f5d0005003a005e0890004e
:1015500081012000a1b79f000000e0000d003200d3
:101560003fb1970002027800cfa2de0005037800a9
:10157000860378000800be000a01be0029010700aa
:101580004fb297006440780090df9f007501200003
:10159000a5b79f003fb1970002027800cfa2de00fe
:1015a00005037800860378000800be000a01be002b
:1015b00015010700009fbe000297be00afb1970063
:1015c0000300e90024fc2f000f0242000006420045
:1015d00020003700bfb2970005047800cfc4de00ba
:1015e000090578008a0578000802be000a03be00db
:1015f0005fa89700efa897007fa997008fb1970089
:101600000c010700d0b79f00e1b79f00f2b79f0021
:1016100083bf9f00afb397008703e900a7b79f0080
:101620000802be000a03be00880107005faa9700f7
:1016300000005200cfb29700655678005fb0970067
:10164000efb097007fb197008fb99700009fbe0061
:101650000297be003e00be002e01be00d0af9f002c
:10166000e1af9f00f2af9f0083b79f00e00f5000f3
:10167000e08f5800e00f5900e08f5900030034005c
:10168000afb097000100e000d2ff3c003fb19700ef
:10169000e80f510013003a000e1090000038a3002c
:1016a00010003200afb19700f78f510006003e00e6
:1016b00024fc2f000f0242008300420000c3b3004d
:1016c000914f100007003200afb297008502e90089
:1016d000a5b79f0000c3b30027fc2f008f834300f2
:1016e00080f37a00afb1970078811100120f980053
:1016f0006e00900024fc2f000f0242008300420085
:10170000dbfb07001e0990005e089000800f51006f
:1017100006003d0002005000000f98000e109000df
:101720000040a100001798000f0037000000e00003
:101730000d003d000e10900074006000f00f50008e
:1017400009003a007e089000fe0090000100500061
:101750008e08900001005000020050004240a90095
:1017600001003400000f98004f0778004f06be00bc
:101770004f05be004f04be002f03b100000006005d
:10178000020ab900001bb9000200b8008100420043
:101790008100430000000600839f68000100e00014
:1017a00002003d0060001000e08018000300e0002f
:1017b00002003d0060011100e081190005000700f2
:1017c0004f00e00002003b0060001000e0801800c5
:1017d000000006006022b800060220000000d000d1
:1017e0008180d2000482d2008582d2000000a00055
:1017f0000202520083825a000300310002024200ba
:1018000083824a000000a1000603e900f3ff3a00ca
:1018100000000600efff07000400be000000060005
:10182000881f7800000478005001be004000be0010
:101830000400400085804800060149008781490076
:10184000009cbe000294be000400e1000588e10097
:101850000690e1000798e1000200310068004400b2
:101860001008e8004f04780000000600f4874700e5
:10187000889fbe008a9fbe008c9fbe008e1f78008e
:101880000205be000004be00d4b79f00e5b79f006c
:10189000f6b79f0087bf9f000000eb00c0b79f0016
:1018a000b0b79f00a0b79f0090b79f0080b79f0080
:1018b0000d042000bfb097004fb09700000140001a
:1018c0000000e0000f003d004f08de000000710046
:1018d000c0b79f009e00070001003d0012002000dd
:1018e000a100070001003d0012002000a600070033
:1018f000b1000700b60007000f004000c8ff070056
:10190000220037004f08de0000067100ccb79f00b0
:101910008f00070001003d00120020009200070028
:1019200001003d001200200097000700a200070000
:101930000fb297009fb297002fb39700bfb39700e5
:10194000a90007000000520081805a0002015b00dc
:1019500083815b0080b79f0091b79f00a2b79f0073
:10196000b3b79f000007eb009f0007000020e100d5
:1019700001a8e10002b0e10003b8e100010031007c
:101980001e0020000e005600c0b79f004fb2970007
:101990000400e000070035001000200001002000d6
:1019a0006011b80008047000898470000a05710095
:1019b0008b8571008d06e900beff3a000400e0004f
:1019c00003003d00820007000f00400094ff070065
:1019d0004fa897000000e00004003a000fb4970001
:1019e0009fb497002fb59700bfb5970094000700ec
:1019f0004f0778004f06be004f05be004f04be00e3
:101a00004f01b10000000600881f78001800200078
:101a1000881f780095ff07008f87e9004f04780042
:101a200000000600801feb0090ff07008f87e90091
:101a300000000600889fbe008a9fbe008c1f7800b1
:101a40006e00070007003d0073000700e00f5b0019
:101a5000e08f5b0007003d00320007000006eb004e
:101a6000040037003400070002003d002a00070090
:101a70001c00200072000700e3ff07000203be0005
:101a80000002be000c00e00001003200220007004e
:101a90000400be000601be004f0678004f05be00e0
:101aa0004f04be0000000600889fbe008a9fbe0053
:101ab0008c1f78005100070005003d00560007000c
:101ac000e00f5b00e08f5b0006003d000400370084
:101ad0001900070003003d006000b8006011b80065
:101ae0001000070056000700ceff07000203be00eb
:101af0000002be000c00e0000100320006000700fa
:101b00000400be000601be004f0678004f05be006f
:101b10004f04be00000006006000b8006011b8006d
:101b20000000370004025000858258000603590067
:101b300087835900000006000006eb00e00f52000a
:101b4000e08f5a00e00f5b00e08f5b0000000600b2
:101b50000180400090b79f000001eb008fb097001c
:101b60000100e000000006000200700090b79f0036
:101b70000180400080b79f000001eb00ffa89700a4
:101b80000100e000000006000200700080b79f0026
:101b9000018040006faa9700cf20de000100700096
:101ba000f0af9f0004024200250007004f18de003e
:101bb0000002720000000600e4af9f000804440029
:101bc00089844c000a054d008b854d0000000600fd
:101bd0003fb29700cfb297005fb39700efb3970083
:101be00000fe2f00000006003fb09700cfb0970026
:101bf0005fb19700efb19700000006000205be003c
:101c00000004be00e00f5000e08f5800e00f5900c4
:101c1000e08f5900000006006000b8006011b800b5
:101c200008045000898458000a0559008b85590022
:101c30001c002000e00f5200e08f5a000000060058
:101c40000800be000a01be0000000600889fbe001a
:101c50008a9fbe008c1f78000205be000004be00f3
:101c60000006eb00e00f5000e08f5800e00f590035
:101c7000e08f590007003d006000b8006011b80017
:101c800008045000898458000a0559008b855900c2
:101c90001c002000e00f5200e08f5a00e00f5b00b4
:101ca000e08f5b0002003d000f0007000c00a20067
:101cb0000800be000a01be00120007000203be00b9
:101cc0000002be000c00e000010032000600070028
:101cd0000400be000601be004f0678004f05be009e
:101ce0004f04be00000006006000b8006011b8009c
:101cf000040250008582580006035900878359006a
:101d000000000600889fbe008a9fbe008c9fbe0018
:101d10000404b8000506b8008904460060854e003a
:101d20000606b8000a054600e0854e000706b80022
:101d30008b054600040eb800890446000a854e0053
:101d4000e0854d00050eb8000a0546008b854e0063
:101d5000060eb8008b0546000416b8000a054600ba
:101d60008b854e000516b8008b054600041eb80092
:101d70008b0546000800be000a01be004f06be00eb
:101d80004f05be004f04be00000006004400f800ee
:101d9000040f2000240288000000e9001201c300a3
:101da000008008000200000031027800b2027800d2
:101db0001201c0000000cd004400f9000000060040
:101dc0004400f800040f200024028800010278007b
:101dd0000000e9000080080004000000b202780062
:101de0000500ca00b30278000500c9003100cc002c
:101df000040078004400f900000006004400f800e8
:101e0000040f200024028800811f78000000e900f0
:101e1000008008000300000032027800b30278005e
:101e20001301c0003100cd004f0078004400f900dc
:101e300000000600889fbe008a9fbe008c9fbe00e7
:101e40004400f8000d0f20002d0288008306780062
:101e50000106e9008205e90081804000020141009d
:101e60000000e90010003500050578000b8008002f
:101e70000a000000040478008a0478001201c300fc
:101e80000c800800030000003803780099037800f4
:101e90001201c600828444003300cd000a85e800a8
:101ea00001024200eeff37000d0078004400f90007
:101eb0004f06be004f05be004f04be0000000600e6
:101ec0000100b8000000e9004400f800010f200004
:101ed00021028800820078000080080004000000d1
:101ee000b30278000500ca00b40278000500c900fa
:101ef0003200cc00010078004400f9000000060028
:101f00004400f800040f200024028800811f78009c
:101f10000000e900030278000080080002000000d1
:101f2000b20278001301c0003100cd004f007800ec
:101f30004400f900000006004400f800020f2000f1
:101f4000220288000000e9001201c300008008009e
:101f500001000000310278001001f0000000cd0007
:101f60004400f90000000600810178000000e9004b
:101f700000800900b2187800030078000000060015
:101f80004400f800040f20002402880001027800b9
:101f90000000e9000080080005000000b20278009f
:101fa0000500ca00b30278000580ca000030cb00eb
:101fb0003100cc00040078004400f9000000060065
:101fc000820278000000e9000102e90081804000ff
:101fd000048008000500000003027800008008006b
:101fe0000100000014197800010242008381e8001a
:081ff000050078000000060066
:020000040000fa
:0200000401f009
:04000800ffff0000f6
:020000040000fa
:0200000401f009
:04000c007bff000076
:020000040000fa
:0200000401f009
:04001000beff00002f
:020000040000fa
:0200000401f009
:040014007fff00006a
:020000040000fa
:0200000401f009
:04001800ffff0000e6
:020000040000fa
:0200000401f009
:04001c00ddff000004
:020000040000fa
:10000800f8020000f8020000f8020000f802000000
:10001800f8020000f8020000f8020000f8020000f0
:10002800f8020000f8020000f8020000b8390000e9
:10003800f6340000f8020000f8020000f8020000a0
:10004800223a0000f8020000f8020000fc26000036
:10005800c6260000f8020000f8020000f8020000be
:10006800f80200000a230000f8020000f80200006d
:10007800f8020000f8020000f8020000f802000090
:10008800f8020000f8020000f8020000d436000070
:100098005c3a0000f80200003e2800000828000032
:1000a800f80200007a3a0000f8020000ae3d0000b5
:1000b800f8020000f8020000f8020000f802000050
:1000c800f8020000f8020000f8020000f802000040
:1000d800f8020000f8020000f8020000f802000030
:1000e800f8020000f8020000f8020000f802000020
:1000f800f8020000f8020000f8020000f802000010
:10010800f8020000f8020000f8020000f8020000ff
:10011800f8020000f8020000f8020000f8020000ef
:10012800f8020000f8020000f8020000f8020000df
:10013800f8020000f8020000f8020000f8020000cf
:10014800f8020000f8020000f8020000f8020000bf
:10015800f8020000f8020000f8020000f8020000af
:10016800f8020000f8020000f8020000f80200009f
:10017800f8020000f8020000f8020000f80200008f
:10018800f8020000f8020000f8020000f80200007f
:10019800f8020000f8020000f8020000f80200006f
:1001a800f8020000f8020000f8020000f80200005f
:1001b800f8020000f8020000f8020000f80200004f
:1001c800f8020000f8020000f8020000f80200003f
:1001d800f8020000f8020000f8020000f80200002f
:1001e800f8020000f8020000f8020000f80200001f
:0801f800f8020000f80200000b
:020000040000fa
:10020800f8020000f8020000f8020000f8020000fe
:10021800f8020000f8020000f8020000f8020000ee
:10022800f8020000f8020000f8020000b8390000e7
:10023800f6340000f8020000f8020000f80200009e
:10024800223a0000f8020000f8020000fc26000034
:10025800c6260000f8020000f8020000f8020000bc
:10026800f80200000a230000f8020000f80200006b
:10027800f8020000f8020000f8020000f80200008e
:10028800f8020000f8020000f8020000d43600006e
:100298005c3a0000f80200003e2800000828000030
:1002a800f80200007a3a0000f8020000ae3d0000b3
:1002b800f8020000f8020000f8020000f80200004e
:1002c800f8020000f8020000f8020000f80200003e
:1002d800f8020000f8020000f8020000f80200002e
:1002e800f8020000f8020000f8020000f80200001e
:1002f800f8020000f8020000f8020000f80200000e
:10030800f8020000f8020000f8020000f8020000fd
:10031800f8020000f8020000f8020000f8020000ed
:10032800f8020000f8020000f8020000f8020000dd
:10033800f8020000f8020000f8020000f8020000cd
:10034800f8020000f8020000f8020000f8020000bd
:10035800f8020000f8020000f8020000f8020000ad
:10036800f8020000f8020000f8020000f80200009d
:10037800f8020000f8020000f8020000f80200008d
:10038800f8020000f8020000f8020000f80200007d
:10039800f8020000f8020000f8020000f80200006d
:1003a800f8020000f8020000f8020000f80200005d
:1003b800f8020000f8020000f8020000f80200004d
:1003c800f8020000f8020000f8020000f80200003d
:1003d800f8020000f8020000f8020000f80200002d
:1003e800f8020000f8020000f8020000f80200001d
:0803f800f8020000f802000009
:020000040000fa
:101ff80024500000535200004631000030300000e9
:102008002c3000002c310000393200003030000044
:102018002c3800002c3100002c3000002a3300003e
:10202800390d00000a0000000900000086000000c9
:10203800004b000000080000010000000000000044
:102048002f0b00002e0b0000310b0000300b00009e
:10205800390b0000380b00002d0b00002c0b000082
:102068002b0b00002a0b00001c0b00001c0b0000af
:102078001c0b00001c0b00001c0b00001c0b0000bc
:102088001c0b00001c0b00001c0b00001c0b0000ac
:102098001c0b00001c0b0000210b0000200b000093
:1020a8001f0b00001e0b0000250b0000240b000076
:1020b800230b0000220b00001c0b00001c0b00006f
:1020c8001c0b00001c0b0000290b0000280b000053
:1020d800270b0000260b00001c0b0000330b000030
:1020e800320b0000350b0000340b00001c0b000005
:1020f8001c0b0000370b0000360b00001c0b000007
:102108001c0b00001c0b00001c0b00001c0b00002b
:102118001c0b00001c0b00001c0b00001c0b00001b
:102128001c0b00001c0b00001c0b00001c0b00000b
:102138001c0b00001c0b00001c0b00001c0b0000fb
:102148001c0b00001c0b00001c0b00001c0b0000eb
:102158001c0b00001c0b00001c0b00001c0b0000db
:102168001c0b00001c0b00001c0b00001c0b0000cb
:102178001c0b00001c0b00001c0b00001c0b0000bb
:102188001c0b00001c0b00001c0b00001c0b0000ab
:102198001c0b00001c0b00001c0b00001d0b00009a
:1021a8003a0b00001c0b00001c0b00001c0b00006d
:1021b800000000009201000024030000b5040000a4
:1021c80046060000d607000064090000f10a000076
:1021d8007c0c0000060e00008d0f0000121100009c
:1021e8009412000013140000901500000917000055
:1021f8007e180000ef1900005d1b0000c61c0000df
:102208002b1e00008c1f0000e72000003d2200006c
:102218008e230000da24000020260000602700003a
:102228009a280000ce290000fb2a0000212c00007b
:10223800412d00005a2e00006c2f0000763000005f
:102248007931000074320000683300005334000014
:102258003735000012360000e5360000b0370000c0
:10226800713800002b390000db390000823a000089
:10227800213b0000b63b0000423c0000c53c00008a
:102288003f3d0000af3d0000153e0000723e0000db
:10229800c53e00000f3f00004f3f0000853f000093
:1022a800b13f0000d43f0000ec3f0000fb3f0000be
:1022b8000040000067790000726f00004d65000063
:1022c80061730000757200006552000061770000bc
:1022d8003a250000752c000020250000692c00001c
:1022e80020250000692c000020250000690d000051
:0422f8000a000000d8
:020000040000fa
:1022fc000000fa000040eb004f060700b0578800c2
:10230c000040eb00c8050700c05788000080fa00a9
:10231c00000006000a00fa00200798003107980018
:10232c00420798004e009000640040009000780036
:10233c003e0090000080e800100078000180b90099
:10234c00008fbe001e01be004e0090000080e80011
:10235c00900078003e00900064004000100078006f
:10236c000180b9000000510081805900008fbe002f
:10237c001e00be004209dd00ce00de0081007100af
:10238c004200dd00008fbe009e0090002e009000e9
:10239c00010878004e009000900078003e009000fc
:1023ac0064004000100078000180b900008fbe006e
:1023bc001e01be004e0090006400400090007800aa
:1023cc003e009000100078000180b9000000510020
:1023dc0081805900008fbe001e00be004209dd0046
:1023ec00ce00de00810071004200dd00008fbe00d7
:1023fc002e0090008080e8001e009000800878007d
:10240c004e0090000080e800900078003e009000a4
:10241c00100078000180b900008fbe001e01be00c4
:10242c004e009000900078003e0090000080e80084
:10243c00100078000180b900000051008180590023
:10244c00008fbe001e00be004209dd00ce00de0083
:10245c00810071004200dd00008fbe002e00900054
:10246c00e40040001e009000800878000080fa0014
:10247c00000006000200fa00c04d80008080d100f0
:10248c00b04d80000080d10080805000a04c8000b6
:10249c000080500090418800104e80008080d10058
:1024ac00004e80000080d10080805000a04c800045
:1024bc0000805000a0418800604e80008080d100d8
:1024cc00504e80000080d10080805000a04c8000d5
:1024dc0000805000b0418800b2418000a1418000d2
:1024ec009041800079070700304088003040800020
:1024fc000000d100000f78001e00e0002400320024
:10250c001e01780090418000cf80de00cd09dd00f7
:10251c00c300de00818071004d00dd00811f78005a
:10252c00110009004208d800cf0078004040880014
:10253c001e017800a0418000cf80de00cd09dd00b7
:10254c00c300de00818071004d00dd00811f78002a
:10255c00110009004208d800cf00780050408800d4
:10256c001e017800b0418000cf80de00cd09dd0077
:10257c00c300de00818071004d00dd00811f7800fa
:10258c00110009004208d800cf0078006040880094
:10259c000080fa00000006000000fa00d04c800019
:1025ac008080d100c04c80000080d10000805000a1
:1025bc0010438800204d80008080d100104d800099
:1025cc000080d1000080500020438800604d8000c6
:1025dc008080d100704d80000080d10000805000c0
:1025ec003043880022862000e1802000300020004b
:1025fc00e3fd0700000040005042880041812000ac
:10260c002286200030002000ddfd07000000ea00db
:10261c000000400060428800a1812000228620003a
:10262c0030002000d6fd070000004000800078003c
:10263c0010832f0000804000704288000080fa0058
:10264c00000006000a00fa002007980031079800e5
:10265c003e0090004300de0030079800ae00900072
:10266c003e0090000008b900008fbe001e009000d4
:10267c00f10f5000030034000000240040079800c4
:10268c00180037001e009000f10f400003003d00c1
:10269c0002002c0042079800120037001e00be00fa
:1026ac004b09dd004500de0000007100c588de002e
:1026bc00008fbe009e007800303a20000008b90060
:1026cc00008fbe001e00be004509dd00cb00de0001
:1026dc00810071004500dd00008fbe001e009000df
:1026ec00400798004e0090000080fa0000000600a1
:1026fc000000fa00881f78001843800041578000c2
:10270c0000438000cfff07000000540010438800f6
:10271c003843800041578000e0428000c9ff070029
:10272c000000440030438800204380008000780083
:10273c0010578000000040000080400020438800bb
:10274c004f0478000080fa00000006003000fa0008
:10275c004384200022832000c1852000300020000b
:10276c0094fd0700e3832000c285200081832000b4
:10277c00300020008ffd0700f80047000380200088
:10278c00828320003000200099fd0700e6004700fe
:10279c000000240080089800660047008008900024
:1027ac00660047004100980066004700c00090009a
:1027bc006600470001087800780047009000780018
:1027cc0078004700100078000181b90078004700bc
:1027dc009000900078004700100090000180b90034
:1027ec00020140008381480078004700a00090005f
:1027fc0078004700200090000180b90002004000e2
:10280c008380480010079800210798001e00900054
:10281c00ae0090004209dd004e00de0000007100a9
:10282c00ce08de0032002000110009000280d80022
:10283c008000780000002400008f400078004700e2
:10284c00100078001e00b9004209dd004e00de00c9
:10285c0000007100ce88de00800078007800470010
:10286c000108780078004700100090001e00b900a5
:10287c004209dd004e00de0000007100ce88de0053
:10288c00800078007800470011009800780047001d
:10289c00200090001e00b9004209dd004e00de0051
:1028ac0000007100ce88de008000780078004700c0
:1028bc002100980078004700200090008000ea007a
:1028cc0066004700110098007800470090009000c7
:1028dc00660047002100980078004700a000900097
:1028ec00660047003100980078004700100078001f
:1028fc008000ea006600470051009800780047000d
:10290c00100090008000ea0066004700610098000b
:10291c00780047009000780066004700710098002e
:10292c0066004700fe00470080027800e48020002b
:10293c00810178003200200031002000300020009e
:10294c0039fd07007e004700fe00470000027800ba
:10295c0081017800e280200031002000300020004e
:10296c0054fd07000080fa00000006001600fa0073
:10297c0042812000e18020003000200000fd070093
:10298c000000ea003044880030448000428120007e
:10299c00e4004700800178003000200055fd07005e
:1029ac0031448000640047006600400081017800db
:1029bc00e280200080007800300020004dfd0700f0
:1029cc0064014700e4004700e38020003000200051
:1029dc00f8fc0700428120006400470066024000ba
:1029ec0064004700e6004000820178000401780092
:1029fc0030002000effc0700640047006601400037
:102a0c00640047006c004000e400470041fe0700f2
:102a1c00e40047003000200044fd07001007980038
:102a2c00010026001e009000008f5000640147003a
:102a3c00e40047009e017800300020002dfd0700c7
:102a4c00640047006401470080017800e1802000a9
:102a5c0030002000d7fc070064004700e60040006f
:102a6c003000200031fd07001007980001002600ff
:102a7c001e009000008f500064004700660140006b
:102a8c0064004700e60040009e0178003000200002
:102a9c0018fd070064004700e60140006400470091
:102aac00660140004181200030002000c1fc07007d
:102abc0064004700ec004000300020001bfd0700c4
:102acc0010079800010026001e009000008f500097
:102adc00640047006c01400064004700ec004000bb
:102aec009e0178003000200002fd070064004700c2
:102afc00ec014000640047006c014000a181200003
:102b0c0030002000abfc07000080fa00000006003b
:102b1c000000fa00a28120002186200040872000be
:102b2c00fcfd07000080fa00000006000000fa001f
:102b3c00005f800001402000010060000000e00008
:102b4c0017003200e156800060092000808f500091
:102b5c000c00360082862000e1862000a087200031
:102b6c00ecfd0700e5802000a487200003882000ee
:102b7c00320020003100200010002000aafc0700c9
:102b8c00060037000000eb00204488002044800041
:102b9c00104488001044800000448800e14ba900d8
:102bac000080fa00000006000a00fa00c05b8000fa
:102bbc0030079800d05b8000400798006600470003
:102bcc00590407008040780000ccb30000c04000de
:102bdc00404798004e4090001704070010079800db
:102bec004e40900090030700000f78001e009000ec
:102bfc00b0408800b0408000704088001e00780013
:102c0c00804088001e00ea00a04088000080fa0086
:102c1c00000006001800fa00200f9800310f9800f1
:102c2c003e08900010007800c380de006e00470064
:102c3c00010878003e0890000080e8001000780041
:102c4c00c380de006e004700110098003e08900023
:102c5c006400400010007800c380de006e00470066
:102c6c00210098006e014700ae0890003000200053
:102c7c0043fc07000000ea00300798002e08900083
:102c8c0066004000100078006e014700e800470025
:102c9c00800178003000200096fc07006800470097
:102cac00800178002e099000ae08900030002000c2
:102cbc0040fc07002e089000660140002e08900092
:102ccc0066004000900078003e00900000804000bc
:102cdc00000978002e089000900078002e089000d3
:102cec00100078000181b9002e0890000080e800e7
:102cfc00900078002e0890000080e800100078000a
:102d0c000180b90002014000838148002e08900028
:102d1c0064004000900078002e0890006400400091
:102d2c00100078000180b900020140008381480046
:102d3c002e08900066004000900078002e0890004d
:102d4c0066004000100078000180b90002004000cd
:102d5c008380480010079800210798001e009000ff
:102d6c00ae009000ed040700000f78001e01780003
:102d7c002e08900090007800000024000008b90094
:102d8c00801f7800110009004208d80080007800ec
:102d9c004f0078002e089000010878002e08900053
:102dac000081e8009e0178002e0890000080e80069
:102dbc0090007800000024000008b900811f780002
:102dcc00110009004308d800cf00780000097800f2
:102ddc002e089000640140009e0178002e0890009f
:102dec006400400090007800000024000008b90046
:102dfc00811f7800110009004308d800cf0078002b
:102e0c00000978002e089000660140009e017800b1
:102e1c002e0890006600400090007800000024000e
:102e2c000008b900811f7800110009004308d80080
:102e3c00cf007800000978000080fa00000006003e
:102e4c001400fa00000f9800110f98006000b800f1
:102e5c0060079800710798001e08900066004000fb
:102e6c0090007800110798000000eb00000f78002c
:102e7c00140037006e019000fe0190001e007800d7
:102e8c0000004000800078001e0890000080400088
:102e9c00100278001e0078000000400080007800ce
:102eac001e08900000804000100078000480b900db
:102ebc00020040008380480060079800710798006a
:102ecc001e0fe800220020009e0f1100e9ff3400c5
:102edc006e019000fe019000f0ff2f00f1ff20002a
:102eec00800f5100818f590004003400f0ff2f0037
:102efc00f1ff200060079800710798006e009000a9
:102f0c00fe0090004309dd00cd00de008100710061
:102f1c004300dd006007980071079800fe009000e8
:102f2c00000024000100500020079800e600470034
:102f3c009e0190001e09900030002000edfb070060
:102f4c000000eb00000f78000a0037009e017800ab
:102f5c001e007800e600470000004000608078000a
:102f6c004201dd00e60047000380410002b078001a
:102f7c001e0fe800200020009e0f1000f3ff34000d
:102f8c009e0a90001e0a90008e09900032002000cc
:102f9c001100200030002000a3fb07000000eb0014
:102fac00000f78000e0037001e0078000000400073
:102fbc00800078000e089000008140001e00780010
:102fcc0000004000800078000e0890000080400057
:102fdc00100078004200dd00000978001e0fe800a8
:102fec00810020009e8f1000efff34000e0890002f
:102ffc00900078002e009000808040000e08900019
:10300c00010878000e089000680140000e0890003e
:10301c0068004000900078002e0090000080400076
:10302c00000978000e089000700140000e08900016
:10303c0070004000900078002e009000008040004e
:10304c00000978000e0890000081e8000e0890003e
:10305c000080e80090007800660047002000900097
:10306c0000805000000978000e08900064014000b8
:10307c000e08900064004000900078006600470045
:10308c001000900000804000000978000e089000ad
:10309c00660140000e089000660040009000780029
:1030ac006600470020009000008040000009780076
:1030bc000e0890006a0140000e0890006a00400063
:1030cc0090007800660047001000780000805000e7
:1030dc00000978000e0890006c0140000e0890006a
:1030ec006c004000900078006600470010009000d3
:1030fc0000805000000978000e0890006e0140001e
:10310c000e0890006e0040009000780066004700aa
:10311c001000780000804000000978000080fa0060
:10312c00000006006800fa00804480000000e900fe
:10313c0080448800804480000000e00006003a00d3
:10314c00e2802000018220009000200083fb070019
:10315c00a000200080448800005f80000120200037
:10316c00010060000000e00040013200e25b8000e2
:10317c00d15b8000c05b800054040700000f780016
:10318c00c10520008e80400043b1200082b7200092
:10319c003000200077fb0700c10520008e80400026
:1031ac00c00520000e0040008e04070090588000df
:1031bc001e001000c20520000e0141002106200057
:1031cc008e804000800178003000200049fb070011
:1031dc0082b7200041b12000300020005ffb0700c7
:1031ec001e00780090588800200320000e0040003c
:1031fc008188200012ff0700210320008e804000f0
:10320c0082b7200030002000ddfa070000004000eb
:10321c0080007800c00520000e00400001087800f6
:10322c00200320000e004000e600400082b7200082
:10323c0030002000d2fa0700000040008000780027
:10324c00c00520000e004000110098002003200053
:10325c000e004000ec00400082b72000300020003f
:10326c00c7fa07000000400080007800c00520006d
:10327c000e00400021009800c20520000e01410004
:10328c0081b720003000200034fb0700015f800074
:10329c0000102000008060000000e00005003200fb
:1032ac0041fe0700e28020000182200090002000f7
:1032bc002afb0700700020008044880082b72000a1
:1032cc000182200030002000adfa07000000400011
:1032dc00805788006182200082b7200030002000d7
:1032ec00a7fa07000000400090578800c182200018
:1032fc0082b7200030002000a1fa07000000400037
:10330c00a05788006400470001af20003504070077
:10331c006a00470001af200002040700ea004700e2
:10332c0062af20002000200095fa070010079800db
:10333c00a28120009e019000018820003000200016
:10334c00ecfa0700640147006e004700c1b0200092
:10335c00f0fb0700740147000382200031002000bd
:10336c003000200013fb07007400470021032000ed
:10337c008e804000a5af200000027800810178000b
:10338c00320020003100200030002000a6fa070097
:10339c00200320000e004000f000900020032000cd
:1033ac000e00400050009000808050006002200011
:1033bc000e00400001087800200320000e004000a1
:1033cc00a0009000200320000e0040006000900040
:1033dc0080805000600220000e0040001100980018
:1033ec00200320000e004000b000900020032000bd
:1033fc000e00400010009000808050006002200001
:10340c000e00400021009800210320008e80400017
:10341c000000eb0080089800200320000e00400004
:10342c0080089000200320000e004000410098000e
:10343c00200320000e004000c0009000200320005c
:10344c000e004000010878006e00470090007800e4
:10345c00200320000e004000710098006e00470011
:10346c00100078008000ea00200320000e004000cd
:10347c00510098006e00470090009000200320003f
:10348c000e004000210098006e00470010009000d4
:10349c008000ea00200320000e004000610098002c
:1034ac006e004700a0009000200320000e0040009a
:1034bc00310098006e004700200090008000ea0068
:1034cc00200320000e004000110098002003200073
:1034dc000e004000410420008e8040000582200038
:1034ec0000027800810178003200200031002000b9
:1034fc00300020004cfa0700400420000e00400071
:10350c00f4004700220320000e01410080027800e5
:10351c000102780082017800320020003100200086
:10352c003000200040fa0700200320000e0040006d
:10353c00f0009000200320000e004000500090008e
:10354c0080805000c00220000e004000010878006e
:10355c00200320000e004000a0009000200320005b
:10356c000e0040006000900080805000c0022000df
:10357c000e00400011009800200320000e004000b7
:10358c00b0009000200320000e00400010009000be
:10359c0080805000c00220000e00400021009800e6
:1035ac00620220000e014100c10220008e8040000a
:1035bc00600520000e00400056fb0700015f8000f4
:1035cc0000102000008060000000e0001d003a00a8
:1035dc0031558000200620000e00400010007800bd
:1035ec000080e8004280de000080400030558800fa
:1035fc0041558000200620000e0040001000900075
:10360c000080e8004280de000080400040558800c9
:10361c0051558000200620000e0040002000900034
:10362c000080e8004280de00008040005055880099
:10363c00610520008e8040008088200075fd070009
:10364c0001003700e10ba90064014700c1b0200064
:10365c003000200041fa070002822000a1af2000b8
:10366c00900020003dfa0700e12ba9000080fa0031
:10367c00000006000a00fa0031408000c03d200026
:10368c00808f500005003e0000402000100798007d
:10369c0000a02000000f780011003700314080009e
:1036ac00906a2200808f500009003e00304080005c
:1036bc004300de004300dd0010079800304080001e
:1036cc004300de007400b900000f780004003700de
:1036dc00008022001007980000402600000f7800a0
:1036ec009e01900002882000e18320003000200021
:1036fc0000fa0700e40047009e0178004287200092
:10370c0030002000fbf907006400470080017800be
:10371c00e2832000e183200030002000a5f907009f
:10372c0031408000a0182000808f50004e003e00d9
:10373c008242800093428000a14380000020200040
:10374c000088b9004d0add004300de000000720065
:10375c00c388de000200400083804800804288005d
:10376c0091428800a2428000b3428000b1438000a5
:10377c00002020000088b9004d0add004300de0067
:10378c0000007200c388de00020040008380480005
:10379c00a0428800b1428800c2428000d34280001f
:1037ac00c1438000002020000088b9004d0add00d4
:1037bc004300de0000007200c388de0002004000ff
:1037cc0083804800c0428800d14288008242800039
:1037dc009342800001448000000220000088b90060
:1037ec004d0add004300de0000007200c388de00dd
:1037fc00020040008380480080428800914288008b
:10380c00a2428000b34280001144800000022000dc
:10381c000088b9004d0add004300de000000720094
:10382c00c388de000200400083804800a04288006c
:10383c00b1428800c2428000d34280002144800003
:10384c00000220000088b9004d0add004300de00b4
:10385c0000007200c388de00020040008380480034
:10386c00c0428800d1428800904280004380de0034
:10387c0020428800b04280004380de003042880045
:10388c00d04280004380de00404288000080fa0075
:10389c00000006000600fa001007980021079800a7
:1038ac002e0090009e009000008f4000504423009a
:1038bc009e0f10000200360050442300000f7800c9
:1038cc0030ac22009e0f100002003e0040ac2200e3
:1038dc00000f78001e0078000080fa00000006003f
:1038ec000e00fa0031408000d03d2000808f500047
:1038fc003b003600304080000000d100000f780003
:10390c00e8004700e3832000828020003000200084
:10391c0037f9070068004700100078007e00b900f6
:10392c0020079800310798001e0178002e009000a7
:10393c00be009000811f7800110009004208d800d9
:10394c00cf00780010079800004080009e00900087
:10395c00d0ff07000040880068004700100090006e
:10396c007e00b90020079800310798001e017800ee
:10397c002e009000be009000811f780011000900fd
:10398c004208d800cf007800100798001040800043
:10399c009e009000bfff07001040880068004700a1
:1039ac00200090007e00b900200798003107980095
:1039bc001e0178002e009000be009000811f780040
:1039cc00110009004208d800cf00780010079800b9
:1039dc00204080009e009000aeff07002040880031
:1039ec000080fa00000006000000fa00bd05070088
:1039fc003ffb070055fb0700dcfb070044fc0700fe
:103a0c00d0558000e70f500002003a00c5fd0700ba
:103a1c000100370045fc070016ff0700b0ff070048
:103a2c000080fa00000006000600fa00204798000b
:103a3c002e4090000000fb00000f78001e00e000fc
:103a4c0012003500000420009e0f10000800340006
:103a5c00000820001e00500080004000c00d29000e
:103a6c000080400010007800200798001b003700f1
:103a7c001e00780080004000c00d2900008040002e
:103a8c001000780020079800140037001e0fea0081
:103a9c00000420009e0f10000900340000082000d4
:103aac001e00500080004000c00d29000080400026
:103abc00100078000000ea0020079800070037008b
:103acc001e00780080004000c00d290000804000de
:103adc00100078000000ea00200798002e009000eb
:103aec000080fa00000006000800fa00881f780029
:103afc002007980000c2b3003047980000c4b30000
:103b0c002047980000c2b300104798002e00900088
:103b1c000000e0000300340010c0b300004f780038
:103b2c000500370000c0eb00004f78002e0090001d
:103b3c000000ea0020079800ae009000000024006e
:103b4c00808f50002d003a001e00fb004600dd0067
:103b5c000000fb0030079800330037002e40900027
:103b6c000000fb000080d100304798003e409000e0
:103b7c00adff0700800078002e009000808f500071
:103b8c0006003a009e4078003e4090000088b90044
:103b9c000000fb0030079800230037003e409000e7
:103bac00a1ff0700000478003e4090000040e900af
:103bbc009dff0700000044008080d1002e00900083
:103bcc00808f500005003d002e4090009e409000dc
:103bdc000140400020479800040037002e40900020
:103bec009e40900001405000204798001e409000dd
:103bfc000000fb000080d100104798001e40900090
:103c0c000004e000d5ff3c002e4090000000fb00bb
:103c1c000080d100804078001e4078000088b900f8
:103c2c000000fb00300798003e0090004f04780025
:103c3c000080fa00000006000200fa00004f780035
:103c4c0001c4b3001ec0400077ff07000080fa00db
:103c5c00000006001000fa0060079800614f980001
:103c6c006e48900070ff0700200798006e48900087
:103c7c00f1ff0700300798006e009000900078006c
:103c8c003e0090000181b9006e0090009000900001
:103c9c002e0090000180b900000051008180590075
:103cac004209dd00ce00de00810071004200dd0023
:103cbc0040079800510798005e009000100798008c
:103ccc006e009000900078002e0090000181b900e9
:103cdc006e009000900090003e0090000180b900b2
:103cec0002004000838048004209dd00ce00de0067
:103cfc00810071004200dd004007980051079800d8
:103d0c005e009000000f78006e0090009e00900006
:103d1c00010878006e0090001e01780012009800d7
:103d2c000080fa00000006000800fa003007980036
:103d3c000040eb005047980000c4b3004047980087
:103d4c0070c0b300204798003e00900090007800af
:103d5c00e00f2000808f50001c003c003e009000c3
:103d6c009000780010f02f00808f50001700340066
:103d7c003e00900090009000e00f2000808f5000db
:103d8c0012003c003e0090009000900010f02f00bc
:103d9c00808f50000d00340060002000000f780070
:103dac003e00900010007800c600dd003e00900040
:103dbc00010878003e00900010009000c600dd0065
:103dcc003e009000110098001a0037000000eb0034
:103ddc00000f7800170037004e40900030479800d5
:103dec003e009000100090000000e0000300340042
:103dfc003e4090000040ea0030479800be409000e2
:103e0c003e00900093ff0700de4090003e40900083
:103e1c0000c04000504798004e4090000000fb004e
:103e2c000080d100404798002e4090000040e900ef
:103e3c00204798002e4090000004e000e6ff3c0074
:103e4c003e009000100090000000e00003003400e1
:103e5c005e4090000040e900504798003e00900002
:103e6c00900078001e0078008088de003e009000f4
:103e7c00010878003e009000900090001e00780031
:103e8c008088de003e009000110098005e4090009b
:103e9c000040ea000000fb000080fa000000060071
:103eac000a00fa00400798000040eb0030479800e9
:103ebc0000c4b3002047980070c0b300004f7800d6
:103ecc004e00900090007800e00f2000808f500092
:103edc001c003c004e0090009000780010f02f0069
:103eec00808f5000170034004e009000900090001e
:103efc00e00f2000808f500012003c004e0090001c
:103f0c009000900010f02f00808f50000d003400b6
:103f1c0060002000300798004e00900010007800e0
:103f2c00c600dd004e009000010878004e009000a5
:103f3c0010009000c600dd004e00900011009800ab
:103f4c00180037000000eb00300798001500370010
:103f5c002e409000104798004e00900010009000ea
:103f6c000000e000030034001e4090000040ea0016
:103f7c00104798009e4090004e00900035ff0700bf
:103f8c00be4090001e40900000c04000304798009a
:103f9c002e4090000000fb000080d10020479800cc
:103fac001e4fe9001e04e000e9ff3c003e4090007b
:103fbc000040ea00304798003e4090000000fb00b3
:103fcc004800dd00200798004e009000100078009b
:103fdc000000e0000e0034004e009000100178004c
:103fec004e00900090009000e08b22000180b90000
:103ffc00801f7800110009004208d800800078006a
:10400c004f0078002e00900001004000200798001f
:10401c004e009000900078003e0090008088de00fa
:10402c004e009000010878004e0090009000900027
:10403c003e0090008088de004e0090001100980039
:10404c002e0090000080fa00000006000a00fa0022
:10405c00300798000000eb0020079800f00f2000bc
:10406c001007980030002000000f78003e009000f0
:10407c000000e00009003a000000eb004007980047
:10408c00230037003e0090004200dd00300798000e
:10409c002e0090000000e800200798003e009000e1
:1040ac0001002c00010060000000e000f5ff320070
:1040bc003e0090000000d100300798000c00370043
:1040cc001e0fe9001e0090008000d1003e00900001
:1040dc001e019000811f7800110009000280d80099
:1040ec0001017800cf007800008040001007980094
:1040fc001e00e000f2ff3a002e0090009e0090009f
:10410c000008de00100798001e0090004007980081
:10411c004e0090000080fa00000006001000fa002b
:10412c0030079800410798000000eb00200798002a
:10413c000080eb001007980030002000000f780082
:10414c003e019000ce019000f0ff2f0001002000f6
:10415c00800f5100818f59000f003e003e009000ef
:10416c00baff070050079800450037003e0090004a
:10417c00ce0090004209dd00ce00de00810071000f
:10418c004200dd0030079800410798002e00900097
:10419c000000e800200798003e009000ce00900040
:1041ac000200200003002c0000027800810278003d
:1041bc000200780083007800000162000180620038
:1041cc006102b80064079800750798006e009000b3
:1041dc00fe009000c000dd00000020006007980089
:1041ec00710798006e009000fe0090006112b800fc
:1041fc0064079800750798006e019000fe0190000e
:10420c000200700083807000e00f5000e08f5800b7
:10421c00d6ff32003e009000ce0090008100d1000d
:10422c000080d30030079800410798000c0037003d
:10423c001e0fe9001e0090008001d1003e0090008e
:10424c00ce0090001e019000811f78001100090023
:10425c004288d800cf0078000080410010079800f9
:10426c001e00e000f2ff3a002e0090009e0090002d
:10427c000008de00100798009e019000530798007c
:10428c005e0090000080fa00000006000800fa00b2
:10429c002007980031079800ae0090002e00900087
:1042ac000089b900be0090003e0090000088b90063
:1042bc000200400083804800008fbe001e00be003c
:1042cc0096ff07000080fa00000006000a00fa00c2
:1042dc00200798003107980042079800ae00900024
:1042ec002e0090000089b900be0090003e009000a6
:1042fc000088b9000201400083814800ce00900084
:10430c004e0090000088b9000200400083804800f5
:10431c00008fbe001e00be0080ff07000080fa0068
:10432c00000006000600fa0010079800210798000c
:10433c002e0090000080e800900078002e00900085
:10434c0010007800d1ff0700000f78001e00e0007d
:10435c001a0032001e0178002e00900090007800a8
:10436c00000024000180b900801f780011000900b2
:10437c004208d800800078004f0078001e009000a2
:10438c00010878001e0090000081e8009e01780072
:10439c002e0090000080e8009000780000002400bf
:1043ac000180b900811f7800110009004308d80072
:1043bc00cf00780000097800070037001e0090003d
:1043cc008080e8000000eb00800878009100780005
:1043dc001e009000010878001e0078000080fa0092
:1043ec00000006000600fa0010079800210798004c
:1043fc002e00900064004000100178002e00900008
:10440c000080e800900078002e00900010007800ea
:10441c00aeff0700000f78001e00e00027003200fe
:10442c001e0178002e0090009000780000002400ff
:10443c000180b900801f7800110009004208d800e3
:10444c00800078004f0078001e0090000108780072
:10445c001e0090000081e8009e0178002e00900064
:10446c000080e80090007800000024000180b90072
:10447c00811f7800110009004308d800cf00780094
:10448c00000978001e009000640140009e01780035
:10449c002e00900064004000900078000000240082
:1044ac000180b900811f7800110009004308d80071
:1044bc00cf007800000978000b0037001e00900038
:1044cc000081e8001e009000e40040000000eb00ba
:1044dc0080087800110078000009780092007800bc
:1044ec001e009000010878001e0078000080fa0081
:1044fc00000006000000fa00f005200020108800e3
:10450c0007e2a800c10a200091407800f0c8b3006f
:10451c0000c0600001c5b30001407000ace0b70002
:10452c008620a9009620a8000040eb0062ebb700a3
:10453c000080fa00000006000000fa00c05b2200b8
:10454c00205b880040108000b05b880007e2a90067
:10455c008620a9009620a900cb22a900cbc2bf00bf
:10456c000080fb000000d1006140600061416000f0
:10457c00b12c200091407800e0cfb30000c0600067
:10458c0002407000cbe2b70000000000cb22a80074
:10459c00cbc2bf000080fb000000d1006140600076
:1045ac0061416000b12c200091407800e0cfb30055
:1045bc0000c0600002407000cbe2b700cdff0700e6
:1045cc000080fa00000006000000fa00a05b8000ea
:1045dc00280d07000080fa00000006000000fa0019
:1045ec0007c2bf0001c8b300014060000004e00036
:1045fc0003003a00c05b2200205b8800bdff07006f
:10460c000080fa00000006003600f800809fbe0013
:10461c00829fbe00849fbe00869fbe000000fa00f1
:10462c0021e1a8004400f800e05e80002002880030
:10463c008620a900205b8000000001004400f900e6
:10464c000080fa004f03be004f02be004f01be00b7
:10465c004f00be003600f900004006000200fa00d0
:10466c0007c2bf0001c8b300014060000004e000b5
:10467c0003003a000000eb00000f78001600370032
:10468c00301080007f0060000000e00005003a0060
:10469c0040108000114c2400010060000000e0007c
:1046ac00030032000000eb00000f78000a00370016
:1046bc0062cbbf00e14f500003003a000000eb005a
:1046cc00000f78000400370010c0b30062ebb70095
:1046dc0010002000000f78001e0078000080fa0007
:1046ec00000006000200fa00301080007f0060001d
:1046fc000000e00008003a0040108000114c24003b
:10470c00010060000000e00003003a0010002000ef
:10471c00000f78000400370040108000b05b880068
:10472c000000eb00000f78001e0078000080fa00fb
:10473c00000006000e00fa00004f780011079800e8
:10474c004247980033079800440798005507980093
:10475c00c2ff07000004e00003003a000000eb0079
:10476c0060079800140037005e009000f05a880033
:10477c004e4090000080fb00705b88001e00900093
:10478c00905b88001e40780068ebb7003e009000fc
:10479c00805b88004e009000505b88000000eb00ae
:1047ac00605b8800a0462200205b88008620a80061
:1047bc0010002000600798006e0090000080fa0046
:1047cc00000006000e00fa00004f78001107980058
:1047dc004247980033079800440798005507980003
:1047ec009eff07000004e00003003a000000eb000d
:1047fc0060079800140037005e009000f05a8800a3
:10480c004e4090000080fb00705b88001e00900002
:10481c00905b88001e40780068ebb7003e0090006b
:10482c00805b88000000eb00505b88004e0090001d
:10483c00605b8800a0462200205b88008620a800d0
:10484c0010002000600798006e0090000080fa00b5
:10485c00000006000600fa00000f7800110798000f
:10486c007eff07000004e00003003a000000eb00ac
:10487c0020079800110037001e009000f05a8800a5
:10488c000000eb00705b88001e00780068ebb7003e
:10489c000000eb00805b88000000eb00505b8800a0
:1048ac000000eb00605b8800a0462200205b8800c3
:1048bc008620a80010002000200798002e009000f1
:1048cc000080fa00000006000000fa000000eb0077
:1048dc00305b8800a0472200205b88000602a800fd
:1048ec000080fa00000006000000fa00e0482200f8
:1048fc00205b880068cbbf008080fb00e00f2000ad
:10490c0000806000101088000080fa000000060093
:10491c000000fa0009c2bf0001c8b30001406000ea
:10492c000004e000020032009e0007001c0037006b
:10493c00705b80000000e00002003a0039000700c4
:10494c0017003700325b800082007800905b80009b
:10495c0000804000104078000080fb0010108800a0
:10496c000200e800305b8800315b8000705b8000e7
:10497c00808f50000a0039000000eb00305b88008b
:10498c00605b80000000e00003003200a0532200b6
:10499c00205b880002003700a04d2200205b8800bd
:1049ac000080fa00000006000000fa0009c2bf00f7
:1049bc0001c8b300014060000004e00002003200b6
:1049cc007800070015003700325b80008200780009
:1049dc00805b800000804000104078000080fb006d
:1049ec00101088000200e800305b8800315b80000a
:1049fc00505b8000808f500008003900605b8000a5
:104a0c000000e00003003a0080512200205b880087
:104a1c0002003700a0532200205b88000080fa00bf
:104a2c00000006000000fa0040522200205b8800c3
:104a3c000642a8000080fa00000006000000fa0000
:104a4c000040eb0062ebb700f05a80000000e00081
:104a5c0003003200f15a800010c0b30001000100c5
:104a6c000080fa00000006000000fa000000eb00d5
:104a7c00305b8800a0542200205b88000602a8004e
:104a8c000080fa00000006000000fa00c055220069
:104a9c00205b880068cbbf000004a0000080fb00f6
:104aac00101088000080fa00000006000000fa00d8
:104abc0009c2bf0001c8b300014060000004e0005f
:104acc000200320037000700030037002058220094
:104adc00205b88000662a8000080fa000000060037
:104aec000000fa0020582200205b88000662a80013
:104afc000080fa00000006000000fa00325b800023
:104b0c0082007800805b8000808040000010800074
:104b1c00804878000200e800305b8800315b800040
:104b2c00605b8000808f500004003900005b220025
:104b3c00205b880006a2a800030037006057220003
:104b4c00205b880006a2a9000682a8000080fa005b
:104b5c00000006000000fa000642a800205c2200bb
:104b6c00205b88000080fa00000006000000fa00bc
:104b7c000080fa00000006000000fa000040eb0084
:104b8c0062ebb700f05a80000000e0000300320036
:104b9c00f15a800010c0b300010001000080fa003f
:104bac00000006000000fa00c05b2200205b8800b9
:104bbc000642a8000040eb0062ebb700f05a800000
:104bcc000000e00003003200f15a80000040eb00ce
:104bdc00010001000080fa00000006000000fa004d
:104bec00d082a900d0a2a800416a20009140780090
:104bfc0000ceb30000c060005041b300a4e6b70083
:104c0c00416d20009140780000ceb30000c06000e0
:104c1c003040b300d4e6b70021e2a90021a2a900dc
:104c2c002182a9002162a900112220009140780064
:104c3c00c0cfb30000c0600021e2b70020e2a900a1
:104c4c0020c2a90020a2a9002082a9002062a800ed
:104c5c00012220009140780090cfb30000c060008a
:104c6c0020e2b7002002a90023e2a90023c2a90078
:104c7c0023a2a8002362a90022c2bf00f043b20005
:104c8c0022e2b70022a2a9002222a900a10a200038
:104c9c009140780080cfb30000c060000024a000d9
:104cac00aae0b700910a200091407800f0c8b30048
:104cbc0000c0600001c4b30001407000a9e0b7005f
:104ccc008580a9009580a8008560a9009560a80042
:104cdc0021e2a8002342a8000080fa000000060090
:104cec000400fa00008fbe001e00be004209dd0069
:104cfc00ce01de00830171004201dd0000a0250021
:104d0c0021262000a1f207000000e900c011880054
:104d1c000080fa00000006000600fa00008fbe00ba
:104d2c001e00be004209dd00ce01de0083017100d1
:104d3c004201dd0000a025002126200093f207008f
:104d4c000000e90080007800c01180000001eb0039
:104d5c0022079800808f500002003a0010002000bb
:104d6c00200798002e0090000080fa00000006003a
:104d7c000000fa0087e0a8000080fa00000006009e
:104d8c003600f800809fbe00829fbe00849fbe004c
:104d9c00869fbe000200fa0021e1a8004400f80042
:104dac00e05e8000200288008580a900080c0700c6
:104dbc00000f78000080eb009e0f10000300320003
:104dcc001e0078000080fb00201188004400f900d0
:104ddc000080fa004f03be004f02be004f01be0020
:104dec004f00be003600f900004006003600f80007
:104dfc00809fbe00829fbe00849fbe00869fbe0027
:104e0c000200fa0021e1a8004400f800e05e8000f6
:104e1c00200288000400370030118000004f780019
:104e2c001e407800fc0b070022c2bf0061406000ee
:104e3c000004e000f8ff3a002222a9008560a900d6
:104e4c004400f9000080fa004f03be004f02be0080
:104e5c004f01be004f00be003600f90000400600b6
:104e6c000000fa00c842a800c862a900616a2000cc
:104e7c009140780000ceb30000c060000014a00088
:104e8c00a6e6b700316c20009140780000ceb3004c
:104e9c0000c060005040b300c3e6b70031e2a90087
:104eac0031a2a9003182a9003162a900112320008e
:104ebc0091407800c0cfb30000c0600031e2b70071
:104ecc0030e2a90030c2a90030a2a9003082a900aa
:104edc003062a800012320009140780090cfb300ed
:104eec0000c0600030e2b7003002a90033e2a90034
:104efc0033c2a90033a2a8003362a90032c2bf009a
:104f0c00f043b20032e2b70032a2a9003222a9006b
:104f1c00310b200091407800f0c8b30000c0600055
:104f2c0001c4b30001407000b3e0b700310b2000a6
:104f3c009140780080cfb30000c060000024a00036
:104f4c00b3e0b70087e0a90097e0a80087c0a900ec
:104f5c0097c0a80031e2a8003342a8000080fa00f4
:104f6c00000006000400fa00008fbe001e00be0008
:104f7c004209dd00ce01de00830171004201dd003b
:104f8c0000a025002126200000f207000000e90007
:104f9c00401188000080fa00000006000600fa00ac
:104fac00008fbe001e00be004209dd00ce01de00f7
:104fbc00830171004201dd0000a0250021262000a4
:104fcc00f2f107000000e900800078004011800039
:104fdc000001eb0022079800808f500002003a007d
:104fec0010002000200798002e0090000080fa008e
:104ffc00000006000000fa008580a8000080fa007e
:10500c00000006003600f800809fbe00829fbe00a4
:10501c00849fbe00869fbe000200fa0021e1a8001a
:10502c004400f800e05e80002002880087e0a900c0
:10503c00b9020700000f78000080eb009e0f1000f3
:10504c00030032001e0078000080fb00a0118800d5
:10505c004400f9000080fa004f03be004f02be006e
:10506c004f01be004f00be003600f90000400600a4
:10507c003600f800809fbe00829fbe00849fbe0059
:10508c00869fbe000200fa0021e1a8004400f8004f
:10509c00e05e80002002880004003700b011800020
:1050ac00004f78001e407800b502070032c2bf00e6
:1050bc00614060000004e000f8ff3a003222a900d1
:1050cc0087c0a9004400f9000080fa004f03be001d
:1050dc004f02be004f01be004f00be003600f9006b
:1050ec00004006000e00fa00005f80000104200062
:1050fc00010060000000e000da0032000251800084
:10510c001351800051428000303220000180b900e0
:10511c000200400083804800005188001151880033
:10512c0022518000335180006142800030322000d7
:10513c000180b900020040008380480020518800a3
:10514c0031518800425180005351800071428000df
:10515c00303220000180b9000200400083804800fa
:10516c004051880051518800a2508000b3508000fb
:10517c0011518000601020000180b9004c0add0044
:10518c004400de0000007200c488de000200400013
:10519c0083804800a0508800b1508800c250800025
:1051ac00d350800031518000601020000180b90084
:1051bc004c0add004400de0000007200c488de00f2
:1051cc000200400083804800c0508800d150880005
:1051dc00e2508000f350800051518000601020009c
:1051ec000180b9004c0add004400de0000007200b2
:1051fc00c488de000200400083804800e050880034
:10520c00f1508800305080000000e0005e00340057
:10521c00305080000000e9003050880002518000be
:10522c0013518000b1518000f02820000180b9009a
:10523c000200400083804800005188001151880012
:10524c002251800033518000c1518000f028200091
:10525c000180b90002004000838048002051880082
:10526c00315188004251800053518000d15180004f
:10527c00f02820000180b900020040008380480023
:10528c004051880051518800a2508000b3508000da
:10529c0081518000f02820000180b90002004000fc
:1052ac0083804800a0508800b1508800c250800014
:1052bc00d350800091518000f02820000180b9006b
:1052cc000200400083804800c0508800d150880004
:1052dc00e2508000f3508000a1518000f0282000a3
:1052ec000180b9000200400083804800e050880033
:1052fc00f1508800025180001351800081518000d0
:10530c00400620000088b900800078006066260006
:10531c000180b800020040008380480040508800a3
:10532c0051508800225180003351800091518000ef
:10533c00400620000088b9008000780060662600d6
:10534c000180b80002004000838048006050880053
:10535c00715088004251800053518000a15180004f
:10536c00400620000088b9008000780060662600a6
:10537c000180b80002004000838048008050880003
:10538c0091508800130037000000eb00f0438800b8
:10539c00f0438000e0438800e0438000d043880065
:1053ac00e0aba900005180001151800040508800f2
:1053bc00515088002051800031518000605088008d
:1053cc0071508800405180005151800080508800fd
:1053dc0091508800e20607000004e0003c00320017
:1053ec00005f800001082000010060000000e00068
:1053fc0037003200e0eba900c002200030508800da
:10540c0031568000b05080000080500080518800e0
:10541c0041568000d0508000008050009051880090
:10542c0051568000f050800000805000a051880040
:10543c00615680001051800000805000b0518800ef
:10544c00715680003051800000805000c05188009f
:10545c00815680005051800000805000d05188004f
:10546c001b0037006000b800005188001151880003
:10547c006000b80020518800315188006000b800ed
:10548c0040518800515188006000b800405088009d
:10549c00515088006000b80060508800715088003e
:1054ac006000b80080508800915088006000b800ff
:1054bc00a0508800b15088006000b800c05088002f
:1054cc00d15088006000b800e0508800f15088008e
:1054dc0051508000c05c8000008050002007980074
:1054ec0071508000d05c8000008050001007980044
:1054fc0091508000e05c8000008f50001e0178000d
:10550c009e0090002e00900070fb070060518800f8
:10551c00ae009000503f29000008b90030079800f9
:10552c0041079800ce0090004e0090000180b90019
:10553c0050079800610798009e009000503f29008a
:10554c000008b90030079800410798005e019000f0
:10555c00ee019000ce0090004e0090000180b9004a
:10556c0002004000838048005007980061079800b3
:10557c00503f29001e0178000010b9003007980038
:10558c00410798005e019000ee019000ce00900063
:10559c004e0090000180b90002004000838048005a
:1055ac0050079800610798005e019000ee01900092
:1055bc00e0508000f15080000200400083804800e1
:1055cc0050079800610798006e0090007051880099
:1055dc000080fa00000006003c00fa00005f80002a
:1055ec0001802000010060000000e0002f013a0063
:1055fc0061568000700047000108780071568000e9
:10560c007000470011009800815680007000470020
:10561c0021009800804080008000ea0020022000d9
:10562c000e00400001087800b140800020022000ec
:10563c000e00400011009800e04080008000ea005d
:10564c00200220000e004000210098000000eb001a
:10565c007007980053003700fe0190007e00900008
:10566c00f000470000004000608078000081d1000d
:10567c00f00047000380410002b07800fe0190006a
:10568c007e009000210220008e804000000040002f
:10569c00608078000081d100210220008e804000c3
:1056ac000380410002b07800fe0190007e00900063
:1056bc00f000470000004000608178007e00900000
:1056cc0080004000c0b8200000804000100078002e
:1056dc0000014100f60047000380410002b0780051
:1056ec00fe0190007e009000f0004700000040009a
:1056fc00608178007e00900080004000c0b82000df
:10570c00008040001000780000015100fc004700b0
:10571c000380410002b07800fe0190007e009000f2
:10572c00210220008e804000000040006081780043
:10573c007e0090008000400020b9200000804000d6
:10574c001000780000014100810220008e80400092
:10575c000380410002b07800fe0190007e009000b2
:10576c00210220008e804000000040006081780003
:10577c007e0090008000400020b920000080400096
:10578c001000780000015100e10220008e804000e2
:10579c000380410002b078007e0090000000e80019
:1057ac00700798007e009000e20f5000aaff3400b2
:1057bc00e00220000e00400010007800401f98000e
:1057cc00e00220000e00400010009000501f9800d6
:1057dc00800320000e00400053f90700704798002a
:1057ec007c00470010007800401f98007c004700a8
:1057fc0010009000501f9800800320000e00400005
:10580c0049f90700004f98008e4890007e409000a8
:10581c0000c05000604798006e40900006f90700e9
:10582c00200798006e4090007ff807001007980042
:10583c00e00220000e00400020019000e002200059
:10584c000e00400090009000e00220000e0040008e
:10585c00100078009dfa0700500798007c00470064
:10586c00200190007c004700900090007c004700d5
:10587c001000780095fa070060079800de00900091
:10588c00c0cc2000808f5000880036006e00900045
:10589c004200de00301f98000000eb00201f980033
:1058ac002e189000be1890005e019000811f7800a9
:1058bc00110009004288d800cf007800000f780052
:1058cc00800220000e004000900078002e00900016
:1058dc000181b900800220000e0040009000900071
:1058ec001e0090000180b900000051008180590019
:1058fc004209dd00ce00de00810071004200dd00b7
:10590c00201f9800311f9800be1890001e007800d0
:10591c000180b8004209dd00ce00de00810071007c
:10592c004200dd00201f9800311f9800c25c8000ef
:10593c0076004700900078003e1890008080500060
:10594c00c05c8000008050004480de0000004100fc
:10595c00c05c8800800220000e004000900078009f
:10596c001e0090000181b900800220000e00400052
:10597c00900090002e0090000180b90002004000c1
:10598c00838048004209dd00ce00de0081007100fa
:10599c004200dd00201f9800311f9800be189000b7
:1059ac001e0078000180b8004209dd00ce00de0048
:1059bc00810071004200dd00201f9800311f98000b
:1059cc00d25c800076004700900090003e1890005a
:1059dc0080805000d05c8000008050004480de004d
:1059ec0000004100d05c8800800220000e004000c6
:1059fc00a00090001e0078000180b8004209dd0074
:105a0c00ce00de00810071004200dd00201f9800f6
:105a1c00311f9800e25c800076004700a0009000e7
:105a2c003e18900080805000e05c800000805000a8
:105a3c004480de0000004100e05c88000000eb00c8
