:020000040000fa
:080000000002040000000000f2
:020000040000fa
:10040000ef4922000eff27000e01880000000000c7
:100410000c00070020a525000100200011000700a6
:10042000000020000000e000020032000000020096
:1004300000000000f25c0200000000000040da0052
:100440000000fe004440a900a03920000000e000a8
:100450000300320000002000a00188004440a800f2
:100460000000060091018800800078000000eb0089
:1004700015003700e280400032a0b4009101ba00bc
:10048000e280400032a0b4009102ba00e280400055
:1004900032a0b4000002eb00472bde00f507b200eb
:1004a000602ce10004003a000059eb008301e900f0
:1004b000fdff3e00040037006128e100010032002a
:1004c0000082eb00040007001101ba000200e00006
:1004d000e8ff3a00000006003159ba008301e90044
:1004e0000c0032002159ba008301e90008003200f3
:1004f0000400e00003003a00e280400032a0b400b3
:10050000f5ff370011d9ba008301e900faff3a007c
:100510008100e800e180400032a0b4000000060045
:10052000e46004000000000000610400000000001e
:10053000d260040000000000106104000000000010
:10054000266104000000000050610400000000006b
:100550008a61040000000000b06104000000000097
:10056000b8020400000000000040da000000fe00b5
:10057000889fbe000004780090049000828f540091
:100580000100390082047800180078000901780021
:10059000940c0700188c44001800900009005000cb
:1005a00010049800080078004f04be000000060008
:1005b0000400fa002fb997000100e00005003a009e
:1005c000648057000080e800e0bf9f00f1bf9f00fb
:1005d00003003700e0bf9f000100e900f0bf9f006b
:1005e000ec815700e4805700802b200004000700b6
:1005f000efb897008048eb000080fa00000006008a
:100600006200fa00889fbe008a9fbe000004be0000
:10061000020578008300780060f92f000f00400089
:10062000240f070088979f0099979f000000eb0018
:10063000a09f9f009a4578000b80fb000000ea0015
:10064000cf04de0050c2b30080cf5500020032005c
:1006500009047800010037000904e9000800e000ff
:100660000b0034001f909700080178008a00780082
:100670008f9197000300010090979f000000e00019
:10068000930032002f98970000004400a09f9f0025
:100690000905450050c2b30080cf55000400320068
:1006a0000b04e000e3ff3a002f9897008900370021
:1006b0000000eb00809f9f00f0979f00e0979f0055
:1006c000d0979f00c0979f00b0979f00c09f9f004a
:1006d00009003700a04722000080500000004000c1
:1006e000e1462200e10078004f9897000100700079
:1006f000c09f9f000a05e8001a4478008800fb00ac
:10070000a04722006d0c0700800078000000e00088
:10071000f0ff3a00a0c2b300804f54000e003a0030
:10072000bf8897000180e900b08f9f00100078001b
:10073000b09f9f000000e00005003d000000ea00bf
:10074000b09f9f004f9897000020a000c09f9f007f
:100750000a05e80010003700b19f9f0003fd2f003d
:10076000f4ff2700080037003f989700840f5000df
:10077000040032006a00b90000004100030040009c
:10078000b09f9f000a05e8001a01fb00030041002a
:10079000e90f5000f4ff3600e0c2b3009a4f10009a
:1007a000040032000080eb00909f9f008a047800d4
:1007b0001c0037008a04e800a0c2b300994f100063
:1007c00007003a00bf8897000180e900b08f9f00c2
:1007d00010007800909f9f008a84e8001100370085
:1007e0000000eb00909f9f0003fd2f00f4ff270007
:1007f000080037001f989700840f50000400320053
:100800006a00b9000000410003004000909f9f0073
:100810008904e8001901fb0003004100e90f5000c2
:10082000f4ff3600194478008800fb0000492200dc
:10083000220c07000000e00002003a0000447800ab
:10084000010037008904e800a87f9f0080c6b3003c
:10085000804f540004003a00994f14000a003a00f7
:100860006640500006003700c0c6b300804f5400f9
:1008700005003a00994f140003003a00654040001b
:10088000a07f9f008904e8000905e800cbfb2f004a
:100890008b8547001901fb0060f92f000f00400015
:1008a0000084e8008b017800800078000800780060
:1008b0000c0007000000e00005003a008b00780003
:1008c00008007800bd0d07000000e00059ff3d0062
:1008d0000080eb004f05be004f04be000080fa0010
:1008e00000000600889fbe008a9fbe0000047800ba
:1008f0000102780082447800030578008205fb003d
:1009000070c6b300804f51001a003c0000c0e900df
:10091000804f5100d6003d006d405000804f510087
:10092000800032000b003c0071405000804f5100ad
:1009300042013c0000c0e900804f5100cc003d0066
:1009400050c2b300804f5100390132007c4040005a
:100950000500370030c6b300804f51001a00320046
:100960001e003c0000c0e90080cf540033013a0073
:10097000bf003700f0c6b300804f5100690032005d
:1009800007003c0066405000804f510013003200c9
:1009900065404000804f510028013a00df003700d9
:1009a00050c7b300804f51005e00320063404000ea
:1009b000804f51005b00320068405000804f510072
:1009c0001e013a000b0137009180e900010a78000e
:1009d00078009000917178001e013700a8609000a7
:1009e000c0c6b30080cf50000a003a0094007800df
:1009f00064805000000a78001000be004f89de00bd
:100a0000cf91de000002be0002037800820378006e
:100a10001300370010c7b30080cf5000030032002e
:100a2000a0c6b30080cf500006003a0094007800c2
:100a300068805000000a78003002be002003be002b
:100a4000070037001480e900000a780010007800e1
:100a500000027800cfa2de0005037800860378004c
:100a6000049cbe000694be00a860900080c6b3003f
:100a700080cf50000e00320020c6b30080cf50005f
:100a800005003a000400fb00cf80de000101780081
:100a9000820178000a00370040c7b30080cf5000c1
:100aa000030032006640400080cf500006003a004c
:100ab00004007800cf80de00010178008201780018
:100ac000009cbe000294be003800be002801be009b
:100ad000e00f5000e08f5800e00f5900e08f590000
:100ae00003003d0078009000d1c2b3000a00370037
:100af000081090000018a300030032007800900056
:100b0000b1c2b300040037000008a3005300320054
:100b10007800900001c2b300017578000000e80081
:100b20004d003700a8609000c0c6b30080cf5000d1
:100b300006003a009400780064805000000a7800b3
:100b40001002be006033b8001300370010c7b300b6
:100b500080cf500003003200a0c6b30080cf500009
:100b600006003a009400780068805000000a78007f
:100b70003002be002003be00070037001480e900e9
:100b8000000a7800100078000002780005002000bc
:100b90000600200007002000049cbe000694be0052
:100ba000a860900080c6b30080cf50000e003200d5
:100bb00020c6b30080cf500005003a000480fb003f
:100bc0000100200002002000030020000a0037007e
:100bd00040c7b30080cf50000300320066404000a1
:100be00080cf500006003a00040078000100200089
:100bf0000200200003002000009cbe000294be0002
:100c0000081090000038a300140032003800be0025
:100c10002801be00e00f5000e08f5800e00f59009f
:100c2000e08f59000d00320080c7b30080cf540020
:100c30000300320080c5b30080cf540007003a00a3
:100c40007800900001c3b300017578008000e800cf
:100c500009f578000080e8007004980078009000a2
:100c60000000450060049800894078006d0037005e
:100c7000a8609000c0c4b30080cf500006003a00c6
:100c80009400780068805000000a78005001be008f
:100c90004000be00050037009400780064805000da
:100ca000000a78001000be007c0e0700009cbe0009
:100cb0000294be00380090000000e00003003d00f8
:100cc00078009000d1c2b3000a00370008109000ed
:100cd0000018a3000300320078009000b1c2b300f6
:100ce000040037000008a3000500320078009000df
:100cf00001c2b300017578000000e800700498009c
:100d00007800900000004500600498008b00780097
:100d1000080078005500070050003700a8609000d8
:100d2000c0c6b30080cf5000250032000a003c004e
:100d30006440500080cf50002800320000c0e8001e
:100d400080cf5000140032006840500080cf500027
:100d500022003a000a00370040c7b30080cf50009d
:100d60001e0032006640400080cf50001b00320061
:100d70006940500080cf500018003a00060037004c
:100d80001480e900000a780010007800485c9000a8
:100d900008487800310037001480e900000a780024
:100da0001002780068089000cf80de000101780012
:100db00082017800009abe000292be002700370030
:100dc0001480e900000a780010017800680890009b
:100dd000cf80de000089be00200037001480e900cb
:100de000000a780010007800680c9000080878006d
:100df0001a0037001180e9008008780010007800a0
:100e0000cf80de000101780082017800009cbe00e6
:100e10000294be0078009000000045006004980035
:100e200081c7b30008007800d90a07000b0037001b
:100e30007800900002757800060037007800900076
:100e4000800045000904e00001003a0059c2b300e7
:100e5000894878000000e800700498000000eb006a
:100e60004f05be004f04be0000000600cf03b000d7
:100e7000889fbe008a9fbe008c9fbe008e1f780098
:100e8000e0b79f00e1ef9f003004be002005be00e8
:100e9000500890000000e00003003d0060002000ca
:100ea000efb09700d0089800efb0970080fb2f00bc
:100eb0000f0040008a0a0700e20f50000d003a00c0
:100ec000300020006fb1970010099800b0c9b3003e
:100ed000efe9970000c0410001482200e14f5000b7
:100ee00001003600414822006fb297006400900074
:100ef0000e0037000000e000100034003000200039
:100f0000efb29700900a9800b0c9b300efe89700dd
:100f100000c0400081482200e14f5000010036002f
:100f2000c14822006fb197006200900031587800ec
:100f30003158780011487800e90037000000e000df
:100f400005003a0082fb2f000f01410000197800d4
:100f500080027800dc0037006022b8006033b800ff
:100f60000800be000a01be00230d07000000e000db
:100f700001003d000bf0a2004f9897007259270026
:100f80000280b900026a2800130020000609070049
:100f9000e4005000c19f9f0015003b00e38010005b
:100fa000c0ff2f00008660008c01ea00c39f9f00f5
:100fb0004d4022000b0037000c08a3000700320050
:100fc0003d02be002d03be000800be000a01be00a7
:100fd000000e07000004be000205be000c86d10012
:100fe000e88646000c00e000f3ff3c001b003700e1
:100ff0000100e00019003400c0ff2f0000806000f5
:10100000c09f9f00000678006000b800020020002a
:1010100003ff23004d402200070037000c08a30007
:10102000030032003d02be002d03be00e90d0700a3
:101030000c86d100e88646000c00e000f7ff3c007b
:101040000002be000203be000800be000a01be008e
:10105000f30c07000004be000205be006fb297004b
:101060005409900060c6b300efea970080cf5200a9
:10107000040032006100200060c4b30080cf520041
:1010800002003a004f989700ea0040000101410039
:10109000d2b79f00f30f510002003400310120004d
:1010a000d1b79f0000c3b300a07f9f00b2fb2f0009
:1010b00002874700320037000800be000a01be0068
:1010c000950d07000006be00dfb19700e8815100d2
:1010d000d3b79f004240a9000c003400ba0d0700ae
:1010e0000002be000203be000800be000a01be00ee
:1010f0002d0e07006022b80046782d0077192400d5
:10110000b40d07000004be000205be0068074700da
:10111000860020000e003700a400200005002000fb
:101120000c01be007e80570086bf9f00c6090700e5
:101130001fb09700afb097003fb19700cfb19700b5
:1011400004c3b300046741000006be000fbb970054
:10115000e00f5600e08f5e00060034000603e90051
:10116000e10f4300ecff3a000200370000c3b30078
:10117000006778000603e900fcff3b0068074700b2
:10118000dfb297000500e000070034006022b800dd
:101190006033b8000800be000a01be009b0c0700c7
:1011a0000000e000c4ff3c00a1fb2f0001804700cd
:1011b000000057000002e9004f999700e700410046
:1011c000b3fb2f000381470000c3b30003003700c7
:1011d0000402e9008100e9000201e800924f1000da
:1011e000fbff3200c19f9f00efb29700d50990002e
:1011f00060c6b300efea970080cf520003003200d0
:1012000060c4b30080cf520002003a008100e800c1
:101210000a00370050c6b300efe8970080cf5000b7
:10122000050032008000eb0050c4b300efea9700e5
:1012300080cf520001003a0011002000818241005d
:10124000850f520001003d00840278000500e00097
:101250001d003500848f520005003d00e2c07a0079
:1012600096c3b30040c3b30080cf500001003c00e0
:1012700006c3b300050041008000e9008501780045
:10128000010037008100e9008301e9001142780084
:10129000864f5200fbff32008302e80090c3b30088
:1012a000804f530001003a008448e8000300e0004a
:1012b00005003d000201e9008502e8004f98970013
:1012c0000000e800c09f9f00efe997008300fb004b
:1012d0004f9a9700850178006fb0970006000700cd
:1012e0004f0778004f06be004f05be004f04be00fa
:1012f000cf03b100000006000e00fa00889fbe0078
:101300008a9fbe008c9fbe00000478008145780053
:101310008206780083047800040678000300e00069
:1013200002003c00190020008d49220060c6b30075
:1013300080cf55000e00320060c4b30080cf55004e
:101340000b00320070c6b30080cf5500030032009e
:1013500070c4b30080cf550082003a00e40f46000d
:101360008000350058089000800f56007d003d0039
:101370000c05e80060c6b30080cf550010003200b5
:1013800060c4b30080cf55000d00320008109000fb
:101390000038a30004003a0058089000808f5400e1
:1013a00001003d00590c9800580890000a005000b8
:1013b000500c980002003b000000eb00500c98001d
:1013c0000a00e00027003c00180990006800900027
:1013d00001c3b300017079008201e800130c98008a
:1013e000580890000000e00003003c000810900046
:1013f0000038a3000500320068009000e1c2b3008d
:1014000001f079000280e800100c9800d8089000e4
:101410000a00ea00808f500001003d000105ea004b
:101420000a00ea00200c980001004500500c9800ca
:10143000890f500001003d0080047800390c9800ad
:1014400068009000980890000100400009017800b1
:101450008d007800e308070058089000090050004c
:101460001a00370098089000680090008a8f540096
:1014700018003d0001004000090178008d0078004f
:10148000d80807001808900000814400120c98004a
:1014900009005500200c9800580890000000e0005a
:1014a00003003c00081090000038a3000600320042
:1014b000e8009000e0c2b300807079003808900026
:1014c0000000e800300c980058089000400c98008c
:1014d00079003700010040000a0178008d00780093
:1014e000c00807001808900000014500120c980081
:1014f0008a845400580890000000e00003003c007b
:10150000081090000038a300050032006800900029
:10151000e1c2b300017079000200e800100c9800ed
:1015200058089000890f500001003d0080047800a9
:101530006800900098089000010040008a804600f2
:1015400009017800a70807001808900000804400ef
:10155000100c98005808900009005000200c9800ca
:101560005500370018099000680090003d70790020
:101570008201e800130c98000d02780058089000d2
:101580000000e00003003c00081090000038a300b9
:1015900017003200e8009000e0c2b30080f079004c
:1015a0008280e800110c9800580890000000e000cc
:1015b0000f0034008904e900890f500001003d004c
:1015c00080047800680090000080400009017800e5
:1015d0008400780083080700180890000080440009
:1015e000100c98005808900009005000200c98003a
:1015f0006800900098089000010040000085e80015
:101600000b587800800078000c00e00004003500e2
:10161000b0c2b300804878008a0578000400370023
:10162000d0c2b300804878008a0578000c06ea0032
:101630008004eb000a003700a20020008c00780034
:1016400070805700750807000fb897009fb8970083
:101650007a81540001f17f008904e80000067800d7
:101660000c00e000f4ff3c000900e0000400320040
:101670000900e900fa8057000080400007003700a9
:1016800000c3b300005d78008a05780005003700cc
:101690008904e90002c3b300a05d41000900e00035
:1016a000fbff3c006800900098089000010040009b
:1016b00000805500300c9800081090007400600005
:1016c000f00f50000e003a0078009000980890004b
:1016d00001004000a808900001004000b8089000f8
:1016e00001004000c8089000810040007808900088
:1016f000808f500002003d0001005000000c980057
:101700004f06be004f05be004f04be000080fa0029
:10171000000006000100b8000000e9004400f800e5
:10172000010f20002102880082007800008008005c
:1017300004000000b30278000500ca00b40278007b
:101740000500c9003200cc00010078004400f90017
:1017500000000600889fbe008a9fbe008c9fbe00ce
:101760004400f8000d0f20002d0288008306780049
:101770000106e9008205e900818040000201410084
:101780000000e90010003500050578000b80080016
:101790000a000000040478008a0478001201c300e3
:1017a0000c800800030000003803780099037800db
:1017b0001201c600828444003300cd000a85e8008f
:1017c00001024200eeff37000d0078004400f900ee
:1017d0004f06be004f05be004f04be0000000600cd
:1017e0004400f800040f2000240288000102780061
:1017f0000000e9000080080004000000b202780048
:101800000500ca00b30278000500c9003100cc0011
:10181000040078004400f900000006004400f800cd
:10182000040f2000240288000000e9001201c30018
:10183000008008000200000031027800b202780047
:101840001201c0000000cd004400f90000000600b5
:101850004400f800040f200024028800811f780053
:101860000000e90000800800030000003202780058
:10187000b30278001301c0003100cd004f007800a2
:101880004400f900000006004400f800020f2000a8
:10189000220288000000e9001201c3000080080055
:1018a00001000000310278001001f0000000cd00be
:1018b0004400f900000006004400f800040f200076
:1018c00024028800811f78000000e90003027800ec
:1018d0000080080002000000b20278001301c0007e
:1018e0003100cd004f0078004400f90000000600f0
:1018f00006000700070008000800090009000a00a8
:101900000a000b000b000c00fc000d000d000e0087
:101910000f000f0010001000110001000200020073
:101920000300030004000400050005000600060093
:101930000700070008000800090009000a000a0063
:101940000b000b000c000c000d000d00fd000e0044
:101950000f00100010001100110012000100020021
:101960000200030003000400040005000500060057
:1019700006000700070008000800090009000a0027
:101980000a000b000b000c000c000d000d000e00f7
:10199000fd00fe000f0010001100110012001200e7
:1019a000130002000300030004000400050005000a
:1019b00006000600070007000800080009000900eb
:1019c0000a000a000b000b000c000c000d000d00bb
:1019d0000e000e000f000f00fd00fd00fe001200c3
:1019e0001200130013001400140002000200030090
:1019f00003000400040005000500060006000700bf
:101a0000070008000800090009000a000a000b008e
:101a10000b000c000c000d000d000e000e000f005e
:101a20000f00fe00fe00ff00ff0012001300130075
:101a30001400140003000300040004000500050066
:101a4000060006000700070008000800090009005a
:101a50000a000a000b000b000c000c000d000d002a
:101a60000e000e000f000f001000100011001100fa
:101a7000fe00fe00ff00ff0000001500150016002c
:101a8000160017000300040004000500050006000e
:101a900006000700070008000800090009000a0006
:101aa0000a000b000b000c000c000d000d000e00d6
:101ab0000e000f000f0010001000110011001200a6
:101ac0001200fe00fe00ff00ff00000001001600f3
:101ad00017001700180003000400040005000500ab
:101ae00006000600070007000800080009000900ba
:101af0000a000a000b000b000c000c000d000d008a
:101b00000e000e000f000f00100010001100110059
:101b10001200120013001300fe00fe00ff00ff0081
:101b200000000000010002001800190019001a004e
:101b30000400050005000600060007000700080075
:101b40000800090009000a000a000b000b000c0045
:101b50000c000d000d000e000e000f000f00100015
:101b600010001100110012001200130013001400e5
:101b7000140015001500fe00fe00ff00ff0000002d
:101b80000000010002001a001b001b001c000400e2
:101b90000500050006000600070007000800080011
:101ba000090009000a000a000b000b000c000c00e1
:101bb0000d000d000e000e000f000f0010001000b1
:101bc0001100110012001200130013001400140081
:101bd0001500150016001600fe00fe00ff00ff00b5
:101be00000000000010002000200030003001d00cd
:101bf0001d0005000500060006000700070008009c
:101c00000800090009000a000a000b000b000c0084
:101c10000c000d000d000e000e000f000f00100054
:101c20001000110011001200120013001300140024
:101c300014001500150016001600170017001800f4
:101c4000180019001900ff00ff000000000001004b
:101c5000010002000300030004000400050020004e
:101c6000210006000700070008000800090009001d
:101c70000a000a000b000b000c000c000d000d0008
:101c80000e000e000f000f001000100011001100d8
:101c900012001200130013001400140015001500a8
:101ca0001600160017001700180018001900190078
:101cb0001a001a001b001b001c001c00ff00ff0084
:101cc0000000000001000100020002000300040007
:101cd0000400050005000600060025002500080098
:101ce0000800090009000a000a000b000b000c00a4
:101cf0000c000d000d000e000e000f000f00100074
:101d00001000110011001200120013001300140043
:101d10001400150015001600160017001700180013
:101d20001800190019001a001a001b001b001c00e3
:101d30001c001d001d001e001e001f001f002000b3
:101d4000200021002100000000000100010002002d
:101d50000200030003000400040005000600060062
:101d600007000700080008002b0009000a000a000d
:101d70000b000b000c000c000d000d000e000e00ff
:101d80000f000f00100010001100110012001200cf
:101d9000130013001400140015001500160016009f
:101da0001700170018001800190019001a001a006f
:101db0001b001b001c001c001d001d001e001e003f
:101dc0001f001f002000200021002100220022000f
:101dd00023002300240024002500250026002600df
:101de000270027002800ff0000000000010001007c
:101df00002000200030003000400040005000500c7
:101e000006000700070008000800090009000a0092
:101e10000a000b00340000000000e00006003a0059
:101e2000020028000208e10003003a0020de26003c
:101e3000e1ff2f00000006001600200001f0a300c3
:101e400004003900f6ff2f0001b2b9000030b900dc
:101e5000810042006108e10005003a006300e100f2
:101e600003003e00f1902c000688b8000000060038
:101e7000889fbe008a9fbe008c9fbe00811f780095
:101e8000860578008b1f78006108e1009a0139000f
:101e9000f4ff27000408e1000d003a00f4ff2f00d2
:101ea0000400e1000a003a00e02129006132b90093
:101eb0000030b90081004200cf0578004f01780062
:101ec0004f06be004f05be004f04be0000000600d6
:101ed0008181cf000300e00004003a000118e70010
:101ee000030120000081cf0083014100e281510005
:101ef0007018e10005003c00708111000202de0054
:101f00008308dd0084807000030037007081510079
:101f10008200dd0004002800040028008102520035
:101f20006118e10080003400889fbe008a9fbe00d7
:101f30008c9fbe000000220006002800050343001d
:101f40000625b8004f55de00c15ddd000b027500af
:101f5000052db80000054500e0854d004e55de001a
:101f6000c25ddd008b027500e08342000725b800ea
:101f70006126b9008c8545000b027800052db8005c
:101f8000e1854500c1dade000000240006002800db
:101f9000850343000725b8004230de0000054500f8
:101fa000e0854d004f55de00c15ddd000b02750080
:101fb000052db80000e0230000054500e0854d0038
:101fc0004f55de00c15ddd008b02750085034300c7
:101fd0000725b8004f52de00415cdd0008027200a8
:101fe0004f5cde0000002400052db8000005450010
:101ff000e0854d004f55de00c15ddd008b027500b0
:1020000085034300043db80008beb9008c85450037
:102010004f52de00415cdd00080272004f5cde00c2
:10202000052db80000054500e0854d004f55de0048
:10203000c15ddd008b02750085034300043db800df
:1020400008beb9008c8545004f52de00415cdd00c2
:10205000080272004f5cde00052db8000005450047
:10206000e0854d004f55de00c15ddd008b0275003f
:1020700085034300043db80008beb9008c854500c7
:102080004f52de00415cdd0008027200cf5ade00d4
:10209000120020007018e10004003c00f0801100e4
:1020a0008110de000310dd0003003700f0805100d6
:1020b0008110dd000000eb004f89de008201780016
:1020c0004fabde00860378000404b8000506b800b4
:1020d0008904460060854e000606b8000a054600e1
:1020e000040eb800890446000a854e00050eb800ab
:1020f0000a0546000416b8000a0546008b0546008e
:102100004e40de00424add0004007000ce48de0092
:102110004252dd00848070004f06be004f05be00b5
:102120004f04be00f40037000300e00079003400e3
:10213000889fbe008a9fbe008c9fbe0000002200c8
:1021400006002800850343000725b8004f55de0030
:10215000c15ddd000b027500052db80000054500ce
:10216000e0854d004e55de00c25ddd008b0275003e
:10217000e08342000725b8006126b9008c85450040
:102180000b027800052cb80006044400e0844c00e3
:10219000c1cade004100dd000600280085034300bf
:1021a0000725b8004f55de00c15ddd000b0275004c
:1021b000052db80000054500e0854d004f55de00b7
:1021c000c15ddd008b027500850343000725b80063
:1021d0004f55de00c15ddd000b027500052db80016
:1021e00000054500e0854d004f55de00c15ddd0076
:1021f0008b027500850343000725b8004f52de00af
:10220000415cdd00080272004f5cde00052db80065
:1022100000054500e0854d004f55de00c15ddd0045
:102220008b02750085034300043db80008beb90069
:102230008c8545004f52de00415cdd0008027200d3
:102240004f5cde00052db80000054500e0854d001f
:102250004f55de00c15ddd008b0275008503430034
:10226000043db80008beb9008c8545004f52de0021
:10227000415cdd0008027200cf5ade00120020002f
:102280007018e10004003c00f08011008110de00b5
:102290000310dd0003003700f08051008110dd00e5
:1022a0000000eb004f89de00820178004fabde00ba
:1022b000860378000404b8000506b80089044600c7
:1022c00060854e000606b8000a054600040eb800f8
:1022d000890446000a854e00050eb8000a0546002e
:1022e0000416b8000a0546008b0546004e40de0085
:1022f000424add0004007000ce48de004252dd009c
:10230000848070004f06be004f05be004f04be0023
:1023100079003700889fbe008a9fbe008c9fbe0058
:102320000000240006002800850343000725b800ac
:102330004f55de00c15ddd000b027500052db800b4
:1023400000054500e0854d004f55de00c15ddd0014
:102350008b027500850343000725b8004f55de004a
:10236000c15ddd000b027500052db80000054500bc
:10237000e0854d004f55de00c15ddd008b0275002c
:10238000850343000725b8004f55de00c15ddd0021
:102390000b027500052db80000054500e0854d00d5
:1023a0004f55de00c15ddd008b02750085034300e3
:1023b0000725b8004f55de00c15ddd000b0275003a
:1023c000052db80000054500e0854d004f55de00a5
:1023d000c15ddd008b0275000004eb008503430046
:1023e0000725b8004f52de00415cdd000802720094
:1023f0004f5cde00052db80000054500e0854d006e
:102400004f55de00c15ddd008b0275008503430082
:10241000043db80008beb9008c8545004f52de006f
:10242000415cdd00080272004f5cde00052db80043
:1024300000054500e0854d004f55de00c15ddd0023
:102440008b02750085034300043db80008beb90047
:102450008c8545004f52de00415cdd0008027200b1
:10246000cf5ade00120020007018e10004003c008a
:10247000f08011008110de000310dd000300370042
:10248000f08051008110dd000000eb004f89de007c
:10249000820178004fabde00860378000404b800a8
:1024a0000506b8008904460060854e000606b8009f
:1024b0000a054600040eb800890446000a854e004d
:1024c000050eb8000a0546000416b8000a054600c5
:1024d0008b0546004e40de00424add0004007000dd
:1024e000ce48de004252dd00848070004f06be0000
:1024f0004f05be004f04be004100de00cf08dd00e6
:102500000082700000057800c2c127000220e100af
:10251000b4003500020028008402510005abb90068
:102520006203430085834b004233de004e39dd00f9
:1025300002037300c2bbde0002002100050022007e
:102540000203430085834b004d33de004339dd0039
:1025500002037300cdbbde00889fbe00cfa0de006b
:102560000624b8000722b80089044200060ab80011
:10257000090042004f04be00f2ff27000200e10004
:1025800008003600cf0578008148260001d8b90040
:102590004f0178004f06be004f05be004f04be003d
:1025a000000006000000b8004f00de00c108dd009a
:1025b000010070000100280000805000889fbe00cc
:1025c0008081cf00e28051000101dd000000280081
:1025d0008002510005027800c12add0006002400b7
:1025e00006a3b90005a4b90000002f000981b900b5
:1025f000060341008783490005ccb9000080200014
:102600000981b900060341008783490005ccb90060
:1026100000b02f000981b9000603410087834900fb
:1026200005ccb900003820000981b900060341003b
:102630008783490005ccb90000d62f000981b90075
:10264000060341008783490005ccb9000021200022
:102650000981b90006034100878349004f33de003a
:102660004138dd0000037300cfbbde00000028000e
:1026700006034000e0834b004109de0070001100ba
:102680000233de000038dd000003730082bbde0091
:102690000100a3000500390024a8250004b0b900fa
:1026a0004f00de00c108dd00010370004f04be00d2
:1026b000cfb3de000632b8004e22de00c22add00b3
:1026c000850172000618b800b4aa22000122b800e1
:1026d00005034300e0834b000118b80034332100a8
:1026e0000122b80005034300e0834b000118b80045
:1026f000e4b620000122b80005034300e0834b004c
:102700000118b800747c20000122b80005034300c2
:10271000e0834b0004912c0006035200e0835b0031
:10272000cf05780007dab9000658b90081004200e9
:102730004100de004f0add0004007000c188de00a9
:10274000f4ea27000450e10015003d00c4c1270051
:10275000840255003200f80006002000960188002f
:1027600085c7200004035500868242000500a300af
:10277000030031009541ba008301fb0003003700dc
:102780008502e90095c1ba008301fb003200f9001f
:1027900003dbb9000000430081804b004602370094
:1027a00014f027000450e10007003d0074e9270001
:1027b0000402550041a2de000ba3b9000000430053
:1027c00081804b003c02370004f0270004025500d2
:1027d00041a2de000ba3b8000000430081804b0043
:1027e000350237004f53dd00c153de000a50b800f8
:1027f0004e00de00c208dd00810170000350b80009
:10280000b4aa2200040ab8000403530085835b00c5
:102810000308b80064662600040ab8004222de00fd
:102820004e28dd0000027200c2aade00040343004d
:1028300085834b000308b80054922400040ab800b2
:102840004222de004e28dd0000027200c2aade0035
:102850000403530085835b00646622000450e1009a
:10286000100234000308b800741c2700040ab800e2
:102870004322de004d28dd0000027200c3aade0004
:102880000403430085834b000308b80074d125007e
:10289000040ab8004322de004d28dd000002720069
:1028a000c3aade000403530085835b000308b8005d
:1028b00054ec2400040ab8004322de004d28dd0059
:1028c00000027200c3aade000403430085834b00ac
:1028d0000308b80044442400040ab8004322de0080
:1028e0004d28dd0000027200c3aade00040353007d
:1028f00085835b00c4cc24000450e100e90134006e
:102900000308b80084872700040ab8004422de00c8
:102910004c28dd0000027200c4aade00040343005c
:1029200085834b000308b800a4bc2600040ab80045
:102930004422de004c28dd0000027200c4aade0042
:102940000403530085835b000308b8006418260065
:10295000040ab8004422de004c28dd0000027200a8
:10296000c4aade000403430085834b00949925002c
:102970000450e100cb0134000308b800b4902500f6
:10298000040ab8004422de004c28dd000002720078
:10299000c4aade000403530085835b000308b8006b
:1029a000c41e2500040ab8004422de004c28dd00c5
:1029b00000027200c4aade000403430085834b00ba
:1029c0000308b800a4bd2400040ab8004422de00b5
:1029d0004c28dd0000027200c4aade00040353008c
:1029e00085835b000308b800f4692400040ab8007a
:1029f0004422de004c28dd0000027200c4aade0082
:102a00000403430085834b000308b800142124000d
:102a1000040ab8004422de004c28dd0000027200e7
:102a2000c4aade000403530085835b000308b800da
:102a3000f4c12700040ab8004522de004b28dd005f
:102a400000027200c5aade000403430085834b0028
:102a5000646626000450e100920134000308b800c7
:102a600074502700040ab8004522de004b28dd0020
:102a700000027200c5aade000403530085835b00d8
:102a80000308b80044eb2600040ab8004522de0023
:102a90004b28dd0000027200c5aade0004034300db
:102aa00085834b000308b80074902600040ab80020
:102ab0004522de004b28dd0000027200c5aade00c0
:102ac0000403530085835b000308b800743e2600ae
:102ad000040ab8004522de004b28dd000002720027
:102ae000c5aade000403430085834b000308b80039
:102af00014f42500040ab8004522de004b28dd004e
:102b000000027200c5aade000403530085835b0047
:102b10000308b80064b02500040ab8004522de00ae
:102b20004b28dd0000027200c5aade00040343004a
:102b300085834b00c4cc26000450e10059013400c9
:102b40000308b80064722500040ab8004522de00bc
:102b50004b28dd0000027200c5aade00040353000a
:102b600085835b000308b80084392500040ab80097
:102b70004522de004b28dd0000027200c5aade00ff
:102b80000403430085834b000308b80004052500b7
:102b9000040ab8004522de004b28dd000002720066
:102ba000c5aade000403530085835b000308b80058
:102bb00084d42400040ab8004522de004b28dd003e
:102bc00000027200c5aade000403430085834b00a7
:102bd0000308b80094a72400040ab8004522de00c8
:102be0004b28dd0000027200c5aade00040353007a
:102bf00085835b000308b800c47d2400040ab80084
:102c00004522de004b28dd0000027200c5aade006e
:102c10000403430085834b000308b800c456240016
:102c2000040ab8004522de004b28dd0000027200d5
:102c3000c5aade000403530085835b000308b800c7
:102c400064322400040ab8004522de004b28dd006f
:102c500000027200c5aade000403430085834b0016
:102c60000308b80044102400040ab8004522de001e
:102c70004b28dd0000027200c5aade0004035300e9
:102c800085835b000308b80084e02700040ab800cd
:102c90004622de004a28dd0000027200c6aade00dd
:102ca0000403430085834b00343327000450e100c4
:102cb000fc0034000308b80054a42700040ab8003c
:102cc0004622de004a28dd0000027200c6aade00ad
:102cd0000403530085835b000308b800a46b27003e
:102ce000040ab8004622de004a28dd000002720015
:102cf000c6aade000403430085834b000308b80026
:102d000014362700040ab8004622de004a28dd00f7
:102d100000027200c6aade000403530085835b0034
:102d20000308b80084032700040ab8004622de0026
:102d30004a28dd0000027200c6aade000403430038
:102d400085834b000308b800a4d32600040ab8000a
:102d50004622de004a28dd0000027200c6aade001c
:102d60000403530085835b000308b80044a62600d3
:102d7000040ab8004622de004a28dd000002720084
:102d8000c6aade000403430085834b000308b80095
:102d9000247b2600040ab8004622de004a28dd0013
:102da00000027200c6aade000403530085835b00a4
:102db0000308b80034522600040ab8004622de0098
:102dc0004a28dd0000027200c6aade0004034300a8
:102dd00085834b000308b800342b2600040ab80092
:102de0004622de004a28dd0000027200c6aade008c
:102df0000403530085835b000308b8000406260023
:102e0000040ab8004622de004a28dd0000027200f3
:102e1000c6aade000403430085834b000308b80004
:102e200094e22500040ab8004622de004a28dd00ac
:102e300000027200c6aade000403530085835b0013
:102e40000308b800c4c02500040ab8004622de000a
:102e50004a28dd0000027200c6aade000403430017
:102e600085834b000308b80064a02500040ab8005d
:102e70004622de004a28dd0000027200c6aade00fb
:102e80000403530085835b000308b80064812500b8
:102e9000040ab8004622de004a28dd000002720063
:102ea000c6aade000403430085834b000308b80074
:102eb000b4632500040ab8004622de004a28dd007b
:102ec00000027200c6aade000403530085835b0083
:102ed0000308b80044472500040ab8004622de0073
:102ee0004a28dd0000027200c6aade000403430087
:102ef00085834b000308b800f42b2500040ab800b2
:102f00004622de004a28dd0000027200c6aade006a
:102f10000403530085835b000308b800c411250037
:102f2000040ab8004622de004a28dd0000027200d2
:102f3000c6aade000403430085834b000308b800e3
:102f400094f82400040ab8004622de004a28dd0076
:102f500000027200c6aade000403530085835b00f2
:102f60000308b80054e02400040ab8004622de003a
:102f70004a28dd0000027200c6aade0004034300f6
:102f800085834b000308b80004c92400040ab80074
:102f90004622de004a28dd0000027200c6aade00da
:102fa0000403530085835b000308b80084b2240047
:102fb000040ab8004622de004a28dd000002720042
:102fc000c6aade000403430085834b000308b80053
:102fd000d49c2400040ab8004622de004a28dd0002
:102fe00000027200c6aade000403530085835b0062
:102ff0000308b800f4872400040ab8004622de0063
:103000004a28dd0000027200c6aade000403430065
:1030100085834b000308b800c4732400040ab80079
:103020004622de004a28dd0000027200c6aade0049
:103030000403530085835b000308b8004460240048
:10304000040ab8004622de004a28dd0000027200b1
:10305000c6aade000403430085834b000308b800c2
:10306000744d2400040ab8004622de004a28dd0020
:1030700000027200c6aade000403530085835b00d1
:103080000308b800443b2400040ab8004622de00ce
:103090004a28dd0000027200c6aade0004034300d5
:1030a00085834b00cf0578004f33de00c13bdd0048
:1030b000070073000058b900c108dd004f01de00b1
:1030c000810071004100dd004f0678006160e10081
:1030d000110035000b00e000070035000422290034
:1030e00000005200e18018004f06be004f05be00f0
:1030f0004f04be000000060004de2600e5ff2f009e
:103100000000520081805a004f06be004f05be00ed
:103110004f04be00000006004f06be004f05be0073
:103120004f04be000000060003f0a200889fbe000e
:103130008a9fbe008c1f7800330107003a013300dc
:103140006450e1004f0032006420e1005200320080
:1031500003826c0007003b000905d0000306d00085
:10316000820f54000c065d0002003900020032009c
:1031700089017800030678008582550004003d002f
:103180000003fd008103fd008502ea008b854200fb
:10319000840f720002003b0060001000e080180005
:1031a0006011b8000005eb007a28e1000a00390040
:1031b00006007800c75ddd00f707b2008780750064
:1031c0002d003700828171000a01780061056000de
:1031d0008180d1000080d3008502e900f9ff3b0027
:1031e000060440008784480002003b00600414008d
:1031f000e0841c000988a300070032008a81710066
:1032000082817100610164008904d1000884d300c7
:103210008b05e800170037000978a30013003a0077
:103220000b00e000130034008b05e90008044400a3
:1032300089844c000a4474000978a3000d003a0008
:103240000b00e000070034008b05e900080444008f
:1032500089844c0001003a000b0020000978a3008b
:10326000f7ff32000001eb0002003700828171009d
:103270000a017800a90007000cf0a70001f0a000e7
:10328000f20037006420e10002003a00838f6c00f6
:10329000f20033000801be000200be00eb00370060
:1032a000889fbe008a9fbe008c1f7800d600070052
:1032b000dd00330003866c006450e1002e00320014
:1032c0006420e100330032006150e1002f00320041
:1032d0006120e1003100320085855500eb07b00028
:1032e00009002000080420000500370008044400fd
:1032f00089844c000a0031000603430087834b0099
:103300000001530081815b00f8ff33000203be001f
:103310000800a0000804440089844c00f6ff39002e
:10332000c639dd0083017300010032001300200064
:103330008904d1000884d3000998a3000500320055
:103340000800a7000300a0008904d1000884d3006e
:103350008b05e8008904d1000884d3000001eb004c
:103360000281d2006d00070001f0a1000cf0a7005f
:1033700001f0a000b50037006420e100b700320082
:103380000801be000200be00f7ff37006120e10027
:10339000b20032006000b800f3ff370000002000e8
:1033a00001f82700f0ff3700839f68000100e0006c
:1033b00002003d0060001000e08018000300e00003
:1033c00002003d0060011100e0811900da000700f1
:1033d0004f00e00002003b0060001000e080180099
:1033e00000000600f4ff2f00e30037000001be00dc
:1033f000700007000470a70003f0a1006509b10088
:10340000160032000d0035006828e1000600350086
:10341000f0ff2f00f1ff27000300e00013003b0046
:1034200001002800000005000000400081804800e5
:103430008502e900fcff3a0008003700f88f4200df
:1034400002003c008000eb00000005008100d1007c
:103450000080d3008502e800fcff3a000300e00092
:1034600002003b0060001000e08018000000060031
:10347000889fbe008a9fbe00010578000100e00021
:103480000400350008003c000000e000200032008d
:103490000500370060001000e080180002003b00cb
:1034a00001f02c001a0037000004be006011b800c3
:1034b0006b0920000982cf00020039000882cf008a
:1034c0000441b000694252000e00320008003b0087
:1034d00082817100610164008904d1000884d300f5
:1034e0008b05e8000442e800f9ff3a0005003700c8
:1034f0000804440089844c008b05e9000442e9007b
:10350000fbff3a00050007000af0a70001f0a00049
:103510004f05be004f04be000000060081002000e1
:10352000618055000b003d000b00200061fe2f0064
:103530000100e1001d00340082817100610164001e
:103540008904d1000884d3000000e800faff3a00a3
:103550007100200061006400030070000200600040
:103560000900320061044400e0844c000988a50091
:10357000050032008b05e8006808e10002003a000f
:103580008904d1000884d300f20f20000258e10022
:1035900005003d00c75ddd00f907b20089807500b8
:1035a00008007800000006000bf827008b00780068
:1035b00000000500c70ade00f107b200f50fb200f7
:1035c00008003200e1cf4200020032000170a0008a
:1035d00024000500810f700001003200040805007e
:1035e00044000500810f700002003a00140005003d
:1035f0008502e9000000400081c04800fcff3b005c
:103600000170a000240005000004be00e9ff0700cf
:103610000003be000405be000200be00e5ff070077
:10362000844f7500000006000200be006450e100f7
:10363000050036006420e100020036000968a3009e
:1036400001003a000800be000160a0004f067800ab
:103650004f05be004f04be0000000600f0ff2f0023
:10366000f1ff2700f9ff3700889fbe008a9fbe0048
:103670008c1f7800e4ff0700ebff330003866c002b
:103680006450e100240032006420e1002700320091
:103690006150e100220032006120e100210032008f
:1036a0008b854200eb07b1000134b800003ab80046
:1036b0000804420089844a00013ab8000030b8008a
:1036c0008880400009014a000400330000004000e7
:1036d00081804800020149008b05e900c909dd002d
:1036e000830170000100320013002000c814de00c6
:1036f0004814dd004709de001200b200c808de00f1
:103700000884700085ff070001f0a1000cf0a700fd
:1037100001f0a000cdff37006120e100cfff3200b3
:103720000801be000200be00f7ff37006150e10053
:10373000fcff3a00c9ff37006022b80006022000f3
:103740000000d0008180d2000482d2008582d200a5
:103750000000a0000202520083825a0003003100e0
:103760000202420083824a000000a1000603e90031
:10377000f3ff3a0000000600889fbe008a9fbe004b
:10378000841f7800a0ff07004f007800110033006d
:10379000f0ff2f00838f6c0006003b0004056500de
:1037a0000a00a7000800370009f0a600100020005a
:1037b00008003700820f5400838f5c00030039003b
:1037c0001000200001003e000000200009f0a700ca
:1037d0000000ea004f05be004f04be000000e000fc
:1037e000000006008001eb000200370061f0790064
:1037f0008301e800828f5100fcff3a0000000600c0
:1038000080007800010037000000e8001004e000ac
:10381000fdff3a000100500000000600020278009f
:10382000809fbe00110009008200d80000017800ce
:103830004f00be0002a2b900848050001100980021
:1038400002087800000006000400fa00889fbe000d
:103850008a9fbe008c1f78000006780092bf9f00f0
:10386000a3bf9f000404be000401be001fb8970060
:10387000afb89700ccfe07000005be000001be00f7
:103880000800be004d0407001fb99700afb99700ac
:1038900000005100818059002006980031069800f0
:1038a0000a8ebe000c0078004f0678004f05be005f
:1038b0004f04be000080fa0000000600040037003c
:1038c0000204e00001003a00000005000000e800ea
:1038d00010417800814f5100f9ff3a0000000600c6
:1038e000889fbe00800478006684400000ff2700a7
:1038f000180060004401de00f07f2000800f5100be
:103900000e003a00800ceb00180478006f00640091
:103910001c003a00210090000000e00019003a006d
:10392000110090000000e00016003a001000200096
:103930001100e00014003200120037000200e00025
:1039400005003c00010078005f02070000017800dc
:103950000000e00008003c00f000280018006000b3
:1039600001fe2300010c700020c02f00800c4100dc
:103970000080eb0004003700800ceb000000eb003f
:1039800001003700200020004f04be0000000600a8
:103990002f03b000889fbe008a9fbe008c9fbe0090
:1039a0008e1f780000077800d0452200c0b79f0026
:1039b00080c5b30080cf500008003200c24422000e
:1039c000c2b79f007740400080cf500003003a000c
:1039d00083002000b3b79f000a00370080c7b30000
:1039e00080cf500005003200a4002000b4b79f0033
:1039f00080c5b30080cf500002003a0005012000ce
:103a0000b5b79f003e04be002e05be0040c6b30001
:103a100080cf5000030032006540400080cf50004e
:103a20000b003a00e00f5400e08f5c00e00f5d00f7
:103a3000e08f5d0006003d006000b8006011b80036
:103a400008045000898458000a0559008b855900e4
:103a5000bfb39700e88f530003003200f08f53008c
:103a600045003a0002003700360020000100370010
:103a700046002000e00f5400e08f5c00e00f5d0086
:103a8000e08f5d0005003a005e0890008101200093
:103a9000a1b79f000000e000080032003fb197008e
:103aa0000200e90008006000cfb197006340780091
:103ab00090df9f0074012000a4b79f008602780069
:103ac0008502e900050033008b05d1000a85d3008b
:103ad0008984d3000884d300f9ff3700089fbe0013
:103ae0000a97be00afb397000700e90021fc2f0042
:103af0008f804000008240003fb197008202e900c1
:103b000012003700afb397008703e900a7b79f0003
:103b100000806200cfb09700615278003e00be0086
:103b20002e01be00860378008703e90005003300fc
:103b30008381d1000281d3008180d3000080d30033
:103b4000f9ff3700009fbe000297be003e00be0096
:103b50002e01be00e00f5000e08f5800e00f59002a
:103b6000e08f5900d6003400afb397000700e000a3
:103b7000e4ff3c00d2003700ae60900080c6b30086
:103b800080cf50000b00320006003c000104e00032
:103b9000080032006640500080cf500073003a00a9
:103ba00004003700c0c6b30080cf50006f003a0059
:103bb00031003700080178000800e00005003a00f5
:103bc0005e08900081012000a1b79f000000e00086
:103bd00009003200bfb19700110009000381d8002d
:103be0008000fd004fb297006440780090df9f0096
:103bf00075012000a5b79f00bfb397001100090011
:103c00000781d80080017800afb097000100e9007b
:103c100022fc2f000f014100000241000c00370080
:103c2000bfb29700110009008501d800000178009b
:103c3000afb397008703e900a7b79f000590b900cd
:103c400000805100cfb09700615278008201780067
:103c50000300e000030034002fb197000200e000f1
:103c6000efff3c0003007800cf80de000101780008
:103c7000820178003a0037000806be00e00f5400c9
:103c8000e08f5c0005003a005e0890008301200090
:103c9000a3b79f000000e000090032003fb2970088
:103ca0006121b9000c00be0041030700cfb29700ac
:103cb0006540780090df9f0077012000a7b79f0044
:103cc0003fb297006121b9000c00be009afe0700c8
:103cd0000006be00afb297000500e90027fc2f00e8
:103ce0008f8343008083430097b79f001100370004
:103cf0003fb197006114b9000801be000c00be007e
:103d0000a9fd07000005be00afb197008301e900df
:103d1000a3b79f000801be0028030700000056005b
:103d20001fb29700cfb297006552780094b79f00fa
:103d30000a06be00e00f5600e08f5e00030034006c
:103d4000afb397000700e000e9ff3c004feade0058
:103d5000cfa2de000c00be000401780084017800d0
:103d6000009fbe000297be0055003700e00f5400d0
:103d7000e08f5c00e00f5d00e08f5d0005003a0021
:103d80005e08900081012000a1b79f000000e000c4
:103d90000d0032003fb1970002027800cfa2de0092
:103da00005037800860378000800be000a01be0003
:103db000b60307004fb297006440780090df9f0081
:103dc00075012000a5b79f003fb19700020278005f
:103dd000cfa2de0005037800860378000800be004d
:103de0000a01be00a2030700009fbe000297be00aa
:103df000afb197000300e90024fc2f000f0242003e
:103e00000006420020003700bfb29700050478008a
:103e1000cfc4de00090578008a0578000802be00dc
:103e20000a03be005fa89700efa897007fa997003c
:103e30008fb1970099030700d0b79f00e1b79f00ab
:103e4000f2b79f0083bf9f00afb397008703e900dd
:103e5000a7b79f000802be000a03be00f9030700cf
:103e60005faa970000005200cfb297006556780015
:103e70005fb09700efb097007fb197008fb99700c0
:103e8000009fbe000297be003e00be002e01be0095
:103e9000d0af9f00e1af9f00f2af9f0083b79f00bc
:103ea000e00f5000e08f5800e00f5900e08f5900fc
:103eb00003003400afb097000100e000d2ff3c00e7
:103ec0003fb19700e80f510013003a000e10900028
:103ed0000038a30010003200afb19700f78f5100f7
:103ee00006003e0024fc2f000f0242008300420027
:103ef00000c3b300914f100007003200afb297002b
:103f00008502e900a5b79f0000c3b30027fc2f007e
:103f10008f83430080f37a00afb19700788111005e
:103f2000120f98006e009000cf91de0024fc2f004d
:103f30000f024200afb297008500420029fe070041
:103f40001e0990005e089000800f510006003d00a1
:103f500002005000000f98000e1090000040a100d9
:103f6000001798000f0037000000e0000d003d0032
:103f70000e10900074006000f00f500009003a002d
:103f80007e089000fe009000010050008e08900016
:103f900001005000020050004240a900010034001e
:103fa000000f98004f0778004f06be004f05be0077
:103fb0004f04be002f03b100000006000400fa0009
:103fc000889fbe008a9fbe008c1f78000004780086
:103fd0000106780070089000f80090000100500081
:103fe00088089000010050009808900001005000df
:103ff000a808900001005000b8089000010050008f
:10400000c8089000810550000002220090bf9f0068
:1040100000032300a0bf9f00081090000028a30009
:1040200015003a000b00e000130034008b04780008
:104030002a0020008a8f540001003e000905780004
:104040006151b9005800900048029000ee8057007e
:1040500004000100500498000000e0008d003200d0
:104060006808900000004500600c98008a845400a5
:104070004240a900eeff3c00780090000000e00004
:104080000c0034006101b900580090004802900013
:104090008c00780004000100500498000000e0004b
:1040a0007c00320068089000f80090000100400099
:1040b000600c9800880c90000900e00012003400a9
:1040c0002a0020008a8f540001003e000905780074
:1040d0006151b9005800900048029000ec805700f0
:1040e00004000100500498000000e0006900320064
:1040f0006808900000004500600c98008a84540015
:104100004240a900eeff3c00180890000000e000cb
:104110000c0034006101b900e800900058009000e4
:104120004802900004000100500498000000e000e4
:104130005800320068089000980890000100400084
:10414000600c9800a80c90000900e00012003400f8
:104150002a0020008a8f540001003e0009057800e3
:104160006151b9005800900048029000ec8057005f
:1041700004000100500498000000e00045003200f7
:104180006808900000004500600c98008a84540084
:104190004240a900eeff3c00380890000000e0001b
:1041a0000e0034006101b900e8009000180890008a
:1041b00080804000580090004802900004000100f8
:1041c000500498000000e0003200320068089000bf
:1041d000b808900001004000600c9800c80c9000e6
:1041e0000900e000120034002a0020008a8f5400e9
:1041f00001003e00090578006151b90058009000a7
:1042000048029000ec805700040001005004980020
:104210000000e0001f003200680890000000450028
:10422000600c98008a8454004240a900eeff3c00d4
:10423000081090000028a300180032000b00e000d6
:10424000160034008b0478002a0020008a8f540066
:1042500001003e00090578006151b9005800900046
:1042600048029000ee8057000400010050049800be
:104270000000e000070032006808900000004500e0
:10428000600c98008a8454004240a9000300340066
:10429000edff37000080eb00010037000000eb006d
:1042a0004f0678004f05be004f04be000080fa00a4
:1042b000000006000200fa00f1bf9f00010878002c
:1042c0000080fa000000060000017800e6014000ce
:1042d0001300780001002800810360006f00600077
:1042e0008009780012003a00220090000000e000ef
:1042f0000f003a00120090000000e0000c003a00ad
:10430000160020001200e0003800320008003700dc
:10431000e4004100910978000280e80090087800ec
:10432000120878000009eb00700353000100370009
:10433000160020001300e000f5ff3200e402410007
:104340000282e8001100370080004000150078006c
:104350004f00de0080897000950078008180400069
:10436000140078004f00de00808a7000940078000e
:1043700081804000120078004f00de00008a70004b
:1043800012007800000940000603e90013007800dd
:10439000ef0f5000ecff36008282e800640241001b
:1043a0000e0037009200d100150078004f00dd00ac
:1043b000008970009500d100140078004f00dd00e6
:1043c000808a70009400d100130078004f00dd0057
:1043d000008a70009309d1000603e80013007800fa
:1043e000ff0f5000efff3e00ef096000938973005c
:1043f00006007800000006008f1fd1003c03070074
:104400008f87e9000000e00000000600809feb00bd
:10441000370307008f87e9000000e0000000060076
:104420002800fa00889fbe008a9fbe008c9fbe00b5
:1044300003866b00800007006400e1004400320046
:104440006408e1004a0032006100e10046003200e9
:104450006108e10049003200ec0647006000b80046
:104460003d02be003d03be00f48657006011b80057
:104470003d04be003d05be007d0320000b0037005b
:104480000000a0008d06e900130032000402420083
:1044900085824a0006034b0087834b0000004000e2
:1044a00081804800020149008381490008025200ce
:1044b00089825a000a035b008b835b00f0ff3b009c
:1044c0000802420089824a000a034b008b834b009a
:1044d0008d06e900edff3a00848272008682720048
:1044e000f707b20087827200010032001500200039
:1044f0001e0490003e0b900006035400e63fb000ff
:104500000368a300070032000000a7000500a00018
:104510008301d1000281d3008180d3000080d300c9
:104520000603e8008301d1000281d3008180d3001b
:104530000080d3000002eb000482d20012000700ca
:1045400003f0a1000cf0a70003f0a0004e0037001c
:10455000640247006408e100480032003400be00f5
:104560003401be00f6ff37006108e100430032006d
:104570006011b8006000b800f1ff370003ff2700aa
:1045800002002000fbff3700180020005700200029
:10459000080453000d003d000600200097fc2f008a
:1045a0000740e1001e003400848272006102600056
:1045b0008301d1000281d3008180d3000080d30029
:1045c0000804e800f8ff3a0047002000610460009a
:1045d00005047400040464000d0032006100400012
:1045e000e080480060014900e081490003b8a5006f
:1045f000070032000603e8006538e10004003a00d5
:104600008301d1000281d3008180d3000080d300d8
:10461000f87f20000830e10003003500080378002f
:104620006000b8006011b8004433dd00f300b20050
:104630008301730000000600680447000294be0076
:104640000094be00fc0447008694be008494be0023
:1046500009007800ef02070008007800ed0207006b
:1046600099007800814f70000b003b000800be00ed
:10467000c80207004f00b10003003700f3ff270016
:10468000f2ff2f006110b9004f06be004f05be00bb
:104690004f04be000080fa0000000600810378008d
:1046a000c4fb07000001be006000b8000478a3004e
:1046b00013003a006220e10015003e000d003900b1
:1046c0008301d1000281d3008180d3008301d10016
:1046d0000281d3008180d3008301d1000281d30005
:1046e0008180d3000538b000c42add00f300b20099
:1046f0008381720007f0a70003f0a000000006000d
:10470000f3ff2700f2ff2f006110b900fbff370015
:1047100003ff2700f7ff37001400fa00889fbe0050
:104720008a9fbe008c9fbe000004be000205be0032
:10473000680047000a90be000890be00b50207005e
:104740000070a7000bf0a100304320009e029000f3
:1047500080825200b0fe2f000028e10011003d00d1
:10476000b0fc2f000028e100150034001e09900065
:104770008e0890007e0090000501b0000201d1007b
:104780008180d3000080d3008502e800fbff3a005f
:104790000b00e000bcff3b0060001000e080180050
:1047a000b9ff3700f0ff2f00f1ff27000b00e000fa
:1047b000b5ff3b000100280000002000b2ff3700d9
:1047c0006000b800b0ff37004f89de00820178003a
:1047d000b70237002800fa00889fbe008a9fbe00fb
:1047e0008c9fbe0003866b0093ff07000028a30088
:1047f00064003a000128a30067003a000008a30003
:1048000062003a000108a30065003a001e00900013
:10481000be08900081064000ed3fb100f4805700d3
:10482000ee019000111ab8008e099000311bb800fb
:104830009e099000311cb800511db800f485570046
:1048400046000700fe0190003a0007008b85e80053
:104850003e0007008e09900040000700ee01900026
:10486000340007008b85e800380007008e099000af
:10487000400007009e0990001b18b8008904400002
:104880000a854800fe019000340007008b85e8008f
:1048900038000700ee019000300007008e099000fc
:1048a0001b18b800890440000a8548000a98a30034
:1048b00008003a000402420085824a0006034b00c9
:1048c00087834b0008044c0089844c000a054d0086
:1048d0008d06e90084827200850273004c3add0087
:1048e000850272000100320015002000443ade000b
:1048f0001400b2004538de00cb45dd000b0070002f
:10490000c540de00cb4ddd008b8070004549de00e8
:10491000cb55dd000b017100c551de000d037800a1
:1049200019ff070003f0a1000cf0a70003f0a0009e
:1049300055ff37001b18b800850240000683480069
:10494000e0834b0060044c00070037001b18b800e0
:104950000603400087834800faff37001b18b800a1
:104960008703400008844800e0844c0060054d0047
:10497000000006001b18b8000804400089844800a5
:10498000faff37000108a3003cff3a005800be00c0
:104990005801be00e3ff37000008a30037ff3a00cc
:1049a00009047800f9ff370007f0a200530137002f
:1049b00061fb07000400be0000000600020ab90007
:1049c000001bb9000200b8008100420081004300d2
:1049d00000000600881f7800000478005001be0027
:1049e0004000be00040040008580480006014900e8
:1049f00087814900009cbe000294be000400e100d3
:104a00000588e1000690e1000798e100020031000e
:104a1000680044001008e8004f0478000000060019
:104a2000f4874700889fbe008a9fbe008c9fbe000f
:104a30008e1f78000205be000004be00d4b79f00a0
:104a4000e5b79f00f6b79f0087bf9f000000eb000f
:104a5000c0b79f00b0b79f00a0b79f0090b79f005e
:104a600080b79f000d042000bfb097004fb09700a3
:104a7000000140000000e0000f003d004f08de0094
:104a800000007100c0b79f004d00070001003d000d
:104a9000120020005000070001003d00120020001d
:104aa0005500070061000700660007000f00400086
:104ab000c8ff0700220037004f08de000006710023
:104ac000ccb79f003e00070001003d00120020000f
:104ad0004100070001003d001200200046000700d1
:104ae000520007000fb297009fb297002fb39700b4
:104af000bfb39700590007000000520081805a00a0
:104b000002015b0083815b0080b79f0091b79f002b
:104b1000a2b79f00b3b79f000007eb004f0007004c
:104b20000020e10001a8e10002b0e10003b8e100cb
:104b3000010031001e0020000e005600c0b79f008b
:104b40004fb297000400e00007003500100020007d
:104b5000010020006011b800080470008984700012
:104b60000a0571008b8571008d06e900beff3a00d1
:104b70000400e00003003d00320007000f00400089
:104b800094ff07004fa897000000e00004003a00df
:104b90000fb497009fb497002fb59700bfb597004b
:104ba0000800be000a01be004f0778004f06be0095
:104bb0004f05be004f04be004f01b10000000600cb
:104bc0000180400090b79f000001eb008fb097007c
:104bd0000100e000000006000200700090b79f0096
:104be0000180400080b79f000001eb00ffa8970004
:104bf0000100e000000006000200700080b79f0086
:104c0000018040006faa9700cf20de0001007000f5
:104c1000f0af9f00040242000800be000a01be007f
:104c20004f18de000002720000000600e4af9f0093
:104c30000804440089844c000a054d008b854d0012
:104c4000000006003fb29700cfb297005fb3970015
:104c5000efb3970000fe2f00000006003fb0970062
:104c6000cfb097005fb19700efb19700000006004a
:104c7000881f780018002000881f780068ff070050
:104c80008f87e9004f04780000000600801feb00ca
:104c900063ff07008f87e90000000600889fbe00c1
:104ca0008a9fbe008c1f78000205be000004be0073
:104cb000e00f5000e08f5800e00f5900e08f5900de
:104cc0000c003d006000b8006011b80008045000fe
:104cd000898458000a0559008b8559001c00200062
:104ce0001f00070008003d00180007000006eb0049
:104cf000050037000006eb001900070002003d0028
:104d00000f0007001c0020000800be000a01be00c2
:104d1000d7ff07000203be000002be000c00e00047
:104d200001003200060007000400be000601be00bc
:104d30004f0678004f05be004f04be00000006007d
:104d40006000b8006011b800000037000402500095
:104d50008582580006035900878359000000060029
:104d6000e00f5200e08f5a00e00f5b00e08f5b0025
:104d700000000600889fbe008a9fbe008c1f78003e
:104d80000205be000004be00e00f5000e08f580096
:104d9000e00f5900e08f59000a003d006000b800a4
:104da0006011b80008045000898458000a055900b1
:104db0008b8559001c0020001800070007003d00eb
:104dc000050037000006eb001400070003003d005b
:104dd0006000b8006011b800150007000800be00b0
:104de0000a01be00a9ff07000203be000002be00c8
:104df0000c00e000030032006000b8006011b80051
:104e00000b0007000400be000601be004f0678003c
:104e10004f05be004f04be0000000600e00f520028
:104e2000e08f5a00e00f5b00e08f5b00000006009f
:104e300004025000858258000603590087835900f8
:104e400000000600889fbe008a9fbe008c1f78006d
:104e50000205be000004be000006eb00e00f50009b
:104e6000e08f5800e00f5900e08f590007003d0027
:104e70006000b8006011b800080450008984580030
:104e80000a0559008b8559001c002000e00f5200d4
:104e9000e08f5a00e00f5b00e08f5b0002003d00f6
:104ea0000f0007000c00a2000800be000a01be00af
:104eb000360107000203be000002be000c00e00045
:104ec00001003200060007000400be000601be001b
:104ed0004f0678004f05be004f04be0000000600dc
:104ee0006000b8006011b8000402500085825800cc
:104ef0000603590087835900000006002800fa00c5
:104f0000889fbe008a9fbe008c9fbe000706780067
:104f1000878669000c003b00030478008704780052
:104f200008f0a10009f0a100840f5000858f5800ff
:104f3000860f5900890f5c00030033000cf0a200bb
:104f400001003a000cf0a100bbfd07006400e10085
:104f50005f003200780147006408e1006100320020
:104f60006c014700748557003200be001201be007c
:104f70003a04be001a05be001e039000be0a90004f
:104f80008503530006003d000004fd008104fd0080
:104f90000205fd008305fd008703ea000503780094
:104fa0000df8a3000400320060041400e0841c002b
:104fb00060051d00e0851d006022b8007d03200013
:104fc0000d38e1008006eb000b0039004433dd00b2
:104fd000f300b2008301730039003700848272004d
:104fe0000d027800e10664008b85d1000a85d300ac
:104ff0008984d3000884d3008703e900f7ff3b00ce
:1050000008004000898048000a0149008b8149005e
:1050100004003b0060001000e080180060011900ef
:10502000e08119000358a300090032008d8272004c
:1050300084827200610260008301d1000281d3008a
:105040008180d3000080d3000603e8001b003700f6
:105050000348a30017003a000600e00017003400e0
:105060000603e9000d00a30000004800818048000d
:1050700002014900838149000348a3000f003a0060
:105080000600e000090034000603e90000004000cb
:1050900081804800020149008381490001003a00f3
:1050a0000003eb000348a300f5ff32006022b800c4
:1050b00002003700848272006182660032fd0700c0
:1050c00003f0a1000cf0a70003f0a0006efd370074
:1050d000640147006408e10002003a000df8a300f3
:1050e00066fd3a003200be001201be0066fd3700c8
:1050f000889fbe008a9fbe008c9fbe000404be0035
:105100000605be00809fbe00829fbe002f000700e4
:10511000040678000800be000a01be002b0007004c
:10512000840678004f03be004f02be008d4f76000c
:105130007fb0970013003300f0ff2f008b8f6b00c0
:1051400006003b000d0666000c00a7000a003700b1
:1051500007f0a600100020000a003700880f520058
:10516000898f5a008a0f5b008b8f5b000300390028
:105170001000200001003e000000200007f0a70002
:105180000000ea004f06be004f05be004f04be00ff
:1051900000000600e48240001078a30007003200ff
:1051a000640240001178a3003400be001401be0068
:1051b000040032000330a700000006003500be00e6
:1051c0001501be000330a0000000060005ff270007
:1051d00005826100070032000428e100010032006e
:1051e000240005000600070001003a004400050005
:1051f0000408050002000700f9ff3a00140005004a
:105200006f82610081027000850271008502720068
:1052100000000600800078005002be005003be006f
:105220004439de00f700b200f37f20000301610083
:10523000090032000218e10016003a0085017200f0
:1052400083017300838173000008200015003a0079
:1052500040002000130037008501720083017300b5
:105260008381730005003a0004a8be0006a8be00b2
:10527000100020000b0037000201e9000402420088
:1052800085824a0006034b0087834b000748a30032
:10529000f9ff32000740a00004a8be0006a8be0027
:1052a0002000200080009800920098000000060076
:1052b000889fbe00830478000300e0002c003500c6
:1052c00003003c00008270000402710026003200de
:1052d00036432000c50020008383cf000a00390038
:1052e0000541b1008283cf00070039000541b100bc
:1052f0008183cf00040039000541b1008083cf00d5
:10530000010039000541b10085c353006022b80097
:10531000120032000a003b008482720061026000c9
:105320008301d1000281d3008180d3000080d300ab
:105330000603e8008743e800f7ff3a00070037005c
:10534000000040008180480002014900838149003b
:105350000603e9008743e900f9ff3a008afc0700e9
:1053600009f0a70003f0a0004f04be0000000600f3
:1053700060001000e080180060011900e081190051
:10538000d3ff3b00033e2c00f7ff3700889fbe0091
:105390008a9fbe008c9fbe000404b8000506b800ba
:1053a0008904460060854e000606b8000a054600de
:1053b000e0854e000706b8008b054600040eb800d5
:1053c000890446000a854e00e0854d00050eb800b0
:1053d0000a0546008b854e00060eb8008b05460078
:1053e0000416b8000a0546008b854e000516b80065
:1053f0008b054600041eb8008b0546000800be0061
:105400000a01be004f06be004f05be004f04be009d
:045410000000060092
:020000040000fa
:0200000401f009
:04000800ffff0000f6
:020000040000fa
:0200000401f009
:04000c00fbff0000f6
:020000040000fa
:0200000401f009
:04001000bdff000030
:020000040000fa
:0200000401f009
:040014007fff00006a
:020000040000fa
:0200000401f009
:04001800f8ff0000ed
:020000040000fa
:0200000401f009
:04001c00deff000003
:020000040000fa
:10000800b4020000b4020000b4020000b402000010
:10001800b4020000b4020000b4020000b402000000
:10002800b40200006a4d0000b402000076580000d7
:10003800b4020000b24d0000b4020000b402000097
:10004800b4020000b4020000b40200007a560000b6
:100058003c560000b4020000b4020000b4020000e4
:10006800b4020000b4020000b4020000b4020000b0
:10007800b40200006a5f00003a4f0000824f00009f
:10008800b4020000b4020000b4020000b402000090
:100098003e590000b4020000b6570000785700002f
:1000a800b4020000b4020000b4020000b402000070
:1000b800b4020000fa4d0000624e0000aa4e000093
:1000c800f24e0000b4020000b4020000b4020000c6
:1000d800b4020000b4020000b4020000605900003d
:1000e800fc580000b4020000b4020000b402000092
:1000f800b4020000b4020000b4020000b402000020
:10010800b4020000b4020000b4020000b40200000f
:10011800b4020000b4020000b4020000b4020000ff
:10012800b4020000b4020000b4020000b4020000ef
:10013800b4020000b4020000b4020000b4020000df
:10014800b4020000b4020000b4020000b4020000cf
:10015800b4020000b4020000b4020000b4020000bf
:10016800b4020000b4020000b4020000b4020000af
:10017800b4020000b4020000b4020000b40200009f
:10018800b4020000b4020000b4020000b40200008f
:10019800b4020000b4020000b4020000b40200007f
:1001a800b4020000b4020000b4020000b40200006f
:1001b800b4020000b4020000b4020000b40200005f
:1001c800b4020000b4020000b4020000b40200004f
:1001d800b4020000b4020000b4020000b40200003f
:1001e800b4020000b4020000b4020000b40200002f
:0801f800b4020000b402000093
:020000040000fa
:10020800b4020000b4020000b4020000b40200000e
:10021800b4020000b4020000b4020000b4020000fe
:10022800b40200006a4d0000b402000076580000d5
:10023800b4020000b24d0000b4020000b402000095
:10024800b4020000b4020000b40200007a560000b4
:100258003c560000b4020000b4020000b4020000e2
:10026800b4020000b4020000b4020000b4020000ae
:10027800b40200006a5f00003a4f0000824f00009d
:10028800b4020000b4020000b4020000b40200008e
:100298003e590000b4020000b6570000785700002d
:1002a800b4020000b4020000b4020000b40200006e
:1002b800b4020000fa4d0000624e0000aa4e000091
:1002c800f24e0000b4020000b4020000b4020000c4
:1002d800b4020000b4020000b4020000605900003b
:1002e800fc580000b4020000b4020000b402000090
:1002f800b4020000b4020000b4020000b40200001e
:10030800b4020000b4020000b4020000b40200000d
:10031800b4020000b4020000b4020000b4020000fd
:10032800b4020000b4020000b4020000b4020000ed
:10033800b4020000b4020000b4020000b4020000dd
:10034800b4020000b4020000b4020000b4020000cd
:10035800b4020000b4020000b4020000b4020000bd
:10036800b4020000b4020000b4020000b4020000ad
:10037800b4020000b4020000b4020000b40200009d
:10038800b4020000b4020000b4020000b40200008d
:10039800b4020000b4020000b4020000b40200007d
:1003a800b4020000b4020000b4020000b40200006d
:1003b800b4020000b4020000b4020000b40200005d
:1003c800b4020000b4020000b4020000b40200004d
:1003d800b4020000b4020000b4020000b40200003d
:1003e800b4020000b4020000b4020000b40200002d
:0803f800b4020000b402000091
:020000040000fa
:10541400484500004152000054420000454100004c
:10542400545f0000485a00002c2000002050000067
:10543400494400005f4800005a2c0000205400003a
:10544400494c0000545f00004b5000002c20000029
:10545400544900004c5400005f4b0000492c0000ec
:1054640020410000435200004f5f00004b500000f9
:105474002c20000052410000544500005f4b000006
:10548400502c00002052000041540000455f0000f1
:105494004b4900002c2000005241000054450000fc
:1054a4005f4b0000442c0000202000005941000004
:1054b400575f00004b5000002c20000020590000d2
:1054c400415700005f4b0000492c000020200000e1
:1054d40059410000575f00004b4400002c2000009d
:1054e40041430000434500004c5f00004b0d0000a9
:1054f4000a00000025310000326900002c20000061
:1055040025370000692c000020250000372e0000fc
:10551400336600002c200000253700002e330000e5
:10552400662c000020250000372e000033660000a2
:105534002c200000253700002e330000662c0000cc
:1055440020250000372e0000336600002c200000c8
:10555400253700002e330000662c000020250000b3
:10556400372e0000336600002c2000002537000091
:105574002e330000662c000020250000372e00008a
:10558400336600002c200000253700002e33000075
:10559400660d00000a00000020740000696300002a
:1055a4006b2c000020200000723000002c20000032
:1055b40020200000723100002c2000002020000078
:1055c400723200002c200000202000007233000002
:1055d4002c20000020200000723400002c20000049
:1055e40020200000723500002c2000002020000044
:1055f400723600002c2000002020000072370000ca
:105604002c2000002020000020720000382c000014
:105614002020000074680000302c000020200000ce
:1056240074680000312c0000202000007468000021
:10563400322c00002061000073330000642c000051
:105644006573000074770000782c00006573000017
:1056540074770000792c00006573000074770000f3
:105664007a2c0000696d000075760000782c00002b
:10567400696d000075760000792c0000696d0000ea
:10568400757600007a2c0000696d0000756c0000ce
:10569400782c0000696d0000756c0000792c000006
:1056a400696d0000756c00007a0d00000a000000ae
:1056b4000d0a000000740000656c0000656d0000b8
:1056c4006574000072790000207400007970000095
:1056d400653a000020250000692c000020620000cb
:1056e40061750000643a0000202500006c69000028
:1056f4002c20000066720000657100003a20000052
:1057040025690000204800007a0d00000a0000000e
:10571400253500006c6900002c2500003569000067
:105724002c250000356900002c2500003569000097
:105734002c250000356900002c2500003569000087
:105744002c250000356900002c2500003569000077
:105754002c250000356900002c2500003569000067
:105764002c250000356900002c2500003569000057
:105774002c250000356900002c2500003569000047
:105784002c250000356900002c2500003569000037
:105794002c250000356900002c2500003569000027
:1057a4002c250000356900002c2500003569000017
:1057b4002c250000356900002c2500003569000007
:1057c4002c250000356900000d0a0000007400005b
:1057d400687200006f740000746c0000655f000064
:1057e4006c6900006d690000743a00002025000017
:1057f400660d00000a00000067700000733a0000a4
:10580400202500006c6900002c2500006c69000054
:105814002c2500006c6900002c2500006c69000038
:105824002c2500006c6900002c250000752c00005c
:10583400256900002c250000692c00002569000062
:105844002c250000692c0000256900002c2500008f
:10585400692c0000256900002c250000692c00003b
:10586400256900002c250000692c00002569000032
:105874000d0a0000000000002450000053520000f4
:1058840046310000303000002c3000002c31000084
:1058940039320000303000002c3800002c31000078
:1058a4002c3000002a330000390d00000a000000eb
:1058b4000900000086000000004b00000008000002
:1058c4000100000000000000dd0c0000dc0c000002
:1058d400df0c0000de0c0000e70c0000e60c00000a
:1058e400db0c0000da0c0000d90c0000d80c00001e
:1058f400ca0c0000ca0c0000ca0c0000ca0c00004c
:10590400ca0c0000ca0c0000ca0c0000ca0c00003b
:10591400ca0c0000ca0c0000ca0c0000ca0c00002b
:10592400cf0c0000ce0c0000cd0c0000cc0c00000d
:10593400d30c0000d20c0000d10c0000d00c0000ed
:10594400ca0c0000ca0c0000ca0c0000ca0c0000fb
:10595400d70c0000d60c0000d50c0000d40c0000bd
:10596400ca0c0000e10c0000e00c0000e30c000095
:10597400e20c0000ca0c0000ca0c0000e50c000098
:10598400e40c0000ca0c0000ca0c0000ca0c0000a1
:10599400ca0c0000ca0c0000ca0c0000ca0c0000ab
:1059a400ca0c0000ca0c0000ca0c0000ca0c00009b
:1059b400ca0c0000ca0c0000ca0c0000ca0c00008b
:1059c400ca0c0000ca0c0000ca0c0000ca0c00007b
:1059d400ca0c0000ca0c0000ca0c0000ca0c00006b
:1059e400ca0c0000ca0c0000ca0c0000ca0c00005b
:1059f400ca0c0000ca0c0000ca0c0000ca0c00004b
:105a0400ca0c0000ca0c0000ca0c0000ca0c00003a
:105a1400ca0c0000ca0c0000ca0c0000ca0c00002a
:105a2400ca0c0000cb0c0000e80c0000ca0c0000fb
:105a3400ca0c0000ca0c0000000000009201000023
:105a440024030000b504000046060000d607000049
