:020000040000fa
:080000000002040000000000f2
:020000040000fa
:1000080040b5000036b5000032b500002eb500003e
:100018002ab500003cb5000040b5000040b500001e
:1000280040b500008879000040b500004e9f0000f0
:10003800dc940000c279000040b5000040b5000023
:1000480040b5000040b5000040b500004e920000e9
:100058001492000040b5000040b5000040b5000013
:1000680040b500000a87000040b5000040b5000018
:1000780040b5000040b50000027b00003c7b00005a
:1000880040b5000040b5000040b50000808d00007c
:1000980006a0000040b500007a93000040930000dd
:1000a80040b5000040b5000040b5000018a40000ad
:1000b80040b50000fc790000547a00008e7a0000f8
:1000c800c87a000040b5000040b5000040b5000007
:1000d80040b5000040b5000040b5000024a0000075
:1000e800ca9f000040b5000040b5000040b50000c0
:1000f80040b5000040b5000040b5000040b5000024
:10010800aea3000040b5000040b5000040b50000b7
:1001180040b5000040b5000040b5000040b5000003
:1001280040b5000040b5000040b5000040b50000f3
:1001380040b5000040b5000040b5000040b50000e3
:1001480040b5000040b5000040b5000040b50000d3
:1001580040b5000040b5000040b5000040b50000c3
:1001680040b5000040b5000040b5000040b50000b3
:1001780040b5000040b5000040b5000040b50000a3
:1001880040b5000040b5000040b5000040b5000093
:1001980040b5000040b5000040b5000040b5000083
:1001a80040b5000040b5000040b5000040b5000073
:1001b80040b5000040b5000040b5000040b5000063
:1001c80040b5000040b5000040b5000040b5000053
:1001d80040b5000040b5000040b5000040b5000043
:1001e80040b5000040b5000040b5000040b5000033
:0801f80040b5000040b5000015
:020000040000fa
:1002080040b5000036b5000032b500002eb500003c
:100218002ab500003cb5000040b5000040b500001c
:1002280040b500008879000040b500004e9f0000ee
:10023800dc940000c279000040b5000040b5000021
:1002480040b5000040b5000040b500004e920000e7
:100258001492000040b5000040b5000040b5000011
:1002680040b500000a87000040b5000040b5000016
:1002780040b5000040b50000027b00003c7b000058
:1002880040b5000040b5000040b50000808d00007a
:1002980006a0000040b500007a93000040930000db
:1002a80040b5000040b5000040b5000018a40000ab
:1002b80040b50000fc790000547a00008e7a0000f6
:1002c800c87a000040b5000040b5000040b5000005
:1002d80040b5000040b5000040b5000024a0000073
:1002e800ca9f000040b5000040b5000040b50000be
:1002f80040b5000040b5000040b5000040b5000022
:10030800aea3000040b5000040b5000040b50000b5
:1003180040b5000040b5000040b5000040b5000001
:1003280040b5000040b5000040b5000040b50000f1
:1003380040b5000040b5000040b5000040b50000e1
:1003480040b5000040b5000040b5000040b50000d1
:1003580040b5000040b5000040b5000040b50000c1
:1003680040b5000040b5000040b5000040b50000b1
:1003780040b5000040b5000040b5000040b50000a1
:1003880040b5000040b5000040b5000040b5000091
:1003980040b5000040b5000040b5000040b5000081
:1003a80040b5000040b5000040b5000040b5000071
:1003b80040b5000040b5000040b5000040b5000061
:1003c80040b5000040b5000040b5000040b5000051
:1003d80040b5000040b5000040b5000040b5000041
:1003e80040b5000040b5000040b5000040b5000031
:0803f80040b5000040b5000013
:020000040000fa
:100400004fff21000efb27000e01880000000000b6
:100410000c000700804925000100200011000700a2
:10042000000020000000e000020032000000020096
:100430000000000050b50200000000000040da009b
:100440000000fe004440a900c0da20000000e000e7
:100450000300320000002000a00188004440a800f2
:100460000000060091018800800078000000eb0089
:1004700015003700e280400032a0b4009101ba00bc
:10048000e280400032a0b4009102ba00e280400055
:1004900032a0b4000002eb00472bde00f507b200eb
:1004a000602ce10004003a000059eb008301e900f0
:1004b000fdff3e00040037006128e100010032002a
:1004c0000082eb00040007001101ba000200e00006
:1004d000e8ff3a00000006003159ba008301e90044
:1004e0000c0032002159ba008301e90008003200f3
:1004f0000400e00003003a00e280400032a0b400b3
:10050000f5ff370011d9ba008301e900faff3a007c
:100510008100e800e180400032a0b4000000060045
:10052000a868040000000000e86804000000000063
:100530007868040000000000066904000000000064
:10054000306904000000000052690400000000004f
:100550007269040000000000526a040000000000fc
:10056000906a040000000000ce6a04000000000051
:100570000c6b0400000000004a6b04000000000047
:10058000cc6b040000000000886b04000000000039
:10059000fa6b040000000000aa6b040000000000d9
:1005a0001ea2040000000000baa004000000000029
:1005b000f0860400000000008089040000000000b4
:1005c00028880400000000003888040000000000b3
:1005d0004c88040000000000fc88040000000000bb
:1005e0009a88040000000000da880400000000007f
:1005f000e6880400000000000c89040000000000f0
:100600001e8904000000000046890400000000006c
:1006100074890400000000003a8904000000000012
:100620008689040000000000c48a04000000000065
:10063000cc8a0400000000000a8b040000000000c7
:10064000708b040000000000b48b04000000000068
:10065000f48b0400000000003a8c0400000000004d
:10066000282e040000000000f06c040000000000d0
:10067000d86d040000000000b66f04000000000008
:100680001e720400000000008e4f040000000000f5
:10069000225104000000000044510400000000004a
:1006a000fa51040000000000d651040000000000d0
:1006b0005c4f040000000000344c04000000000007
:1006c0003e500400000000008054040000000000c0
:1006d00072ab0400000000007aab040000000000d0
:1006e000ea250400000000002226040000000000ab
:1006f000b624040000000000fa24040000000000fa
:1007000038250400000000009625040000000000c9
:1007100034240400000000007824040000000000dd
:100720006226040000000000ce2604000000000045
:1007300026270400000000007227040000000000cb
:1007400054280400000000009c2804000000000061
:10075000b427040000000000fc2704000000000093
:10076000b829040000000000242a04000000000052
:10077000f4280400000000006029040000000000cc
:100780001a7f040000000000327f04000000000017
:10079000027c040000000000067f0400000000004e
:1007a000be42040000000000ca4204000000000035
:1007b0000645040000000000fe43040000000000a5
:1007c0007c45040000000000884504000000000093
:1007d0008e440400000000002243040000000000da
:1007e0008c430400000000001245040000000000db
:1007f000e44504000000000036470400000000004b
:10080000ac48040000000000444a0400000000005e
:10081000904a040000000000004b040000000000ab
:1008200080007800010037008100e8000041eb0003
:10083000914f1100fcff3a000080500000000600bc
:100840008001780002003700b15978000201e90008
:10085000e00f5100fcff3a00000006008001780024
:1008600002003700815978000201e900e00f5100d1
:10087000fcff3a000000060004003700e04f510082
:10088000090032000000e8008100e8001041780013
:10089000914f5100f9ff3200100020000300310099
:1008a0000080eb00000006000000eb0000000600e6
:1008b0000b0037001042780091417800834f5200be
:1008c0000400320010002000080031000080eb001e
:1008d000000006000000e8008100e8000201e900d5
:1008e000e00f5100f3ff3a0002007800000006001c
:1008f000839f68000100e00002003d0060001000de
:10090000e08018000300e00002003d0060011100db
:10091000e0811900450107004f00e00002003b00a4
:1009200060001000e080180000000600889fbe00f4
:100930008a9fbe008c1f78000006eb00e00f50007d
:10094000e08f5800e00f5900e08f590007003d008c
:100950006044b8006055b8000000540081805c001d
:1009600002015d0083815d001c002000e00f520049
:10097000e08f5a00e00f5b00e08f5b0007003d0056
:100980006044b8006055b8000402540085825c00e1
:1009900006035d0087835d000c00a20033010700a1
:1009a000e00f5600060032006022b8006033b80045
:1009b0000000520081805a0002015b0083815b00cd
:1009c0004f0678004f05be004f04be000000060031
:1009d000889fbe008a9fbe008c1f780045010700db
:1009e0004c01330003866c006450e10024003200a7
:1009f0006420e100270032006150e1002200320053
:100a00006120e100210032008b854200eb07b1003c
:100a10000134b800003ab8000804420089844a0052
:100a2000013ab8000030b8008880400009014a004f
:100a300004003300000040008180480002014900aa
:100a40008b05e900c909dd00830170000100320057
:100a500013002000c814de004814dd004709de0042
:100a60001200b200c808de000884700039010700d7
:100a700001f0a1000cf0a70001f0a0002e0137004a
:100a80006120e100300132000801be000200be001a
:100a9000f7ff37006150e100fcff3a002a01370000
:100aa0000001be00510107000470a70003f0a1007f
:100ab0006509b100160032000d0035006828e1001c
:100ac00006003500f0ff2f00f1ff27000300e000d3
:100ad00013003b000100280000000500000040005a
:100ae000818048008502e900fcff3a0008003700d9
:100af000f88f420002003c008000eb00000005007f
:100b00008100d1000080d3008502e800fcff3a009c
:100b10000300e00002003b0060001000e0801800cd
:100b2000000006001400200045013700f4ff2f00ec
:100b3000430137004f89de00820178005b013700f6
:100b4000889fbe008a9fbe008c1f7800e9000700c6
:100b5000f000330003866c006450e1002e00320088
:100b60006420e100330032006150e1002f003200c8
:100b70006120e1003100320085855500eb07b000af
:100b80000900200008042000050037000804440084
:100b900089844c000a0031000603430087834b0020
:100ba0000001530081815b00f8ff33000203be00a7
:100bb0000800a0000804440089844c00f6ff3900b6
:100bc000c639dd00830173000100320013002000ec
:100bd0008904d1000884d3000998a30005003200dd
:100be0000800a7000300a0008904d1000884d300f6
:100bf0008b05e8008904d1000884d3000001eb00d4
:100c00000281d200d300070001f0a1000cf0a70080
:100c100001f0a000c80037006420e100ca003200e3
:100c20000801be000200be00f7ff37006120e100ae
:100c3000c50032006000b800f3ff3700000020005c
:100c400001f82700f0ff370003f0a200889fbe00e4
:100c50008a9fbe008c1f7800a6000700ad003300fd
:100c60006450e1004f0032006420e1005200320085
:100c700003826c0007003b000905d0000306d0008a
:100c8000820f54000c065d000200390002003200a1
:100c900089017800030678008582550004003d0034
:100ca0000003fd008103fd008502ea008b85420000
:100cb000840f720002003b0060001000e08018000a
:100cc0006011b8000005eb007a28e1000a00390045
:100cd00006007800c75ddd00f707b2008780750069
:100ce0002d003700828171000a01780061056000e3
:100cf0008180d1000080d3008502e900f9ff3b002c
:100d0000060440008784480002003b006004140091
:100d1000e0841c000988a300070032008a8171006a
:100d200082817100610164008904d1000884d300cc
:100d30008b05e800170037000978a30013003a007c
:100d40000b00e000130034008b05e90008044400a8
:100d500089844c000a4474000978a3000d003a000d
:100d60000b00e000070034008b05e9000804440094
:100d700089844c0001003a000b0020000978a30090
:100d8000f7ff32000001eb000200370082817100a2
:100d90000a0178006f0007000cf0a70001f0a00026
:100da000650037006420e10002003a00838f6c0088
:100db000650033000801be000200be005e0037007f
:100dc0000001be00890007000470a70003f0a10025
:100dd00003f8a30013003a006509b10010003200c7
:100de000090035006928e1000200350001002800f3
:100df0000000050000004000818048008502e900f5
:100e0000fcff3a0000000600f88f420005003500a4
:100e10008100d1000080d3008502e800fcff3a0089
:100e2000000006008000eb00000005006022b80012
:100e3000060220000000d0008180d2000482d2008f
:100e40008582d2000000a0000202520083825a0074
:100e5000030031000202420083824a000000a10028
:100e60000603e900f3ff3a0000000600889fbe0079
:100e70008a9fbe008c9fbe000404b8000506b8001f
:100e80008904460060854e000606b8000a05460043
:100e9000e0854e000706b8008b054600040eb8003a
:100ea000890446000a854e00e0854d00050eb80015
:100eb0000a0546008b854e00060eb8008b054600dd
:100ec0000416b8000a0546008b854e000516b800ca
:100ed0008b054600041eb8008b0546000800be00c6
:100ee0000a01be004f06be004f05be004f04be0003
:100ef000000006000004be003c0007000003be0026
:100f00000405be000200be0038000700844f7500d3
:100f1000000006000200be006450e100050036003b
:100f20006420e100020036000968a30001003a00d5
:100f30000800be000160a0004f0678004f05be000b
:100f40004f04be0000000600f0ff2f00f1ff270055
:100f5000f9ff370081002000618055000b003d0043
:100f60000b00200061fe2f000100e1001d00340095
:100f700082817100610164008904d1000884d3007a
:100f80000000e800faff3a007100200061006400f0
:100f90000300700002006000090032006104440098
:100fa000e0844c000988a500050032008b05e800ac
:100fb0006808e10002003a008904d1000884d300e7
:100fc000f20f20000258e10005003d00c75ddd0082
:100fd000f907b2008980750008007800000006005b
:100fe0000bf827008b00780000000500c70ade0020
:100ff000f107b200f50fb20008003200e1cf420065
:10100000020032000170a00024000500810f700072
:10101000010032000408050044000500810f700043
:1010200002003a00140005008502e90000004000bb
:1010300081c04800fcff3b000170a00024000500b7
:10104000889fbe008a9fbe00841f7800a9ff07000a
:101050004f00780011003300f0ff2f00838f6c00e9
:1010600006003b00040565000a00a70008003700e1
:1010700009f0a6001000200008003700820f54007d
:10108000838f5c00030039001000200001003e0047
:101090000000200009f0a7000000ea004f05be0094
:1010a0004f04be000000e00000000600881f78002a
:1010b000030478000300e00007003d00600010001a
:1010c000e080180060011900e081190002003b0077
:1010d00001f02d00030037000400070008f0a7000e
:1010e00001f0a0004f04780000000600889fbe00b9
:1010f0008a9fbe00008270000402710004827100a9
:10110000260032000004be000200be006011b800dc
:101110006b092000950220000182cf000a003900ef
:101120000541b1000082cf00070039000541b10040
:101130000982cf00040039000541b1000882cf00c8
:10114000010039000541b100054252001200320091
:101150000a003b0082817100610164008100d100be
:101160000080d3008984d3000884d3008b05e80075
:101170000442e800f7ff3a00070037000804440083
:1011800089844c0000004800818048008b05e900fc
:101190000442e900f9ff3a006eff07004f05be0068
:1011a0004f04be00000006002200f8002400f800f2
:1011b0002600f8000100b8000000e9004400f80033
:1011c000010f200021028800820078003800f8001a
:1011d0003a00f8003c00f8003e00f8004000f8003b
:1011e0000080080004000000b30278000500ca0077
:1011f000b40278000500c9003200cc004000f900bc
:101200003e00f9003c00f9003a00f9003800f9000e
:10121000010078004400f9002600f9002400f900dc
:101220002200f900000006002200f8002400f80067
:101230002600f800889fbe008a9fbe008c9fbe00db
:101240004400f8000d0f20002d028800830678006e
:101250000106e9008205e9008180400002014100a9
:101260000000e90024003500050578003800f8008a
:101270003a00f8003c00f8003e00f8004000f8009a
:101280000b80080014000000040478008a04780031
:101290001201c3003800f8003a00f8003c00f800e2
:1012a0003e00f8004000f8000c8008000300000039
:1012b00038037800990378001201c6008284440044
:1012c0004000f9003e00f9003c00f9003a00f90046
:1012d0003800f9003300cd000a85e8004000f9002d
:1012e0003e00f9003c00f9003a00f9003800f9002e
:1012f00001024200daff37000d0078004400f900d7
:101300004f06be004f05be004f04be002600f90088
:101310002400f9002200f900000006002200f80075
:101320002400f8002600f8004400f800050f200013
:10133000250288000100b8000000e9008200780062
:101340003800f8003a00f8003c00f8003e00f800d1
:101350004000f8000080080002000000b30278009e
:101360001301c0003200cd004000f9003e00f9003a
:101370003c00f9003a00f9003800f900010078005b
:101380004400f9002600f9002400f9002200f900c9
:10139000000006002200f8002400f8002600f800f3
:1013a0002800f8002a00f8002c00f8000100b8001e
:1013b0000000e9004400f800010f2000210288002d
:1013c000820078003800f8003a00f8003c00f8008d
:1013d0003e00f8004000f800008008000500000012
:1013e000b30278000500ca00b40278000580ca0084
:1013f0000030cb003200cc004000f9003e00f90084
:101400003c00f9003a00f9003800f90001007800ca
:101410004400f9002c00f9002a00f9002800f90026
:101420002600f9002400f9002200f900000006005f
:10143000820278000000e9000102e900818040009a
:101440003800f8003a00f8003c00f8003e00f800d0
:101450004000f8000480080011000000030278003a
:101460003800f8003a00f8003c00f8003e00f800b0
:101470004000f80000800800010000001419780006
:10148000010242004000f9003e00f9003c00f90072
:101490003a00f9003800f900000000008381e800fc
:1014a000000000004000f9003e00f9003c00f90097
:1014b0003a00f9003800f900050078000000060045
:1014c0002200f8002400f8002600f8004400f8008c
:1014d000040f200024028800010278000000e900c7
:1014e0003800f8003a00f8003c00f8003e00f80030
:1014f0004000f8000080080004000000b2027800fc
:101500000500ca00b30278000500c9003100cc0014
:101510004000f9003e00f9003c00f9003a00f900f3
:101520003800f900040078004400f9002600f900b2
:101530002400f9002200f900000006002200f80053
:101540002400f8002600f800889fbe008a1f78005b
:101550004400f800070f200027028800821f78004f
:101560008103e9000005eb003800f8003a00f800bc
:101570003c00f8003e00f8004000f800078008003a
:101580001400000003047800840478001201c300f2
:101590003800f8003a00f8003c00f8003e00f8007f
:1015a0004000f8000a80080002000000b80278003d
:1015b000290378001201c4004000f9003e00f90040
:1015c0003c00f9003a00f9003800f9003200cd0083
:1015d0000482e8000a05e8004000f9003e00f90036
:1015e0003c00f9003a00f9003800f9000482e900f3
:1015f0008381e80001055000210034000a05e9005c
:101600003800f8003a00f8003c00f8003e00f8000e
:101610004000f8000a80080013000000030478006e
:10162000840478001201c3003800f8003a00f80082
:101630003c00f8003e00f8004000f8000780080079
:1016400002000000b8027800290378001201c400eb
:101650004000f9003e00f9003c00f9003a00f900b2
:101660003800f9003200cd008381e8004000f90025
:101670003e00f9003c00f9003a00f9003800f9009a
:101680008703e900210035003800f8003a00f8002f
:101690003c00f8003e00f8004000f8000780080019
:1016a0001400000003047800840478001201c300d1
:1016b0003800f8003a00f8003c00f8003e00f8005e
:1016c0004000f8000780080002000000b80278001f
:1016d000290378001201c4004000f9003e00f9001f
:1016e0003c00f9003a00f9003800f9003200cd0062
:1016f0008381e8008703e9004000f9003e00f9001b
:101700003c00f9003a00f9003800f9004f00780079
:101710004400f9004f0578004f04be002600f90090
:101720002400f9002200f900000006003600f8004d
:10173000810178000000e90000800900b2187800fb
:10174000030078003600f9000000060084037800ea
:101750008102e9008502d000050342008102d10028
:101760008502e9003800f8003a00f8003c00f80073
:101770003e00f8004000f80005800800020000006c
:101780009602780017137800851b78004000f90056
:101790003e00f9003c00f9003a00f9003800f90079
:1017a0009e0a020000000000000006002200f8006f
:1017b0002400f8002600f8004400f800040f200080
:1017c000240288000000e9001201c3003800f8007c
:1017d0003a00f8003c00f8003e00f8004000f80035
:1017e000008008000200000031027800b202780098
:1017f0001201c0004000f9003e00f9003c00f90071
:101800003a00f9003800f9000000cd004400f9006a
:101810002600f9002400f9002200f900000006006b
:10182000b10278000009eb000002e9000700340073
:10183000b10178000328e10002003c008302780037
:10184000040950000402e900f9ff3c00050078009b
:1018500000000600b10278000009eb000002e90078
:1018600007003400b10178000328e10002003500d0
:1018700083027800040950000402e900f9ff3c00eb
:1018800005007800000006002200f8002400f8009f
:101890002600f8004400f800040f2000240288000d
:1018a000811f78000000e9003800f8003a00f800d5
:1018b0003c00f8003e00f8004000f80000800800fe
:1018c0000300000032027800b30278001301c00068
:1018d0003100cd004000f9003e00f9003c00f90065
:1018e0003a00f9003800f9004f0078004400f90090
:1018f0002600f9002400f9002200f900000006008b
:101900002200f8002400f8002600f8004400f80047
:10191000030f200023028800810178000000e90005
:10192000040028001201c3003800f8003a00f80053
:101930003c00f8003e00f8004000f800008008007d
:1019400003000000b20278001201c0003100cc0098
:101950001201c3004000f9003e00f9003c00f9000c
:101960003a00f9003800f900030078004400f9005b
:101970002600f9002400f9002200f900000006000a
:101980002200f8002400f8002600f8004400f800c7
:10199000020f2000220288000000e9001201c300ab
:1019a0003800f8003a00f8003c00f8003e00f8006b
:1019b0004000f800008008000100000031027800bb
:1019c0001001f0004000f9003e00f9003c00f90071
:1019d0003a00f9003800f9000000cd004400f90099
:1019e0002600f9002400f9002200f900000006009a
:1019f0002200f8002400f8002600f8004400f80057
:101a0000040f200024028800811f78000000e900f4
:101a1000030278003800f8003a00f8003c00f800b3
:101a20003e00f8004000f8000080080002000000be
:101a3000b20278001301c0003100cd004000f9006f
:101a40003e00f9003c00f9003a00f9003800f900c6
:101a50004f0078004400f9002600f9002400f90046
:101a60002200f900000006002200f8002400f8001f
:101a70002600f8002800f8002a00f8002c00f800e2
:101a80004400f800040f20002402880001027800be
:101a90000000e9003800f8003a00f8003c00f800c7
:101aa0003e00f8004000f80000800800050000003b
:101ab000b20278000500ca00b30278000580ca00af
:101ac0000030cb003100cc004000f9003e00f900ae
:101ad0003c00f9003a00f9003800f90004007800f1
:101ae0004400f9002c00f9002a00f9002800f90050
:101af0002600f9002400f9002200f9000000060089
:101b00003600f800020378000002d0008102e900ec
:101b10008200780003017800960b020000000000ac
:101b20000400400001002000058009000118780031
:0c1b3000060078003600f90000000600f6
:020000040000fa
:101b3c00ea2500002226000006000000b624000062
:101b4c00fa2400000900000038250000962500004a
:101b5c000900000034240000782400000900000073
:101b6c0062260000ce26000006000000262700009a
:101b7c007227000006000000542800009c2800007a
:101b8c0009000000b4270000fc2700000900000039
:101b9c00b8290000242a000006000000f4280000e8
:101bac00602900000600000050490000445f00005e
:101bbc00524f00004c4c00004b5000000000000045
:101bcc000000000000000000000000000000000009
:101bdc0000000000003f00000100000000000000b9
:101bec00901f00000200000050490000445f0000fc
:101bfc00524f00004c4c00004b4400000000000011
:101c0c0000000000000000000000000000000000c8
:101c1c0000000000003f0000030000000000000076
:101c2c00921f00000200000050490000445f0000b9
:101c3c0059410000574b000050410000494c000036
:101c4c000000000000000000000000000000000088
:101c5c0000000000003f0000010000000000000038
:101c6c005a1f00000200000050490000445f0000b1
:101c7c0059410000574b000044410000494c000002
:101c8c000000000000000000000000000000000048
:101c9c0000000000003f00000300000000000000f6
:101cac008e1f00000200000050490000445f00003d
:101cbc0050490000544300004847000041490000cf
:101ccc004e000000000000000000000000000000ba
:101cdc0000000000003f00000100000000000000b8
:101cec003c1f00000200000050490000445f00004f
:101cfc005049000054430000484b000044000000d1
:101d0c0000000000000000000000000000000000c7
:101d1c0000000000003f0000010000000000000077
:101d2c003e1f00000200000050490000445f00000c
:101d3c0052550000444500004c4500005647000039
:101d4c00414900004e0000000000000000000000af
:101d5c0000000000003f0000010000000000000037
:101d6c00441f00000200000050490000445f0000c6
:101d7c00524f00004c4c00004b50000052550000dc
:101d8c004400000000000000000000000000000003
:101d9c0000000000003f00000100000000000000f7
:101dac00a41f00000200000050490000445f000026
:101dbc0059410000574b00005052000055440000a0
:101dcc000000000000000000000000000000000007
:101ddc0000000000003f00000100000000000000b7
:101dec005c1f00000200000050490000445f00002e
:101dfc0059410000574b000044520000554400006c
:101e0c0000000000000000000000000000000000c6
:101e1c0000000000003f0000010000000000000076
:101e2c005c1f00000200000050490000445f0000ed
:101e3c00524f00004c4c00004b500000525500001b
:101e4c004400000000000000000000000000000042
:101e5c0000000000003f0000010000000000000036
:101e6c00a41f00000200000050490000445f000065
:101e7c00524f00004c4c00004b44000052550000e7
:101e8c004400000000000000000000000000000002
:101e9c0000000000003f00000100000000000000f6
:101eac00a61f0000020000004d410000475f00002b
:101ebc00434100004c5f00005241000057300000cd
:101ecc00000000000000000001800000ffff000087
:101edc00ff7f000000000000000000000000000078
:101eec0012080000020000004d410000475f000096
:101efc00434100004c5f000052410000573100008c
:101f0c00000000000000000001800000ffff000046
:101f1c00ff7f000000000000000000000000000037
:101f2c0014080000020000004d410000475f000053
:101f3c00434100004c5f000052410000573200004a
:101f4c00000000000000000001800000ffff000006
:101f5c00ff7f0000000000000000000000000000f7
:101f6c0016080000020000004d410000475f000011
:101f7c0047410000494e0000300000000000000006
:101f8c00000000000000000001800000ffff0000c6
:101f9c00ff7f0000000000000000000000000000b7
:101fac000c080000020000004d410000475f0000db
:101fbc0047410000494e00003100000000000000c5
:101fcc00000000000000000001800000ffff000086
:101fdc00ff7f000000000000000000000000000077
:101fec000e080000020000004d410000475f000099
:101ffc0047410000494e0000320000000000000084
:10200c00000000000000000001800000ffff000045
:10201c00ff7f000000000000000000000000000036
:10202c0010080000020000004d410000475f000056
:10203c004f4600004653000045540000300000009d
:10204c00000000000000000001800000ffff000005
:10205c00ff7f0000000000000000000000000000f6
:10206c0006080000020000004d410000475f000020
:10207c004f4600004653000045540000310000005c
:10208c00000000000000000001800000ffff0000c5
:10209c00ff7f0000000000000000000000000000b6
:1020ac0008080000020000004d410000475f0000de
:1020bc004f4600004653000045540000320000001b
:1020cc00000000000000000001800000ffff000085
:1020dc00ff7f000000000000000000000000000076
:1020ec000a080000020000004d410000475f00009c
:1020fc0044450000434c0000494e00004154000090
:10210c00494f00004e0000004cff0000ffff000094
:10211c00b4000000000000000400000000000000fb
:10212c00e61c000002000000505700005452000052
:10213c00494d00005f5200004f4c00004c00000065
:10214c0000000000000000000000000048440000f7
:10215c0000800000094500000200000000000000a3
:10216c006e1d000002000000505700005452000089
:10217c00494d00005f5000004954000043480000e6
:10218c0000000000000000000000000048440000b7
:10219c000080000009450000020000000000000063
:1021ac00701d000002000000505700005452000047
:1021bc00494d00005f540000485200004f5400008d
:1021cc00544c000045000000000000004844000092
:1021dc000080000009450000020000000000000023
:1021ec00721d000002000000505700005452000005
:1021fc00494d00005f5900004157000000000000ed
:10220c000000000000000000000000004844000036
:10221c0000800000094500000200000000000000e2
:10222c00741d0000020000005057000054520000c2
:10223c00494d00005f4600004c410000500000007a
:10224c0000000000000000000000000048440000f6
:10225c0000800000094500000200000000000000a2
:10226c00761d000002000000505700005452000080
:10227c00494d00005f4100004952000042520000ed
:10228c00414b0000450000000000000048440000e5
:10229c000080000009450000020000000000000062
:1022ac007a1d00000200000050570000545200003c
:1022bc00494d00005f530000504f0000494c000096
:1022cc0045520000000000000000000048440000df
:1022dc000080000009450000020000000000000022
:1022ec006c1d00000200000050570000545200000a
:1022fc00494d00005f430000414d00004245000085
:10230c0052000000000000000000000048440000e3
:10231c0000800000094500000200000000000000e1
:10232c00781d0000020000005057000054520000bd
:10233c00494d00005f430000524f00005700000061
:10234c0000000000000000000000000048440000f5
:10235c0000800000094500000200000000000000a1
:10236c006c1d000002000000505700005452000089
:10237c00494d00005f430000414d000050490000f2
:10238c0054430000480000000000000048440000d6
:10239c000080000009450000020000000000000061
:1023ac006c1d000002000000505700005452000049
:1023bc00494d00005f430000414d00005f59000093
:1023cc0041570000000000000000000048440000dd
:1023dc000080000009450000020000000000000021
:1023ec006c1d000002000000494d0000555f00000c
:1023fc005841000043430000454c00005f4f000073
:10240c00464600000000000001800000ffff0000b5
:10241c00ff7f000000000000000000000000000032
:10242c00a01c000002000000494d0000555f000098
:10243c005941000043430000454c00005f4f000031
:10244c00464600000000000001800000ffff000075
:10245c00ff7f0000000000000000000000000000f2
:10246c00aa1c000002000000494d0000555f00004e
:10247c005a41000043430000454c00005f4f0000f0
:10248c00464600000000000001800000ffff000035
:10249c00ff7f0000000000000000000000000000b2
:1024ac00b41c000002000000494d0000555f000004
:1024bc0058470000595200004f5f00004f46000083
:1024cc00460000000000000001800000ffff00003b
:1024dc00ff7f000000000000000000000000000072
:1024ec00be1c000002000000494d0000555f0000ba
:1024fc0059470000595200004f5f00004f46000042
:10250c00460000000000000001800000ffff0000fa
:10251c00ff7f000000000000000000000000000031
:10252c00c81c000002000000494d0000555f00006f
:10253c005a470000595200004f5f00004f46000000
:10254c00460000000000000001800000ffff0000ba
:10255c00ff7f0000000000000000000000000000f1
:10256c00d21c000002000000494d0000555f000025
:10257c0056520000454600005f4f000046460000e2
:10258c00000000000000000001800000ffff0000c0
:10259c00ff7f0000000000000000000000000000b1
:1025ac00dc1c000002000000544800005f480000e2
:1025bc005f5400004152000047450000545f00008a
:1025cc004d4900004e00000000000000000000001b
:1025dc0001000000000000000000000000000000ee
:1025ec002c1f000002000000544800005f4800004f
:1025fc005f5400004152000047450000545f00004a
:10260c004d410000580000000000000000000000d8
:10261c0001000000000000000000000000000000ad
:10262c002e1f000002000000544800005f4800000c
:10263c005f4d000041520000474900004e00000071
:10264c00000000000000000001000000000000007d
:10265c00f401000000000000000000000000000079
:10266c00ca1e000002000000544800005f54000025
:10267c005f4800004f4c0000445f00004d490000d3
:10268c004e000000000000000000000000000000f0
:10269c0000000000803f000001000000000000006e
:1026ac00cc1e000002000000544800005f540000e3
:1026bc005f4800004f4c0000445f00004d4100009b
:1026cc0058000000000000000000000000000000a6
:1026dc0000000000803f000001000000000000002e
:1026ec00ce1e000002000000544800005f500000a5
:1026fc005f4800004f4c0000445f00004d49000053
:10270c004e00000000000000a7ff0000ffff0000cb
:10271c0000000000000000000000000000000000ad
:10272c00481f000002000000544800005f500000e9
:10273c005f4800004f4c0000445f00004d4100001a
:10274c005800000000000000000000000000000025
:10275c005900000000000000000000000000000014
:10276c004a1f0000020000004153000050440000ca
:10277c005f440000455300004952000045440000ee
:10278c00000000000000000000000000000000003d
:10279c00000000009643000006000000000000004e
:1027ac00d41e000002000000415300005044000001
:1027bc005f4d0000494e00005f4700005350000081
:1027cc0044000000000000000000000000000000b9
:1027dc00004000009c4600000700000000000000c4
:1027ec00421e000002000000415300005044000053
:1027fc005f4d0000494e000000000000000000008a
:10280c0000000000000000000000000000000000bc
:10281c0000000000964300000700000000000000cc
:10282c00441e000002000000415300005044000010
:10283c005f4d000041580000000000000000000047
:10284c00000000000000000000000000000000007c
:10285c00000000009643000007000000000000008c
:10286c00461e0000020000004153000050440000ce
:10287c005f43000052550000495300004500000022
:10288c00000000000000000000000000000000003c
:10289c00000000009643000007000000000000004c
:1028ac00481e00000200000041530000504400008c
:1028bc005f5000005f4d0000494e00005f4100007a
:1028cc005350000044000000a6ff0000ffff000072
:1028dc005a00000000000000090000000000000089
:1028ec00561e00000200000041530000504400003e
:1028fc005f5000005f4d0000415800005f41000038
:10290c005350000044000000a6ff0000ffff000031
:10291c005a00000000000000090000000000000048
:10292c00581e0000020000004153000050440000fb
:10293c005f5000005f52000041540000455f0000f2
:10294c004c4900004d000000010000000000000098
:10295c00d002000000000000080000000000000091
:10296c004a1e0000020000004153000050440000c9
:10297c005f5000005f4b00004900000000000000a9
:10298c00000000000000000000000000000000003b
:10299c0000000000803f000001000000000000006b
:1029ac00541e00000200000041530000504400007f
:1029bc005f5000005f4b0000495f00004c49000075
:1029cc004d49000054000000000000000000000011
:1029dc002d000000000000000900000000000000b5
:1029ec00521e0000020000003900000024500000bc
:1029fc0055420000582c0000343100002c310000ee
:102a0c002c30000030300000332c0000303000003f
:102a1c00303300002c31000039320000303000001f
:102a2c002c3000002a320000310d00000a0000009a
:102a3c002450000055420000582c00003431000096
:102a4c002c3100002c30000030300000332c000002
:102a5c0030300000303100002c31000039320000e1
:102a6c00303000002c3000002a320000330d000002
:102a7c000a0000002450000055420000582c0000b1
:102a8c00343000002c470000535600002c3000005e
:102a9c002c3000002c3000002c3000002c300000ba
:102aac002c3000002a350000390d00000a0000000f
:102abc002450000055420000582c00003430000017
:102acc002c560000544700002c3000002c30000025
:102adc002c3000002c3000002c3000002c3000007a
:102aec002a350000450d00000a00000024500000ab
:102afc0055420000582c0000343000002c470000d8
:102b0c004c4c00002c3000002c3000002c3000000d
:102b1c002c3000002c3000002c3000002a35000036
:102b2c00430d00000a000000245000005542000034
:102b3c00582c0000343000002c470000534100009a
:102b4c002c3000002c3000002c3000002c30000009
:102b5c002c3000002c3000002a340000450d000001
:102b6c000a000000b5620000060800000600000024
:102b7c00fa000000010000000100000010960000a7
:102b8c00b562000006000000140000000100000007
:102b9c0000000000d008000000000000004b000006
:102bac000000000003000000010000000000000015
:102bbc0000000000422b0000b5620000060000007f
:102bcc00140000000100000000000000d00800000c
:102bdc0000000000004b000000000000030000009b
:102bec00030000000000000000000000443700005b
:102bfc00b56200000601000008000000010600009c
:102c0c0000010000000000000000000017da0000c6
:102c1c00b56200000601000008000000010200007f
:102c2c0000010000000000000000000013be0000c6
:102c3c00b56200000601000008000000011200004f
:102c4c00000100000000000000000000232e000026
:102c5c00b56200000601000008000000010400003d
:102c6c0000040000000000000000000018db000061
:102c7c00b562000006160000080000000103000009
:102c8c0001000000000000000000000029ad000061
:102c9c00b56200000624000024000000ffff0000c5
:102cac0004020000000000000000000010270000db
:102cbc000000000005000000fa000000fa0000000f
:102ccc00640000002c010000000000000000000067
:102cdc0000000000000000000000000000000000e8
:102cec0000000000137700000e0000001000000030
:102cfc001000000010000000100000001c0000007c
:102d0c00100000002c0000007c1c00007d1c00004a
:102d1c007e1c00007f1c0000601c0000601c00007a
:102d2c00601c0000601c0000821c0000831c000062
:102d3c00621c0000601c0000601c0000601c000095
:102d4c00601c0000601c0000601c0000601c000087
:102d5c00601c0000601c0000601c0000601c000077
:102d6c00601c0000601c0000601c0000601c000067
:102d7c00601c0000601c0000601c0000601c000057
:102d8c00601c0000601c0000601c0000601c000047
:102d9c00601c0000601c0000601c0000601c000037
:102dac00601c0000601c0000601c0000601c000027
:102dbc00601c0000601c0000601c0000601c000017
:102dcc00601c0000611c0000601c0000601c000006
:102ddc00601c0000601c0000601c0000601c0000f7
:102dec00601c0000601c0000601c0000601c0000e7
:102dfc00601c0000601c0000601c0000601c0000d7
:102e0c00601c0000601c0000801c0000811c000085
:102e1c00601c0000601c0000601c0000601c0000b6
:102e2c00601c0000601c0000601c0000601c0000a6
:102e3c00681c0000691c00006a1c00006b1c000070
:102e4c00641c0000651c0000661c0000671c000070
:102e5c00601c0000601c0000601c0000601c000076
:102e6c006c1c00006d1c00006e1c00006f1c000030
:102e7c00601c0000601c0000601c0000601c000056
:102e8c00601c0000601c0000601c0000601c000046
:102e9c00601c0000601c0000601c0000601c000036
:102eac00601c0000601c0000601c0000601c000026
:102ebc00601c0000601c0000601c0000601c000016
:102ecc00781c0000791c00007a1c00007b1c0000a0
:102edc00601c0000601c0000601c0000601c0000f6
:102eec00701c0000711c0000721c0000731c0000a0
:102efc00741c0000751c0000761c0000771c000080
:102f0c00601c0000601c0000601c0000601c0000c5
:102f1c00601c0000601c0000601c0000601c0000b5
:102f2c00901c0000911c0000921c0000931c0000df
:102f3c00941c0000951c0000841c0000851c0000e3
:102f4c00861c0000871c0000881c0000891c0000e7
:102f5c0066610000696c000065640000207400006c
:102f6c006172000067650000742000007379000036
:102f7c0073740000656d000020630000686500003c
:102f8c00636b0000206f00006e2000007061000079
:102f9c00726100006d650000746500007220000015
:102fac0073650000742000000d0a00000000000092
:102fbc00281400000d0a0000080700000605000098
:102fcc0004040000327c000089000000edd90000f0
:102fdc0068770000000000000059000000000000ad
:102fec00000000000000000000000000d69f000060
:102ffc00dca8000018170000aa9000004373000022
:10300c0027f60000b9680000edf40000ded40000e3
:10301c0009fe0000e61c00001c840000dde8000036
:10302c000b99000029270000d6df00008d2100003d
:10303c000f03000064180000efee00000000000019
:10304c00b70000008200000094150000003400005e
:10305c007c0000000000000014000000988f0000ad
:10306c000000000000000000000000000000000054
:10307c000000000000000000b73f00003600000018
:10308c0000000000000000000000000013660000bb
:10309c009ed000003800000000000000000000007e
:1030ac000000000000000000000000000000000014
:1030bc000000000000000000000000000000000004
:1030cc0000000000000000000000000000000000f4
:1030dc0000000000000000000000000000000000e4
:1030ec0000000000000000000000000000000000d4
:1030fc00b51a0000656d0000000c0000da850000b8
:10310c00d0000000000000000000000000000000e3
:10311c00000000000000000096a90000bf7900002c
:10312c0036ab00008ef900007b070000de37000094
:10313c009a3700005a000000000000000000000058
:10314c000000000000000000000000000000000073
:10315c000000000000000000000000000000000063
:10316c000000000000000000000000000000000053
:10317c000000000000000000000000000000000043
:10318c000000000000000000000000000000000033
:10319c000000000000000000000000000000000023
:1031ac000000000000000000000000000000000013
:1031bc000000000000cc000031aa00002c530000dd
:1031cc002ef7000011140000640000000000000045
:1031dc000000000000000000131d000000000000b3
:1031ec0000000000000000000000000001000000d2
:1031fc00ffff0000000000000000000000000000c5
:10320c000504000064000000000000000000000045
:10321c00000000000204000000000000000000009c
:10322c000000000000000000040800000100000085
:10323c000000000000000000000000000100000081
:10324c00040000000000000000000000000000006e
:10325c000703000001000000000000000000000057
:10326c0000000000080000005a00000000000000f0
:10327c00000000000000000002040000000000003c
:10328c00000000000000000000000000020400002c
:10329c000000000000000000000000000000000022
:1032ac0018000000000400000000000000000000f6
:1032bc00000000001800000080000000000000006a
:1032cc000000000000000000131d000000000000c2
:1032dc000000000000000000000000000a080000d0
:1032ec0000000000000000000000000000000000d2
:1032fc0001000000ffff00000000000000000000c3
:10330c00000000000100000024000000000000008c
:10331c000000000000000000080000000a0000008f
:10332c000000000000000000000000000701000089
:10333c000800000000000000000000000000000079
:10334c00020400000000000000000000000000006b
:10335c00000000000204000000000000000000005b
:10336c0000000000000000000000000092010000be
:10337c0024030000b504000046060000d607000038
:10338c0064090000f10a00007c0c0000060e00002d
:10339c008d0f000012110000941200001314000095
:1033ac0090150000091700007e180000ef190000ae
:1033bc005d1b0000c61c00002b1e00008c1f0000b3
:1033cc00e72000003d2200008e230000da240000dc
:1033dc0020260000602700009a280000ce2900005b
:1033ec00fb2a0000212c0000412d00005a2e000069
:1033fc006c2f000076300000793100007432000030
:10340c0068330000533400003735000012360000da
:10341c00e5360000b0370000713800002b39000091
:10342c00db390000823a0000213b0000b63b000073
:10343c00423c0000c53c00003f3d0000af3d000099
:10344c00153e0000723e0000c53e00000f3f00001c
:10345c004f3f0000853f0000b13f0000d43f00000b
:10346c00ec3f0000fb3f00000040000000000000ab
:10347c00bd000000cd000000d9000000dd00000000
:10348c00e8000000e9000000eb000000ed00000087
:10349c00ee000000f8000000f9000000fa00000047
:1034ac00fb000000fb000000fc000000fd00000021
:1034bc00fe000000ff0000000800000009000000f2
:1034cc00090000000a0000000a0000000b000000c8
:1034dc000b0000000c0000000c0000000d000000b0
:1034ec000e0000000f0000000f000000080000009c
:1034fc001800000019000000190000001a0000005c
:10350c001a0000001b0000001b0000001c00000043
:10351c001d0000001d0000001e0000001f00000028
:10352c001b00000028000000290000002a000000f9
:10353c002a0000002b0000002c0000002d000000d1
:10354c002e00000038000000390000003a00000096
:10355c003c0000003d000000480000004a00000054
:10356c004e0000005a0000000a000000000000009d
:10357c000c0000002600000000000000030000000a
:10358c000c0000000a0000002600000000000000f3
:10359c0009000000160000000b00000026000000cf
:1035ac0072ab0000020000002100000007000000c8
:1035bc00240000007aab00000b0000002800000083
:1035cc000700000006000000000000000c000000d6
:1035dc002f0000000a0000000600000000000000a0
:1035ec0006000000be420000ca4200000645000072
:1035fc00fe4300007c450000884500008e4400001e
:10360c00224300008c43000012450000e4450000fa
:10361c0036470000ac480000444a0000904a0000c5
:10362c00004b0000000a0000040600000c0a000019
:10363c000c0e00000e0a00000e1200001606000010
:10364c00061200009a1d00000908000099050000f0
:10365c00200300003e000000dd03000011fb000011
:10366c00a8020000dbfc0000aa5a0000a5550000cf
:10367c0055a500005aaa000001100000011000001e
:08368c005aaa000055a5000038
:020000040000fa
:103694000600fa0020479800210798002e009000a9
:1036a40010007800804078002e40900000cf680021
:1036b4009e4078000180fb004400dd0080407800db
:1036c4001e40780000c06800004f78002e00900073
:1036d40010007800c800de001e4178000280fb0064
:1036e4004800dd00808068001e4178000280fb00f5
:1036f4004300dd00808068001e4178000280fb00ea
:103704004400de00004078000080fb0080806800f8
:103714002e009000010878000080fa0000000600e6
:103724000200fa00000f78001e0078008080eb0091
:10373400010878000080fa00000006000600fa0084
:1037440010079800210798000e007800f4ff070086
:10375400070037001e009000104078009e00900083
:103764008100e800110798008e007800c8ff070068
:103774002e0090008000ea002e009000008070006f
:103784004f00de0000407800ae0090008100e900a8
:1037940021079800e04f5000eeff3a001e00780029
:1037a4000080fa00000006000800fa0010079800e4
:1037b40021079800624798002e009000000f7800bf
:1037c400050037001e007800104078001e0fe80046
:1037d4009e009000aeff07006e4090000080fb004a
:1037e4000000ea004f00de0000407800ee40900048
:1037f4008140e90061479800e04f5000f1ff3a0032
:103804000080fa00000006000200fa00004f780071
:103814009e4078000180fb006e00b90080007800b3
:10382400c0a72000008040000080fa0000000600cd
:103834001400fa0060079800614f9800020f980086
:1038440023579800345798006e0090000040780089
:10385400edff0700000f7800e0cfb3004047980069
:103864002e509000504798001e00780000489000a9
:103874006047980000c8bf007047980001c8bf00a7
:10388400004f98006e489000104f98001e0078007a
:10389400004890000040e8009e00780080489800ae
:1038a400640047000000e80051002000a3ff070067
:1038b400100798000e80e8002e5190008e089000aa
:1038c400b9ff07000e80e800800078003e509000a9
:1038d4006fff07001e00900000407800204f980002
:1038e4001e0090004800de0000407800304f980031
:1038f4006400470062002000800078006e009000a1
:10390400420107002e5090000080fb000001780067
:103914008e0890006e0090003c0107006a0047008a
:1039240022002000800078006e009000370107001c
:103934000080fa00000006000200fa00000f780080
:103944001e00780076ff07000080fa0000000600e1
:103954000400fa00000f7800214798001e00780048
:10396400800078002e40900049ff07000080fa0094
:10397400000006000c00fa006047980071479800a8
:1039840042079800530798006e4090008080fb0027
:10399400001120000088b9008000780040ab2000ae
:1039a400008f40006e40900097ff070010079800ba
:1039b4000000eb00200798009e0090000040eb0000
:1039c400804878001e009000200090000100200034
:1039d4009200200003002000820f5000838f5800c3
:1039e400de003e00006001000900370008003700d7
:1039f400130037003e00370033003700460037001d
:103a04004f0037006000370078003700a20037000d
:103a14007e409000e24f4000c9003a001e00900032
:103a240021002000210098009e0078000040eb0057
:103a3400b04098001e007800bfff0700c7003700a1
:103a44001e00900010407800e04f5000110032003a
:103a54001e009000104090000040e8009e0090007e
:103a6400904098001e009000204090000040e80024
:103a74009e009000a04098009e0090000040eb0043
:103a8400804878001e00900011002000210098005a
:103a9400b20037001e007800fe40900031409800cc
:103aa4009e0090000040eb00e0409800fe40900033
:103ab4001e007800a6ff07001e00900041002000b1
:103ac40021009800a50037001e007800fe409000f9
:103ad40041409800fe4090001e0078009cff0700c3
:103ae4001e00900031002000210098009b00370048
:103af4001e007800fe40900051409800fe40900067
:103b04001e00780092ff07001e0090005100200064
:103b140021009800910037001e007800fe409000bc
:103b240061409800fe4090001e00780088ff070066
:103b34001e009000610020002100980087003700db
:103b44001e007800fe40900071409800fe409000f6
:103b54001e0078007eff07001e00780030409000b1
:103b6400e04f500004003a001e0090008100200045
:103b740021009800790037001e0090007100200099
:103b840021009800750037009e007800688040008e
:103b9400000178001e009000604090008080fb00cf
:103ba40001014100fe409000014978000040e80016
:103bb4009e009000e0409800fe4090001e007800b7
:103bc40063ff07001e009000e04090001e00780094
:103bd4003040900080cf50005b003a001e009000ff
:103be40081002000210098005c0037001e0078004e
:103bf400704090000080fb00817e290061407800c5
:103c0400804078001e00780051ff07007e4090003d
:103c14008080fb001e00780010017800f00f200067
:103c240000006100808f5000170032001e009000d9
:103c3400204090000040e8009e009000a0409800c2
:103c44009e0090000040eb00804878001e00900029
:103c540011002000210098007e409000e24f4000b7
:103c64003b003a001e009000210020002100980033
:103c74009e0078000040eb00b04098001e007800e1
:103c84002dff0700350037001e0090009100200032
:103c940021009800310037007e4090008080fb00b6
:103ca4001e007800100078004800de00808f50006d
:103cb400170032001e009000204090000040e800f1
:103cc4009e009000a04098009e0090000040eb00f1
:103cd400804878001e009000110020002100980008
:103ce4007e409000e24f40001b003a001e0090000e
:103cf40021002000210098009e0078000040eb0085
:103d0400b04098001e0078000bff07001300370036
:103d14009e00900010c0b300804878001e00900000
:103d24001100200021009800021120009e0078005c
:103d34004e0090002004020000000000070037003d
:103d440000000000050037000000000003003700f9
:103d54000000000001003700000000002e00900069
:103d64000000e800200798001e0090001040780032
:103d7400e14f500010003a001e00780040409000cf
:103d84009e009000f04098001e00900050009000ab
:103d9400e00f500003003a001e0090008000eb008a
:103da400610098001e009000500090008000e80020
:103db4001e009000510098001e009000704090007a
:103dc4000040e800de009000f04098001e009000e3
:103dd400d00090005e009000510098001e009000fa
:103de400204090008080fb005e00900061009800fd
:103df4009e0090000040eb00a04098001e00900040
:103e0400104078000080fa00000006000600fa0066
:103e1400000f780011079800220798001e009000f8
:103e24002e019000800078001e00780097010700a2
:103e34000080fa00000006000600fa00000f780077
:103e440011079800220798001e009000e00f500010
:103e540006003a002e0190008000eb001e0078005e
:103e64002e04020000000000050037002e0190001f
:103e74009e0090001e007800200402000000000054
:103e84000080fa00000006001600fa0050079800af
:103e9400414f9800524f9800634f9800040f9800c8
:103ea400150f9800465798000e0890009e08900041
:103eb400008fbe00ce489000414798005e489000b5
:103ec40050479800ee489000614798004e5090008b
:103ed4007047980030c0b300004f98000e0078007f
:103ee40024c3b30093c0b300000178008040eb000a
:103ef4005e0090004efe07000080fa0000000600fd
:103f04000400fa00000f7800110798009e00780062
:103f14006880400042012000800078001e0090006c
:103f240020040200000000000080fa0000000600e7
:103f34000400fa00000f7800110798009e00780032
:103f44006880400022002000800078001e0090005d
:103f540020040200000000000080fa0000000600b7
:103f64002800fa00500f9800610f9800720f980013
:103f740003179800246798002517980036179800af
:103f84007e0890008e109000008fbe00ae1090004e
:103f9400210798003e10900030079800ae60900012
:103fa400015f98006800470002012000ee089000bd
:103fb400a1ff07000e007800c4cdb30093c1b30085
:103fc4000001780061c1b3005e08900018fe07008c
:103fd4000080fa00000006000400fa00000f7800d8
:103fe400110798009e00780068804000720120004c
:103ff400800078001e0090002004020000000000f1
:104004000080fa00000006000400fa00000f7800a7
:10401400110798009e00780068804000620020002c
:10402400800078001e0090002004020000000000c0
:104034000080fa00000006000400fa00000f780077
:10404400110798009e00780068804000120220004a
:10405400800078001e009000200402000000000090
:104064000080fa00000006000a00fa002007980009
:1040740031079800024f98003e009000000f78002e
:104084000e489000204798000e007800f4c8b30052
:1040940033c0b30000017800d1c4b3002e009000f7
:1040a400e3fd07000080fa00000006000400fa00a7
:1040b400000f7800110798009e0078006880400087
:1040c400a2032000800078001e009000200402005b
:1040d400000000000080fa00000006000e00fa0054
:1040e40030079800014f9800124f9800530798002a
:1040f400640798005e009000000f78006e00900046
:10410400100798000e489000404798001e48900001
:10411400504798000e007800d4c6b30063c0b300c3
:104124000001780091c9b3003e009000c0fd070073
:104134000080fa00000006000400fa00000f780076
:10414400110798009e007800688040005203200008
:10415400800078001e00900020040200000000008f
:104164000080fa00000006001200fa0040079800e0
:10417400214f9800324f9800434f9800544f9800b5
:10418400654f9800060f98000e089000000f780005
:104194002e489000204798003e48900030479800f1
:1041a4004e489000404798005e4890005047980061
:1041b4006e489000604798000e007800a4cdb300cc
:1041c40073c0b30000017800c1c9b3004e00900071
:1041d40097fd07000080fa00000006000400fa00c2
:1041e400000f7800110798009e0078006880400056
:1041f40032002000800078001e009000200402009d
:10420400000000000080fa00000006000a00fa0026
:104214002007980031079800420798003e0090005c
:10422400000f78004e009000100798000e007800f0
:1042340004cdb30043c0b30000017800e1c9b3006a
:104244002e0090007afd07000080fa0000000600ae
:104254005400fa0020279800342798004527980036
:10426400562798006727980072279800032f980014
:10427400112f98003e209000ce2090005e219000e7
:10428400ee219000009fbe000297be007e219000a8
:104294008e29900042079800530798003eb8970073
:1042a400ceb8970060079800710798001eb9970070
:1042b400aeb99700020f9800130f98009e29900042
:1042c400230f98000eb89700300f9800feb09700a7
:1042d400410f98006eb19700520f9800deb197001d
:1042e400630f98004eb09700700f9800beb097000f
:1042f400011798002eb19700121798009eb19700ed
:10430400231798000eb0970030179800fea8970066
:10431400411798006ea9970052179800dea99700dc
:10432400631798004ea8970070179800bea89700ce
:10433400011f98002ea99700121f98009ea99700ac
:10434400231f98000ea89700301f9800fea0970026
:10435400411f98006ea19700521f9800dea197009c
:10436400631f98004ea09700701f9800bea097008e
:10437400012798002ea19700122798000e007800bc
:1043840074c3b30043c4b3000001780071cbb3001d
:104394002e20900026fd07000080fa000000060091
:1043a4000000fa0000102e0001002000ec92020030
:1043b40000000000020007000080fa000000060070
:1043c4000200fa0070c3b30000e8b70010c0b300e5
:1043d40001e8b7000000eb00000f7800050037008b
:1043e400f09120009e0040000040eb0080487800df
:1043f4001e0fe8001e007800ec0f5000f8ff340098
:104404000040eb0022e9b7000040eb0020e9b700d0
:1044140040c0b30025e9b70020c0b30029e9b700c4
:104424000040eb002ae9b7000080fa000000060013
:104434000200fa00e1e78000f0e78000808f50007e
:104444000d003d00e1e7800060102000808f5000e7
:1044540009003c00e0e780008181200081004000e9
:10446400114f78000000e800e0e788009e407800e3
:104474000180fb000300370010c0b30000fdb7004b
:104484000080eb000080fa00000006000a00fa0039
:1044940020079800310798004207980000ddbf000c
:1044a400e14f500004003a000000eb00e0e7880010
:1044b4000000eb00f0e78800f0e78000000f7800d0
:1044c400701020001e005000100798009e009000fd
:1044d4004e009000808f5000020031000080eb00fd
:1044e400160037001e009000e10f50000b0034004e
:1044f4009e00780080812000008040004e019000e2
:10450400be00900020040200000000009e0078001d
:104514004e00900000804000f0e7880000ddbf00fe
:10452400e14f500004003a000040eb0000fdb700ea
:104534003893020000000000100020000080fa0000
:10454400000006000200fa00004f7800120020006c
:104554008e0078000000eb00ccff07000080fa001a
:10456400000006000400fa00100798000000eb00a9
:10457400000f7800000000001e0090001e004000a4
:10458400104078000080fb000000ea004f00de00cd
:10459400004078001e0fe800e04f50000400320095
:1045a400f00420009e007800808f5000f2ff360057
:1045b4001e00e900000178009e0090000000eb005e
:1045c400b2ff07000080fa00000006000400fa00b1
:1045d400204798002e4090000080fb004400de003d
:1045e400004f78001e407800e94f500004003e0060
:1045f40001c3b3001ec04000d2ff07000300370010
:1046040071c3b3001ec04000ceff07002e409000cf
:104614006f4f60001e407800e94f500004003e00d8
:1046240001c3b3001ec04000c6ff070003003700eb
:1046340071c3b3001ec04000c2ff07000080fa002f
:10464400000006000200fa00004f78001e407800c7
:10465400e3a62000e2952000804078000040eb00b3
:10466400c4fc0700e04f500002003200e095200037
:10467400b00307000080fa00000006000800fa00fa
:10468400881f7800000f780011079800220798000f
:10469400330798003e0090004500dd00f80040001c
:1046a400a0dd280000804000100078006600b900fa
:1046b40000007800e4004000e0d9280000804000b9
:1046c40010007800e60f500043003200e90f50005c
:1046d40003003200e50f5000270032005600370077
:1046e4001e02be003e0090004500dd00f0004000c8
:1046f400a0dd2800008040001000be0018c0b300f8
:104704000001be000400be0092050200000000008b
:10471400e00f5000010035000044eb00e04f54006e
:104724000200320010c0b3004b0037001e02be006e
:104734003e0090004500dd00f4004000a0dd2800ac
:10474400008040001000be0018c0b3000001be008d
:104754000400be009605020000000000e00f5000b7
:1047640001003c000044eb00e04f540034003200f0
:1047740010c0b300380037001e01be003e00900098
:104784004500dd00f0004000a0dd2800008040006e
:104794001000be00800f5100818f590002003d00bf
:1047a40010c0b3002c0037001e01be003e00900074
:1047b4004500dd00f4004000a0dd2800008040003a
:1047c4001000be00800f5100818f59001e0034007c
:1047d40010c0b300200037001e01be003e00900050
:1047e4004500dd00f0004000a0dd2800008040000e
:1047f4001000be00800f5100818f590002003d005f
:1048040010c0b300140037001e01be003e0090002b
:104814004500dd00f4004000a0dd280000804000d9
:104824001000be00800f5100818f59000800340031
:1048340010c0b3000800370010c0b30006003700f2
:1048440000000000030037000000000001003700f2
:10485400000000000040eb004f0478000080fa00e4
:10486400000006000200fa00889fbe00000f7800d6
:104874009e047800d0a78400000478001e0078000d
:104884004500dd00fc004000a0dd28000080400061
:104894001000780010007800cf80de009a05020036
:1048a400000000000200200003742400a0050200a0
:1048b400000000001e017800c511dd00a2dd280003
:1048c40082834100090378008802780094c0b30011
:1048d4000001be00870078000000eb00a0fd070087
:1048e4004f04be000080fa00000006000800fa0031
:1048f400881f7800000f780011079800220798009d
:10490400330798004e409000e94f500012003a00df
:104914003e0090004500dd00fc004000a0dd2800c2
:104924000080400010007800000478001e00be00e3
:104934000200200003742400e804020000000000c8
:10494400500502000000000000007800000c780010
:104954000000000001003700000000004f04780050
:104964000080fa00000006000200fa00889fbe00e2
:10497400000f78009e047800d0a78400000478001b
:104984001e0078004500dd00fc004000a0dd28008a
:10499400008040001000780010007800cf80de0016
:1049a4009a050200000000000200200003682400b1
:1049b400a0050200000000001e017800c511dd0002
:1049c400a2dd280082834100090378008802780070
:1049d40094c0b3000001be00870078000000eb0023
:1049e4005ffd07004f04be000080fa0000000600cf
:1049f4000800fa00881f7800000f7800110798005b
:104a040022079800330798004e409000e94f500069
:104a140012003a003e0090004500dd00fc0040001a
:104a2400a0dd280000804000100078000004780019
:104a34001e00be000200200003682400e8040200f7
:104a44000000000050050200000000000000780093
:104a5400000c780000000000010037000000000096
:104a64004f0478000080fa00000006000200fa00fb
:104a7400889fbe00000f78001e0078004500dd000e
:104a8400fc004000a0dd2800008040009000780079
:104a9400c0d621000002b000808f50001e003100fb
:104aa4009e047800d0a78400000478001e007800db
:104ab4004500dd00fc004000a0dd2800008040002f
:104ac4001000780010007800cf80de009a05020004
:104ad400000000000200200003002400a0050200e2
:104ae400000000001e017800c511dd00a2dd2800d1
:104af40082834100090378008802780094c0b300df
:104b04000001be00870078000000eb0014fd0700e0
:104b14000000000001003700000000004f04be0048
:104b24000080fa00000006000800fa00881f7800e0
:104b3400000f7800110798002207980033079800a7
:104b44004e409000e94f50001b003a003e00900098
:104b54004500dd00fc004000a0dd2800008040008e
:104b640090007800c0d621000002b000808f500071
:104b7400130031003e0090004500dd00fc004000c1
:104b8400a0dd2800008040001000780000047800b8
:104b94001e00be000001be00260602000000000048
:104ba400500502000000000000007800000c7800ae
:104bb400000000000300370000000000010037007f
:104bc400000000004f0478000080fa000000060096
:104bd4000600fa00200798002e0090004500dd0032
:104be400fc004000a0dd2800008040001000780098
:104bf40010007800cf80de00008fbe00ae01900070
:104c0400d0a78400000178001e00be002e02900090
:104c1400c522dd00a4dd280084834200030378005c
:104c24008202780064c0b3000001be0087007800ef
:104c34000000eb00cafc07000080fa000000060038
:104c44000800fa00000f7800110798002207980066
:104c5400330798004e409000e64f50000c003a0095
:104c64003e0090004500dd00fc004000a0dd28006f
:104c74000080400010007800000178001e00be0093
:104c840000007800000978000000000001003700ef
:104c9400000000000080fa00000006000200fa0094
:104ca400000f78000080fa00000006000600fa00f9
:104cb400008fbe00220798000080fa000000060062
:104cc4000a00fa00400798006000b8002007980026
:104cd400310798004e0090004500dd00fc004000c4
:104ce400a0dd28000080400010007800100078004b
:104cf400200798002e00900001d022000180b90006
:104d040020079800310798002e009000be00900004
:104d14004b09dd004500de0000007100c588de009f
:104d240020079800310798002e009000800078003a
:104d340000002800808f5000030036003e009000e1
:104d44000000e800300798003e009000cf80de00ad
:104d5400008fbe00ce019000d0a78400000178002f
:104d64001e00be004e029000c522dd00a4dd280016
:104d740084834200030378008202780064c0b30095
:104d84000001be00870078000000eb0074fc0700ff
:104d94000080fa00000006000c00fa0020079800ca
:104da4003107980042079800530798000e48900076
:104db400e64f500021003a002e009000be00900003
:104dc4000000780051b025000180b900008fbe00ba
:104dd4001e01be004918dd00c710de00810070000e
:104de4004910dd00008fbe001e00780080007800ae
:104df40000002800808f5000060036001e01be000f
:104e040000002800010020000200400083804800c8
:104e1400008fbe005e0090004500dd00fc004000f5
:104e2400a0dd280000804000100078009e00900063
:104e340001087800000000000100370000000000b5
:104e44000080fa00000006000a00fa0040079800fb
:104e54006000b80020079800310798004e009000c9
:104e64004500dd00fc004000a0dd2800008040007b
:104e74001000780010007800200798002e009000a1
:104e8400a10020000180b900200798003107980094
:104e94002e009000cf80de00008fbe00ce01900077
:104ea400d0a78400000178001e00be004e029000ce
:104eb400c522dd00a4dd28008483420003037800ba
:104ec4008202780064c0b3000001be00870078004d
:104ed4000000eb0022fc07000080fa00000006003e
:104ee4000c00fa0020079800310798004207980048
:104ef400530798000e489000e64f500016003a0001
:104f04002e009000be009000000078006166200032
:104f14000180b900008fbe001e01be004218dd00f2
:104f2400ce10de00810070004210dd00008fbe0054
:104f34005e0090004500dd00fc004000a0dd28007c
:104f440000804000100078009e0090000108780066
:104f54000000000001003700000000000080fa009b
:104f6400000006000600fa00200798002e009000ba
:104f74004500dd00fc004000a0dd2800008040006a
:104f84001000780010007800cf80de009a0502003f
:104f940000000000008fbe001e00be00a2702d00a5
:104fa40033c22300e804020000000000008fbe00aa
:104fb400ae019000d0a78400000178001e00be005e
:104fc4002e029000c522dd00a4dd28008483420067
:104fd400030378008202780094c0b3000001be008d
:104fe400870078000000eb00ddfb07000080fa007a
:104ff400000006000c00fa00881f780020079800c3
:105004003107980042079800530798000e48900013
:10501400e94f50001f003a002e009000be0090009f
:1050240000007800616620000180b900008fbe0096
:105034001e01be004218dd00ce10de0081007000ab
:105044004210dd00008fbe005e0090004500dd00d0
:10505400fc004000a0dd2800008040001000780023
:10506400000478002e009000be0090000200200092
:10507400832c2400e8040200000000005005020014
:105084000000000000007800000c78000000000020
:1050940001003700000000004f0478000080fa008f
:1050a400000006000600fa00200798002e00900079
:1050b4004500dd00fc004000a0dd28000080400029
:1050c4001000780010007800cf80de009a050200fe
:1050d40000000000008fbe001e00be00d2cc2c00d9
:1050e400c3dc2300e804020000000000008fbe00bf
:1050f400ae019000d0a78400000178001e00be001d
:105104002e029000c522dd00a4dd28008483420025
:10511400030378008202780094c0b3000001be004b
:10512400870078000000eb008dfb07000080fa0088
:10513400000006000c00fa00881f78002007980081
:105144003107980042079800530798000e489000d2
:10515400e94f50001f003a002e009000be0090005e
:1051640000007800616620000180b900008fbe0055
:105174001e01be004218dd00ce10de00810070006a
:105184004210dd00008fbe005e0090004500dd008f
:10519400fc004000a0dd28000080400010007800e2
:1051a400000478002e009000be0090000200200051
:1051b40003122400e804020000000000500502006d
:1051c4000000000000007800000c780000000000df
:1051d40001003700000000004f0478000080fa004e
:1051e400000006000a00fa00400798006000b800ba
:1051f40020079800310798004e0090004500dd001c
:10520400fc004000a0dd2800008040001000780071
:1052140010007800200798002e00900041392000eb
:105224000180b90020079800310798002e009000f3
:10523400be0090004e09dd004200de000000710057
:10524400c288de0020079800310798002e009000e5
:105254008000780000002800808f50000300360092
:105264003e0090000000e800300798003e009000e7
:10527400cf80de00008fbe00ce019000d0a7840056
:10528400000178001e00be004e029000c522dd0021
:10529400a4dd28008483420003037800820278009e
:1052a40064c0b3000001be00870078000000eb007a
:1052b4002bfb07000080fa00000006000c00fa0037
:1052c4002007980031079800420798005307980078
:1052d4000e489000e64f500021003a002e00900046
:1052e400be00900000007800e11d21000180b9009b
:1052f400008fbe001e01be004c18dd00c410de008d
:10530400810070004c10dd00008fbe001e0078008c
:105314008000780000002800808f500006003600ce
:105324001e01be0000002800010020000200400011
:1053340083804800008fbe005e0090004500dd00c1
:10534400fc004000a0dd2800008040001000780030
:105354009e00900001087800000000000100370062
:10536400000000000080fa00000006000a00fa00b5
:10537400400798006000b8002007980031079800a3
:105384004e0090004500dd00fc004000a0dd280038
:10539400008040001000780010007800200798007a
:1053a4002e009000418f20000180b9002007980052
:1053b400310798002e019000be0190004218dd00d4
:1053c400ce10de00810070004210dd00200798003e
:1053d400310798002e00900080007800000028001b
:1053e400808f5000030036003e0090000000e8006b
:1053f400300798003e009000cf80de00008fbe0092
:10540400ce019000d0a78400000178001e00be00e9
:105414004e029000c522dd00a4dd280084834200f2
:10542400030378008202780064c0b3000001be0068
:10543400870078000000eb00c9fa07000080fa003a
:10544400000006000c00fa002007980031079800bd
:1054540042079800530798000e489000e64f50000a
:1054640021003a002e009000be0090000000780059
:10547400313920000180b900008fbe001e01be003a
:105484004918dd00c710de00810070004910dd00fe
:10549400008fbe001e007800800078000000280005
:1054a400808f5000060036001e01be000000280058
:1054b400010020000200400083804800008fbe00ed
:1054c4005e0090004500dd00fc004000a0dd2800e7
:1054d40000804000100078009e00900001087800d1
:1054e4000000000001003700000000000080fa0006
:1054f400000006000200fa00004f780011479800ef
:1055040000c8bf009e4f500007003a0011802000e1
:10551400914078001e40900080cf500002003a0075
:105524000040eb000100370010c0b3000080fa0017
:10553400000006008000fa00703f98007e3890005a
:10554400704090000080fb00c1042000810f5000d7
:1055540047003200c1042000810f50000d003c00c0
:10556400f50f5000df003200f50f500003003c003f
:10557400f40f5000e7003200a4013700f70f500089
:10558400f700320021042000810f50000e00320089
:105594009e01370081092000810f5000450132002f
:1055a40081092000810f500081013400b1092000dd
:1055b400810f500056013200d1092000810f5000a4
:1055c40064013200910137006600470080007800d2
:1055d4007e3890008cfa07008e48900000c8bf0007
:1055e40080cf500074013a000000eb00000f7800f7
:1055f4003e489000e04f500003003a000000eb00ea
:10560400000f7800050037003e489000e14f50003d
:105614006b013a003e009000000f78002e48900085
:10562400e04f500007003a001e0078000040780068
:1056340020e9b7001e0078000040780022e9b70096
:10564400720137002e489000ec4f50005e013e007e
:105654002e4890000081fb001e0078000040780076
:10566400f1912000810041008048780067013700f3
:10567400400420000e004000800078007e38900036
:105684006dfa07000e309000110f2000810f5000ba
:1056940006003200510f2000810f50002a00320012
:1056a400e00f50005e003200890037002e20900089
:1056b400be2090000200200003f82300920502009f
:1056c40000000000e00f500004003a00d01fa900c1
:1056d40050ac0200000000001a0037000e289000b1
:1056e4009e2890000200200003f823009205020087
:1056f40000000000e00f50000f003a0021ff80007e
:105704000008200000806000e00f50000600320016
:1057140080ac0200000000000e3090001100200058
:105724003c010700070037000e30900021002000e4
:1057340038010700030037000e30900041002000bc
:1057440034010700660037002e209000be20900030
:105754000200200003f8230092050200000000006c
:10576400e00f500012003a004e209000de2090001e
:105774000200200003f8230092050200000000004c
:10578400e00f500005003a0081e2220000032000ef
:10579400da6e0200000000002000370081e22200df
:1057a40000022000da6e0200000000001b00370037
:1057b4002e209000be2090006011b80092050200d7
:1057c40000000000e00f500011003a004e2090004d
:1057d400de2090006011b800920502000000000075
:1057e400e00f500005003a0081e22200000320008f
:1057f4003a6f0200000000000800370081e2220036
:10580400000220003a6f020000000000030037008d
:105814000e30900041002000fe00070030003700e9
:105824002e209000be209000e00602000000000040
:1058340000007800e40f50000e003200e50f500025
:1058440003003200e30f5000130032001b00370046
:105854004e209000de209000e006020000000000d0
:105864000000780081e22200ce5302000000000014
:10587400160037004e209000de209000e006020063
:10588400000000000000780081e222003271020072
:10589400000000000d0037004e209000de20900034
:1058a400e0060200000000000000780081e222000f
:1058b400046f020000000000040037000e30900066
:1058c40041002000d300070000000000040037005e
:1058d4000e30900041002000ce00070000000000c0
:1058e400ca0037006c004700800078007e389000c2
:1058f4008ff90700ce48900000c8bf0080cf500049
:10590400b3003a000000eb00f0e888003069a8001a
:10591400be0037006e004700800078007e3890009b
:1059240077f907008e50900000c8bf0080cf500068
:10593400a9003a007e009000e00f5000a800350056
:10594400fe009000d0a78400808f5000a6003c0089
:105954007e00900000e988003049a800ab003700c1
:10596400200220000e004000800078007e38900065
:1059740099f90700fe6090006e609000ddfe07005c
:10598400e14f500003003a00e07a2900f5fa0700dd
:105994009e003700200220000e00400066004000f8
:1059a400200798000000eb00100798000000eb00af
:1059b400100798003a0037001e009000c500dd0073
:1059c400a0dd280000804000800078002e009000b8
:1059d4003c04020000000000e00f50002d003a00db
:1059e4000e789000607f98001e109000ae1090001a
:1059f400501f9800611f98001e0090004500dd00b4
:105a0400fa004000a0dd280000804000104078002b
:105a1400e04f50001f003a009e0190005e18900075
:105a2400ee1890007e19900014fb0700e04f500020
:105a340018003a001e0090004500dd00f800400008
:105a4400a0dd280000804000100078006600b90046
:105a5400000078008080e800e0d928000080400041
:105a6400100278009e0190005e189000ee189000dd
:105a74007e199000040001008049800064006000e9
:105a8400e00f500003003a001e00900000e9880077
:105a94003049a8001e0090000000e800100798009c
:105aa400d0a784009e009000808f5000c2ff350074
:105ab40056003700400420000e00400080007800ab
