:020000040000fa
:080000000002040000000000f2
:020000040000fa
:10000800fc020000fc020000fc020000fc020000f0
:10001800f4450000fc020000fc020000fc020000a5
:10002800ee450000b83b0000fc020000e042000082
:10003800bc3d0000dc3b0000fc020000fc020000ac
:10004800fc020000fc02000092340000423700006d
:100058000a370000fc020000fc020000fc0200005d
:10006800fc020000fc020000fc020000fc02000090
:1000780084440000fc020000903c0000b43c0000f6
:10008800fc020000fc020000fc02000058410000d5
:1000980090430000fc020000663800002e38000083
:1000a800fc020000b0350000fc020000fc02000069
:1000b800fc020000003c0000243c0000483c00001a
:1000c8006c3c0000fc020000fc020000fc02000086
:1000d800fc020000fc020000fc020000ae4300002d
:1000e80056430000fc020000fc020000fc02000075
:1000f800fc020000fc020000fc020000fc02000000
:10010800fc020000fc020000fc020000fc020000ef
:10011800fc020000fc020000fc020000fc020000df
:10012800fc020000fc020000fc020000fc020000cf
:10013800fc020000fc020000fc020000fc020000bf
:10014800fc020000fc020000fc020000fc020000af
:10015800fc020000fc020000fc020000fc0200009f
:10016800fc020000fc020000fc020000fc0200008f
:10017800fc020000fc020000fc020000fc0200007f
:10018800fc020000fc020000fc020000fc0200006f
:10019800fc020000fc020000fc020000fc0200005f
:1001a800fc020000fc020000fc020000fc0200004f
:1001b800fc020000fc020000fc020000fc0200003f
:1001c800fc020000fc020000fc020000fc0200002f
:1001d800fc020000fc020000fc020000fc0200001f
:1001e800fc020000fc020000fc020000fc0200000f
:1001f800fc020000fc020000fc020000fc020000ff
:10020800fc020000fc020000fc020000fc020000ee
:10021800fc020000fc020000fc020000fc020000de
:10022800fc020000fc020000fc020000fc020000ce
:10023800fc020000fc020000fc020000fc020000be
:10024800fc020000fc020000fc020000fc020000ae
:10025800fc020000fc020000fc020000fc0200009e
:020000040000fa
:100400000f8024004e542b000e01880000000000d5
:100410000c000700a0ee2300010020000f000700e1
:10042000000020000000e000020032000000020096
:1004300000000000f4280200000000000040da0084
:100440000000fe00a00a20000000e00002003200d0
:10045000002020009001880000000600a102880012
:10046000800078000000eb001a003700e2804000b6
:1004700054a0b4009101ba00e280400054a0b4003e
:100480009102ba00e280400054a0b4000002eb00e8
:10049000472bde00f507b200a6018800602ce100c2
:1004a00008003a000049eb000201e80002003900b0
:1004b0003420ec0002f0a0008301e900f9ff3e00c7
:1004c000040037006128e100010032000082eb00e7
:1004d000040007001101ba000200e000e3ff3a0047
:1004e0000000060004d0a300e20f49001c00390000
:1004f000810278003549ba000201e80002003900a3
:100500003420ec0002f0a0008301e9000f0032006b
:100510002549ba000201e800020039003420ec004d
:1005200002f0a0008301e900080032000400e000ae
:100530000600320015c9ba000201e80002003900c5
:100540003420ec0002f0a0008301e9008180e80083
:1005500054a0b4000300e000e2ff3a0000000600ef
:100560009102ba00055978008301e900f7ff3200d3
:10057000c82ade00055978008301e900f3ff320044
:100580000400e000f1ff320011d9ba00eeff37009d
:10059000c40d040000000000680e0400000000000c
:1005a000140f040000000000d60f0400000000003b
:1005b000901004000000000036110400000000004c
:1005c0007811040000000000321204000000000056
:1005d00048440400000000004e3404000000000005
:1005e000ba040400000000004218040000000000eb
:1005f00000000400000000000040da000000fe00df
:100600001200fa006007980071079800020f980026
:1006100000222000100798002022200020079800c8
:1006200060222000300798008022200040079800b8
:100630006e00900060004000e20f50005e003e003f
:10064000d0918000e20f500008003a000023200003
:100650001007980020232000200798006023200026
:10066000300798008023200040079800d091800038
:10067000e30f50000b003a0080252000e00f5000ef
:1006800008003200002520001007980020252000d7
:100690002007980060252000300798008025200062
:1006a00040079800d0918000e40f50000b003a0002
:1006b000802b2000e00f500008003200002b2000ab
:1006c00010079800202b200020079800602b2000a6
:1006d00030079800802b2000400798001e009000f3
:1006e000900078000000280000806000e00f5000bb
:1006f00008003a004e0090008000eb0001087800ee
:100700001e00900010017800010028008100710097
:10071000010878000e089000000f78001c003700d8
:10072000000a200050079800030037005e00900088
:100730000000e900500798002e009000100078009b
:1007400061006000e00f500003003a005e0090007e
:10075000e00f5000f5ff3a002e00900010007800e6
:1007600061006000e00f50000d003200fe009000bc
:100770003e0090001000780000407800804878002b
:100780007e0090000000e800700798001e0fe9004e
:100790001e007800e00f5000e1ff3a000100370032
:1007a000000000001e0078008e08900000805000bd
:1007b000000f980001003700000000000e089000b4
:1007c0000080fa00000006001000fa0050079800b0
:1007d0006107980072079800002220001007980017
:1007e0002022200020079800402220003007980097
:1007f00080222000400798005e00900060004000ca
:10080000e20f500057003e00d0918000e20f5000f0
:1008100008003a0000232000100798002023200041
:1008200020079800402320003007980080232000f4
:1008300040079800d0918000e30f50000b003a0071
:1008400080252000e00f5000080032000025200025
:100850001007980020252000200798004025200040
:10086000300798008025200040079800d091800034
:10087000e40f50000b003a00802b2000e00f5000e6
:1008800008003200002b200010079800202b2000c9
:1008900020079800402b200030079800802b200074
:1008a000400798001e00900090007800000028008b
:1008b00000806000e00f500008003a004e009000f9
:1008c0008000eb00010878001e0090001001780005
:1008d0000100280081007100010878002e009000be
:1008e000900078000040200000806000e00f500081
:1008f00005003a002e009000100178000140200011
:1009000081007100010878007e009000000f7800df
:1009100010003700000000002e00900090007800ca
:100920000010200000806000e00f5000faff32004d
:100930006e009000104078008080fb003e00900028
:10094000010878006e0090000000e8006007980041
:100950001e0fe9001e007800e00f5000edff3a0086
:1009600001003700000000007e0090000080fa00c7
:1009700000000600889fbe008a1f780000057800ee
:10098000010078000204be008a0078000202be0066
:100990001200200003002000930a0700880f500077
:1009a000898f5800010032000005eb000a00780032
:1009b0004f0578004f04be00000006000000fa005a
:1009c000e88157004fb99700a1072100a04b2000f4
:1009d000020007000080fa00000006004f06b00089
:1009e000889fbe008a9fbe008c9fbe008e1f78002d
:1009f0008005780001057800820478008300780083
:100a000000f92f000f004000400a070028f92f00ce
:100a10000f0444004b0498005a0498000000eb00b7
:100a2000600c9800ee2121002d212100fbff270002
:100a3000994078000180fb000005fb000006ea00f9
:100a40004f66de0050022000800f55000e0032007d
:100a5000e10f56000c003a004802900012002000fe
:100a60000300200089007800580090000400010075
:100a700050049800e00f50008d003200680890008c
:100a80000000e800600c98008c84440050022000b4
:100a9000800f550004003200e00f5500e4ff3a00db
:100aa0007f909700830037000000eb00400c980017
:100ab000300c9800200c9800100c9800000c980046
:100ac0007004980000149800070037008e00500052
:100ad0008100d0008d80400008109000110070004f
:100ae000001498008904e800194578008a00fb008a
:100af000e0212100c5090700e00f5000f3ff3a0094
:100b0000a1c2b300814f55000e003a008f889700b4
:100b10000180e900808f9f0010007800700c980021
:100b2000e00f500005003d000000ea00700c980046
:100b3000081090000020a000001498008904e8002c
:100b400010003700700c980009003700f80890007a
:100b50008b8f500005003200ea09b80001fd2f001c
:100b60008280400000804000700c98008904e800fa
:100b70001900fb0001fd2f0080804000e98f50002c
:100b8000f2ff3600e0c2b300994f100003003200bc
:100b90000080eb00500c98001b003700a0c2b3008f
:100ba000d94f100007003a008f8897000180e900b4
:100bb000808f9f0010007800500c98008904e80096
:100bc000110037000000eb00500c980009003700be
:100bd000d80890008b8f500005003200ea09b80059
:100be00001fd2f008280400000804000500c9800e2
:100bf0008904e8001900fb0001fd2f0080804000ff
:100c0000e98f5000f2ff3600194578008a00fb009a
:100c1000a02021007d090700e00f500002003200f3
:100c20008904e80001003700004578002a64980034
:100c300080c6b300804f550004003a00994f15005c
:100c40000a003a006640500006003700c0c6b300f4
:100c5000804f550005003a00994f150003003a00f7
:100c600065404000206498008904e8001901fb00f9
:100c700063fb2f008f81410001f92f008f8040001e
:100c80000800780011000700e00f500008003a004b
:100c900061fb2f008f80400008007800710c070076
:100ca000e00f5000020035008904e80060ff3700c3
:100cb0000080eb004f0778004f06be004f05be00d6
:100cc0004f04be004f06b10000000600889fbe0022
:100cd0008a1f7800000478008244780003057800b9
:100ce00070c6b30080cf54001a003c0000c0e90079
:100cf00080cf5400da003d006d40500080cf54009a
:100d00007e0032000b003c007140500080cf540048
:100d10004d013c0000c0e90080cf5400d0003d00f0
:100d200050c2b30080cf5400440132007c404000e8
:100d30000500370030c6b30080cf54001a003200df
:100d40001f003c0000c0e90080cf54003e013a0083
:100d5000c3003700f0c6b30080cf540067003200f4
:100d600007003c006640500080cf54001400320061
:100d70006540400080cf540033013a00e400370062
:100d800050c7b30080cf54005c00320084c7b3006a
:100d900084cf5400590032006540500080cf540089
:100da00029013a00160137001181e9008208780014
:100db0007800900000054500124d780028013700aa
:100dc00028609000c2c6b300824f500009003a006c
:100dd0001100780064025000840878001400be00fe
:100de000140290004fa2de00040178008401780014
:100df0001200370012c7b300824f500003003200c8
:100e0000a2c6b300824f500006003a0011017800dc
:100e100068005100800878005001be004000be000c
:100e2000060037001180e900800878001000780083
:100e3000cf80de000101780082017800009cbe00b6
:100e40000294be002862900085c6b300854f520010
:100e50000e00320025c6b300854f520005003a004f
:100e60000000fb00cf80de000101780082017800e5
:100e70000900370045c7b300854f52000300320018
:100e8000e6c24200854f520005003a00cf80de00e6
:100e90000101780082017800009cbe000294be002f
:100ea0003802be002803be0078009000e00f520018
:100eb000e08f5a00e00f5b00e08f5b0003003d0015
:100ec00000014500d1c2b3000a003700881090002d
:100ed000628160000300320000014500b1c2b3002e
:100ee00004003700e1806000580032000001450036
:100ef00001c2b30001497800520037002860900019
:100f0000c2c6b300824f500007003a0011007800bb
:100f100064025000840878001400be000001eb0059
:100f2000820178001200370012c7b300824f5000d0
:100f300003003200a2c6b300824f500006003a0000
:100f40001101780068005100800878005001be004f
:100f50004000be00060037001180e90080087800dc
:100f60001000780001002000020020000300200093
:100f7000009cbe000294be002862900085c6b300ab
:100f8000854f520004003a000100200002002000ba
:100f9000030020000700370025c6b300854f52002c
:100fa00007003a000080fb00010020000200200042
:100fb00003002000009cbe000294be000a0037001f
:100fc00045c7b300854f520003003200e6c242001d
:100fd000854f520004003a00008cbe000000eb0078
:100fe0002004980030049800081090006800600009
:100ff000160032003800be002801be00e00f50008d
:10100000e08f5800e00f5900e08f59000f003200c8
:1010100080c7b30080cf54000300320080c5b30006
:1010200080cf540009003a00f8009000010145000b
:1010300000c3b300004978000100e80080004500cb
:10104000894878000000e80070049800780090005b
:10105000000545006a049800894078007400370054
:1010600028619000c0c4b300804f510006003a00d0
:101070001101780068005100800878005001be001e
:101080004000be00050037001101780064005100e7
:10109000800878001000be00120d0700009cbe0002
:1010a0000294be00b800900078009000e08f5000dd
:1010b00003003d0000014500d1c2b3000a00370023
:1010c000881090006281600003003200000145003a
:1010d000b1c2b30004003700e180600005003200b7
:1010e0000001450001c2b300014978000000e8009a
:1010f0007004980078009000000545006a0498008c
:101100008900fb00080078005b00070056003700ec
:1011100028609000c3c6b3001181e900834f5000de
:101120002b0032000a003c00e4c15100834f500004
:101130002400320083c1e800834f500018003200c1
:1011400022c6b300824f500027003a000a00370041
:1011500043c7b300834f50001a003200e6c141007c
:10116000834f50001a00320012c7b300824f500064
:101170001d003a00060037001180e9008008780061
:1011800010007800485c900008487800360037006e
:101190001180e90080087800100278000200370012
:1011a000820878001202780068089000cf80de0084
:1011b0000101780082017800009abe000292be0010
:1011c00029003700820878001200780009003700f3
:1011d000820878001201780068089000cf80de0055
:1011e0000089be00200037001180e90080087800e7
:1011f00010007800680c9000080878001a0037008a
:101200001180e9008008780010007800cf80de00af
:101210000101780082017800009cbe000294be00ab
:1012200078009000000545006a049800844078002a
:1012300008007800ac0907000b0037007800900028
:1012400000054500050037007800900000054500c6
:10125000e0cf540001003a0059c2b300094d7800b4
:101260000000e800700498000000eb004f057800d3
:101270004f04be0000000600ef03b000889fbe00d0
:101280008a9fbe008c9fbe008e1f780000057800ec
:10129000014778003a00be002a01be00d0b79f0087
:1012a000e1b79f00f2b79f0083bf9f005a089000ec
:1012b000e00f500002003d0060002000500d98003b
:1012c0008a00780060fb2f000f004000e507070050
:1012d00080017800e28f510009003a0030002000c0
:1012e000100d9800b0c9b30000474700201121003d
:1012f000e14f57000c003e00e01021000a003700cb
:10130000e08f51000e00340030002000100d9800d6
:10131000b0c9b30000474700a0112100e14f5700ba
:1013200001003e0060112100ea009000b048780002
:10133000b0687800104078009040980002013700b3
:10134000e08f510004003a0062fb2f000f014100c2
:1013500003197800f80037006022b8006033b80045
:101360005fb09700efb097007fb197008fb99700fb
:10137000b30b0700e00f500009003d005fb297007b
:10138000efb297007fb397008fbb970007f0a200e2
:10139000d4b79f00e5b79f00f6b79f0087bf9f00b7
:1013a0003f9a9700cfa2de00725927000300200069
:1013b0000400be00130d0700026a2800130020007d
:1013c0005005070064015000b29f9f0018003b00c9
:1013d00063011100c0ff2f00000461008802ea00d1
:1013e000b59f9f000006eb00ed1121005fb0970054
:1013f000efb097007fb197008fb9970009003700d1
:1014000061026400050032004362dd000d0242000b
:101410005403be004402be00800c07000884d100c3
:101420000c06e800e00f5400f5ff3c001f003700f9
:10143000e00f510023003200c8ff2f0008046100b4
:10144000b89f9f006022b8000600200007ff23001d
:101450000006eb00ed1121000400be000601be00f5
:101460000900370061026400050032004362dd00bc
:101470000d0242005403be004402be00670c070088
:101480000884d1000c06e800e00f5400f5ff3c0092
:101490000002be000203be005fb09700efb09700ed
:1014a0007fb197008fb997006f0b07000002be0055
:1014b0000203be00d4b79f00e5b79f00f6b79f00b8
:1014c00087bf9f005a09900060c6b300804f570045
:1014d000040032006100200060c4b300804f570058
:1014e00002003a00bf9a9700ea80420082814000e1
:1014f000f38f5100010034003301200002c3b30018
:10150000827f9f009dfb2f008f86460082457800da
:101510000e43780086ef9f00030778003500370000
:101520005fb09700efb097007fb197008fb9970039
:101530000b0c07000004be00680757004240a900da
:1015400012003400320c07000002be000203be008d
:101550005fb09700efb097007fb197008fb9970009
:10156000a30c07006022b80046782d0077192400ec
:101570002a0c07000002be000203be00d4b79f0081
:10158000e5b79f00f6b79f0087bf9f00e88646003b
:101590008c0020000801be000c003700a4002000d1
:1015a0000500200000fe2f000f004000020707008a
:1015b0000fb097009fb097002fb19700bfb1970071
:1015c00005c3b300856641000001be00e00f510075
:1015d000e08f5900040034000c06e900efff3b00e7
:1015e000010037008b6678000c06e900fdff3b0028
:1015f000e8864600e00f57000a0034006022b80079
:101600006033b8005fb09700efb097007fb19700ec
:101610008fb997000f0b070080007800e08f500013
:10162000bfff3c000fef970092fb2f000f0141001e
:10163000828256003f9b970067034300b69f9f003e
:1016400000c3b300050037008502e900bf9b970087
:101650008703e900b79f9f000201e800924f100046
:10166000f9ff3200da08900060c6b300804f5700df
:101670000300320060c4b300804f570003003a00fb
:101680003f9897008001e800090037001300200010
:1016900050c6b300804f5700050032000e4078005e
:1016a00050c4b2008081fb008301e900cf19de0045
:1016b00081814100858f510001003400850178004f
:1016c000e08f51001c00350004c3b300858f51002a
:1016d00006003d00830041006942420040c3b30060
:1016e000914f100001003c006942520083027800d3
:1016f000010037008301e9008502e900850041000f
:1017000011437800844f5300faff320090c3b300b6
:10171000804f520001003a008648e800e08f5200f6
:1017200005003d000201e9008301e800bf98970031
:101730008100e800b19f9f008e00fb003f9a970058
:101740000a007800060007004f0778004f06be0029
:101750004f05be004f04be00ef03b10000000600bd
:101760000e00fa00889fbe008a9fbe008c9fbe00bc
:1017700000057800814478008206780083057800af
:1017800004067800e08f550002003c001b0020009a
:10179000cd23210060c6b30080cf54000e0032007c
:1017a00060c4b30080cf54000b00320070c6b30099
:1017b00080cf54000300320070c4b30080cf5400c7
:1017c00086003a00e40f4600840035005a08900075
:1017d000800f560081003d000c06e80060c6b30093
:1017e00080cf54001000320060c4b30080cf54009a
:1017f0000d0032000a1090006800600004003a00fa
:101800005a089000808f550001003d005b0d980044
:101810005a0890000c005000500d980002003b0048
:101820000000eb00500d98001a089000ea009000ac
:10183000e00f560028003c008080400002c3b30047
:10184000824878000000e800100d9800da08900047
:10185000e08f500003003c008a109000e880600098
:10186000060032006a01900000014100e1c2b300ad
:10187000014978000000e800100d98005a08900017
:101880008c00ea00810f500001003d000006ea00d4
:101890008c00ea00210d9800000646005c0d9800bf
:1018a0008b0f5600010034000b0678003c0d9800a9
:1018b0001a089000ea009000008040006161b900c1
:1018c0008d007800300507005a0890000c06500083
:1018d0004c0d9800950037008c8f550019003d0085
:1018e000008040006159b9008d007800260507008e
:1018f0001a08900000804500100d98008b055600d6
:101900002b0d9800da089000e08f500003003c0097
:101910008a109000e880600007003200ea00900022
:1019200080804000e0c2b300804878003a08900010
:101930000000e800300d98005a089000400d980013
:101940007a0037006164b900008040000801be00e1
:101950008d0078000c0507001a0890000000460072
:10196000100d98008c855500da089000e08f50002b
:1019700003003c008a109000e880600006003200fe
:101980006a01900000014100e1c2b3000149780002
:101990000000e800100d98005a089000808f550054
:1019a00001003400800578001a089000ea009000d9
:1019b000008040006159b90088804600f2040700a9
:1019c0001a0890000b004000100d98005a0e90006d
:1019d0008b0556002b0d9800540037001a08900014
:1019e000ea009000808040009d4878000000e800f8
:1019f000100d9800da089000e08f500003003c00c2
:101a00008a109000e8806000060032006a019000b1
:101a100000014100e1c2b300014978000000e80084
:101a2000100d98005a089000e00f5000100034008c
:101a30008b05e900808f5500010034008005780097
:101a40001a089000ea009000008040006159b90037
:101a50008d00e800cc0407001a0890000b0040003d
:101a6000100d98005a0890008b0550002b0d98001f
:101a70001a089000ea0090000080400009587800a1
:101a80008005e800e00f560004003500b1c2b30045
:101a9000014878008b04780004003700d1c2b300fd
:101aa000014878008b0478000c06ea000004eb0083
:101ab0000a003700a20020008c00780070805700d8
:101ac000170507000fbe97009fbe9700fa805700ca
:101ad000088040000d4878000804e800e00f560038
:101ae000f4ff3c00e00f540009003a008b0478003a
:101af00000c3b300805c7800050037000804e900eb
:101b0000fa8057000880400001c3b30090dc400019
:101b1000e00f5400f9ff3a001a089000ea00900024
:101b20000080400080845400390d98000a10900015
:101b300074006000f00f50000e003a009a08900008
:101b40007a00900000804000aa0890000100400048
:101b5000ba08900001004000ca089000010040004f
:101b6000fa089000810f500002003d0000805000f4
:101b7000000d98004f06be004f05be004f04be008a
:101b80000080fa00000006000001eb008003eb007b
:101b90000031ef000231ef000431ef000631ef00b9
:101ba0000831ef000a31ef000c31ef00f1292b0072
:101bb000e2cfb3000188880000b1bf0015028000a9
:101bc0008500b2000091bf00b20197000349960062
:101bd00002b1b7000001fd0004b1b700a2029800f5
:101be00005027800664298000502d0001400b0009b
:101bf0000480fd003401be000400be00452a7800c8
:101c000000aabe002401be00050378002500be0026
:101c10001300b0000380fd00e63178002403be000d
:101c2000054a7800020078001401be000292be004e
:101c30000231a9000110a1000271a8000100a0005a
:101c40000291ab000488ad000090a2000090a300b8
:101c50000120ad0002d1aa000008a50001e8a30000
:101c60000180a50004c0a4000551ac0001d8a40067
:101c70000401df008401cf00830269000581cf00e9
:101c80000231ae000271ae000231ef0002d1af00ae
:101c90000231af000231ef0004b0a7000450a700ea
:101ca0000002eb0004a0a6000470a6000002eb00f6
:101cb0000291b6000491b6008681680082826900b4
:101cc00087816a00808041000100780000000600e2
:101cd0004400f8002000f8003200f8005400f8003a
:101ce000881f7800891f78008a1f78008b1f780072
:101cf0008c1f78008d1f78008e1f78000120200037
:101d000001d0fe003280bf0042552d0092017800c4
:101d1000030040005420200004d0fe004555290057
:101d200015037800060050000710200007d8fe00b9
:101d30005400b400a8aa2a00b843ba000700400023
:101d4000a843ba00070040001882ba00040040000f
:101d5000f90f200009d8fe005400b400090020004b
:101d60009982ba00050040001903ba00060040003d
:101d70005a552500abaa2a0011002000f4ff2f00bd
:101d8000acaa21004d5521000e002300e87f24005d
:101d90008d5e78000a0e78008d567800010f78006d
:101da000040c78001c0040001d0040001e00400094
:101db00018005000091021001b8888008b1c45006a
:101dc000190778000e00500020a0ef002000b4009a
:101dd000880180000800500079018000090050004f
:101de000000000000000ff002e00b4003000b4002e
:101df00000808900f03f8a004f077800cf06780006
:101e00004f067800cf0578004f057800cf047800a2
:101e10004f0478005400f9003200f9002000f90066
:101e20004400f900000006000008f8002008f8004f
:101e3000c208f8005200f8000000ef00c3e8a80054
:101e40002008a8001300fc005200b40012468000d5
:101e50000008a800410f20003300200000a0fe0071
:101e60000100370071004000030601002002b000ad
:101e70003003b000300037000008a9002008a90096
:101e800001003d004004b000f9ff3e0001003900b0
:101e90005005b000f6ff3400010038006006b000c5
:101ea000f3ff300001003a007007b000f0ff32008d
:101eb0008140e900010031008008b000ecff3900ea
:101ec000010031009009b000e9ff3c00010035003d
:101ed000a00ab000e6ff360001003300b00bb000ee
:101ee000e3ff3b0074018000040050007c0f0400fd
:101ef00000000000c00cb0003000b4002e00b400a0
:101f000029000700008042000302010002f92000be
:101f100002040100d00db000e00eb0000000060089
:101f200063fa2000740180000400500003000100e7
:101f3000ba0f0200000000005200f900c208f900c8
:101f40002008f9000008f900000006008f0378005f
:101f50004000fa00470040004700400087825700d9
:101f6000050040000080fa0087825700050040000d
:101f700000000600801f78000080fe000011f900bc
:101f80004200b6000011f800008040004f037800c6
:101f900006004000829fbe004f02be0005024200c4
:101fa0000400400000000600750505008001eb00fc
:101fb0000110210000b1ef000080ef000081eb0074
:101fc000f21fb200ff4161008328600002b1b60039
:101fd0000231d4000211b6000231ef000231b70025
:101fe0000211d4000211b700a04ab3000102700030
:101ff000f90172000000ef00f09fb2007302680068
:102000000031b6000091b6008408680002b1d70024
:102010000291d7008088d3000231d7000211d70087
:102020008008d30002b1d6000291d6008088d20089
:102030000231d6000211d6008002d20002b1ee00b9
:102040000291ee008088ea000231ee000211ee00fb
:102050008008ea000231d5000211d5000003d1004a
:10206000c7abde0007b1de0002b1d5000291d5009a
:102070000083d100c333dd000703d000cd33de0081
:10208000072bde00c432de000510dd008002eb000d
:10209000070ce1004300af000211e3001e0038000e
:1020a0004200e2001c00320066bce1001a003b0066
:1020b0000091e300180038000500e00016003a0027
:1020c0007310e100140039000588e1004300af00ff
:1020d000178ce7001000b00015b0e7001408e60008
:1020e0001000b0001410e60011a0e6001000b000cf
:1020f00012a0e6001310e7001000b000113ce7004a
:10210000008151008241d00073c0b2000342ea0056
:102110008442d10005c3ea000600780000000600f2
:10212000f71020005435ef0054f5ef005435ec0063
:102130000000eb005455ec008000e80054f5ec0082
:102140005495ec000181e8005435b4005415b400f6
:10215000f23fb0004280b60007006000ff0141007e
:1021600082c0d20001c241008402fb00010039009c
:1021700002003e00422321003a00370054b5b4006b
:10218000fcff31000040fd00f5bfb0005475ed00cc
:102190007f834a0086c0d1000143d3005495b40028
:1021a00001003600f3ff37000601e90082404800d5
:1021b000f0ff3100efff3d004280b60007006000f5
:1021c000ecff3300ebff350001003b00e9ff370077
:1021d00054f5ed005495ed000181e9008041d200f5
:1021e00003c0d3005435b50001003400e1ff3700cf
:1021f0005455b500f23fb100ff01510054b5b50090
:102200005495b5000082fb0001003c00d9ff370067
:10221000f4bfb1005415ed00ff025a0083c05a000c
:1022200001003900d3ff370054f5bd005495bd00bf
:10223000ff8118000040eb005435bd005415bd006f
:102240007f0110000282190087421300110009006b
:1022500042aad800c7ff380001003000c5ff370090
:10226000010150000200780000000600c008f800dc
:102270003600f8004400f80020042f0050d58800f4
:10228000a3aa21001400280013a3b900110009001b
:102290000783d8000103b900850180008502520040
:1022a0007201800082825200110009000703d800e9
:1022b0006721b900110009000301d8000183b800ab
:1022c0001401200004800900433bd8000103b8003a
:1022d0007f31b800030141008782420005004100c0
:1022e0004400f9003600f900c008f90000000600bb
:1022f0004400f800881f78008a1f78008b1f780040
:102300008c1f78008d1f78003800f8003a00f80024
:102310003c00f8003e00f8004000f800007020008b
:10232000c028b700c81021004a552b00abaa2c00ca
:102330000b0c78008a0d7800080d78006609c30040
:102340001281c3000804ca00c148a90003000c00a0
:10235000000037004123210035003700330e2100f3
:10236000230288008b0678001001f000f9ff0c00b2
:1023700001000e00f7ff37001804cc0044a0a900ac
:10238000419cc1009883cd000090cb0000b0cb00f1
:1023900001000f00efff37004340a900edff0e00e2
:1023a000ecff0f000b065500b308c5000080cb0002
:1023b000bed1f20044e0a90044c0a9007780c80063
:1023c000c128a90001000d00e2ff3700020f200024
:1023d00022028800e761f1000600c8000090cb00ef
:1023e0004360af000000cb00ffdcc100d9ff0d004f
:1023f000a9c9c50004816600209cc7001101f20034
:102400000d02c9000400cc0002036a0005026b0043
:102410000400400005800800040000003800b400fb
:102420004400b4004560a800000000008700680078
:10243000010078004000f9003e00f9003c00f9007e
:102440003a00f9003800f900cf0678004f0678000e
:10245000cf0578004f0578004f0478004400f9005c
:1024600000000600881f78008a1f78003800f800f6
:102470003a00f8003c00f8003e00f8004000f80088
:102480004600f8004800f8004a00f8004c00f80048
:102490004e00f8005000f800c073220041f52700fc
:1024a000c2aa2c00eaaa2c0000097800010d7800cd
:1024b00003102100430288005410210054028800b8
:1024c00035ff280035028800030008000a000000dc
:1024d0003800b4004320af0006003700d50180006b
:1024e00005005000e5018000050050003e00b400ea
:1024f0004000b400811978008180e8007310210049
:102500005302880064102100440288000200090080
:10251000b2517800051021000504780038037800d6
:102520005230c3000482e800f34f200033028800d9
:10253000130028008302880003000900351a780080
:1025400072028800c2cab30062028800f3fa240053
:1025500033028800030009005e2cc6002400b4008a
:1025600000017800110009000638d900828040007f
:10257000008040005000f9004e00f9004c00f900c6
:102580004a00f9004800f9004600f9004000f9004f
:102590003e00f9003c00f9003a00f9003800f9006b
:1025a0004f0578004f047800000006002148a9007c
:1025b00041e2a9000148a900000006002428a90062
:1025c00061e2a9000428a900000006000148a90052
:1025d000670160004811dd0041842000f38f2f0067
:1025e0009181610082887100680060004300de0014
:1025f000610060004a00dd000182200011017800c6
:1026000002a0a10080087100000006000428a900b3
:10261000670160004411dd0001852000f3f82f0000
:102620009181610082887100680060004300de00d3
:10263000610060000000400041822000110178002c
:102640000210a10080087100000006002324200071
:102650008009780040242000010878000024200030
:102660000208780000000600232620008009780078
:10267000402620000108780000262000020878008b
:102680000000060003f0a200889fbe008a9fbe00e3
:102690008c1f7800fe000700050133006450e10044
:1026a0004f0032006420e1005200320003826c00cf
:1026b00007003b000905d0000306d000820f54003c
:1026c0000c065d000200390002003200890178002a
:1026d000030678008582550004003d000003fd00dc
:1026e0008103fd008502ea008b854200840f7200a1
:1026f00002003b0060001000e08018006011b8008c
:102700000005eb007a28e1000a0039000600780095
:10271000c75ddd00f707b200878075002d00370028
:10272000828171000a017800610560008180d1001a
:102730000080d3008502e900f9ff3b000604400059
:102740008784480002003b0060041400e0841c0001
:102750000988a300070032008a817100828171001c
:10276000610164008904d1000884d3008b05e8006e
:10277000170037000978a30013003a000b00e000af
:10278000130034008b05e9000804440089844c00e0
:102790000a4474000978a3000d003a000b00e00021
:1027a000070034008b05e9000804440089844c00cc
:1027b00001003a000b0020000978a300f7ff320067
:1027c0000001eb0002003700828171000a017800ed
:1027d000890007000cf0a70001f0a000bd00370041
:1027e0006420e10002003a00838f6c00bd003300da
:1027f0000801be000200be00b6003700889fbe0080
:102800008a9fbe008c1f7800a1000700a80033003b
:1028100003866c006450e1002e0032006420e10069
:10282000330032006150e1002f0032006120e100ee
:102830003100320085855500eb07b000090020000b
:1028400008042000050037000804440089844c0077
:102850000a0031000603430087834b000001530048
:1028600081815b00f8ff33000203be000800a00076
:102870000804440089844c00f6ff3900c639dd00a5
:102880008301730001003200130020008904d1008d
:102890000884d3000998a300050032000800a700af
:1028a0000300a0008904d1000884d3008b05e80050
:1028b0008904d1000884d3000001eb000281d2001a
:1028c0004d00070001f0a1000cf0a70001f0a000ee
:1028d000800037006420e100820032000801be0061
:1028e0000200be00f7ff37006120e1007d003200ea
:1028f0006000b800f3ff37000000200001f8270057
:10290000f0ff3700839f68000100e00002003d00f7
:1029100060001000e08018000300e00002003d00ad
:1029200060011100e0811900710007004f00e00014
:1029300002003b0060001000e0801800000006006c
:10294000881f7800010478000100e00005003d00c8
:1029500060001000e080180002003b0001f02c0035
:10296000030037000400070008f0a70001f0a000f2
:102970004f04780000000600889fbe008a9fbe00ba
:10298000010578000000e000180032000004be00dd
:102990006011b8006b0920000982cf0002003900e5
:1029a0000882cf000441b000694252000e0032009c
:1029b00008003b0082817100610164008904d1003c
:1029c0000884d3008b05e8000442e800f9ff3a00d0
:1029d000050037000804440089844c008b05e90099
:1029e0000442e900fbff3a00030007004f05be0068
:1029f0004f04be00000006008100200061805500e9
:102a00000b003d000b00200061fe2f000100e100e3
:102a10001d00340082817100610164008904d100cd
:102a20000884d3000000e800faff3a00710020009b
:102a300061006400030070000200600009003200c1
:102a400061044400e0844c000988a50005003200c0
:102a50008b05e8006808e10002003a008904d10013
:102a60000884d300f20f20000258e10005003d0069
:102a7000c75ddd00f907b2008980750008007800a5
:102a8000000006000bf827008b007800000005000e
:102a90000004be00260007000003be000405be00bf
:102aa0000200be0022000700844f750000000600ef
:102ab0000200be006450e100050036006420e10021
:102ac000020036000968a30001003a000800be00b9
:102ad0000160a0004f0678004f05be004f04be0005
:102ae00000000600f0ff2f00f1ff2700f9ff37007c
:102af0006022b800060220000000d0008180d200d1
:102b00000482d2008582d2000000a000020252009e
:102b100083825a00030031000202420083824a008d
:102b20000000a1000603e900f3ff3a0000000600e0
:102b3000c70ade00f107b200f50fb200080032004c
:102b4000e1cf4200020032000170a0002400050025
:102b5000810f7000010032000408050044000500e8
:102b6000810f700002003a00140005008502e900a0
:102b70000000400081c04800fcff3b000170a00045
:102b800024000500a1072100320007008000780022
:102b90000080eb00e08f500004003500a107210009
:102ba000a0002000020007004f80de0000000600a9
:102bb000889fbe008a1f7800000578000104780015
:102bc000c800900068009000808f50000500390018
:102bd000080078008a0007008080eb00e00f5000ba
:102be000180035008a447800c80090008a587800a0
:102bf00041049800180078000180200081006000e6
:102c000005003a000140200001006000070032008a
:102c1000ea4f550005003a00080078002601070039
:102c20008080eb00e00f500006003a0000c020005a
:102c30001800600002003200480090006004980014
:102c40008980fb00010078004f0578004f04be002a
:102c500000000600889fbe008a9fbe008c9fbe00b9
:102c600080057800010578000d4020002e00370017
:102c7000ca0090006a009000808f50000400390064
:102c80000a0078005e000700e00f500039003500b0
:102c90001a8066000a003200a10020000b007800b4
:102ca0004c00070000067800e00f560004003200d8
:102cb0006184150008044600cfc4de00040037001c
:102cc0000b007800390007000004be000006eb008e
:102cd0004a0090006a01900000015100cf91de008f
:102ce000880f5100898f5900020031000204be0094
:102cf0000006eb000801be008b00780022000700f0
:102d00004a0090000800400040059800e00f56007f
:102d1000040032000a007800e7000700e00f5000ce
:102d200014003a00888545000040eb009b4f1000de
:102d3000cfff3a00008020001a0060000600320039
:102d40000a007800dc000700800078000080eb00bb
:102d5000e08f500008003a0000c020001a00600018
:102d6000050032004a009000600598000000eb006a
:102d7000010037000080eb004f06be004f05be008b
:102d80004f04be0000000600000278000300370078
:102d9000315a780061015100e0815900e00f510083
:102da000e08f5900faff3a0000000600800078002a
:102db00001007800010037000000e8000041eb004e
:102dc000904f1100fcff3a0001005000cf80de0060
:102dd000000006008001eb0010417800814f510097
:102de00001003a0080017800e04f510002003a00f3
:102df00003007800000006000000e800f6ff37003e
:102e0000889fbe008a1f780000047800c8009000e8
:102e1000680190000000eb00828f50003d003900f7
:102e2000180078002200290002016000e20f510022
:102e30000700320001202400e00f500001003d0097
:102e400001202000008c70000080eb003100370072
:102e50000200260002006000820f500009003a00c4
:102e600038009000808f500006003900080078007c
:102e700091000700800078000080eb00e08f500098
:102e800024003a001805780000c02000000065000a
:102e900019003a00a80490006002200008004000d9
:102ea000808f540014003a00002020000100200010
:102eb000f401070020049800e00f500005003a00dc
:102ec00029049800490498008904e800390498000e
:102ed000080037000a60a0000a0c7800400498003f
:102ee000012020008080400031049800400c9800b0
:102ef000500c98001800070028009000500498001b
:102f0000380090006004980000002600180c700043
:102f10000000eb004f0578004f04be0000000600e3
:102f200080017800811f7800110009008200d8001c
:102f30008001fd00cf007800030878008219b800f6
:102f400082805000110098000000060020842100bb
:102f5000b700070000000600881f7800e823210062
:102f60000040eb00984f100003003a00f7ff070005
:102f700020c0b300004c78004f0478000000060029
:102f8000889fbe0000047800080078004a0007000f
:102f90008004780000042000180060000200320065
:102fa00028009000db0007000000eb0020049800e0
:102fb00038409000e04f5000050035000000fb0055
:102fc00069040700e00f5000010032008084eb002c
:102fd00018109000e00f5000080032006d04070048
:102fe000e00f5000010032008084eb0018109000c8
:102ff000c80007000000eb00101498000008200033
:10300000180060000e0032008000eb00a20c2100ce
:103010000180400000004100900f140002003a00bf
:103020000008eb00030037008100e800e78f500044
:10303000f7ff360008007800b60007000e003700e2
:10304000000c780000c0eb003044980061022000c2
:1030500088804000210498004104980051049800a1
:10306000410c980061049800510c9800710498007c
:1030700076004400000c9800090078004f04be0060
:1030800000000600889fbe0078002000a90c2100e7
:10309000080044000080440010007800e00f500059
:1030a00001003200b6ff07000804e900f8ff3b000a
:1030b0004f04be0000000600889fbe008a1f7800f3
:1030c00000047800e00f54000f003a0088047800f4
:1030d000aa0c21000980440000004500100078007f
:1030e000e00f500004003200f3ff0700e00f500033
:1030f00001003d000084eb008904e800e78f5400e4
:10310000f4ff34002800370000002200180060009f
:1031100024003200a80490000f003700090151007c
:10312000384090000000fb0089007800a6f50700f9
:10313000e00f500007003c00280090004004980079
:1031400060049800500c98001890a0000084eb00d8
:10315000150037008084440048019000828f54009d
:10316000eeff390028009000400498009800780095
:1031700002c020000281600001003a003800900087
:103180000200240082806000030032006004980086
:103190000004eb0004003700500c98000104780094
:1031a0000100370000047800080078004f0578001f
:1031b0004f04be0000000600889fbe008a9fbe002c
:1031c0008c1f7800000678000205be000404be00d3
:1031d0000401be000a00be00cafd0700008ebe004a
:1031e0000801be00870507000002550081825d00ce
:1031f00024069800350698000c0078004f067800e9
:103200004f05be004f04be0000000600030037005b
:10321000e04f5100050032000000e8001041780046
:10322000814f5100faff3a0000000600000005003f
:1032300001002000e08f50000900320001008000f2
:10324000e08f5000060032008100e9000100880094
:1032500081804000020080008100410080087800e9
:1032600000000600889fbe0080047800668440004d
:103270001800d0004500de00f27f2000820f5000d1
:1032800010003a00800ceb00180478006f01640015
:10329000200020001b003a0021019000e00f5100a7
:1032a00018003a0011019000e00f510015003a009b
:1032b00010002000910f11001200320020002000a9
:1032c00010003700e00f500004003a0001007800c1
:1032d0002e010700e00f500008003c00f20028001b
:1032e0001801610001fe2300010c710021c02f00b4
:1032f000810c40000080eb0002003700800ceb00e6
:103300000000eb004f04be0000000600010878003a
:1033100000000600e00f5000320032004001be0005
:10332000e50f5100e08f59002e003600e1006100ea
:103330002c003a00a1918000e08f50000200320082
:10334000810f50000400310021009800a0918800f6
:10335000170037008400780021029000e00f52002f
:1033600002003200800f5200faff39001103be0044
:1033700086824000850f50001a003900808f52006d
:1033800004003a008218430083904b00010078004b
:1033900007003700e00f5200030032000201400036
:1033a000820f52000f00390024009800a0009800fe
:1033b000a0009000e08f50000a0032001001400091
:1033c000828f500007003a00222321000009eb0001
:1033d0001001be003118410021904900a100900069
:1033e0002100980000000600ea874700889fbe0081
:1033f0008a9fbe008c9fbe008e1f7800000678005a
:103400000205be000404be00010778000400be00ef
:10341000fc0407000001be00f0b79f0081bf9f00c1
:10342000e00f5000e08f580052003200e00f5500ce
:10343000e08f5d00510032000c0078000206be00f3
:10344000dab79f00ebb79f0000057800ce00900030
:103450006e009000808f5000040039000e0078004c
:1034600067fe0700e00f50002e00350003402000eb
:103470001e8161000b0032000c01be00a100200083
:103480000a007800b600070080057800e08f55003c
:10349000070032006104150008844500cfc4de0037
:1034a000040037000c04be008205780001003700dc
:1034b0000c04be004e0090006e019000000151000f
:1034c000cf91de00880f5100898f59000200310032
:1034d0000204be008005eb000801be008a007800ef
:1034e00029fe07000806560089865e004e019000fe
:1034f0000801410042079800e08f550004003200a7
:103500000e007800ecfe0700e00f500005003a00c6
:10351000e00f5600e08f5e00020032000805450013
:10352000caff37005fb59700efb597000080200015
:103530001e006000020032000e007800defe070070
:1035400000c020001e006000020032004e0090000b
:10355000600798007fb197008fb997000c00510069
:103560008d8059000a01be0061fd07000004be0005
:10357000020037007fb497008fbc97000800be00a0
:103580004f0778004f06be004f05be004f04be0037
:10359000af00b10000000600889fbe008a9fbe00f9
:1035a0000005be0091918000e08f500002003200c3
:1035b000010078000f003700a19180004023210016
:1035c00005003700b10f5500a18f5d002a003600bd
:1035d00064804000a1009000e08f5000f9ff3a00a5
:1035e00012003700b20f5500a28f5d002200360096
:1035f0006400410010017800e00f5100f9ff3a002b
:1036000011017800a19180004023210005003700be
:10361000b10f5500a18f5d00170036006480400097
:10362000a1009000828f5000f9ff3a00b89180000d
:10363000c99180008a0f54008b8f5c00010031001b
:103640000a04be000800be009d000700e00f500005
:1036500006003a008a0f54008b8f5c00060032008f
:103660008904d1000884d300f2ff37000898be0017
:1036700028ff0700cbff37004f05be004f04be00f8
:1036800000000600889fbe0065014000e081480000
:10369000020278000400a100040178000204be00c8
:1036a0000001eb00800f5400818f5c002900360080
:1036b000e50f5400e08f5c0002003e00680020002f
:1036c000090020000800be00b3ff0700e00f500013
:1036d0001f00320090007800a4ff2f00f5ff2f009c
:1036e00031014200a1814a00880f5100898f5900a1
:1036f00003003100a102900005087800080037009f
:103700000881400002087800a10190002301980080
:10371000100178003119140021911c008888be0026
:1037200010007800e00f50000600320020019000e9
:10373000e00f510002003200640040000100370039
:1037400002007800909188006481400001003700f9
:1037500000017800020078004f04be00000006005f
:103760000500370090cf1000070032000000e8008d
:1037700061015100e0815900e00f5100e08f5900d4
:10378000f8ff3a000000eb0000000600e6004000f1
:10379000910178000600280006836100ef81610036
:1037a00083087800120020000f003a00a00190006a
:1037b000e08f51000c003a0090019000e08f510022
:1037c00009003a00908f110007003a0039003700d5
:1037d00094087800130a78009009780005087800aa
:1037e0007001510002003700640240008081e8004f
:1037f00091027800e08f5200f5ff3200120037008e
:1038000094037800cf3bde008582420085887300f8
:1038100093037800cf3bde0094027800858242005b
:10382000058a730093037800878343009002780031
:10383000cf2ade0085897300900278000588420057
:103840000201e90002003700640240008081e800c4
:1038500091027800ef8f5200e9ff36000f00370029
:1038600094037800cf3bdd009002d10005887300ff
:1038700093037800cf3bdd009402d100058a7300ea
:1038800091037800cf3bdd009302d100858973005e
:103890009108d1000201e800020037000082e80030
:1038a000e401400091027800ff8f5200ecff3e00df
:1038b000ef886200910873000200780000000600a3
:1038c0000001eb00820f5000050034003a020700af
:1038d00000017800e10f410001003a000001eb0017
:1038e00002007800000006004f02b000889fbe0072
:1038f0008a9fbe008c9fbe008e1f78000006780055
:1039000080c5b30080cf50000a00320077404000ed
:1039100080cf50000a0032006940400080cf500044
:103920000b003200b00e210080bf9f00ae002000cf
:103930000a003700a20d210082bf9f000600370059
:10394000b30e210083bf9f008e00200003003700cc
:10395000b40e210084bf9f000e0120003c02be0077
:103960002c03be000605be000404be0040c6b30022
:1039700080cf5000030032006540400080cf5000ef
:103980000b003a00e00f5200e08f5a00e00f5b009e
:10399000e08f5b0006003d006044b8006055b80051
:1039a0000404540085845c0006055d0087855d0085
:1039b000e80f570003003200f00f57004c003a00a8
:1039c00002003700300020000100370040002000d6
:1039d000e00f5400e08f5c00e00f5d00e08f5d00c1
:1039e00004003a00dc0890008d012000e08f5000b8
:1039f0000d0032000e01e900cf91de000802be008a
:103a00008200640003816200820178000101780075
:103a10000202be008fb89700048240001442780072
:103a2000f4e79f007d012000000178000201e90019
:103a3000050033008b05d1000a85d3008984d300ab
:103a40000884d300f9ff3700089ebe000a96be0026
:103a50000e01e900cf91de0002027800c4b79f009a
:103a600083057800180037008d06e90008fd2f0057
:103a70000f0444000d0544000401be004fb497003c
:103a800084006400038165008201780001017800f0
:103a90000204be008fb8970008844000184d7800db
:103aa000000178000201e900050033008783d1009e
:103ab0000683d3008582d3000482d300f9ff370048
:103ac000049ebe000696be003c02be002c03be0053
:103ad000e00f5200e08f5a00e00f5b00e08f5b00c8
:103ae000a6003400e08f5600dfff3c00a300370043
:103af000ac60900082c6b30082cf50000b00320051
:103b000006003c00e0cf50000800320020c6b300a1
:103b100080cf50005b003a0004003700c0c6b300fd
:103b200080cf500057003a002b003700e00f5400c0
:103b300004003a005c0890008d012000e00f500066
:103b400008003200110009000e84d8008000fd003a
:103b50008fb997000080410010407800f0e79f0087
:103b60007d01200000027800811f7800110009000b
:103b70000e84d8000002fd00cf0078000c00370052
:103b8000110009000e02d8008d06e90008fd2f0083
:103b90000f0444008d0044008e01b8000202520060
:103ba0000fb99700040241009448780000027800a1
:103bb000e00f520002003200e08f5600f0ff3c00a0
:103bc000cfa2de000503780086037800049ebe00c5
:103bd0000696be0069003700e00f5400e08f5c00dd
:103be00004003a005c0890008d012000e00f5000b6
:103bf000080032006171b9000800be00fe02070033
:103c00008fb997000080410010407800f0e79f00d6
:103c10007d0120006175b9000a01be000800be00e8
:103c2000b3fb07000c0037000a01be000800be000d
:103c300034fb07008d06e90004fd2f000f0242004f
:103c40000d0142008072b800040454008fb997003f
:103c500008844100184978000004be00e00f5000bd
:103c6000e08f580002003200e08f5600eeff3c006b
:103c7000088ebe004fc8de0020069800300698006f
:103c80003e003700e00f5400e08f5c00e00f5d0065
:103c9000e08f5d0004003a005c0890008d01200078
:103ca000e00f50000c0032000e027800cfa2de00c0
:103cb00005037800860378000800be000a01be00f4
:103cc0006b0307000fba9700000042001040780015
:103cd000f0e79f007d0120000e007800cf80de001d
:103ce0000101780082017800c0b79f00d1b79f0022
:103cf000e2b79f00f3b79f000203be000002be00c0
:103d00000800be000a01be00520307001000370081
:103d10004fb29700dfb297006fb39700ffb39700e1
:103d20000800be000a01be00550307008d06e90029
:103d300004fd2f000f0242008d0242008072b80085
:103d4000040454000fba970008044200984a78000f
:103d5000009ebe000296be003c04be002c05be00c4
:103d6000e00f5400e08f5c00e00f5d00e08f5d002d
:103d700002003400e08f5600e5ff3c00e80f5700da
:103d800011003a000c109000680060000e00320034
:103d9000f78f560006003e0008fd2f000f04440078
:103da0008d00440000c3b300914f100006003200a4
:103db0008d06e90000fd2f000f0040008d0040003f
:103dc00000c3b3008048780078811600120e980076
:103dd0006c009000cf91de0004fd2f000f02420026
:103de0008d004200e8fb07009c0890005c099000f1
:103df000828f500006003d0081005100010e9800a6
:103e00008c1090000140a100011698000f003700af
:103e1000e00f51000d003d000c1090007400600098
:103e2000f00f500009003a007c0990007c009000df
:103e3000000051000c099000020050008100500069
:103e40004240a90001003400010e98004f0778009d
:103e50004f06be004f05be004f04be004f02b1002a
:103e6000000006000400fa00889fbe008a9fbe0082
:103e70008c1f78000004780001067800f80d90008f
:103e800078009000808555000808900080855500d6
:103e90001808900080855500a80c90008985550071
:103ea000b80c900089855500c80c90008985550094
:103eb0000002220090bf9f0000032300a0bf9f00cc
:103ec000081090006400600015003a00e08f550073
:103ed000130034000b0578008a047800e20f5500c7
:103ee00001003600290020006149b9004802900015
:103ef000ee80570058009000040001005004980024
:103f0000e00f50008f003200680890000900400068
:103f1000600c9800090555004240a900eeff3c00e6
:103f200078019000e00f51000d003400cf91de00c9
:103f3000480290008c0078005800900004000100b6
:103f4000500498008080eb00e00f50007e003200ab
:103f5000e80890007800900000804000600c980015
:103f6000880c9000e08f540011003400090578009f
:103f7000e28f5400010036002a0020006151b90090
:103f800048029000ec8057005800900004000100a7
:103f900050049800e00f50006a003200680890005a
:103fa0000a004000600c98008a845400edff37003e
:103fb00018099000e00f51000d003400cf91de0091
:103fc00048029000e80090005800900004000100b2
:103fd000500498008080eb00e00f50005a0032003f
:103fe000e80890001808900000804000600c9800dd
:103ff000a80c9000e08f54001100340009057800ef
:10400000e28f5400010036002a0020006151b900ff
:1040100048029000ec805700580090000400010016
:1040200050049800e00f50004600320068089000ed
:104030000a004000600c98008a845400edff3700ad
:1040400038099000e00f51000f003400cf91de00de
:1040500018089000e800900080804000480290001e
:104060005800900004000100500498008080eb008c
:10407000e00f500034003200e8089000380890004b
:1040800000804000600c9800c80c9000e08f540045
:104090001100340009057800e28f54000100360059
:1040a0002a0020006151b90048029000ec805700be
:1040b000580090000400010050049800e00f5000e8
:1040c00020003200680890000a004000600c980050
:1040d0008a845400edff370088109000e48060006f
:1040e000190032008000eb00818f5500160034006b
:1040f0008b04780009057800e28f54000100360037
:104100002a0020006151b90048029000ee8057005b
:10411000580090000400010050049800e00f500087
:1041200008003200680890000a004000600c980007
:104130008a8454004240a900eeff3c008000eb005e
:10414000010037008080eb00010078004f06780006
:104150004f05be004f04be000080fa0000000600bc
:1041600000c0da00000006000a00fa00110020007a
:10417000b1bf9f00c0bf9f006a805700f8ff0700d3
:104180004fb897000080fa000000060000c0da0077
:10419000000006000a00fa0051002000b1bf9f0095
:1041a000c0bf9f006a805700f8ff07005fb8970004
:1041b0000080fa0000000600889fbe00800478009e
:1041c00000928000e00f500004003a000e0007004b
:1041d0000084eb00e00f50000800350008928000da
:1041e000e08f54000500320009004400060007007b
:1041f000e00f500001003d000084eb000800780053
:104200004f04be0000000600e00f500004003a001a
:1042100021242100019288008000780006003700e8
:104220008080eb0022342100820f500002003e000b
:10423000009288008000eb0001007800000006007a
:104240008f1fd100ec0207008f87e9000000e0001b
:1042500000000600809feb00e70207008f87e9005f
:104260000000e000000006002800fa00889fbe0061
:104270008a9fbe008c9fbe0003866b0080000700f3
:104280006400e100440032006408e1004a003200aa
:104290006100e100460032006108e100490032009f
:1042a000ec0647006000b8003d02be003d03be00c2
:1042b000f48657006011b8003d04be003d05be0005
:1042c0007d0320000b0037000000a0008d06e900f0
:1042d000130032000402420085824a0006034b00ac
:1042e00087834b00000040008180480002014900a4
:1042f000838149000802520089825a000a035b0048
:104300008b835b00f0ff3b000802420089824a0079
:104310000a034b008b834b008d06e900edff3a004a
:104320008482720086827200f707b2008782720070
:1043300001003200150020001e0490003e0b90008a
:1043400006035400e63fb0000368a30007003200f4
:104350000000a7000500a0008301d1000281d30066
:104360008180d3000080d3000603e8008301d100e0
:104370000281d3008180d3000080d3000002eb00d3
:104380000482d2001200070003f0a1000cf0a70085
:1043900003f0a0004e003700640247006408e1000b
:1043a000480032003400be003401be00f6ff370082
:1043b0006108e100430032006011b8006000b800fd
:1043c000f1ff370003ff270002002000fbff37004a
:1043d0001800200057002000080453000d003d0085
:1043e0000600200097fc2f000740e1001e0034006b
:1043f00084827200610260008301d1000281d300d7
:104400008180d3000080d3000804e800f8ff3a0060
:104410004700200061046000050474000404640087
:104420000d00320061004000e0804800600149005a
:10443000e081490003b8a500070032000603e80048
:104440006538e10004003a008301d1000281d30005
:104450008180d3000080d300f87f20000830e10085
:1044600003003500080378006000b8006011b80050
:104470004433dd00f300b200830173000000060046
:10448000680447000294be000094be00fc0447008c
:104490008694be008494be00090078009f02070045
:1044a000080078009d02070099007800814f700095
:1044b0000b003b000800be00780207004f00b1006f
:1044c00003003700f3ff2700f2ff2f006110b9004f
:1044d0004f06be004f05be004f04be000080fa002c
:1044e000000006008103780091f907000001be007a
:1044f0006000b8000478a30013003a006220e100d5
:1045000015003e000d0039008301d1000281d30067
:104510008180d3008301d1000281d3008180d30048
:104520008301d1000281d3008180d3000538b0001f
:10453000c42add00f300b2008381720007f0a700f7
:1045400003f0a00000000600f3ff2700f2ff2f0099
:104550006110b900fbff370003ff2700f7ff3700aa
:104560001400fa00889fbe008a9fbe008c9fbe0088
:104570000004be000205be00680047000a90be00ad
:104580000890be00650207000070a7000bf0a100b4
:10459000304320009e02900080825200b0fe2f0027
:1045a0000028e10011003d00b0fc2f000028e100d0
:1045b000150034001e0990008e0890007e009000c7
:1045c0000501b0000201d1008180d3000080d3003a
:1045d0008502e800fbff3a000b00e000bcff3b0057
:1045e00060001000e0801800b9ff3700f0ff2f00d6
:1045f000f1ff27000b00e000b5ff3b0001002800a1
:1046000000002000b2ff37006000b800b0ff3700a4
:104610004f89de0082017800670237002800fa0027
:10462000889fbe008a9fbe008c9fbe0003866b00e1
:1046300093ff07000028a30064003a000128a300ac
:1046400067003a000008a30062003a000108a300d6
:1046500065003a001e009000be08900081064000f0
:10466000ed3fb100f4805700ee019000111ab80040
:104670008e099000311bb8009e099000311cb800d3
:10468000511db800f485570046000700fe01900058
:104690003a0007008b85e8003e0007008e09900075
:1046a00040000700ee019000340007008b85e80011
:1046b000380007008e099000400007009e09900016
:1046c0001b18b800890440000a854800fe019000cc
:1046d000340007008b85e80038000700ee019000e9
:1046e000300007008e0990001b18b80089044000b4
:1046f0000a8548000a98a30008003a000402420014
:1047000085824a0006034b0087834b0008044c0057
:1047100089844c000a054d008d06e90084827200f0
:10472000850273004c3add00850272000100320000
:1047300015002000443ade001400b2004538de00c7
:10474000cb45dd000b007000c540de00cb4ddd0029
:104750008b8070004549de00cb55dd000b017100f8
:10476000c551de000d03780019ff070003f0a1001a
:104770000cf0a70003f0a00055ff37001b18b8008d
:104780008502400006834800e0834b0060044c0033
:10479000070037001b18b800060340008783480055
:1047a000faff37001b18b800870340000884480050
:1047b000e0844c0060054d00000006001b18b800a6
:1047c0000804400089844800faff37000108a3006c
:1047d0003cff3a005800be005801be00e3ff37001e
:1047e0000008a30037ff3a0009047800f9ff3700fa
:1047f00007f0a20003013700bdf807000400be0067
:1048000000000600020ab900001bb9000200b8004f
:10481000810042008100430000000600889fbe0026
:104820008a9fbe003004be002005be000404440080
:1048300085844c0006054d0087854d000898be0014
:104840000a90be000440e10005c8e10006d0e10086
:1048500007d8e10002003100680040001008e800bd
:104860004f05be004f04be0000000600889fbe003a
:104870008a9fbe008c1f7800000678003c04be00b2
:104880002c05be000400540085805c0006015d001c
:1048900087815d00009ebe00029ebe0010002000c9
:1048a0000440e10005c8e10006d0e10007d8e100be
:1048b000010039000000eb001c0e10004f067800cc
:1048c0004f05be004f04be00000006001200fa00b3
:1048d000889fbe008a9fbe008c9fbe000205be005e
:1048e0000004be00e4b79f00f5b79f0086bf9f009d
:1048f00097bf9f000000eb00d0b79f00c0b79f009c
:10490000b0b79f00a0b79f0090b79f000006780047
:10491000fd032000dfb197004fb0970003814100f5
:10492000bfb09700e08f510004003d002900070050
:104930007e805700b9ff07000300370025000700fd
:104940007e805700c9ff0700dfb09700e08f50005e
:104950000700350014002000050020006033b80077
:1049600008047200898472000a0573008b85730045
:104970000c06e8008d0f5600e6ff3400e08f500073
:1049800006003d006fb29700ffb297000fbb970083
:104990009fbb97007e805700a0ff07005fa897008d
:1049a000e00f500004003a001fb49700afb4970026
:1049b0003fb59700cfb597000800be000a01be00c2
:1049c0004f06be004f05be004f04be000080fa0037
:1049d00000000600cf01de0002817100b2b79f0027
:1049e0004f09de000000400000007100a0b79f00ea
:1049f0000fb097004f01de00818040008100710000
:104a000091b79f007faa9700cf20de0000004000f2
:104a10000080700080b79f000800be000a01be0041
:104a20004f18de000402420000027200f4af9f0043
:104a30000804440089844c000a054d008b854d0014
:104a40004fb29700dfb297006fb39700ffb39700a4
:104a500000000600881f780018002000881f7800da
:104a60009aff07008f87e9004f04780000000600d6
:104a7000801feb0095ff07008f87e900000006000c
:104a8000889fbe008a9fbe008c1f7800e00f5000f8
:104a9000e08f5800e00f5900e08f59000f003d00f3
:104aa0006044b8006055b8000000540081805c008c
:104ab00002015d0083815d001c0020000820e100f0
:104ac00009a8e1000ab0e1000bb8e1000d003d00cb
:104ad000190007000006eb000a0037000006eb0093
:104ae000e00f5200e08f5a00e00f5b00e08f5b00a8
:104af00004003d006044b8006055b8000e00070097
:104b00001c002000d3ff0700e00f56000600320013
:104b10006022b8006033b8000000520081805a0063
:104b200002015b0083815b004f0678004f05be00e9
:104b30004f04be00000006000402540085825c00a1
:104b400006035d0087835d0000000600889fbe00ad
:104b50008a9fbe008c1f7800e00f5000e08f580045
:104b6000e00f5900e08f59000d003d006044b8008f
:104b70006055b8000000540081805c0002015d00b7
:104b800083815d001c0020000820e10009a8e100ed
:104b90000ab0e1000bb8e1000d003d00080037004d
:104ba0000006eb00e00f5200e08f5a00e00f5b00c0
:104bb000e08f5b0006003d006044b8006055b8001f
:104bc0000402540085825c0006035d0087835d005b
:104bd000a7ff0700e00f5600060032006022b80071
:104be0006033b8000000520081805a0002015b006f
:104bf00083815b004f0678004f05be004f04be0066
:104c0000000006002800fa00889fbe008a9fbe00b0
:104c10008c9fbe0007067800878669000c003b0069
:104c2000030478008704780008f0a10009f0a100cf
:104c3000840f5000858f5800860f5900890f5c0043
:104c4000030033000cf0a20001003a000cf0a100b8
:104c50000bfe07006400e1005f00320078014700ae
:104c60006408e100610032006c0147007485570060
:104c70003200be001201be003a04be001a05be009a
:104c80001e039000be0a90008503530006003d00fd
:104c90000004fd008104fd000205fd008305fd0008
:104ca0008703ea00050378000df8a3000400320032
:104cb00060041400e0841c0060051d00e0851d00f8
:104cc0006022b8007d0320000d38e1008006eb0073
:104cd0000b0039004433dd00f300b20083017300a0
:104ce00039003700848272000d027800e10664000a
:104cf0008b85d1000a85d3008984d3000884d30032
:104d00008703e900f7ff3b00080040008980480066
:104d10000a0149008b81490004003b00600010003b
:104d2000e080180060011900e08119000358a30019
:104d3000090032008d82720084827200610260007c
:104d40008301d1000281d3008180d3000080d30091
:104d50000603e8001b0037000348a30017003a00d1
:104d60000600e000170034000603e9000d00a30070
:104d70000000480081804800020149008381490009
:104d80000348a3000f003a000600e00009003400c9
:104d90000603e9000000400081804800020149004c
:104da0008381490001003a000003eb000348a3009f
:104db000f5ff32006022b8000200370084827200e2
:104dc0006182660082fd070003f0a1000cf0a700dd
:104dd00003f0a000befd3700640147006408e10055
:104de00002003a000df8a300b6fd3a003200be0002
:104df0001201be00b6fd3700889fbe008a9fbe002c
:104e00008c9fbe000404be000605be00809fbe004d
:104e1000829fbe002f000700040678000800be0035
:104e20000a01be002b000700840678004f03be0075
:104e30004f02be008d4f76007fb097001300330005
:104e4000f0ff2f008b8f6b0006003b000d06660005
:104e50000c00a7000a00370007f0a6001000200091
:104e60000a003700880f5200898f5a008a0f5b00b2
:104e70008b8f5b00030039001000200001003e0012
:104e80000000200007f0a7000000ea004f06be0067
:104e90004f05be004f04be0000000600e482400043
:104ea0001078a30007003200640240001178a300cc
:104eb0003400be001401be00040032000330a7001d
:104ec000000006003500be001501be000330a00042
:104ed0000000060005ff2700058261000700320080
:104ee0000428e1000100320024000500060007004c
:104ef00001003a0044000500040805000200070014
:104f0000f9ff3a00140005006f8261008102700011
:104f100085027100850272000000060080007800a2
:104f20005002be005003be004439de00f700b2005c
:104f3000f37f200003016100090032000218e10044
:104f400016003a00850172008301730083817300ab
:104f50000008200015003a00400020001300370030
:104f600085017200830173008381730005003a009c
:104f700004a8be0006a8be00100020000b003700e9
:104f80000201e9000402420085824a0006034b0048
:104f900087834b000748a300f9ff32000740a000b9
:104fa00004a8be0006a8be002000200080009800d3
:104fb0009200980000000600889fbe0083047800dd
:104fc0000300e0002c00350003003c00008270006c
:104fd000040271002600320036432000c500200084
:104fe0008383cf000a0039000541b1008283cf00de
:104ff000070039000541b1008183cf00040039006a
:105000000541b1008083cf00010039000541b100a6
:1050100085c353006022b800120032000a003b0032
:1050200084827200610260008301d1000281d3009a
:105030008180d3000080d3000603e8008743e800a6
:10504000f7ff3a0007003700000040008180480069
:1050500002014900838149000603e9008743e90012
:10506000f9ff3a00dafc070009f0a70003f0a000fe
:105070004f04be000000060060001000e080180031
:1050800060011900e0811900d3ff3b00033e2c00b2
:04509000f7ff3700ef
:020000040000fa
:1050940068650000617200007462000065610000d0
:1050a400743a000020250000356900002c2000001f
:1050b4006d700000755f0000746500006d70000085
:1050c4003a200000253600002e330000660d000053
:1050d4000a000000677800003a25000035690000e6
:1050e4002c200000677900003a2500003569000093
:1050f4002c200000677a00003a2500003569000082
:105104002c200000617800003a2500003569000079
:105114002c200000617900003a2500003569000068
:105124002c200000617a00003a2500003569000057
:105134000d0a00000001000002030000040000004a
:1051440025300000367500002061000078790000e9
:105154007a20000025300000366900002025000078
:105164003036000069200000253000003669000058
:1051740020670000787900007a20000025300000c4
:105184003669000020250000303600006920000048
:10519400253000003669000020740000202500003e
:1051a400750d00000a0000003031000032330000a9
:1051b4003435000036370000383900004142000021
:1051c4004344000045460000486500006c6c000044
:1051d4006f2000004155000041560000330d0000cf
:0451e40000000000c7
:020000040000fa
:1051e8000000fa00ab080700e6030700ef0d070010
:1051f800ff0d07000000eb000080fa000000060029
:105208000000fa0028d0bf000080fb00cf80de003d
:105218009200200003002000820f5000838f580066
:1052280026003e0000060100290037002000370054
:105238001c00370018003700140037001000370032
:105248000c00370008003700040037000000370062
:10525800100d0700144ea90018003700144ea800be
:10526800146ea90015003700146ea800148ea9004a
:1052780012003700148ea80014aea9000f003700e2
:1052880014aea800144ea9000c003700144ea80054
:10529800146ea90009003700146ea800148ea90026
:1052a80006003700148ea80014aea90003003700ca
:1052b80014aea800dc0d07000000000028d0bf00d5
:1052c8000040e90028f0b7000000000001003700a6
:1052d800000000000080fa00000006000400fa0048
:1052e800d0892a0003000900305f78004e00b10021
:1052f80042c0b3008e0078000000eb00720e070079
:105308000040eb00304798003e409000204798004e
:105318002e409000104798001e409000004f7800e3
:10532800420020008e0078000000eb00710e07009c
:105338001e407800e14f50000b003a001e409000dc
:10534800e24f500008003a002e409000e34f500012
:1053580005003a003e409000e44f500002003a0039
:1053680010c0b3002af0b7000080fa000000060061
:105378000000fa00c08c80008080d100b08c8000d2
:105388000080d10080805000108280000080500092
:10539800a0808800108d80008080d100008d800062
:1053a8000080d10080805000108280000080500072
:1053b800b0808800608d80008080d100508d800092
:1053c8000080d10080805000108280000080500052
:1053d800c0808800c08b80008080d100d08b800086
:1053e8000080d10000805000d0808800108c8000a0
:1053f8008080d100208c80000080d1000080500087
:10540800e0808800608c80008080d100708c8000f3
:105418000080d10000805000f08088000080fa00f1
:10542800000006000800fa0028d0bf00e04f500036
:105438000d00320080bb20003091880080bb200026
:105448004091880080bb20005091880080bb2000dc
:105458006091880080bb20007091880080bb20008c
:1054680080918800500137002ad0bf00e04f5000db
:1054780048003a0029d0bf00e04f500045003200f4
:1054880031818000600020000001780011000900cf
:105498008280d8008000fd00e00f500042013a00f1
:1054a800a0708000e800600010c0b300e08f5000da
:1054b800010032000040eb000080fb00610060004a
:1054c8004300dd00a270800071ff2f0081006100a1
:1054d80000807000a0708800a0708000f00060005c
:1054e80010c0b300e08f5000010032000040eb0014
:1054f8000080fb00610060004400dd00a2708000b5
:10550800f1fe2f008100610000807000a07088000b
:10551800a0708000e400600010c0b300e08f50006d
:10552800010032000040eb000080fb0061006000d9
:105538004200dd00a2708000b1ff2f0081006100f1
:1055480000807000a0708800a17080000002200018
:105558008080600010c0b300e08f5000010032006e
:105568000040eb000080fb00610060004500dd00aa
:10557800a2708000f1fd2f008100610000807000a2
:10558800a070880029d0bf000040e90029f0b700ca
:1055980005013700008180000000e80000818800d4
:1055a8000181800070022000808f500017003400b5
:1055b8000000eb0000818800a08d8000cf80de0015
:1055c800ddf4070002002400234024002cf4070027
:1055d80002002000a33a240086f4070002002000fd
:1055e800c320240026f40700008fbe00328180000b
:1055f8001e00be00809fbe00821f7800a0842a0083
:10560800801f7800ebec0700e8875700b080800027
:1056180001fa20000180b90020079800310798009e
:10562800be00900080bb200000804000cf80de00dc
:10563800220d070030918800a080800001fa200028
:105648000180b9002007980031079800be0090003b
:1056580080bb200000804000cf80de00170d0700cf
:1056680040918800c080800001fa20000180b900c4
:105678002007980031079800be00900080bb2000ea
:1056880000804000cf80de000c0d0700509188009c
:10569800d080800001fa20000180b900200798001e
:1056a80031079800be00900080bb200000804000b9
:1056b800cf80de00010d070060918800e080800047
:1056c80001fa20000180b9002007980031079800ee
:1056d800be00900080bb200000804000cf80de002c
:1056e800f60c070070918800f080800001fa200015
:1056f8000180b9002007980031079800be0090008b
:1057080080bb200000804000cf80de00eb0c07004b
:105718008091880031818000802520000001780078
:10572800110009008280d80061006000e00f50007d
:1057380047003a00146ea9003191800080442f0080
:105748008080400080f82f00808f500008003500ce
:105758003191800080442f00808040008007200025
:10576800808f500002003c0010c0b30001003700d9
:105778000040eb000080fb00610060004500dd0098
:10578800a2708000f1fd2f00810061000080700090
:10579800a07088004191800080442f0080804000e4
:1057a80080f82f00808f500008003500419180005c
:1057b80080442f008080400080072000808f5000a8
:1057c80002003c0010c0b300010037000040eb00ad
:1057d8000080fb00610060004200dd00a2708000d4
:1057e800b1ff2f008100610000807000a070880068
:1057f8005191800080442f008080400080f82f0065
:10580800808f5000080035005191800080442f009f
:105818008080400080072000808f500002003c00fc
:1058280010c0b300010037000040eb000080fb000f
:10583800610060004400dd00a2708000f1fe2f00ce
:105848008100610000807000a07088004600370069
:10585800146ea8006191800080442f008080400071
:1058680080fd2f00808f5000080035006191800076
:1058780080442f008080400080022000808f5000ec
:1058880002003c0010c0b300010037000040eb00ec
:105898000080fb00610060004500dd00a270800010
:1058a800f1fd2f008100610000807000a070880069
:1058b8007191800080442f008080400080fd2f007f
:1058c800808f5000080035007191800080442f00bf
:1058d8008080400080022000808f500002003c0041
:1058e80010c0b300010037000040eb000080fb004f
:1058f800610060004200dd00a2708000b1ff2f004f
:105908008100610000807000a07088008191800093
:1059180080442f008080400080fd2f00808f500041
:10592800080035008191800080442f00808040006d
:1059380080022000808f500002003c0010c0b3009d
:10594800010037000040eb000080fb0061006000b0
:105958004400dd00a2708000f1fe2f00810061008c
:1059680000807000a0708800f5808000e4808000ce
:10597800d3808000c2808000b1808000a080800039
:10598800851f7800841f7800831f7800821f7800a5
:10599800811f7800801f7800c0862a00801f780049
:1059a80004ec0700ee8757000080fa0000000600ac
:1059b8000000fa000080eb000080fa0000000600fa
:1059c8000200fa00004f78000080fa00000006008c
:1059d8000000fa000080eb000080fa0000000600da
:1059e8000200fa00004f78000080fa00000006006c
:1059f8000200fa000000eb00000f780020002000f1
:105a0800000f78001e007800004078000080fa003f
:105a1800000006000200fa0000000000504080006c
:105a280064006000e00f5000fcff3200b0128000fc
:105a3800004f78000a48a9001e4078000080fa004c
:105a4800000006000000fa0010022000c0128800c2
:105a58000000eb00801288005062a8000000eb00f4
:105a68009012880051e2a8005342a8000a48a900f1
:105a78000080fa00000006000000fa005040800094
:105a880064006000e00f50000200320010c0b30054
:105a9800010037000040eb000080fa00000006001b
:105aa8000400fa0010079800020037001e40780032
:105ab8000e0007001e009000104f78009e407800ee
:105ac8000180fb000000ea004f00de000040780083
:105ad8009e0090008100e80011079800e04f5000f8
:105ae800f2ff3a000080fa00000006000200fa0007
:105af800004f78009e4078000180fb00a0128800cb
:105b0800000000000000000000000000911280006a
:105b18000010200000806000e00f5000fbff320002
:105b28000080fa00000006000400fa0020479800f0
:105b38000040eb00004f78002e409000104798007e
:105b48009e40900030c6b30080cf50000b00360056
:105b58001e4090008080fb00400620000001780075
:105b6800110009008280d800004078000043b0008e
:105b7800deff070010c0b300004f78001e40900001
:105b88008080fb0040062000000178001100090019
:105b98008280d80000407800c1f92f008100b80049
:105ba800004078009e40900000c0400010479800d8
:105bb8001e409000e94f500003003e001e40780050
:105bc800e14f500009003a001e4090008080fb0021
:105bd800a000200000017800110009008280d80090
:105be800004078000043b000c0ff07001e4090004e
:105bf8008080fb00a000200000017800110009004f
:105c08008280d8000040780061ff2f008100b80032
:105c1800004078009e40900000c040001047980067
:105c28001e4090000043b000b0ff07000080fa005b
:105c3800000006000400fa00100798001e009000fb
:105c4800000f78001e0090004480de006f006000a6
