:020000040000fa
:080000000002040000000000f2
:020000040000fa
:100400008f5021000eff27000e0188000000000021
:100410000c000700208425000100200011000700c7
:10042000000020000000e000020032000000020096
:100430000000000016490200000000000040da0041
:100440000000fe004440a900603a20000000e000e7
:100450000300320000002000a00188004440a800f2
:100460000000060091018800800078000000eb0089
:1004700015003700e280400032a0b4009101ba00bc
:10048000e280400032a0b4009102ba00e280400055
:1004900032a0b4000002eb00472bde00f507b200eb
:1004a000602ce10004003a000059eb008301e900f0
:1004b000fdff3e00040037006128e100010032002a
:1004c0000082eb00040007001101ba000200e00006
:1004d000e8ff3a00000006003159ba008301e90044
:1004e0000c0032002159ba008301e90008003200f3
:1004f0000400e00003003a00e280400032a0b400b3
:10050000f5ff370011d9ba008301e900faff3a007c
:100510008100e800e180400032a0b4000000060045
:10052000d05c040000000000ec5c0400000000004f
:10053000be5c040000000000fc5c04000000000041
:10054000125d0400000000003c5d0400000000009b
:10055000765d0400000000009c5d040000000000c7
:1005600010490400000000000e47040000000000d5
:10057000d646040000000000e2460400000000002f
:1005800002470400000000002247040000000000b1
:1005900030470400000000003e4704000000000057
:1005a0004a47040000000000584704000000000013
:1005b0008647040000000000b2470400000000006d
:1005c0007a47040000000000be470400000000005d
:1005d000f0020400000000000040da000000fe000d
:1005e000889fbe000004780090049000828f540021
:1005f00001003900820478001800780009017800b1
:10060000fb040700188c44001800900009005000fb
:1006100010049800080078004f04be000000060097
:100620000400fa002fb997000100e00005003a002d
:10063000648057000080e800e0bf9f00f1bf9f008a
:1006400003003700e0bf9f000100e900f0bf9f00fa
:10065000ec815700e4805700002f200004000700c1
:10066000efb897008048eb000080fa000000060019
:100670006200fa00889fbe008a9fbe000004be0090
:10068000020578008300780060f92f000f00400019
:100690008b07070088979f0099979f000000eb0049
:1006a000a09f9f009a4578000b80fb000000ea00a5
:1006b000cf04de0050c2b30080cf550002003200ec
:1006c00009047800010037000904e9000800e0008f
:1006d0000b0034001f909700080178008a00780012
:1006e0008f9197000300010090979f000000e000a9
:1006f000930032002f98970000004400a09f9f00b5
:100700000905450050c2b30080cf550004003200f7
:100710000b04e000e3ff3a002f98970089003700b0
:100720000000eb00809f9f00f0979f00e0979f00e4
:10073000d0979f00c0979f00b0979f00c09f9f00d9
:1007400009003700404e21000080500000004000aa
:10075000814d2100e10078004f9897000100700062
:10076000c09f9f000a05e8001a4478008800fb003b
:10077000404e2100d4040700800078000000e00013
:10078000f0ff3a00a0c2b300804f54000e003a00c0
:10079000bf8897000180e900b08f9f0010007800ab
:1007a000b09f9f000000e00005003d000000ea004f
:1007b000b09f9f004f9897000020a000c09f9f000f
:1007c0000a05e80010003700b19f9f0003fd2f00cd
:1007d000f4ff2700080037003f989700840f50006f
:1007e000040032006a00b90000004100030040002c
:1007f000b09f9f000a05e8001a01fb0003004100ba
:10080000e90f5000f4ff3600e0c2b3009a4f100029
:10081000040032000080eb00909f9f008a04780063
:100820001c0037008a04e800a0c2b300994f1000f2
:1008300007003a00bf8897000180e900b08f9f0051
:1008400010007800909f9f008a84e8001100370014
:100850000000eb00909f9f0003fd2f00f4ff270096
:10086000080037001f989700840f500004003200e2
:100870006a00b9000000410003004000909f9f0003
:100880008904e8001901fb0003004100e90f500052
:10089000f4ff3600194478008800fb00a04f2100c7
:1008a000890407000000e00002003a0000447800dc
:1008b000010037008904e800a87f9f0080c6b300cc
:1008c000804f540004003a00994f14000a003a0087
:1008d0006640500006003700c0c6b300804f540089
:1008e00005003a00994f140003003a0065404000ab
:1008f000a07f9f008904e8000905e800cbfb2f00da
:100900008b8547001901fb0060f92f000f004000a4
:100910000084e8008b0178008000780008007800ef
:100920000c0007000000e00005003a008b00780092
:1009300008007800240607000000e00059ff3d0091
:100940000080eb004f05be004f04be000080fa009f
:1009500000000600889fbe008a9fbe000004780049
:100960000102780082447800030578008205fb00cc
:1009700070c6b300804f51001a003c0000c0e9006f
:10098000804f5100d6003d006d405000804f510017
:10099000800032000b003c0071405000804f51003d
:1009a00042013c0000c0e900804f5100cc003d00f6
:1009b00050c2b300804f5100390132007c404000ea
:1009c0000500370030c6b300804f51001a003200d6
:1009d0001e003c0000c0e90080cf540033013a0003
:1009e000bf003700f0c6b300804f510069003200ed
:1009f00007003c0066405000804f51001300320059
:100a000065404000804f510028013a00df00370068
:100a100050c7b300804f51005e0032006340400079
:100a2000804f51005b00320068405000804f510001
:100a30001e013a000b0137009180e900010a78009d
:100a400078009000917178001e013700a860900036
:100a5000c0c6b30080cf50000a003a00940078006e
:100a600064805000000a78001000be004f89de004c
:100a7000cf91de000002be000203780082037800fe
:100a80001300370010c7b30080cf500003003200be
:100a9000a0c6b30080cf500006003a009400780052
:100aa00068805000000a78003002be002003be00bb
:100ab000070037001480e900000a78001000780071
:100ac00000027800cfa2de000503780086037800dc
:100ad000049cbe000694be00a860900080c6b300cf
:100ae00080cf50000e00320020c6b30080cf5000ef
:100af00005003a000400fb00cf80de000101780011
:100b0000820178000a00370040c7b30080cf500050
:100b1000030032006640400080cf500006003a00db
:100b200004007800cf80de000101780082017800a7
:100b3000009cbe000294be003800be002801be002a
:100b4000e00f5000e08f5800e00f5900e08f59008f
:100b500003003d0078009000d1c2b3000a003700c6
:100b6000081090000018a3000300320078009000e5
:100b7000b1c2b300040037000008a30053003200e4
:100b80007800900001c2b300017578000000e80011
:100b90004d003700a8609000c0c6b30080cf500061
:100ba00006003a009400780064805000000a780043
:100bb0001002be006033b8001300370010c7b30046
:100bc00080cf500003003200a0c6b30080cf500099
:100bd00006003a009400780068805000000a78000f
:100be0003002be002003be00070037001480e90079
:100bf000000a78001000780000027800050020004c
:100c00000600200007002000049cbe000694be00e1
:100c1000a860900080c6b30080cf50000e00320064
:100c200020c6b30080cf500005003a000480fb00ce
:100c30000100200002002000030020000a0037000d
:100c400040c7b30080cf5000030032006640400030
:100c500080cf500006003a00040078000100200018
:100c60000200200003002000009cbe000294be0091
:100c7000081090000038a300140032003800be00b5
:100c80002801be00e00f5000e08f5800e00f59002f
:100c9000e08f59000d00320080c7b30080cf5400b0
:100ca0000300320080c5b30080cf540007003a0033
:100cb0007800900001c3b300017578008000e8005f
:100cc00009f578000080e800700498007800900032
:100cd0000000450060049800894078006d003700ee
:100ce000a8609000c0c4b30080cf500006003a0056
:100cf0009400780068805000000a78005001be001f
:100d00004000be0005003700940078006480500069
:100d1000000a78001000be0092070700009cbe0089
:100d20000294be00380090000000e00003003d0087
:100d300078009000d1c2b3000a003700081090007c
:100d40000018a3000300320078009000b1c2b30085
:100d5000040037000008a30005003200780090006e
:100d600001c2b300017578000000e800700498002b
:100d70007800900000004500600498008b00780027
:100d8000080078005500070050003700a860900068
:100d9000c0c6b30080cf5000250032000a003c00de
:100da0006440500080cf50002800320000c0e800ae
:100db00080cf5000140032006840500080cf5000b7
:100dc00022003a000a00370040c7b30080cf50002d
:100dd0001e0032006640400080cf50001b003200f1
:100de0006940500080cf500018003a0006003700dc
:100df0001480e900000a780010007800485c900038
:100e000008487800310037001480e900000a7800b3
:100e10001002780068089000cf80de0001017800a1
:100e200082017800009abe000292be0027003700bf
:100e30001480e900000a780010017800680890002a
:100e4000cf80de000089be00200037001480e9005a
:100e5000000a780010007800680c900008087800fc
:100e60001a0037001180e90080087800100078002f
:100e7000cf80de000101780082017800009cbe0076
:100e80000294be00780090000000450060049800c5
:100e900081c7b30008007800400307000b0037004b
:100ea0007800900002757800060037007800900006
:100eb000800045000904e00001003a0059c2b30077
:100ec000894878000000e800700498000000eb00fa
:100ed0004f05be004f04be0000000600cf03b00067
:100ee000889fbe008a9fbe008c9fbe008e1f780028
:100ef000e0b79f00e1ef9f003004be002005be0078
:100f0000500890000000e00003003d006000200059
:100f1000efb09700d0089800efb0970080fb2f004b
:100f20000f004000f1020700e20f50000d003a00f0
:100f3000300020006fb1970010099800b0c9b300cd
:100f4000efe9970000c04100a14e2100e14f5000a1
:100f500001003600e14e21006fb29700640090005e
:100f60000e0037000000e0001000340030002000c8
:100f7000efb29700900a9800b0c9b300efe897006d
:100f800000c04000214f2100e14f50000100360019
:100f9000614f21006fb197006200900031587800d6
:100fa0003158780011487800e90037000000e0006f
:100fb00005003a0082fb2f000f0141000019780064
:100fc00080027800dc0037006022b8006033b8008f
:100fd0000800be000a01be00e80507000000e000ae
:100fe00001003d000bf0a2004f98970072592700b6
:100ff0000280b900026a280013002000850607005d
:10100000e4005000c19f9f0015003b00e3801000ea
:10101000c0ff2f00008660008c01ea00c39f9f0084
:10102000ed4621000b0037000c08a300070032003a
:101030003d02be002d03be000800be000a01be0036
:10104000960707000004be000205be000c86d10012
:10105000e88646000c00e000f3ff3c001b00370070
:101060000100e00019003400c0ff2f000080600084
:10107000c09f9f00000678006000b80002002000ba
:1010800003ff2300ed462100070037000c08a300f2
:10109000030032003d02be002d03be007f070700a3
:1010a0000c86d100e88646000c00e000f7ff3c000b
:1010b0000002be000203be000800be000a01be001e
:1010c000b80507000004be000205be006fb297001d
:1010d0005409900060c6b300efea970080cf520039
:1010e000040032006100200060c4b30080cf5200d1
:1010f00002003a004f989700ea00400001014100c9
:10110000d2b79f00f30f51000200340031012000dc
:10111000d1b79f0000c3b300a07f9f00b2fb2f0098
:1011200002874700320037000800be000a01be00f7
:10113000ad0607000006be00dfb19700e881510050
:10114000d3b79f004240a9000c003400d20607002c
:101150000002be000203be000800be000a01be007d
:10116000c30707006022b80046782d0077192400d5
:101170004a0707000004be000205be0068074700da
:10118000860020000e003700a4002000050020008b
:101190000c01be007e80570086bf9f002d02070015
:1011a0001fb09700afb097003fb19700cfb1970045
:1011b00004c3b300046741000006be000fbb9700e4
:1011c000e00f5600e08f5e00060034000603e900e1
:1011d000e10f4300ecff3a000200370000c3b30008
:1011e000006778000603e900fcff3b006807470042
:1011f000dfb297000500e000070034006022b8006d
:101200006033b8000800be000a01be006005070098
:101210000000e000c4ff3c00a1fb2f00018047005c
:10122000000057000002e9004f999700e7004100d5
:10123000b3fb2f000381470000c3b3000300370056
:101240000402e9008100e9000201e800924f100069
:10125000fbff3200c19f9f00efb29700d5099000bd
:1012600060c6b300efea970080cf5200030032005f
:1012700060c4b30080cf520002003a008100e80051
:101280000a00370050c6b300efe8970080cf500047
:10129000050032008000eb0050c4b300efea970075
:1012a00080cf520001003a001100200081824100ed
:1012b000850f520001003d00840278000500e00027
:1012c0001d003500848f520005003d00e2c07a0009
:1012d00096c3b30040c3b30080cf500001003c0070
:1012e00006c3b300050041008000e90085017800d5
:1012f000010037008100e9008301e9001142780014
:10130000864f5200fbff32008302e80090c3b30017
:10131000804f530001003a008448e8000300e000d9
:1013200005003d000201e9008502e8004f989700a2
:101330000000e800c09f9f00efe997008300fb00da
:101340004f9a9700850178006fb09700060007005c
:101350004f0778004f06be004f05be004f04be0089
:10136000cf03b100000006000e00fa00889fbe0007
:101370008a9fbe008c9fbe000004780081457800e3
:101380008206780083047800040678000300e000f9
:1013900002003c00190020002d50210060c6b3005f
:1013a00080cf55000e00320060c4b30080cf5500de
:1013b0000b00320070c6b30080cf5500030032002e
:1013c00070c4b30080cf550082003a00e40f46009d
:1013d0008000350058089000800f56007d003d00c9
:1013e0000c05e80060c6b30080cf55001000320045
:1013f00060c4b30080cf55000d003200081090008b
:101400000038a30004003a0058089000808f540070
:1014100001003d00590c9800580890000a00500047
:10142000500c980002003b000000eb00500c9800ac
:101430000a00e00027003c001809900068009000b6
:1014400001c3b300017079008201e800130c980019
:10145000580890000000e00003003c0008109000d5
:101460000038a3000500320068009000e1c2b3001c
:1014700001f079000280e800100c9800d808900074
:101480000a00ea00808f500001003d000105ea00db
:101490000a00ea00200c980001004500500c98005a
:1014a000890f500001003d0080047800390c98003d
:1014b0006800900098089000010040000901780041
:1014c0008d0078004a01070058089000090050007c
:1014d0001a00370098089000680090008a8f540026
:1014e00018003d0001004000090178008d007800df
:1014f0003f0107001808900000814400120c98007a
:1015000009005500200c9800580890000000e000e9
:1015100003003c00081090000038a30006003200d1
:10152000e8009000e0c2b3008070790038089000b5
:101530000000e800300c980058089000400c98001b
:1015400079003700010040000a0178008d00780022
:10155000270107001808900000014500120c9800b0
:101560008a845400580890000000e00003003c000a
:10157000081090000038a3000500320068009000b9
:10158000e1c2b300017079000200e800100c98007d
:1015900058089000890f500001003d008004780039
:1015a0006800900098089000010040008a80460082
:1015b000090178000e01070018089000008044001f
:1015c000100c98005808900009005000200c98005a
:1015d0005500370018099000680090003d707900b0
:1015e0008201e800130c98000d0278005808900062
:1015f0000000e00003003c00081090000038a30049
:1016000017003200e8009000e0c2b30080f07900db
:101610008280e800110c9800580890000000e0005b
:101620000f0034008904e900890f500001003d00db
:101630008004780068009000008040000901780074
:1016400084007800ea000700180890000080440039
:10165000100c98005808900009005000200c9800c9
:101660006800900098089000010040000085e800a4
:101670000b587800800078000c00e0000400350072
:10168000b0c2b300804878008a05780004003700b3
:10169000d0c2b300804878008a0578000c06ea00c2
:1016a0008004eb000a003700a20020008c007800c4
:1016b00070805700dc0007000fb897009fb89700b4
:1016c0007a81540001f17f008904e8000006780067
:1016d0000c00e000f4ff3c000900e00004003200d0
:1016e0000900e900fa805700008040000700370039
:1016f00000c3b300005d78008a057800050037005c
:101700008904e90002c3b300a05d41000900e000c4
:10171000fbff3c006800900098089000010040002a
:1017200000805500300c9800081090007400600094
:10173000f00f50000e003a007800900098089000da
:1017400001004000a808900001004000b808900087
:1017500001004000c8089000810040007808900017
:10176000808f500002003d0001005000000c9800e6
:101770004f06be004f05be004f04be000080fa00b9
:1017800000000600810178000000e90000800900e7
:10179000b218780003007800000006004400f8004a
:1017a000040f200024028800811f78000000e90057
:1017b000030278000080080002000000b2027800f6
:1017c0001301c0003100cd004f0078004400f90043
:1017d000000006004400f800040f200024028800e6
:1017e000010278000000e900008008000400000009
:1017f000b20278000500ca00b30278000500c900f3
:101800003100cc00040078004400f900000006001c
:101810004400f800040f2000240288000102780030
:101820000000e9000080080005000000b202780016
:101830000500ca00b30278000580ca000030cb0062
:101840003100cc00040078004400f90000000600dc
:101850004400f800040f200024028800811f780053
:101860000000e90000800800030000003202780058
:10187000b30278001301c0003100cd004f007800a2
:101880004400f900000006004400f800040f2000a6
:10189000240288000000e9001201c3000080080053
:1018a0000200000031027800b20278001201c0008c
:1018b0000000cd004400f900000006004400f800dc
:1018c000020f2000220288000000e9001201c3007c
:1018d0000080080001000000310278001001f000d3
:1018e0000000cd004400f9000000060082027800ec
:1018f0000000e9000102e900818040000480080046
:1019000005000000030278000080080001000000cc
:1019100014197800010242008381e8000500780074
:10192000000006000100b8000000e9004400f800d3
:10193000010f20002102880082007800008008004a
:1019400004000000b30278000500ca00b402780069
:101950000500c9003200cc00010078004400f90005
:1019600000000600889fbe008a9fbe008c9fbe00bc
:101970004400f8000d0f20002d0288008306780037
:101980000106e9008205e900818040000201410072
:101990000000e90010003500050578000b80080004
:1019a0000a000000040478008a0478001201c300d1
:1019b0000c800800030000003803780099037800c9
:1019c0001201c600828444003300cd000a85e8007d
:1019d00001024200eeff37000d0078004400f900dc
:1019e0004f06be004f05be004f04be0000000600bb
:1019f0008001eb000200370061f079008301e8000c
:101a0000828f5100fcff3a00000006008000780041
:101a1000010037000000e8001004e000fdff3a007c
:101a2000010050000000060002027800809fbe0006
:101a3000110009008200d800000178004f00be00ac
:101a400002a2b900848050001100980002087800ba
:101a5000000006000400fa00889fbe008a9fbe00b6
:101a60008c1f78000006780092bf9f00a3bf9f00e4
:101a70000404be000401be001fb89700afb8970071
:101a8000e40307000005be000001be000800be0020
:101a90008c0507001fb99700afb9970000005100ef
:101aa0008180590020069800310698000a8ebe00f9
:101ab0000c0078004f0678004f05be004f04be00b2
:101ac0000080fa0000000600040037000204e00075
:101ad00001003a00000005000000e8001041780015
:101ae000814f5100f9ff3a0000000600889fbe00b8
:101af000800478006684400000ff27001800600022
:101b00004401de00f07f2000800f51000e003a00fb
:101b1000800ceb00180478006f0064001c003a0091
:101b2000210090000000e00019003a001100900030
:101b30000000e00016003a00100020001100e00054
:101b400014003200120037000200e00005003c00e3
:101b5000010078005f020700000178000000e0004b
:101b600008003c00f00028001800600001fe23007f
:101b7000010c700020c02f00800c41000080eb00a1
:101b800004003700800ceb000000eb000100370080
:101b9000200020004f04be00000006002f03b0000c
:101ba000889fbe008a9fbe008c9fbe008e1f78005b
:101bb00000077800704c2100c0b79f0080c5b300bb
:101bc00080cf500008003200624b2100c2b79f0056
:101bd0007740400080cf500003003a00830020008f
:101be000b3b79f000a00370080c7b30080cf500012
:101bf00005003200a4002000b4b79f0080c5b300e8
:101c000080cf500002003a0005012000b5b79f00c8
:101c10003e04be002e05be0040c6b30080cf50007b
:101c2000030032006540400080cf50000b003a00b6
:101c3000e00f5400e08f5c00e00f5d00e08f5d007e
:101c400006003d006000b8006011b80008045000b4
:101c5000898458000a0559008b855900bfb3970045
:101c6000e88f530003003200f08f530045003a0024
:101c70000200370036002000010037004600200037
:101c8000e00f5400e08f5c00e00f5d00e08f5d002e
:101c900005003a005e08900081012000a1b79f0076
:101ca0000000e000080032003fb197000200e900a8
:101cb00008006000cfb197006340780090df9f007c
:101cc00074012000a4b79f00860278008502e90015
:101cd000050033008b05d1000a85d3008984d30029
:101ce0000884d300f9ff3700089fbe000a97be00a2
:101cf000afb397000700e90021fc2f008f80400060
:101d0000008240003fb197008202e90012003700d4
:101d1000afb397008703e900a7b79f000080620078
:101d2000cfb09700615278003e00be002e01be0089
:101d3000860378008703e900050033008381d10022
:101d40000281d3008180d3000080d300f9ff3700e7
:101d5000009fbe000297be003e00be002e01be00e6
:101d6000e00f5000e08f5800e00f5900e08f59005d
:101d7000d6003400afb397000700e000e4ff3c005a
:101d8000d2003700ae60900080c6b30080cf500014
:101d90000b00320006003c000104e00008003200a5
:101da0006640500080cf500073003a0004003700b6
:101db000c0c6b30080cf50006f003a00310037003a
:101dc000080178000800e00005003a005e08900075
:101dd00081012000a1b79f000000e000090032004f
:101de000bfb19700110009000381d8008000fd00f9
:101df0004fb297006440780090df9f00750120008b
:101e0000a5b79f00bfb39700110009000781d80054
:101e100080017800afb097000100e90022fc2f009c
:101e20000f014100000241000c003700bfb29700d3
:101e3000110009008501d80000017800afb39700b8
:101e40008703e900a7b79f000590b9000080510003
:101e5000cfb0970061527800820178000300e00063
:101e6000030034002fb197000200e000efff3c00b8
:101e700003007800cf80de00010178008201780045
:101e80003a0037000806be00e00f5400e08f5c0007
:101e900005003a005e08900083012000a3b79f0070
:101ea0000000e000090032003fb297006121b90054
:101eb0000c00be0080040700cfb297006540780098
:101ec00090df9f0077012000a7b79f003fb29700e7
:101ed0006121b9000c00be00670407000006be00c7
:101ee000afb297000500e90027fc2f008f83430065
:101ef0008083430097b79f00110037003fb19700e0
:101f00006114b9000801be000c00be00c102070048
:101f10000005be00afb197008301e900a3b79f00a1
:101f20000801be0067040700000056001fb29700ba
:101f3000cfb297006552780094b79f000a06be00a2
:101f4000e00f5600e08f5e0003003400afb397004f
:101f50000700e000e9ff3c004feade00cfa2de0010
:101f60000c00be000401780084017800009fbe00d0
:101f70000297be0055003700e00f5400e08f5c0070
:101f8000e00f5d00e08f5d0005003a005e08900004
:101f900081012000a1b79f000000e0000d00320089
:101fa0003fb1970002027800cfa2de00050378005f
:101fb000860378000800be000a01be00f504070091
:101fc0004fb297006440780090df9f0075012000b9
:101fd000a5b79f003fb1970002027800cfa2de00b4
:101fe00005037800860378000800be000a01be00e1
:101ff000e1040700009fbe000297be00afb197004a
:102000000300e90024fc2f000f02420000064200fa
:1020100020003700bfb2970005047800cfc4de006f
:10202000090578008a0578000802be000a03be0090
:102030005fa89700efa897007fa997008fb197003e
:10204000d8040700d0b79f00e1b79f00f2b79f0008
:1020500083bf9f00afb397008703e900a7b79f0036
:102060000802be000a03be00380507005faa9700f9
:1020700000005200cfb29700655678005fb097001d
:10208000efb097007fb197008fb99700009fbe0017
:102090000297be003e00be002e01be00d0af9f00e2
:1020a000e1af9f00f2af9f0083b79f00e00f5000a9
:1020b000e08f5800e00f5900e08f59000300340012
:1020c000afb097000100e000d2ff3c003fb19700a5
:1020d000e80f510013003a000e1090000038a300e2
:1020e00010003200afb19700f78f510006003e009c
:1020f00024fc2f000f0242008300420000c3b30003
:10210000914f100007003200afb297008502e9003e
:10211000a5b79f0000c3b30027fc2f008f834300a7
:1021200080f37a00afb1970078811100120f980008
:102130006e009000cf91de0024fc2f000f024200c1
:10214000afb297008500420029fe07001e099000eb
:102150005e089000800f510006003d000200500014
:10216000000f98000e1090000040a100001798008a
:102170000f0037000000e0000d003d000e10900041
:1021800074006000f00f500009003a007e089000d3
:10219000fe009000010050008e08900001005000e9
:1021a000020050004240a90001003400000f9800d6
:1021b0004f0778004f06be004f05be004f04be001b
:1021c0002f03b100000006000400fa00889fbe0043
:1021d0008a9fbe008c1f78000004780001067800fa
:1021e00070089000f80090000100500088089000ee
:1021f000010050009808900001005000a8089000cd
:1022000001005000b808900001005000c80890007c
:10221000810550000002220090bf9f0000032300b0
:10222000a0bf9f00081090000028a30015003a00ee
:102230000b00e000130034008b0478002a0020001b
:102240008a8f540001003e00090578006151b900f1
:102250005800900048029000ee80570004000100f2
:10226000500498000000e0008d00320068089000e3
:1022700000004500600c98008a8454004240a90088
:10228000eeff3c00780090000000e0000c003400fd
:102290006101b90058009000480290008c0078005d
:1022a00004000100500498000000e0007c003200af
:1022b00068089000f800900001004000600c980051
:1022c000880c90000900e000120034002a00200071
:1022d0008a8f540001003e00090578006151b90061
:1022e0005800900048029000ec8057000400010064
:1022f000500498000000e000690032006808900077
:1023000000004500600c98008a8454004240a900f7
:10231000eeff3c00180890000000e0000c003400c4
:102320006101b900e8009000580090004802900058
:1023300004000100500498000000e0005800320042
:10234000680890009808900001004000600c980018
:10235000a80c90000900e000120034002a002000c0
:102360008a8f540001003e00090578006151b900d0
:102370005800900048029000ec80570004000100d3
:10238000500498000000e00045003200680890000a
:1023900000004500600c98008a8454004240a90067
:1023a000eeff3c00380890000000e0000e00340012
:1023b0006101b900e800900018089000808040009a
:1023c000580090004802900004000100500498005a
:1023d0000000e0003200320068089000b808900069
:1023e00001004000600c9800c80c90000900e0005b
:1023f000120034002a0020008a8f540001003e00a1
:10240000090578006151b900580090004802900019
:10241000ec80570004000100500498000000e00028
:102420001f0032006808900000004500600c980012
:102430008a8454004240a900eeff3c00081090003e
:102440000028a300180032000b00e0001600340042
:102450008b0478002a0020008a8f540001003e007f
:10246000090578006151b9005800900048029000b9
:10247000ee80570004000100500498000000e000c6
:10248000070032006808900000004500600c9800ca
:102490008a8454004240a90003003400edff370055
:1024a0000080eb00010037000000eb004f067800d1
:1024b0004f05be004f04be000080fa000000060079
:1024c0000200fa00f1bf9f00010878000080fa00c6
:1024d0000000060000017800e601400013007800cb
:1024e00001002800810360006f006000800978000f
:1024f00012003a00220090000000e0000f003a00b5
:10250000120090000000e0000c003a0016002000cd
:102510001200e0003800320008003700e4004100fb
:10252000910978000280e80090087800120878008d
:102530000009eb0070035300010037001600200073
:102540001300e000f5ff3200e40241000282e800df
:102550001100370080004000150078004f00de00b9
:102560008089700095007800818040001400780018
:102570004f00de00808a7000940078008180400067
:10258000120078004f00de00008a70001200780010
:10259000000940000603e90013007800ef0f500027
:1025a000ecff36008282e800640241000e00370032
:1025b0009200d100150078004f00dd000089700006
:1025c0009500d100140078004f00dd00808a700073
:1025d0009400d100130078004f00dd00008a7000e5
:1025e0009309d1000603e80013007800ff0f5000a4
:1025f000efff3e00ef09600093897300060078004a
:102600000000060003f0a200889fbe008a9fbe0063
:102610008c1f780009020700100233006450e100ab
:102620004f0032006420e1005200320003826c004f
:1026300007003b000905d0000306d000820f5400bc
:102640000c065d00020039000200320089017800aa
:10265000030678008582550004003d000003fd005c
:102660008103fd008502ea008b854200840f720021
:1026700002003b0060001000e08018006011b8000c
:102680000005eb007a28e1000a0039000600780016
:10269000c75ddd00f707b200878075002d003700a9
:1026a000828171000a017800610560008180d1009b
:1026b0000080d3008502e900f9ff3b0006044000da
:1026c0008784480002003b0060041400e0841c0082
:1026d0000988a300070032008a817100828171009d
:1026e000610164008904d1000884d3008b05e800ef
:1026f000170037000978a30013003a000b00e00030
:10270000130034008b05e9000804440089844c0060
:102710000a4474000978a3000d003a000b00e000a1
:10272000070034008b05e9000804440089844c004c
:1027300001003a000b0020000978a300f7ff3200e7
:102740000001eb0002003700828171000a0178006d
:102750007f0107000cf0a70001f0a000c8013700be
:102760006420e10002003a00838f6c00c80133004e
:102770000801be000200be00c10137008f1fd1005a
:102780001d0407008f87e9000000e000000006003c
:10279000809feb00180407008f87e9000000e0002d
:1027a000000006002800fa00889fbe008a9fbe0035
:1027b0008c9fbe0003866b00d10007006400e1001f
:1027c000440032006408e1004a0032006100e10088
:1027d000460032006108e10049003200ec06470083
:1027e0006000b8003d02be003d03be00f486570005
:1027f0006011b8003d04be003d05be007d03200011
:102800000b0037000000a0008d06e9001300320025
:102810000402420085824a0006034b0087834b0076
:102820000000400081804800020149008381490086
:102830000802520089825a000a035b008b835b0006
:10284000f0ff3b000802420089824a000a034b0065
:102850008b834b008d06e900edff3a008482720005
:1028600086827200f707b200878272000100320090
:10287000150020001e0490003e0b9000060354003b
:10288000e63fb0000368a300070032000000a70085
:102890000500a0008301d1000281d3008180d30014
:1028a0000080d3000603e8008301d1000281d30039
:1028b0008180d3000080d3000002eb000482d200ac
:1028c0006300070003f0a1000cf0a70003f0a000d4
:1028d0009f003700640247006408e100990032005d
:1028e0003400be003401be00f6ff37006108e1008d
:1028f000940032006011b8006000b800f1ff3700aa
:1029000003ff270002002000fbff3700889fbe0066
:102910008a9fbe008c1f7800480107004f013300da
:1029200003866c006450e1002e0032006420e10058
:10293000330032006150e1002f0032006120e100dd
:102940003100320085855500eb07b00009002000fa
:1029500008042000050037000804440089844c0066
:102960000a0031000603430087834b000001530037
:1029700081815b00f8ff33000203be000800a00065
:102980000804440089844c00f6ff3900c639dd0094
:102990008301730001003200130020008904d1007c
:1029a0000884d3000998a300050032000800a7009e
:1029b0000300a0008904d1000884d3008b05e8003f
:1029c0008904d1000884d3000001eb000281d20009
:1029d000df00070001f0a1000cf0a70001f0a0004b
:1029e000270137006420e100290132000801be0000
:1029f0000200be00f7ff37006120e1002401320031
:102a00006000b800f3ff37000000200001f8270045
:102a1000f0ff3700839f68000100e00002003d00e6
:102a200060001000e08018000300e00002003d009c
:102a300060011100e08119008f0107004f00e000e4
:102a400002003b0060001000e0801800000006005b
:102a50001800200057002000080453000d003d001e
:102a60000600200097fc2f000740e1001e00340004
:102a700084827200610260008301d1000281d30070
:102a80008180d3000080d3000804e800f8ff3a00fa
:102a90004700200061046000050474000404640021
:102aa0000d00320061004000e080480060014900f4
:102ab000e081490003b8a500070032000603e800e2
:102ac0006538e10004003a008301d1000281d3009f
:102ad0008180d3000080d300f87f20000830e1001f
:102ae00003003500080378006000b8006011b800ea
:102af0004433dd00f300b2008301730000000600e0
:102b0000680447000294be000094be00fc04470025
:102b10008694be008494be00090078007f030700fd
:102b2000080078007d03070099007800814f70004d
:102b30000b003b000800be00580307004f00b10027
:102b400003003700f3ff2700f2ff2f006110b900e8
:102b50004f06be004f05be004f04be000080fa00c5
:102b600000000600810378009f0007000001be00fe
:102b70006000b8000478a30013003a006220e1006e
:102b800015003e000d0039008301d1000281d30001
:102b90008180d3008301d1000281d3008180d300e2
:102ba0008301d1000281d3008180d3000538b000b9
:102bb000c42add00f300b2008381720007f0a70091
:102bc00003f0a00000000600f3ff2700f2ff2f0033
:102bd0006110b900fbff370003ff2700f7ff370044
:102be000f4ff2f00740337001400fa00889fbe0022
:102bf0008a9fbe008c9fbe000004be000205be007e
:102c0000680047000a90be000890be00430307001a
:102c10000070a7000bf0a100304320009e0290003e
:102c200080825200b0fe2f000028e10011003d001c
:102c3000b0fc2f000028e100150034001e099000b0
:102c40008e0890007e0090000501b0000201d100c6
:102c50008180d3000080d3008502e800fbff3a00aa
:102c60000b00e000baff3b0060001000e08018009d
:102c7000b7ff3700f0ff2f00f1ff27000b00e00047
:102c8000b3ff3b000100280000002000b0ff370028
:102c90006000b800aeff37004f89de008201780087
:102ca00060033700889fbe008a9fbe000105780040
:102cb0000100e0000400350008003c000000e000d6
:102cc000200032000500370060001000e08018008e
:102cd00002003b0001f02c001a0037000004be0087
:102ce0006011b8006b0920000982cf000200390092
:102cf0000882cf000441b000694252000e00320049
:102d000008003b0082817100610164008904d100e8
:102d10000884d3008b05e8000442e800f9ff3a007c
:102d2000050037000804440089844c008b05e90045
:102d30000442e900fbff3a00050007000af0a70083
:102d400001f0a0004f05be004f04be0000000600c9
:102d500081002000618055000b003d000b00200029
:102d600061fe2f000100e1001d003400828171002e
:102d7000610164008904d1000884d3000000e800e8
:102d8000faff3a0071002000610064000300700047
:102d9000020060000900320061044400e0844c003d
:102da0000988a500050032008b05e8006808e100ed
:102db00002003a008904d1000884d300f20f2000f9
:102dc0000258e10005003d00c75ddd00f907b200d3
:102dd0008980750008007800000006000bf82700c5
:102de0008b00780000000500c70ade00f107b20082
:102df000f50fb20008003200e1cf420002003200bd
:102e00000170a00024000500810f70000100320055
:102e10000408050044000500810f700002003a001c
:102e2000140005008502e9000000400081c0480050
:102e3000fcff3b000170a000240005000004be0060
:102e4000e9ff07000003be000405be000200be004b
:102e5000e5ff0700844f7500000006000200be0079
:102e60006450e100050036006420e10002003600f5
:102e70000968a30001003a000800be000160a0003c
:102e80004f0678004f05be004f04be00000006004c
:102e9000f0ff2f00f1ff2700f9ff37002800fa00ac
:102ea000889fbe008a9fbe008c9fbe0003866b0079
:102eb00013ff07000028a30064003a000128a300c4
:102ec00067003a000008a30062003a000108a3006e
:102ed00065003a001e009000be0890008106400088
:102ee000ed3fb100f4805700ee019000111ab800d8
:102ef0008e099000311bb8009e099000311cb8006b
:102f0000511db800f485570046000700fe019000ef
:102f10003a0007008b85e8003e0007008e0990000c
:102f200040000700ee019000340007008b85e800a8
:102f3000380007008e099000400007009e099000ad
:102f40001b18b800890440000a854800fe01900063
:102f5000340007008b85e80038000700ee01900080
:102f6000300007008e0990001b18b800890440004b
:102f70000a8548000a98a30008003a0004024200ab
:102f800085824a0006034b0087834b0008044c00ef
:102f900089844c000a054d008d06e9008482720088
:102fa000850273004c3add00850272000100320098
:102fb00015002000443ade001400b2004538de005f
:102fc000cb45dd000b007000c540de00cb4ddd00c1
:102fd0008b8070004549de00cb55dd000b01710090
:102fe000c551de000d03780099fe070003f0a10033
:102ff0000cf0a70003f0a000d5fe37001b18b800a6
:103000008502400006834800e0834b0060044c00ca
:10301000070037001b18b8000603400087834800ec
:10302000faff37001b18b8008703400008844800e7
:10303000e0844c0060054d00000006001b18b8003d
:103040000804400089844800faff37000108a30003
:10305000bcfe3a005800be005801be00e3ff370036
:103060000008a300b7fe3a0009047800f9ff370012
:1030700007f0a200630137006022b80006022000ba
:103080000000d0008180d2000482d2008582d2006c
:103090000000a0000202520083825a0003003100a7
:1030a0000202420083824a000000a1000603e900f8
:1030b000f3ff3a0000000600efff07000400be0027
:1030c00000000600020ab900001bb9000200b800a7
:1030d000810042008100430000000600881f780044
:1030e000000478005001be004000be000400400013
:1030f000858048000601490087814900009cbe0088
:103100000294be000400e1000588e1000690e100a1
:103110000798e10002003100680044001008e80050
:103120004f04780000000600f4874700889fbe0027
:103130008a9fbe008c9fbe008e1f78000205be00d5
:103140000004be00d4b79f00e5b79f00f6b79f000c
:1031500087bf9f000000eb00c0b79f00b0b79f0083
:10316000a0b79f0090b79f0080b79f000d0420007c
:10317000bfb097004fb09700000140000000e00092
:103180000f003d004f08de0000007100c0b79f0037
:103190004d00070001003d00120020005000070014
:1031a00001003d00120020005500070061000700eb
:1031b000660007000f004000c8ff0700220037002c
:1031c0004f08de0000067100ccb79f003e000700ec
:1031d00001003d00120020004100070001003d00f9
:1031e0001200200046000700520007000fb29700af
:1031f0009fb297002fb39700bfb397005900070005
:103200000000520081805a0002015b0083815b0054
:1032100080b79f0091b79f00a2b79f00b3b79f00f0
:103220000007eb004f0007000020e10001a8e100cb
:1032300002b0e10003b8e100010031001e002000ef
:103240000e005600c0b79f004fb297000400e00088
:103250000700350010002000010020006011b800b8
:1032600008047000898470000a0571008b85710064
:103270008d06e900beff3a000400e00003003d00b7
:10328000320007000f00400094ff07004fa897008e
:103290000000e00004003a000fb497009fb49700cc
:1032a0002fb59700bfb597000800be000a01be0009
:1032b0004f0778004f06be004f05be004f04be000a
:1032c0004f01b100000006000180400090b79f0050
:1032d0000001eb008fb097000100e0000000060045
:1032e0000200700090b79f000180400080b79f00ef
:1032f0000001eb00ffa897000100e00000000600bd
:103300000200700080b79f00018040006faa970004
:10331000cf20de0001007000f0af9f0004024200e9
:103320000800be000a01be004f18de000002720055
:1033300000000600e4af9f000804440089844c00ac
:103340000a054d008b854d00000006003fb2970036
:10335000cfb297005fb39700efb3970000fe2f0046
:10336000000006003fb09700cfb097005fb1970014
:10337000efb1970000000600881f780018002000b9
:10338000881f780068ff07008f87e9004f047800e6
:1033900000000600801feb0063ff07008f87e90035
:1033a00000000600889fbe008a9fbe008c1f780028
:1033b0000205be000004be00e00f5000e08f580080
:1033c000e00f5900e08f59000c003d006000b8008c
:1033d0006011b80008045000898458000a0559009b
:1033e0008b8559001c0020001f00070008003d00cd
:1033f000180007000006eb00050037000006eb0090
:103400001900070002003d000f0007001c0020000b
:103410000800be000a01be00d7ff07000203be007d
:103420000002be000c00e0000100320006000700b0
:103430000400be000601be004f0678004f05be0026
:103440004f04be00000006006000b8006011b80024
:10345000000037000402500085825800060359001e
:103460008783590000000600e00f5200e08f5a00e9
:10347000e00f5b00e08f5b0000000600889fbe004d
:103480008a9fbe008c1f78000205be000004be00ab
:10349000e00f5000e08f5800e00f5900e08f590016
:1034a0000a003d006000b8006011b8000804500038
:1034b000898458000a0559008b8559001c0020009a
:1034c0001800070007003d00050037000006eb006c
:1034d0001400070003003d006000b8006011b80050
:1034e000150007000800be000a01be00a9ff070082
:1034f0000203be000002be000c00e0000300320028
:103500006000b8006011b8000b0007000400be00a6
:103510000601be004f0678004f05be004f04be00f6
:1035200000000600e00f5200e08f5a00e00f5b0041
:10353000e08f5b0000000600040250008582580006
:10354000060359008783590000000600889fbe00cb
:103550008a9fbe008c1f78000205be000004be00da
:103560000006eb00e00f5000e08f5800e00f59001c
:10357000e08f590007003d006000b8006011b800fe
:1035800008045000898458000a0559008b855900a9
:103590001c002000e00f5200e08f5a00e00f5b009b
:1035a000e08f5b0002003d000f0007000c00a2004e
:1035b0000800be000a01be00510107000203be0060
:1035c0000002be000c00e00001003200060007000f
:1035d0000400be000601be004f0678004f05be0085
:1035e0004f04be00000006006000b8006011b80083
:1035f0000402500085825800060359008783590051
:10360000000006002800fa00889fbe008a9fbe00c6
:103610008c9fbe0007067800878669000c003b007f
:10362000030478008704780008f0a10009f0a100e5
:10363000840f5000858f5800860f5900890f5c0059
:10364000030033000cf0a20001003a000cf0a100ce
:103650002bfd07006400e1005f00320078014700a5
:103660006408e100610032006c0147007485570076
:103670003200be001201be003a04be001a05be00b0
:103680001e039000be0a90008503530006003d0013
:103690000004fd008104fd000205fd008305fd001e
:1036a0008703ea00050378000df8a3000400320048
:1036b00060041400e0841c0060051d00e0851d000e
:1036c0006022b8007d0320000d38e1008006eb0089
:1036d0000b0039004433dd00f300b20083017300b6
:1036e00039003700848272000d027800e106640020
:1036f0008b85d1000a85d3008984d3000884d30048
:103700008703e900f7ff3b0008004000898048007c
:103710000a0149008b81490004003b006000100051
:10372000e080180060011900e08119000358a3002f
:10373000090032008d827200848272006102600092
:103740008301d1000281d3008180d3000080d300a7
:103750000603e8001b0037000348a30017003a00e7
:103760000600e000170034000603e9000d00a30086
:10377000000048008180480002014900838149001f
:103780000348a3000f003a000600e00009003400df
:103790000603e90000004000818048000201490062
:1037a0008381490001003a000003eb000348a300b5
:1037b000f5ff32006022b8000200370084827200f8
:1037c00061826600a2fc070003f0a1000cf0a700d4
:1037d00003f0a000defc3700640147006408e1004c
:1037e00002003a000df8a300d6fc3a003200be00f9
:1037f0001201be00d6fc3700889fbe008a9fbe0023
:103800008c9fbe000404be000605be00809fbe0063
:10381000829fbe002f000700040678000800be004b
:103820000a01be002b000700840678004f03be008b
:103830004f02be008d4f76007fb09700130033001b
:10384000f0ff2f008b8f6b0006003b000d0666001b
:103850000c00a7000a00370007f0a60010002000a7
:103860000a003700880f5200898f5a008a0f5b00c8
:103870008b8f5b00030039001000200001003e0028
:103880000000200007f0a7000000ea004f06be007d
:103890004f05be004f04be0000000600e482400059
:1038a0001078a30007003200640240001178a300e2
:1038b0003400be001401be00040032000330a70033
:1038c000000006003500be001501be000330a00058
:1038d0000000060005ff2700058261000700320096
:1038e0000428e10001003200240005000600070062
:1038f00001003a004400050004080500020007002a
:10390000f9ff3a00140005006f8261008102700027
:1039100085027100850272000000060080007800b8
:103920005002be005003be004439de00f700b20072
:10393000f37f200003016100090032000218e1005a
:1039400016003a00850172008301730083817300c1
:103950000008200015003a00400020001300370046
:1039600085017200830173008381730005003a00b2
:1039700004a8be0006a8be00100020000b003700ff
:103980000201e9000402420085824a0006034b005e
:1039900087834b000748a300f9ff32000740a000cf
:1039a00004a8be0006a8be002000200080009800e9
:1039b0009200980000000600889fbe008a9fbe000b
:1039c000841f78001dfd07004f00780011003300b0
:1039d000f0ff2f00838f6c0006003b00040565009c
:1039e0000a00a7000800370009f0a6001000200018
:1039f00008003700820f5400838f5c0003003900f9
:103a00001000200001003e000000200009f0a70087
:103a10000000ea004f05be004f04be000000e000b9
:103a200000000600889fbe00830478000300e000c9
:103a30002c00350003003c0000827000040271007d
:103a40002600320036432000c50020008383cf00cb
:103a50000a0039000541b1008283cf000700390018
:103a60000541b1008183cf00040039000541b10058
:103a70008083cf00010039000541b10085c35300a8
:103a80006022b800120032000a003b0084827200fb
:103a9000610260008301d1000281d3008180d300e4
:103aa0000080d3000603e8008743e800f7ff3a00f0
:103ab00007003700000040008180480002014900f3
:103ac000838149000603e9008743e900f9ff3a00d2
:103ad000dffb070009f0a70003f0a0004f04be00c1
:103ae0000000060060001000e0801800600119006e
:103af000e0811900d3ff3b00033e2c00f7ff3700a5
:103b0000889fbe008a9fbe008c9fbe000404b80040
:103b10000506b8008904460060854e000606b80018
:103b20000a054600e0854e000706b8008b054600f2
:103b3000040eb800890446000a854e00e0854d0059
:103b4000050eb8000a0546008b854e00060eb8002b
:103b50008b0546000416b8000a0546008b854e000a
:103b60000516b8008b054600041eb8008b054600fc
:103b70000800be000a01be004f06be004f05be0091
:083b80004f04be000000060026
:020000040000fa
:0200000401f009
:04000800ffff0000f6
:020000040000fa
:0200000401f009
:04000c00fbff0000f6
:020000040000fa
:0200000401f009
:04001000bdff000030
:020000040000fa
:0200000401f009
:040014007fff00006a
:020000040000fa
:0200000401f009
:04001800f8ff0000ed
:020000040000fa
:0200000401f009
:04001c00deff000003
:020000040000fa
:10000800ec020000ec020000ec020000ec02000030
:10001800ec020000ec020000ec020000ec02000020
:10002800ec0200008e3e0000ec0200005e5600006c
:10003800ec020000003f0000ec020000ec020000af
:10004800ec020000ec020000ec0200006454000026
:1000580026540000ec020000ec020000ec02000054
:10006800ec020000ec020000ec020000ec020000d0
:10007800ec0200008a5b00009a400000f04000009b
:10008800ec020000ec020000ec020000ec020000b0
:100098002e570000ec0200009e550000605500003d
:1000a800ec020000ec020000ec020000ec02000090
:1000b800ec020000523f0000a43f0000f63f0000a1
:1000c80048400000ec020000ec020000ec020000d6
:1000d800ec020000ec020000ec02000050570000a7
:1000e800ec560000ec020000a6460000ec020000fe
:1000f800ec020000ec020000ec020000ec02000040
:10010800ec020000ec020000ec020000ec0200002f
:10011800ec020000ec020000ec020000ec0200001f
:10012800ec020000ec020000ec020000ec0200000f
:10013800ec020000ec020000ec020000ec020000ff
:10014800ec020000ec020000ec020000ec020000ef
:10015800ec020000ec020000ec020000ec020000df
:10016800ec020000ec020000ec020000ec020000cf
:10017800ec020000ec020000ec020000ec020000bf
:10018800ec020000ec020000ec020000ec020000af
:10019800ec020000ec020000ec020000ec0200009f
:1001a800ec020000ec020000ec020000ec0200008f
:1001b800ec020000ec020000ec020000ec0200007f
:1001c800ec020000ec020000ec020000ec0200006f
:1001d800ec020000ec020000ec020000ec0200005f
:1001e800ec020000ec020000ec020000ec0200004f
:0801f800ec020000ec02000023
:020000040000fa
:10020800ec020000ec020000ec020000ec0200002e
:10021800ec020000ec020000ec020000ec0200001e
:10022800ec0200008e3e0000ec0200005e5600006a
:10023800ec020000003f0000ec020000ec020000ad
:10024800ec020000ec020000ec0200006454000024
:1002580026540000ec020000ec020000ec02000052
:10026800ec020000ec020000ec020000ec020000ce
:10027800ec0200008a5b00009a400000f040000099
:10028800ec020000ec020000ec020000ec020000ae
:100298002e570000ec0200009e550000605500003b
:1002a800ec020000ec020000ec020000ec0200008e
:1002b800ec020000523f0000a43f0000f63f00009f
:1002c80048400000ec020000ec020000ec020000d4
:1002d800ec020000ec020000ec02000050570000a5
:1002e800ec560000ec020000a6460000ec020000fc
:1002f800ec020000ec020000ec020000ec0200003e
:10030800ec020000ec020000ec020000ec0200002d
:10031800ec020000ec020000ec020000ec0200001d
:10032800ec020000ec020000ec020000ec0200000d
:10033800ec020000ec020000ec020000ec020000fd
:10034800ec020000ec020000ec020000ec020000ed
:10035800ec020000ec020000ec020000ec020000dd
:10036800ec020000ec020000ec020000ec020000cd
:10037800ec020000ec020000ec020000ec020000bd
:10038800ec020000ec020000ec020000ec020000ad
:10039800ec020000ec020000ec020000ec0200009d
:1003a800ec020000ec020000ec020000ec0200008d
:1003b800ec020000ec020000ec020000ec0200007d
:1003c800ec020000ec020000ec020000ec0200006d
:1003d800ec020000ec020000ec020000ec0200005d
:1003e800ec020000ec020000ec020000ec0200004d
:0803f800ec020000ec02000021
:020000040000fa
:103b880067610000696e000073280000303a000089
:103b9800322900002c200000253500002e330000bb
:103ba800662c000020250000352e0000336600003a
:103bb8002c200000253500002e330000660d000083
:103bc8000a000000256c0000692c0000256900002f
:103bd8002c250000692c0000256900002c25000018
:103be800692c0000256900002c250000692c0000c4
:103bf800256900002c250000692c000025690000bb
:103c08002c250000692c0000256900002c250000e7
:103c1800692c0000256900002c250000692c000093
:103c2800256900002c250000692c0000256900008a
:103c38002c250000692c0000256900000d0a0000f1
:103c4800000d00000a000000484500004152000035
:103c58005442000045410000545f0000485a0000eb
:103c68002c200000544900004c5400005f4b000019
:103c7800502c000020540000494c0000545f000004
:103c88004b4400002c200000544900004c54000014
:103c98005f4b0000444400002c2000005449000001
:103ca8004c5400005f4b0000492c000020590000d4
:103cb800415700005f4b0000502c000020590000c5
:103cc800415700005f4b0000442c000020590000c1
:103cd800415700005f4b0000492c000020410000c4
:103ce80043430000454c00005f4b00000d0a0000f4
:103cf80000250000356900002c2000002535000053
:103d08002e330000662c000020250000352e000010
:103d1800336600002c200000253500002e330000fb
:103d2800662c000020250000352e000033660000b8
:103d38002c200000253500002e330000662c0000e2
:103d480020250000352e0000336600002c200000de
:103d5800253500002e330000662c000020250000c9
:103d6800352e0000336600000d0a00000020000018
:103d780074690000636b00002c2000002020000004
:103d8800723600002c20000020200000723700004e
:103d98002c20000020200000723800002c20000099
:103da80065790000617700002c2000002074000075
:103db800683000002c2000002074000068310000ea
:103dc8002c20000020740000683200002c20000025
:103dd80063790000617700002c200000646800000f
:103de800646700002c2000006579000061770000fe
:103df8002c6d000061670000457800002c6d000004
:103e080061670000457900002c6d000061670000c3
:103e1800457a00002c6d00006167000041780000c1
:103e28002c6d000061670000417900002c6d0000d6
:103e380061670000417a00002c6d00006167000096
:103e4800417300002c6d000061670000427800009b
:103e58002c6d000061670000427900002c6d0000a5
:103e680061670000427a00002c6d00006167000065
:103e78004f7800002c6d0000616700004f7900004a
:103e88002c6d0000616700004f7a00000d0a0000e9
:103e980000670000707300003a200000256c0000e5
:103ea800692c0000256c0000692c0000256c0000be
:103eb800692c0000256c0000692c0000256c0000ae
:103ec800692c0000257500002c250000692c0000d5
:103ed800256900002c250000692c000025690000d8
:103ee8002c250000692c0000256900002c25000005
:103ef800692c0000256900002c250000692c0000b1
:103f0800256900002c250000690d00000a0000004a
:103f1800253500006c6900002c250000356c000078
:103f2800692c000025350000692c000025350000ab
:103f3800692c000025350000692c0000253500009b
:103f4800752c000025350000692c0000253500007f
:103f5800692c000025350000692c0000253500007b
:103f6800692c000025350000752c0000253500005f
:103f7800692c000025350000692c0000253500005b
:103f8800692c000025350000692c0000253500004b
:103f9800692c000025350000692c0000253500003b
:103fa800692c000025350000692c0000253500002b
:103fb800692c000025350000692c0000253500001b
:103fc800692c000025350000692c0000253500000b
:103fd800692c000025350000690d00000a0000006a
:103fe80024500000535200004631000030300000d9
:103ff8002c3000002c310000393200003030000035
:104008002c3800002c3100002c3000002a3300002e
:10401800390d00000a0000000900000086000000b9
:10402800004b000000080000010000000000000034
:10403800d7130000d6130000d9130000d8130000ce
:10404800e1130000e0130000d5130000d4130000b2
:10405800d3130000d2130000c4130000c4130000df
:10406800c4130000c4130000c4130000c4130000ec
:10407800c4130000c4130000c4130000c4130000dc
:10408800c4130000c4130000c9130000c8130000c3
:10409800c7130000c6130000cd130000cc130000a6
:1040a800cb130000ca130000c4130000c41300009f
:1040b800c4130000c4130000d1130000d013000083
:1040c800cf130000ce130000c4130000db13000060
:1040d800da130000dd130000dc130000c413000035
:1040e800c4130000df130000de130000c413000037
:1040f800c4130000c4130000c4130000c41300005c
:10410800c4130000c4130000c4130000c41300004b
:10411800c4130000c4130000c4130000c41300003b
:10412800c4130000c4130000c4130000c41300002b
:10413800c4130000c4130000c4130000c41300001b
:10414800c4130000c4130000c4130000c41300000b
:10415800c4130000c4130000c4130000c4130000fb
:10416800c4130000c4130000c4130000c4130000eb
:10417800c4130000c4130000c4130000c4130000db
:10418800c4130000c4130000c4130000c5130000ca
:10419800e2130000c4130000c4130000c41300009d
:1041a800000000009201000024030000b504000094
:1041b80046060000d607000064090000f10a000066
:1041c8007c0c0000060e00008d0f0000121100008c
:1041d8009412000013140000901500000917000045
:1041e8007e180000ef1900005d1b0000c61c0000cf
:1041f8002b1e00008c1f0000e72000003d2200005d
:104208008e230000da24000020260000602700002a
:104218009a280000ce290000fb2a0000212c00006b
:10422800412d00005a2e00006c2f0000763000004f
:104238007931000074320000683300005334000004
:104248003735000012360000e5360000b0370000b0
:10425800713800002b390000db390000823a000079
:10426800213b0000b63b0000423c0000c53c00007a
:104278003f3d0000af3d0000153e0000723e0000cb
:10428800c53e00000f3f00004f3f0000853f000083
:10429800b13f0000d43f0000ec3f0000fb3f0000ae
:1042a800004000003c00000010200000003c00001e
:1042b80000110000200100003c0000001020000058
:0c42c800020000001f00000001000000c8
:020000040000fa
:1042d4000000fa0060c0b300a6370200000000002e
:1042e4002096880060c0b3009e36020000000000e3
:1042f400309688000080fa00000006000a00fa00e8
:104304002007980031079800420798004e0090005b
:1043140064004000900078003e0090000080e800b7
:10432400100078000180b900008fbe001e01be009d
:104334004e0090000080e800900078003e0090005d
:1043440064004000100078000180b90000005100b2
:1043540081805900008fbe001e00be004209dd00ae
:10436400ce00de00810071004200dd00008fbe003f
:104374009e0090002e009000010878004e009000ee
:10438400900078003e009000640040001000780027
:104394000180b900008fbe001e01be004e009000d7
:1043a40064004000900078003e0090001000780007
:1043b4000180b9000000510081805900008fbe00c7
:1043c4001e00be004209dd00ce00de008100710047
:1043d4004200dd00008fbe002e0090008080e800c7
:1043e4001e009000800878004e0090000080e800d5
:1043f400900078003e009000100078000180b90021
:10440400008fbe001e01be004e0090009000780098
:104414003e0090000080e800100078000180b900a0
:104424000000510081805900008fbe001e00be00b4
:104434004209dd00ce00de00810071004200dd0093
:10444400008fbe002e009000e40040001e0090008b
:10445400800878000080fa00000006000200fa00dc
:10446400009180008080d100f09080000080d10015
:1044740080805000e08f800000805000608b8800b6
:10448400509180008080d100409180000080d10054
:1044940080805000e08f800000805000708b880086
:1044a400a09180008080d100909180000080d10094
:1044b40080805000e08f800000805000808b880056
:1044c400828b8000718b8000608b8000f03a020048
:1044d40000000000008a8800008a80000000d100eb
:1044e400000f78001e00e000240032001e01780056
:1044f400608b8000cf80de00cd09dd00c300de00cc
:10450400818071004d00dd00811f780011000900d9
:104514004208d800cf007800108a88001e01780075
:10452400708b8000cf80de00cd09dd00c300de008b
:10453400818071004d00dd00811f780011000900a9
:104544004208d800cf007800208a88001e01780035
:10455400808b8000cf80de00cd09dd00c300de004b
:10456400818071004d00dd00811f78001100090079
:104574004208d800cf007800308a88000080fa0012
:10458400000006000000fa00009080008080d10046
:10459400109080000080d10000805000e08c8800e2
:1045a400509080008080d100609080000080d10015
:1045b40000805000f08c8800a09080008080d100a2
:1045c400b09080000080d10000805000008d8800f1
:1045d400c21921008114210030002000440c020083
:1045e4000000000000004000208c8800e11421003d
:1045f400c219210030002000440c02000000000019
:104604000000ea0000004000308c880041152100c1
:10461400c219210030002000440c020000000000f8
:10462400000040008000780010832f0000804000cc
:10463400408c88000080fa00000006000a00fa009e
:1046440020079800310798003e0090004300de00e8
:1046540030079800ae0090003e0090000008b900ba
:10466400008fbe001e009000f10f500003003400c4
:104674000000240040079800180037001e00900036
:10468400f10f400003003d0002002c004207980097
:10469400120037001e00be004b09dd004500de009d
:1046a40000007100c588de00008fbe009e00780007
:1046b400303a20000008b900008fbe001e00be0082
:1046c4004509dd00cb00de00810071004500dd00fe
:1046d400008fbe001e009000400798004e0090001e
:1046e4000080fa00000006002a00fa00e317210007
:1046f400c21621006119210030002000ea0b0200db
:1047040000000000831721006219210021172100f5
:1047140030002000ea0b020000000000a313210077
:1047240022172100812c210030002000280c0200d7
:1047340000000000e6004700000024008008980004
:10474400660047008008900066004700410098001a
:1047540066004700c000900066004700010878002a
:1047640041968000409680000181b90051968000f6
:10477400509680000180b900020140008381480006
:1047840061968000609680000180b90002004000bc
:104794008380480010079800210798001e009000ad
:1047a400ae0090004209dd004e00de000000710002
:1047b400ce08de0032002000110009000280d8007b
:1047c4008000780000002400008f400040968000a4
:1047d4001e00b9004209dd004e00de000000710039
:1047e400ce88de0040968800509680001e00b900f6
:1047f4004209dd004e00de0000007100ce88de00bc
:1048040050968800609680001e00b9004209dd00c1
:104814004e00de0000007100ce88de006096880045
:10482400609680008000ea0066004700110098004e
:104834005196800066004700210098006196800030
:104844006600470031009800409680008000ea002e
:104854006600470051009800509680008000ea00ee
:10486400660047006100980041968000660047009a
:104874007100980066004700f80047008002780045
:1048840084142100810178003200200031002000ce
:1048940030002000b20c0200000000007800470045
:1048a400f80047000002780081017800821421009a
:1048b4003100200030002000920c020000000000b3
:1048c4000080fa00000006001600fa00e21421003d
:1048d4008114210030002000440c0200000000007c
:1048e4000000ea00008e8800008e8000e21421009f
:1048f400e40047008001780030002000ce0b020065
:1049040000000000018e8000640047006600400043
:10491400810178008214210080007800300020009a
:10492400ce0b02000000000064014700e4004700d1
:104934008314210030002000ea0b02000000000074
:10494400e21421006400470066024000640047004e
:10495400e600400082017800040178003000200065
:10496400ea0b0200000000006400470066014000fa
:10497400640047006c004000e40047005ffe07004d
:10498400e4004700300020005e0c0200000000003c
:1049940010079800010026001e009000008f5000b0
:1049a40064014700e40047009e01780030002000c5
:1049b400ce0b0200000000006400470064014700c1
:1049c400800178008114210030002000ea0b0200ed
:1049d4000000000064004700e600400030002000b2
:1049e4005e0c020000000000100798000100260081
:1049f4001e009000008f50006400470066014000d4
:104a040064004700e60040009e017800300020006a
:104a1400ce0b02000000000064004700e6014000e5
:104a24006400470066014000e114210030002000ca
:104a3400ea0b02000000000064004700ec004000a4
:104a4400300020005e0c02000000000010079800f7
:104a5400010026001e009000008f500064004700f3
:104a64006c01400064004700ec0040009e017800a7
:104a740030002000ce0b020000000000640047005c
:104a8400ec014000640047006c0140004115210026
:104a940030002000ea0b0200000000000080fa0051
:104aa400000006001c00fa00889fbe00188e8000db
:104ab400298e8000c21921008114210030002000b9
:104ac400440c02000000000000004000cf80de0023
:104ad4000800400089804800108e8800218e8800dc
:104ae400388e8000498e8000e1142100c219210013
:104af40030002000440c02000000000000004000d0
:104b0400cf80de000800400089804800308e880095
:104b1400418e8800588e8000698e800041152100e6
:104b2400c219210030002000440c020000000000e3
:104b340000004000cf80de0008004000898048006b
:104b4400508e8800618e8800a08e80000000e800ee
:104b5400a08e880010a38000700060000000e000b8
:104b640019003a00a88e80006140b9005216020074
:104b740000000000400f9800510f98000800e0006a
:104b840008003d0002002000037824004e08900035
:104b9400de0890000413020000000000400f98009b
:104ba400510f980002002000c33d24004e089000dd
:104bb400de089000f0150200000000000000e00094
:104bc40001003c00a5003700a08e80000000e0003a
:104bd4001c003200a08e800000017800108e80003e
:104be400218e8000811f7800110009004208d8003e
:104bf400cf007800000f7800a08e800000017800bc
:104c0400308e8000418e8000811f780011000900e1
:104c14004208d800cf00780010079800a08e8000ca
:104c240000017800508e8000618e8000811f780022
:104c3400110009004208d800cf007800200798002e
:104c4400060037000000eb00100798001e009000db
:104c5400000f7800f07c200020079800645c0200bc
:104c6400000000000004e0000b003a00ec004700e4
:104c74000000eb00900098006c004700900090004a
:104c84006c00470001087800ec0047000000240095
:104c9400a00098005300370010a38000700060004b
:104ca4000000e00031003200a08e80000001780096
:104cb400a19a8000708e800080805000001920002e
:104cc4000008b900801f7800110009004208d800cc
:104cd400800078004f0078006600470001087800e3
:104ce400a08e800000017800b19a8000808e800040
:104cf40080805000001920000008b900801f78004f
:104d0400110009004208d800800078004f007800a4
:104d14006600470011009800a08e80000001780012
:104d2400c19a8000908e800080805000001920007d
:104d34000008b900801f7800110009004208d8005b
:104d4400800078004f00780066004700210098003a
:104d5400a09a8000708e8800b09a8000808e8800af
:104d6400c09a8000908e88000b003700e600470050
:104d74000000eb00a000980066004700a00090002f
:104d840066004700110098006600470090009000fc
:104d9400660047000108780066004700900078002c
:104da4006c0047000108780066004700100090007e
:104db4008000ea006c00470011009800660047007c
:104dc40020009000513d2000808040006c0047008e
:104dd40021009800ec0047006c0047007c3b020077
:104de400000000006c014700720047008e0078004c
:104df40042fd0700f20047000000eb00a00098000d
:104e0400720047008514210000027800e31a210093
:104e1400320020003100200010002000b20c0200fb
:104e2400000000006000b800508e8800618e880089
:104e3400508e8000618e8000308e8800418e880004
:104e4400308e8000418e8000108e8800218e880074
:104e54000000eb00a08e88006294a9004f04be00fd
:104e64000080fa00000006000000fa0010a3800091
:104e740001402000010060000000e0001800320042
:104e8400219b800060092000808f50000d003600b7
:104e9400221a2100811a2100401b210017fd07005e
:104ea40085142100441b2100a31b21003200200093
:104eb4003100200010002000b20c020000000000ad
:104ec400060037000000eb00f08d8800f08d8000b4
:104ed400e08d8800e08d8000d08d88006354a900a7
:104ee4000080fa00000006000a00fa00209f8000fb
:104ef40030079800309f8000400798006600470004
:104f04001e3802000000000080407800a0cbb300ef
:104f140000c04000404798004e409000a637020071
:104f240000000000100798004e4090009e360200da
:104f340000000000000f78001e009000808a8800a6
:104f4400808a8000408a88001e007800508a880089
:104f54001e00ea00708a88000080fa000000060043
:104f64001800fa00200f9800310f98003e089000b6
:104f740010007800c380de006e004700010878004e
:104f84003e0890000080e80010007800c380de0036
:104f94006e004700110098003e0890006400400035
:104fa40010007800c380de006e00470021009800e6
:104fb4006e014700ae08900030002000440c02004f
:104fc400000000000000ea00300798002e0890005e
:104fd40066004000100078006e014700e8004700ba
:104fe4008001780030002000ce0b02000000000099
:104ff40068004700800178002e099000ae089000f8
:1050040030002000ea0b0200000000002e0890008f
:10501400660140002e089000660040009000780071
:105024003e00900000804000000978002e089000a7
:10503400900078002e089000100078000181b900db
:105044002e0890000080e800900078002e08900060
:105054000080e800100078000180b90002014000df
:10506400838148002e08900064004000900078007e
:105074002e08900064004000100078000180b90000
:1050840002014000838148002e0890006600400021
:10509400900078002e089000660040001000780010
:1050a4000180b90002004000838048001007980086
:1050b400210798001e009000ae009000183a0200ec
:1050c40000000000000f78001e0178002e089000f8
:1050d40090007800000024000008b900801f7800c8
:1050e400110009004208d800800078004f007800c1
:1050f4002e089000010878002e0890000081e80036
:105104009e0178002e0890000080e800900078004e
:10511400000024000008b900811f78001100090074
:105124004308d800cf007800000978002e089000ca
:10513400640140009e0178002e0890006400400045
:1051440090007800000024000008b900811f780056
:10515400110009004308d800cf0078000009780046
:105164002e089000660140009e0178002e089000f1
:105174006600400090007800000024000008b90098
:10518400811f7800110009004308d800cf0078007f
:10519400000978000080fa00000006001400fa00fc
:1051a400000f9800110f98006000b8006007980085
:1051b400710798001e089000660040009000780077
:1051c400110798000000eb00000f7800140037006e
:1051d4006e019000fe0190001e0078000000400067
:1051e400800078001e0890000080400010027800c3
:1051f4001e00780000004000800078001e08900027
:1052040000804000100078000480b90002004000d3
:105214008380480060079800710798001e0fe8001b
:10522400220020009e0f1100e9ff34006e0190005f
:10523400fe019000f0ff2f00f1ff2000800f5100cd
:10524400818f590004003400f0ff2f00f1ff20008b
:1052540060079800710798006e009000fe009000af
:105264004309dd00cd00de00810071004300dd0054
:105274006007980071079800fe0090000000240069
:105284000100500020079800e60047009e019000ae
:105294001e09900030002000ce0b02000000000028
:1052a4000000eb00000f78000a0037009e01780030
:1052b4001e007800e600470000004000610078000e
:1052c4004201dd00e600470003804100823078009f
:1052d4001e0fe800200020009e0f1000f3ff340092
:1052e4009e0a90001e0a90008e0990003200200051
:1052f4001100200030002000b20c02000000000069
:105304000000eb00000f78000e0037001e0078004c
:1053140000004000800078000e08900000814000ea
:105324001e00780000004000800078000e08900005
:1053340000804000100078004200dd000009780081
:105344001e0fe800810020009e8f1000efff340044
:105354000e089000900078002e009000808040009d
:105364000e089000010878000e08900068014000c3
:105374000e08900068004000900078002e00900015
:1053840000804000000978000e0890007001400081
:105394000e08900070004000900078002e009000ed
:1053a40000804000000978000e0890000081e800a9
:1053b4000e0890000080e800900078006600470026
:1053c4002000900000805000000978000e08900032
:1053d400640140000e0890006400400090007800d2
:1053e400660047001000900000804000000978002b
:1053f4000e089000660140000e0890006600400010
:105404009000780066004700200090000080400073
:10541400000978000e0890006a0140000e08900010
:105424006a00400090007800660047001000780091
:1054340000805000000978000e0890006c014000c4
:105444000e0890006c004000900078006600470051
:105454001000900000805000000978000e089000b1
:105464006e0140000e0890006e004000900078002d
:1054740066004700100078000080400000097800b2
:105484000080fa00000006006800fa00f08e800038
:105494000000e900f08e8800f08e80000000e0003b
:1054a4000b003a0090a08000a1a080000096880024
:1054b4001196880082142100a1152100900020007b
:1054c400c20b02000000000040062000f08e88009d
:1054d40010a3800001202000010060000000e00013
:1054e4005b013200429f8000319f8000209f80003a
:1054f400f03a020000000000000f7800c10520000f
:105504008e804000832e2100423e21003000200086
:10551400080c020000000000c10520008e8040003d
:10552400c00520000e0040007c3b0200000000008b
:10553400309780001e001000c20520000e014100bb
:10554400210620008e804000800178003000200079
:10555400ce0b020000000000423e2100812e2100fb
:1055640030002000c20b0200000000001e00780082
:1055740030978800200320000e004000611d2100a8
:1055840006ff0700210320008e804000423e2100d8
:1055940030002000440c0200000000000000400025
:1055a40080007800c00520000e004000010878004b
:1055b400200320000e004000e6004000423e21008f
:1055c40030002000440c02000000000000004000f5
:1055d40080007800c00520000e00400011009800f3
:1055e400200320000e004000ec004000423e210059
:1055f40030002000440c02000000000000004000c5
:1056040080007800c00520000e00400021009800b2
:10561400c20520000e014100413e2100300020005f
:10562400c20b02000000000011a380000010200043
:10563400008060000000e0000a0032002afe07003b
:1056440090a08000a1a08000009688001196880098
:1056540082142100a115210090002000c20b020039
:105664000000000020042000f08e8800423e21004b
:10567400a115210030002000440c020000000000ad
:1056840000004000d095880001162100423e210010
:1056940030002000440c0200000000000000400024
:1056a400e095880061162100423e21003000200070
:1056b400440c02000000000000004000f095880047
:1056c40064004700a12b21007c3b02000000000085
:1056d4006a004700a12b21001c3b020000000000cf
:1056e400ea004700422c210020002000440c020064
:1056f4000000000010079800421521009e01900050
:10570400a11b210030002000ce0b0200000000008d
:10571400640147006e004700012e2100f7fa0700dc
:1057240074014700a315210031002000300020003f
:10573400760c0200000000007400470021032000e2
:105744008e804000e52c2100000278008101780061
:10575400320020003100200030002000b20c020092
:1057640000000000200320000e004000f000900024
:10577400200320000e004000500090008080500064
:10578400600220000e004000010878002003200081
:105794000e004000a0009000200320000e004000f6
:1057a4006000900080805000600220000e004000e5
:1057b40011009800200320000e004000b00090006b
:1057c400200320000e004000100090008080500054
:1057d400600220000e0040002100980021032000f8
:1057e4008e8040000000eb00800898002003200019
:1057f4000e00400080089000200320000e004000ae
:1058040041009800200320000e004000c0009000da
:10581400200320000e004000010878006e004700bd
:1058240090007800200320000e00400071009800d2
:105834006e004700100078008000ea00200320007a
:105844000e004000510098006e0047009000900048
:10585400200320000e004000210098006e00470045
:10586400100090008000ea00200320000e00400099
:10587400610098006e004700a00090002003200003
:105884000e004000310098006e0047002000900098
:105894008000ea00200320000e0040001100980060
:1058a400200320000e004000410420008e804000b0
:1058b400a515210000027800810178003200200043
:1058c4003100200030002000b20c02000000000073
:1058d400400420000e004000f40047002203200092
:1058e4000e014100800278000102780082017800f4
:1058f400320020003100200030002000b20c0200f1
:1059040000000000200320000e004000f000900082
:10591400200320000e0040005000900080805000c2
:10592400c00220000e00400001087800200320007f
:105934000e004000a0009000200320000e00400054
:105944006000900080805000c00220000e004000e3
:1059540011009800200320000e004000b0009000c9
:10596400200320000e0040001000900080805000b2
:10597400c00220000e0040002100980062022000b6
:105984000e014100c10220008e804000600520000d
:105994000e00400059fa070011a3800000102000f7
:1059a400008060000000e0001d003a00f19c8000cf
:1059b400200620000e004000100078000080e8005f
:1059c4004280de0000804000f09c8800019d800041
:1059d400200620000e004000100090000080e80027
:1059e4004280de0000804000009d8800119d800000
:1059f400200620000e004000200090000080e800f7
:105a04004280de0000804000109d88006105200077
:105a14008e804000601d210051fd07000100370009
:105a24006314a90064014700012e21003000200006
:105a3400c20b020000000000a2152100e12c21008d
